{"contracts/ReFiMedLendUpgradeable.sol":{"ReFiMedLendUpgradeable":{"abi":[{"inputs":[],"name":"AccessControlBadConfirmation","type":"error"},{"inputs":[{"internalType":"address","name":"account","type":"address"},{"internalType":"bytes32","name":"neededRole","type":"bytes32"}],"name":"AccessControlUnauthorizedAccount","type":"error"},{"inputs":[{"internalType":"address","name":"target","type":"address"}],"name":"AddressEmptyCode","type":"error"},{"inputs":[{"internalType":"address","name":"implementation","type":"address"}],"name":"ERC1967InvalidImplementation","type":"error"},{"inputs":[],"name":"ERC1967NonPayable","type":"error"},{"inputs":[],"name":"EnforcedPause","type":"error"},{"inputs":[],"name":"ExpectedPause","type":"error"},{"inputs":[],"name":"FailedInnerCall","type":"error"},{"inputs":[],"name":"InvalidInitialization","type":"error"},{"inputs":[],"name":"NotInitializing","type":"error"},{"inputs":[{"internalType":"address","name":"owner","type":"address"}],"name":"OwnableInvalidOwner","type":"error"},{"inputs":[{"internalType":"address","name":"account","type":"address"}],"name":"OwnableUnauthorizedAccount","type":"error"},{"inputs":[],"name":"UUPSUnauthorizedCallContext","type":"error"},{"inputs":[{"internalType":"bytes32","name":"slot","type":"bytes32"}],"name":"UUPSUnsupportedProxiableUUID","type":"error"},{"inputs":[],"name":"UnavailableAmount","type":"error"},{"anonymous":false,"inputs":[{"indexed":true,"internalType":"address","name":"debtor","type":"address"},{"indexed":false,"internalType":"uint256","name":"amount","type":"uint256"},{"indexed":false,"internalType":"uint256","name":"interests","type":"uint256"},{"indexed":true,"internalType":"address","name":"token","type":"address"},{"indexed":false,"internalType":"uint8","name":"decimals","type":"uint8"},{"indexed":false,"internalType":"uint256","name":"nonce","type":"uint256"}],"name":"Debt","type":"event"},{"anonymous":false,"inputs":[{"indexed":true,"internalType":"address","name":"funder","type":"address"},{"indexed":false,"internalType":"uint256","name":"amount","type":"uint256"},{"indexed":true,"internalType":"address","name":"token","type":"address"},{"indexed":false,"internalType":"uint8","name":"decimals","type":"uint8"}],"name":"Funded","type":"event"},{"anonymous":false,"inputs":[{"indexed":false,"internalType":"uint64","name":"version","type":"uint64"}],"name":"Initialized","type":"event"},{"anonymous":false,"inputs":[{"indexed":true,"internalType":"address","name":"lender","type":"address"},{"indexed":false,"internalType":"uint256","name":"amount","type":"uint256"},{"indexed":true,"internalType":"address","name":"token","type":"address"},{"indexed":false,"internalType":"uint8","name":"decimals","type":"uint8"},{"indexed":false,"internalType":"uint256","name":"nonce","type":"uint256"}],"name":"LendRepaid","type":"event"},{"anonymous":false,"inputs":[{"indexed":true,"internalType":"address","name":"lender","type":"address"},{"indexed":false,"internalType":"uint256","name":"amount","type":"uint256"},{"indexed":true,"internalType":"address","name":"token","type":"address"},{"indexed":false,"internalType":"uint8","name":"decimals","type":"uint8"},{"indexed":false,"internalType":"uint256","name":"paymentDue","type":"uint256"},{"indexed":false,"internalType":"uint256","name":"nonce","type":"uint256"}],"name":"Lending","type":"event"},{"anonymous":false,"inputs":[{"indexed":true,"internalType":"address","name":"previousOwner","type":"address"},{"indexed":true,"internalType":"address","name":"newOwner","type":"address"}],"name":"OwnershipTransferred","type":"event"},{"anonymous":false,"inputs":[{"indexed":false,"internalType":"address","name":"account","type":"address"}],"name":"Paused","type":"event"},{"anonymous":false,"inputs":[{"indexed":true,"internalType":"bytes32","name":"role","type":"bytes32"},{"indexed":true,"internalType":"bytes32","name":"previousAdminRole","type":"bytes32"},{"indexed":true,"internalType":"bytes32","name":"newAdminRole","type":"bytes32"}],"name":"RoleAdminChanged","type":"event"},{"anonymous":false,"inputs":[{"indexed":true,"internalType":"bytes32","name":"role","type":"bytes32"},{"indexed":true,"internalType":"address","name":"account","type":"address"},{"indexed":true,"internalType":"address","name":"sender","type":"address"}],"name":"RoleGranted","type":"event"},{"anonymous":false,"inputs":[{"indexed":true,"internalType":"bytes32","name":"role","type":"bytes32"},{"indexed":true,"internalType":"address","name":"account","type":"address"},{"indexed":true,"internalType":"address","name":"sender","type":"address"}],"name":"RoleRevoked","type":"event"},{"anonymous":false,"inputs":[{"indexed":true,"internalType":"address","name":"tokenAddress","type":"address"},{"indexed":false,"internalType":"string","name":"symbol","type":"string"},{"indexed":false,"internalType":"string","name":"name","type":"string"}],"name":"TokenAdded","type":"event"},{"anonymous":false,"inputs":[{"indexed":false,"internalType":"address","name":"account","type":"address"}],"name":"Unpaused","type":"event"},{"anonymous":false,"inputs":[{"indexed":true,"internalType":"address","name":"implementation","type":"address"}],"name":"Upgraded","type":"event"},{"anonymous":false,"inputs":[{"indexed":true,"internalType":"address","name":"caller","type":"address"},{"indexed":true,"internalType":"address","name":"recipent","type":"address"},{"indexed":false,"internalType":"uint256","name":"amount","type":"uint256"}],"name":"UserQuotaChanged","type":"event"},{"anonymous":false,"inputs":[{"indexed":true,"internalType":"address","name":"caller","type":"address"},{"indexed":true,"internalType":"uint16","name":"index","type":"uint16"},{"indexed":true,"internalType":"address","name":"recipent","type":"address"},{"indexed":false,"internalType":"uint256","name":"amount","type":"uint256"},{"indexed":false,"internalType":"address[]","name":"signers","type":"address[]"}],"name":"UserQuotaIncreaseRequest","type":"event"},{"anonymous":false,"inputs":[{"indexed":true,"internalType":"address","name":"signer","type":"address"},{"indexed":true,"internalType":"uint16","name":"index","type":"uint16"},{"indexed":true,"internalType":"address","name":"recipent","type":"address"},{"indexed":false,"internalType":"uint256","name":"amount","type":"uint256"}],"name":"UserQuotaSigned","type":"event"},{"anonymous":false,"inputs":[{"indexed":true,"internalType":"address","name":"withdrawer","type":"address"},{"indexed":false,"internalType":"uint256","name":"amount","type":"uint256"},{"indexed":false,"internalType":"uint256","name":"interests","type":"uint256"},{"indexed":true,"internalType":"address","name":"token","type":"address"},{"indexed":false,"internalType":"uint8","name":"decimals","type":"uint8"}],"name":"Withdraw","type":"event"},{"inputs":[],"name":"DEFAULT_ADMIN_ROLE","outputs":[{"internalType":"bytes32","name":"","type":"bytes32"}],"stateMutability":"view","type":"function"},{"inputs":[],"name":"INTEREST_RATE_PER_DAY","outputs":[{"internalType":"uint256","name":"","type":"uint256"}],"stateMutability":"view","type":"function"},{"inputs":[],"name":"UPGRADE_INTERFACE_VERSION","outputs":[{"internalType":"string","name":"","type":"string"}],"stateMutability":"view","type":"function"},{"inputs":[{"internalType":"address","name":"tokenAddress","type":"address"}],"name":"addToken","outputs":[],"stateMutability":"nonpayable","type":"function"},{"inputs":[{"internalType":"uint256","name":"lendIndex","type":"uint256"}],"name":"calculateInterests","outputs":[{"internalType":"uint256","name":"interests","type":"uint256"},{"internalType":"uint256","name":"totalDebt","type":"uint256"}],"stateMutability":"view","type":"function"},{"inputs":[{"internalType":"address","name":"recipent","type":"address"},{"internalType":"uint256","name":"amount","type":"uint256"}],"name":"decreaseQuota","outputs":[],"stateMutability":"nonpayable","type":"function"},{"inputs":[{"internalType":"uint256","name":"amount","type":"uint256"},{"internalType":"address","name":"token","type":"address"}],"name":"fund","outputs":[],"stateMutability":"nonpayable","type":"function"},{"inputs":[],"name":"funds","outputs":[{"internalType":"uint256","name":"totalFunds","type":"uint256"},{"internalType":"uint256","name":"interests","type":"uint256"},{"internalType":"uint256","name":"totalInterestShares","type":"uint256"},{"internalType":"uint256","name":"interestPerShare","type":"uint256"}],"stateMutability":"view","type":"function"},{"inputs":[{"internalType":"bytes32","name":"role","type":"bytes32"}],"name":"getRoleAdmin","outputs":[{"internalType":"bytes32","name":"","type":"bytes32"}],"stateMutability":"view","type":"function"},{"inputs":[{"internalType":"address","name":"token","type":"address"}],"name":"getSpareFunds","outputs":[],"stateMutability":"nonpayable","type":"function"},{"inputs":[{"internalType":"address","name":"userAddress","type":"address"},{"internalType":"uint256","name":"page","type":"uint256"},{"internalType":"uint256","name":"pageSize","type":"uint256"}],"name":"getUserLendsPaginated","outputs":[{"components":[{"internalType":"uint256","name":"initialAmount","type":"uint256"},{"internalType":"uint256","name":"currentAmount","type":"uint256"},{"internalType":"address","name":"token","type":"address"},{"internalType":"uint256","name":"expectPaymentDue","type":"uint256"},{"internalType":"uint256","name":"latestDebtTimestamp","type":"uint256"},{"internalType":"uint256","name":"nonce","type":"uint256"}],"internalType":"struct ReFiMedLendUpgradeable.Lend[]","name":"","type":"tuple[]"}],"stateMutability":"view","type":"function"},{"inputs":[{"internalType":"address","name":"userAddress","type":"address"},{"internalType":"uint256","name":"page","type":"uint256"},{"internalType":"uint256","name":"pageSize","type":"uint256"}],"name":"getUserQuotaRequests","outputs":[{"components":[{"internalType":"uint256","name":"amount","type":"uint256"},{"internalType":"uint8","name":"successfulSigns","type":"uint8"},{"internalType":"address[]","name":"signers","type":"address[]"},{"internalType":"address[]","name":"signedBy","type":"address[]"}],"internalType":"struct ReFiMedLendUpgradeable.UserQuotaRequest[]","name":"","type":"tuple[]"}],"stateMutability":"view","type":"function"},{"inputs":[{"internalType":"bytes32","name":"role","type":"bytes32"},{"internalType":"address","name":"account","type":"address"}],"name":"grantRole","outputs":[],"stateMutability":"nonpayable","type":"function"},{"inputs":[{"internalType":"bytes32","name":"role","type":"bytes32"},{"internalType":"address","name":"account","type":"address"}],"name":"hasRole","outputs":[{"internalType":"bool","name":"","type":"bool"}],"stateMutability":"view","type":"function"},{"inputs":[{"internalType":"address","name":"recipent","type":"address"},{"internalType":"uint16","name":"index","type":"uint16"},{"internalType":"address","name":"caller","type":"address"},{"internalType":"uint256","name":"amount","type":"uint256"}],"name":"increaseQuota","outputs":[{"internalType":"bool","name":"","type":"bool"}],"stateMutability":"nonpayable","type":"function"},{"inputs":[{"internalType":"address","name":"_attestationResolver","type":"address"},{"internalType":"address","name":"multisig","type":"address"},{"internalType":"address","name":"admin","type":"address"}],"name":"initialize","outputs":[],"stateMutability":"nonpayable","type":"function"},{"inputs":[],"name":"owner","outputs":[{"internalType":"address","name":"","type":"address"}],"stateMutability":"view","type":"function"},{"inputs":[],"name":"paused","outputs":[{"internalType":"bool","name":"","type":"bool"}],"stateMutability":"view","type":"function"},{"inputs":[{"internalType":"uint256","name":"amount","type":"uint256"},{"internalType":"address","name":"token","type":"address"},{"internalType":"uint256","name":"lendIndex","type":"uint256"}],"name":"payDebt","outputs":[],"stateMutability":"nonpayable","type":"function"},{"inputs":[],"name":"proxiableUUID","outputs":[{"internalType":"bytes32","name":"","type":"bytes32"}],"stateMutability":"view","type":"function"},{"inputs":[{"internalType":"address","name":"tokenAddress","type":"address"}],"name":"removeToken","outputs":[],"stateMutability":"nonpayable","type":"function"},{"inputs":[],"name":"renounceOwnership","outputs":[],"stateMutability":"nonpayable","type":"function"},{"inputs":[{"internalType":"bytes32","name":"role","type":"bytes32"},{"internalType":"address","name":"callerConfirmation","type":"address"}],"name":"renounceRole","outputs":[],"stateMutability":"nonpayable","type":"function"},{"inputs":[{"internalType":"address","name":"recipent","type":"address"},{"internalType":"uint256","name":"amount","type":"uint256"},{"internalType":"address[]","name":"signers","type":"address[]"}],"name":"requestIncreaseQuota","outputs":[],"stateMutability":"nonpayable","type":"function"},{"inputs":[{"internalType":"uint256","name":"amount","type":"uint256"},{"internalType":"address","name":"token","type":"address"},{"internalType":"uint256","name":"paymentDue","type":"uint256"}],"name":"requestLend","outputs":[],"stateMutability":"nonpayable","type":"function"},{"inputs":[{"internalType":"bytes32","name":"role","type":"bytes32"},{"internalType":"address","name":"account","type":"address"}],"name":"revokeRole","outputs":[],"stateMutability":"nonpayable","type":"function"},{"inputs":[{"internalType":"uint256","name":"interestRate","type":"uint256"}],"name":"setInterestPerDay","outputs":[],"stateMutability":"nonpayable","type":"function"},{"inputs":[{"internalType":"bytes4","name":"interfaceId","type":"bytes4"}],"name":"supportsInterface","outputs":[{"internalType":"bool","name":"","type":"bool"}],"stateMutability":"view","type":"function"},{"inputs":[{"internalType":"address","name":"newAdmin","type":"address"}],"name":"transferAdmin","outputs":[],"stateMutability":"nonpayable","type":"function"},{"inputs":[{"internalType":"address","name":"newOwner","type":"address"}],"name":"transferOwnership","outputs":[],"stateMutability":"nonpayable","type":"function"},{"inputs":[{"internalType":"address","name":"newImplementation","type":"address"},{"internalType":"bytes","name":"data","type":"bytes"}],"name":"upgradeToAndCall","outputs":[],"stateMutability":"payable","type":"function"},{"inputs":[{"internalType":"address","name":"","type":"address"}],"name":"user","outputs":[{"internalType":"uint256","name":"quota","type":"uint256"},{"internalType":"uint256","name":"currentFund","type":"uint256"},{"internalType":"uint256","name":"interestShares","type":"uint256"},{"internalType":"uint256","name":"lastFund","type":"uint256"}],"stateMutability":"view","type":"function"},{"inputs":[{"internalType":"uint256","name":"amount","type":"uint256"},{"internalType":"address","name":"token","type":"address"}],"name":"withdraw","outputs":[],"stateMutability":"nonpayable","type":"function"},{"inputs":[{"internalType":"uint256","name":"amount","type":"uint256"},{"internalType":"address","name":"token","type":"address"}],"name":"withdrawWithoutInterests","outputs":[],"stateMutability":"nonpayable","type":"function"}],"evm":{"bytecode":{"linkReferences":{"library/LendManagerUtils.sol":{"LendManagerUtils":[{"length":20,"start":3519},{"length":20,"start":8256}]}},"object":"60a06040523060805234801561001457600080fd5b5060805161445a61003e600039600081816134bc015281816134e50152613626015261445a6000f3fe6080604052600436106101f85760003560e01c806381e7e20e1161010d578063c0c53b8b116100a0578063d7d9f9ec1161006f578063d7d9f9ec1461064f578063e0e713dd1461066f578063eee923951461069c578063f1400062146106bc578063f2fde38b146106dc57600080fd5b8063c0c53b8b146105cc578063c89f2ce4146105ec578063d48bfca71461060f578063d547741f1461062f57600080fd5b8063969f9efa116100dc578063969f9efa146105435780639ebb411214610559578063a217fddf14610579578063ad3cb1cc1461058e57600080fd5b806381e7e20e1461044b57806387373fc1146104af5780638da5cb5b146104dc57806391d148541461052357600080fd5b80634f1ef2861161019057806361e576b81161015f57806361e576b8146103b65780636e99700a146103d6578063715018a6146103f657806375829def1461040b57806381d945d21461042b57600080fd5b80634f1ef2861461033757806352d1902d1461034a5780635c975abb1461035f5780635fa7b5841461039657600080fd5b80632f2ff15d116101cc5780632f2ff15d146102a257806336568abe146102c25780633ead66c8146102e2578063435e02831461030257600080fd5b8062f714ce146101fd57806301ffc9a71461021f5780631031f4f914610254578063248a9ca314610274575b600080fd5b34801561020957600080fd5b5061021d610218366004613ad8565b6106fc565b005b34801561022b57600080fd5b5061023f61023a366004613b04565b610a21565b60405190151581526020015b60405180910390f35b34801561026057600080fd5b5061021d61026f366004613b2e565b610a58565b34801561028057600080fd5b5061029461028f366004613b2e565b610a85565b60405190815260200161024b565b3480156102ae57600080fd5b5061021d6102bd366004613ad8565b610aa7565b3480156102ce57600080fd5b5061021d6102dd366004613ad8565b610ac9565b3480156102ee57600080fd5b5061021d6102fd366004613b47565b610b01565b34801561030e57600080fd5b5061032261031d366004613b2e565b610d04565b6040805192835260208301919091520161024b565b61021d610345366004613bd1565b610ded565b34801561035657600080fd5b50610294610e08565b34801561036b57600080fd5b507fcd5ed15c6e187e77e9aee88184c21f4f2182ab5827cb3b7e07fbedcd63f033005460ff1661023f565b3480156103a257600080fd5b5061021d6103b1366004613b47565b610e25565b3480156103c257600080fd5b5061021d6103d1366004613c62565b610e6e565b3480156103e257600080fd5b5061021d6103f1366004613c8c565b610f93565b34801561040257600080fd5b5061021d611377565b34801561041757600080fd5b5061021d610426366004613b47565b61138b565b34801561043757600080fd5b5061021d610446366004613cc1565b6113cc565b34801561045757600080fd5b5061048f610466366004613b47565b600560208190526000918252604090912080546003820154600483015492909301549092919084565b60408051948552602085019390935291830152606082015260800161024b565b3480156104bb57600080fd5b506104cf6104ca366004613d4b565b61181b565b60405161024b9190613d7e565b3480156104e857600080fd5b507f9016d09d72d40fdae2fd8ceac6b6234c7706214fd39c1cd1e609a0528c199300546040516001600160a01b03909116815260200161024b565b34801561052f57600080fd5b5061023f61053e366004613ad8565b611a7b565b34801561054f57600080fd5b5061029460025481565b34801561056557600080fd5b5061021d610574366004613ad8565b611ab3565b34801561058557600080fd5b50610294600081565b34801561059a57600080fd5b506105bf604051806040016040528060058152602001640352e302e360dc1b81525081565b60405161024b9190613e4f565b3480156105d857600080fd5b5061021d6105e7366004613e62565b611c70565b3480156105f857600080fd5b50600854600954600a54600b5461048f9392919084565b34801561061b57600080fd5b5061021d61062a366004613b47565b611dfb565b34801561063b57600080fd5b5061021d61064a366004613ad8565b611f66565b34801561065b57600080fd5b5061021d61066a366004613c8c565b611f82565b34801561067b57600080fd5b5061068f61068a366004613d4b565b61250c565b60405161024b9190613ee9565b3480156106a857600080fd5b5061021d6106b7366004613ad8565b6127e3565b3480156106c857600080fd5b5061023f6106d7366004613f88565b612b41565b3480156106e857600080fd5b5061021d6106f7366004613b47565b612f24565b6000816001600160a01b031663313ce5676040518163ffffffff1660e01b8152600401602060405180830381865afa15801561073c573d6000803e3d6000fd5b505050506040513d601f19601f820116820180604052508101906107609190613fdc565b90506000600354846107729190614015565b336000908152600560205260409020600a5491925090156107b357600a546009546107a590670de0b6b3a7640000614015565b6107af9190614042565b600b555b600581015460006107c48242612f62565b905060b481101561083b5760405162461bcd60e51b815260206004820152603660248201527f5468652075736572206d7573742077616974206174206c6561737420313830206044820152756461797320746f2077697468647261772066756e647360501b60648201526084015b60405180910390fd5b83836003015410156108825760405162461bcd60e51b815260206004820152601060248201526f496e7375666963656e742066756e647360801b6044820152606401610832565b3360009081526006602090815260408083206001600160a01b038a1684529091529020548411156108f55760405162461bcd60e51b815260206004820152601a60248201527f496e73756666696369656e7420746f6b656e2062616c616e63650000000000006044820152606401610832565b3360009081526006602090815260408083206001600160a01b038a16845290915281208054869290610928908490614056565b90915550506003830154600090670de0b6b3a7640000906109499082614015565b61095b87670de0b6b3a7640000614015565b600487015461097290670de0b6b3a7640000614015565b61097c9190614015565b6109869190614042565b6109909190614042565b90506000670de0b6b3a7640000600860030154836109ae9190614015565b6109b89190614042565b905081600860020160008282546109cf9190614056565b92505081905550818560040160008282546109ea9190614056565b909155505060098054829190600090610a04908490614056565b90915550610a16905089828a8a612ff8565b505050505050505050565b60006001600160e01b03198216637965db0b60e01b1480610a5257506301ffc9a760e01b6001600160e01b03198316145b92915050565b610a6460015433611a7b565b610a805760405162461bcd60e51b815260040161083290614069565b600255565b6000908152600080516020614405833981519152602052604090206001015490565b610ab082610a85565b610ab981613386565b610ac38383613390565b50505050565b6001600160a01b0381163314610af25760405163334bd91960e11b815260040160405180910390fd5b610afc8282613435565b505050565b610b0d60015433611a7b565b610b295760405162461bcd60e51b815260040161083290614069565b6040516370a0823160e01b81523060048201526000906001600160a01b038316906370a0823190602401602060405180830381865afa158015610b70573d6000803e3d6000fd5b505050506040513d601f19601f82011682018060405250810190610b949190614099565b60085490915015610be75760405162461bcd60e51b815260206004820152601960248201527f54686520746f74616c2066756e6473206d7573742062652030000000000000006044820152606401610832565b60008111610c435760405162461bcd60e51b815260206004820152602360248201527f5468652062616c616e6365206d7573742062652067726561746865722074686160448201526206e20360ec1b6064820152608401610832565b60405163a9059cbb60e01b8152336004820152602481018290526001600160a01b0383169063a9059cbb906044016020604051808303816000875af1158015610c90573d6000803e3d6000fd5b505050506040513d601f19601f82011682018060405250810190610cb491906140b2565b610d005760405162461bcd60e51b815260206004820152601d60248201527f4572726f72207768696c65207472616e73666572696e672066756e64730000006044820152606401610832565b5050565b336000908152600560205260408120600181018054839291839186908110610d2e57610d2e6140d4565b906000526020600020906006020190506000610d4e826004015442612f62565b60025460018401546040516301786f6360e21b81526004810184905260248101929092526044820152909150600090819073__$d91b156d91b8441e2a498d94550346ea7a$__906305e1bd8c906064016040805180830381865af4158015610dba573d6000803e3d6000fd5b505050506040513d601f19601f82011682018060405250810190610dde91906140ea565b90999098509650505050505050565b610df56134b1565b610dfe82613556565b610d00828261355e565b6000610e1261361b565b506000805160206143e583398151915290565b610e3160015433611a7b565b610e4d5760405162461bcd60e51b815260040161083290614069565b6001600160a01b03166000908152600760205260409020805460ff19169055565b610e76613664565b610e8260015433611a7b565b610e9e5760405162461bcd60e51b815260040161083290614069565b600060035482610eae9190614015565b6001600160a01b038416600090815260056020526040902054909150811115610f0c5760405162461bcd60e51b815260206004820152601060248201526f496e7375666963656e742071756f746160801b6044820152606401610832565b6001600160a01b03831660009081526005602052604081208054839290610f34908490614056565b90915550506001600160a01b0383166000818152600560205260409081902054905133917f986757b5f72e5258de572c036a9155b7f6fce0df14ffd1fa633617f668137a3991610f8691815260200190565b60405180910390a3505050565b610f9b613664565b336000908152600560205260408120600354909190610fba9086614015565b905080826000015410156110295760405162461bcd60e51b815260206004820152603060248201527f546865207573657220686173206c6573732071756f7461207468616e2074686560448201526f081c995c5d5a5c995908185b5bdd5b9d60821b6064820152608401610832565b6000846001600160a01b031663313ce5676040518163ffffffff1660e01b8152600401602060405180830381865afa158015611069573d6000803e3d6000fd5b505050506040513d601f19601f8201168201806040525081019061108d9190613fdc565b905060008160ff16116110b25760405162461bcd60e51b81526004016108329061410e565b6040516370a0823160e01b81523060048201526000906001600160a01b038716906370a0823190602401602060405180830381865afa1580156110f9573d6000803e3d6000fd5b505050506040513d601f19601f8201168201806040525081019061111d9190614099565b905061112a82600a614229565b6111349088614015565b81101561117a5760405162461bcd60e51b8152602060048201526014602482015273496e7375666963656e74206c697175696469747960601b6044820152606401610832565b60006111846136a7565b6040805160c08101825286815260208082018881526001600160a01b038c8116948401948552606084018c8152426080860190815260a0860188815260018e81018054808301825560009182529781209851600690980290980196875594519486019490945595516002850180546001600160a01b031916919093161790915551600383015592516004820155915160059092019190915586549192508591879190611231908490614056565b90915550506001600160a01b03871663a9059cbb3361125186600a614229565b61125b908c614015565b6040516001600160e01b031960e085901b1681526001600160a01b03909216600483015260248201526044016020604051808303816000875af11580156112a6573d6000803e3d6000fd5b505050506040513d601f19601f820116820180604052508101906112ca91906140b2565b6113165760405162461bcd60e51b815260206004820152601e60248201527f4572726f72207768696c65207472616e73666572696e672061737365747300006044820152606401610832565b6040805185815260ff85166020820152908101879052606081018290526001600160a01b0388169033907f473896b256eedaa907360e7bb0dfd12ebcad749e88d45aa79325bf4aad4afbfc9060800160405180910390a35050505050505050565b61137f613707565b6113896000613762565b565b61139760015433611a7b565b6113b35760405162461bcd60e51b815260040161083290614069565b6113bf60015482613390565b50610d0060015433613435565b6113d4613664565b6113e060015433611a7b565b6113fc5760405162461bcd60e51b815260040161083290614069565b60006003548461140c9190614015565b905060008267ffffffffffffffff81111561142957611429613b62565b604051908082528060200260200182016040528015611452578160200160208202803683370190505b50905060038310156114a65760405162461bcd60e51b815260206004820152601960248201527f5369676e657273206d757374206265206174206c6561742033000000000000006044820152606401610832565b600a8311156114f75760405162461bcd60e51b815260206004820152601d60248201527f5369676e657273206d757374206265206c65617374207468616e2031300000006044820152606401610832565b600085116115475760405162461bcd60e51b815260206004820152601e60248201527f416d6f756e74206d757374206265206772656174686572207468616e203000006044820152606401610832565b6001600160a01b03861660009081526005602090815260408083208151608081018352868152808401858152835186815280860185528285019081528451878152808701909552606083019490945260029283018054600180820183559188529686902083516004909802019687559051908601805460ff191660ff909216919091179055915180519294936115e39392850192910190613a42565b50606082015180516115ff916003840191602090910190613a42565b5050506000805b60ff81168511156117a057600086868360ff16818110611628576116286140d4565b905060200201602081019061163d9190613b47565b905060005b838160ff1610156116da57848160ff1681518110611662576116626140d4565b60200260200101516001600160a01b0316826001600160a01b0316036116ca5760405162461bcd60e51b815260206004820152601960248201527f4475706c6963617465207369676e6572206465746563746564000000000000006044820152606401610832565b6116d381614238565b9050611642565b50808484815181106116ee576116ee6140d4565b6001600160a01b03909216602092830291909101909101528261171081614257565b6001600160a01b038b1660009081526005602052604090206002018054919550915061173e90600190614056565b8154811061174e5761174e6140d4565b60009182526020808320600492909202909101600201805460018101825590835291200180546001600160a01b0319166001600160a01b039290921691909117905561179981614238565b9050611606565b506001600160a01b0387166000818152600560205260409020600201546117c990600190614056565b61ffff16336001600160a01b03167f0b64377ec6609831eaa829c32823df50ad3db86e1636b0923ee03fa1a685eff689898960405161180a93929190614270565b60405180910390a450505050505050565b6001600160a01b038316600090815260056020526040812060018101546060926118458583614042565b9050600061185386846142c6565b1115611867576118646001826142da565b90505b808611156118a65760405162461bcd60e51b815260206004820152600c60248201526b496e76616c6964207061676560a01b6044820152606401610832565b600085116118ea5760405162461bcd60e51b8152602060048201526011602482015270496e76616c696420706167652073697a6560781b6044820152606401610832565b6000856118f8600189614056565b6119029190614015565b9050600061191087836142da565b90508381111561191d5750825b60006119298383614056565b67ffffffffffffffff81111561194157611941613b62565b6040519080825280602002602001820160405280156119b457816020015b6119a16040518060c00160405280600081526020016000815260200160006001600160a01b031681526020016000815260200160008152602001600081525090565b81526020019060019003908161195f5790505b509050825b82811015611a6b578660010181815481106119d6576119d66140d4565b60009182526020918290206040805160c08101825260069093029091018054835260018101549383019390935260028301546001600160a01b031690820152600382015460608201526004820154608082015260059091015460a082015282611a3f8684614056565b81518110611a4f57611a4f6140d4565b602002602001018190525080611a6490614257565b90506119b9565b50955050505050505b9392505050565b6000918252600080516020614405833981519152602090815260408084206001600160a01b0393909316845291905290205460ff1690565b6000816001600160a01b031663313ce5676040518163ffffffff1660e01b8152600401602060405180830381865afa158015611af3573d6000803e3d6000fd5b505050506040513d601f19601f82011682018060405250810190611b179190613fdc565b9050600060035484611b299190614015565b3360009081526005602081905260409091209081015460038201549293509091831115611b8b5760405162461bcd60e51b815260206004820152601060248201526f496e7375666963656e742066756e647360801b6044820152606401610832565b3360009081526006602090815260408083206001600160a01b0389168452909152902054831115611bfe5760405162461bcd60e51b815260206004820152601a60248201527f496e73756666696369656e7420746f6b656e2062616c616e63650000000000006044820152606401610832565b3360009081526006602090815260408083206001600160a01b038916845290915281208054859290611c31908490614056565b90915550506004820154600a8054600090611c4d908490614056565b9091555050600060048301819055611c689087908787612ff8565b505050505050565b7ff0c57e16840df040f15088dc2f81fe391c3923bec73e23a9662efc9c229c6a008054600160401b810460ff16159067ffffffffffffffff16600081158015611cb65750825b905060008267ffffffffffffffff166001148015611cd35750303b155b905081158015611ce1575080155b15611cff5760405163f92ee8a960e01b815260040160405180910390fd5b845467ffffffffffffffff191660011785558315611d2957845460ff60401b1916600160401b1785555b611d32876137d3565b611d3a6137e4565b7f0875992236f2b756c480a83b0053e711e5a04d6ec8bf4b52208ef8f002f175c760008181557fdf8b4c520ffe197c5343c6f5aec59570151ef9a492f2c624fd45ddde6135ec42600155613fb46002556103e8600355600455611d9d9089613390565b50611daa60015487613390565b508315611df157845460ff60401b19168555604051600181527fc7f505b2f371ae2175ee4913f4499e1f2633a7b5936321eed1cdaeb6115181d29060200160405180910390a15b5050505050505050565b611e0760015433611a7b565b611e235760405162461bcd60e51b815260040161083290614069565b611e2b613664565b6001600160a01b038116600081815260076020526040808220805460ff1916600117905580516395d89b4160e01b815290519192916395d89b419160048082019286929091908290030181865afa158015611e8a573d6000803e3d6000fd5b505050506040513d6000823e601f3d908101601f19168201604052611eb291908101906142ed565b90506000826001600160a01b03166306fdde036040518163ffffffff1660e01b8152600401600060405180830381865afa158015611ef4573d6000803e3d6000fd5b505050506040513d6000823e601f3d908101601f19168201604052611f1c91908101906142ed565b9050826001600160a01b03167f2fb34ce114a136590b874d8cf80e7652adda576578bacfa4f8023f720f5693948383604051611f5992919061435b565b60405180910390a2505050565b611f6f82610a85565b611f7881613386565b610ac38383613435565b33600090815260056020526040812060018101805491929184908110611faa57611faa6140d4565b9060005260206000209060060201905060008590506000611fcf836004015442612f62565b60025460018501546040516301786f6360e21b81526004810184905260248101929092526044820152909150600090819073__$d91b156d91b8441e2a498d94550346ea7a$__906305e1bd8c906064016040805180830381865af415801561203b573d6000803e3d6000fd5b505050506040513d601f19601f8201168201806040525081019061205f91906140ea565b915091506000886001600160a01b031663313ce5676040518163ffffffff1660e01b8152600401602060405180830381865afa1580156120a3573d6000803e3d6000fd5b505050506040513d601f19601f820116820180604052508101906120c79190613fdc565b9050828660010160008282546120dd91906142da565b9091555050600186015485111561212e5760405162461bcd60e51b8152602060048201526015602482015274496e76616c696420616d6f756e7420746f2070617960581b6044820152606401610832565b60008160ff16116121515760405162461bcd60e51b81526004016108329061410e565b6001600160a01b03891660009081526007602052604090205460ff166121b95760405162461bcd60e51b815260206004820181905260248201527f54686520746f6b656e206973206e6f742077686974656c6973746564207965746044820152606401610832565b848660010160008282546121cd9190614056565b9091555050600980548491906000906121e79084906142da565b90915550506005860154600a541561223057600a5461220e85670de0b6b3a7640000614015565b6122189190614042565b600b805460009061222a9084906142da565b90915550505b86600101546000036123b457865460018981015411156122f2576001808a018054909161225c91614056565b8154811061226c5761226c6140d4565b9060005260206000209060060201896001018b8154811061228f5761228f6140d4565b6000918252602090912082546006909202019081556001808301549082015560028083015490820180546001600160a01b0319166001600160a01b0390921691909117905560038083015490820155600480830154908201556005918201549101555b8860010180548061230557612305614380565b600082815260208120600660001990930192830201818155600181018290556002810180546001600160a01b031916905560038101829055600481018290556005018190559155895482918b9161235d9084906142da565b9091555050604080518d815260ff851660208201529081018390526001600160a01b038c169033907f2f683797ae14900863bd7f5b624167cf9533f58ff4e068fcdc51ea4b45ab8a3e9060600160405180910390a3505b6001600160a01b038a166323b872dd33306123d0600387614396565b6123db90600a614229565b6123e5908b614015565b6040516001600160e01b031960e086901b1681526001600160a01b03938416600482015292909116602483015260448201526064016020604051808303816000875af1158015612439573d6000803e3d6000fd5b505050506040513d601f19601f8201168201806040525081019061245d91906140b2565b6124a95760405162461bcd60e51b815260206004820152601e60248201527f4572726f72207768696c65207472616e73666572696e672061737365747300006044820152606401610832565b604080518c81526020810186905260ff8416818301526060810183905290516001600160a01b038c169133917f9ce47bcc134ecd272196e2d07a748c33630146263e848d49e2679807b2886aab9181900360800190a35050505050505050505050565b6001600160a01b038316600090815260056020526040812060020180546060926125368583614042565b9050600061254486846142c6565b1115612558576125556001826142da565b90505b808611156125975760405162461bcd60e51b815260206004820152600c60248201526b496e76616c6964207061676560a01b6044820152606401610832565b6000851180156125a75750808511155b6125e75760405162461bcd60e51b8152602060048201526011602482015270496e76616c696420706167652073697a6560781b6044820152606401610832565b6000856125f5600189614056565b6125ff9190614015565b9050600061260d87836142da565b90508381111561261a5750825b60006126268383614056565b67ffffffffffffffff81111561263e5761263e613b62565b60405190808252806020026020018201604052801561269d57816020015b61268a604051806080016040528060008152602001600060ff16815260200160608152602001606081525090565b81526020019060019003908161265c5790505b509050825b82811015611a6b578681815481106126bc576126bc6140d4565b600091825260209182902060408051608081018252600490930290910180548352600181015460ff1683850152600281018054835181870281018701855281815294959294938601939283018282801561273f57602002820191906000526020600020905b81546001600160a01b03168152600190910190602001808311612721575b50505050508152602001600382018054806020026020016040519081016040528092919081815260200182805480156127a157602002820191906000526020600020905b81546001600160a01b03168152600190910190602001808311612783575b5050505050815250508285836127b79190614056565b815181106127c7576127c76140d4565b6020026020010181905250806127dc90614257565b90506126a2565b6127eb613664565b6001600160a01b03811660009081526007602052604090205460ff166128535760405162461bcd60e51b815260206004820152601960248201527f546f6b656e206973206e6f7420696e2077686974656c697374000000000000006044820152606401610832565b6000816001600160a01b031663313ce5676040518163ffffffff1660e01b8152600401602060405180830381865afa158015612893573d6000803e3d6000fd5b505050506040513d601f19601f820116820180604052508101906128b79190613fdc565b905060008160ff16116128dc5760405162461bcd60e51b81526004016108329061410e565b6000600354846128ec9190614015565b60085490915060000361291d57336000908152600560205260409020600401819055600a819055600881905561299d565b600854600a54600091906129319084614015565b61293b9190614042565b336000908152600560205260408120600401805492935083929091906129629084906142da565b9091555050600a805482919060009061297c9084906142da565b9091555050600880548391906000906129969084906142da565b9091555050505b33600090815260056020526040812060030180548392906129bf9084906142da565b909155505033600090815260056020818152604080842042930192909255600681528183206001600160a01b0387168452905281208054839290612a049084906142da565b90915550506001600160a01b0383166323b872dd3330612a2586600a614229565b612a2f9089614015565b6040516001600160e01b031960e086901b1681526001600160a01b03938416600482015292909116602483015260448201526064016020604051808303816000875af1158015612a83573d6000803e3d6000fd5b505050506040513d601f19601f82011682018060405250810190612aa791906140b2565b612af35760405162461bcd60e51b815260206004820152601b60248201527f4572726f72207768696c65207472616e7366657220746f6b656e7300000000006044820152606401610832565b6040805185815260ff841660208201526001600160a01b0385169133917f9f9c6451db74dc24ec4ef600603de4a3a11fbe4234eee83200b5469400652c51910160405180910390a350505050565b6000612b4f60005433611a7b565b612bae5760405162461bcd60e51b815260206004820152602a60248201527f43616c6c6572206973206e6f7420612076616c6964206174746573746174696f60448201526937103932b9b7b63b32b960b11b6064820152608401610832565b6001600160a01b0385166000908152600560205260408120600201805482919061ffff8816908110612be257612be26140d4565b9060005260206000209060040201905080600001548414612c5f5760405162461bcd60e51b815260206004820152603160248201527f546865206174746573746174696f6e20616d6f756e7420646f6573206e6f74206044820152701b585d18da081d1a19481c995c5d595cdd607a1b6064820152608401610832565b8054600282015460005b818160ff161015612cc557876001600160a01b0316846002018260ff1681548110612c9657612c966140d4565b6000918252602090912001546001600160a01b031603612cb557600194505b612cbe81614238565b9050612c69565b506003830154600090815b818160ff161015612d3657600386015415612d3657896001600160a01b0316866003018260ff1681548110612d0757612d076140d4565b6000918252602090912001546001600160a01b031603612d2657600196505b612d2f81614238565b9050612cd0565b5085612d845760405162461bcd60e51b815260206004820152601c60248201527f53656e646572206973206e6f7420612076616c6964207369676e6572000000006044820152606401610832565b8115612dca5760405162461bcd60e51b815260206004820152601560248201527414d95b99195c881a185cc81cda59db9959081e595d605a1b6044820152606401610832565b6003850180546001808201835560009283526020832090910180546001600160a01b0319166001600160a01b038d16179055808701805491929091612e1390849060ff166143af565b82546101009290920a60ff8181021990931691831602179091556001870154166003039050612ebd576001600160a01b038b1660009081526005602052604081208054869290612e649084906142da565b90915550506001600160a01b038b811660008181526005602090815260409182902054915191825291928c16917f986757b5f72e5258de572c036a9155b7f6fce0df14ffd1fa633617f668137a39910160405180910390a35b8a6001600160a01b03168a61ffff168a6001600160a01b03167fea585988944829641b25be2de9e0a1256c383fac005bb8f3ebe5cd09b50d7c748860000154604051612f0b91815260200190565b60405180910390a45060019a9950505050505050505050565b612f2c613707565b6001600160a01b038116612f5657604051631e4fbdf760e01b815260006004820152602401610832565b612f5f81613762565b50565b600082821015612fd25760405162461bcd60e51b815260206004820152603560248201527f46696e6973682074696d657374616d70206d75737420626520677265617465726044820152740207468616e2073746172742074696d657374616d7605c1b6064820152608401610832565b6000612fde8484614056565b90506000612fef6201518083614042565b95945050505050565b6000600354856130089190614015565b33600090815260056020526040902090915061302583600a614229565b61302f9087614015565b6040516370a0823160e01b81523060048201526001600160a01b038616906370a0823190602401602060405180830381865afa158015613073573d6000803e3d6000fd5b505050506040513d601f19601f820116820180604052508101906130979190614099565b10156130dc5760405162461bcd60e51b8152602060048201526014602482015273496e7375666963656e74206c697175696469747960601b6044820152606401610832565b60008360ff16116130ff5760405162461bcd60e51b81526004016108329061410e565b6000861161315a5760405162461bcd60e51b815260206004820152602260248201527f54686520616d6f756e74206d757374206265206772656174686572207468616e604482015261020360f41b6064820152608401610832565b6001600160a01b03841660009081526007602052604090205460ff166131c25760405162461bcd60e51b815260206004820181905260248201527f54686520746f6b656e206973206e6f742077686974656c6973746564207965746044820152606401610832565b81816003015410156132075760405162461bcd60e51b815260206004820152600e60248201526d125b9d985b1a5908185b5bdd5b9d60921b6044820152606401610832565b8181600301600082825461321b9190614056565b909155505060088054839190600090613235908490614056565b90915550506001600160a01b03841663a9059cbb33613255600387614396565b61326090600a614229565b61326a89876142da565b6132749190614015565b6040516001600160e01b031960e085901b1681526001600160a01b03909216600483015260248201526044016020604051808303816000875af11580156132bf573d6000803e3d6000fd5b505050506040513d601f19601f820116820180604052508101906132e391906140b2565b61332f5760405162461bcd60e51b815260206004820152601d60248201527f4661696c6564207768656e207769746864726177696e672066756e64730000006044820152606401610832565b604080518781526020810187905260ff85168183015290516001600160a01b0386169133917f04ccd5830047404934ff21145531b3e4edbc2a057f1e3b73e37e6810aaad80c49181900360600190a3505050505050565b612f5f81336137ec565b60006000805160206144058339815191526133ab8484611a7b565b61342b576000848152602082815260408083206001600160a01b03871684529091529020805460ff191660011790556133e13390565b6001600160a01b0316836001600160a01b0316857f2f8788117e7eff1d82e926ec794901d17c78024a50270940304540a733656f0d60405160405180910390a46001915050610a52565b6000915050610a52565b60006000805160206144058339815191526134508484611a7b565b1561342b576000848152602082815260408083206001600160a01b0387168085529252808320805460ff1916905551339287917ff6391f5c32d9c69d2a47ea670b442974b53935d1edc7fd64eb21e047a839171b9190a46001915050610a52565b306001600160a01b037f000000000000000000000000000000000000000000000000000000000000000016148061353857507f00000000000000000000000000000000000000000000000000000000000000006001600160a01b031661352c6000805160206143e5833981519152546001600160a01b031690565b6001600160a01b031614155b156113895760405163703e46dd60e11b815260040160405180910390fd5b612f5f613707565b816001600160a01b03166352d1902d6040518163ffffffff1660e01b8152600401602060405180830381865afa9250505080156135b8575060408051601f3d908101601f191682019092526135b591810190614099565b60015b6135e057604051634c9c8ce360e01b81526001600160a01b0383166004820152602401610832565b6000805160206143e5833981519152811461361157604051632a87526960e21b815260048101829052602401610832565b610afc8383613825565b306001600160a01b037f000000000000000000000000000000000000000000000000000000000000000016146113895760405163703e46dd60e11b815260040160405180910390fd5b7fcd5ed15c6e187e77e9aee88184c21f4f2182ab5827cb3b7e07fbedcd63f033005460ff16156113895760405163d93c066560e01b815260040160405180910390fd5b60008044426004546040516020016136d2939291909283526020830191909152604082015260600190565b60408051601f1981840301815291905280516020909101206004805491925060006136fc83614257565b909155509092915050565b336137397f9016d09d72d40fdae2fd8ceac6b6234c7706214fd39c1cd1e609a0528c199300546001600160a01b031690565b6001600160a01b0316146113895760405163118cdaa760e01b8152336004820152602401610832565b7f9016d09d72d40fdae2fd8ceac6b6234c7706214fd39c1cd1e609a0528c19930080546001600160a01b031981166001600160a01b03848116918217845560405192169182907f8be0079c531659141344cd1fd0a4f28419497f9722a3daafe3b4186f6b6457e090600090a3505050565b6137db61387b565b612f5f816138c4565b61138961387b565b6137f68282611a7b565b610d005760405163e2517d3f60e01b81526001600160a01b038216600482015260248101839052604401610832565b61382e826138cc565b6040516001600160a01b038316907fbc7cd75a20ee27fd9adebab32041f755214dbc6bffa90cc0225b39da2e5c2d3b90600090a280511561387357610afc8282613931565b610d0061399e565b7ff0c57e16840df040f15088dc2f81fe391c3923bec73e23a9662efc9c229c6a0054600160401b900460ff1661138957604051631afcd79f60e31b815260040160405180910390fd5b612f2c61387b565b806001600160a01b03163b60000361390257604051634c9c8ce360e01b81526001600160a01b0382166004820152602401610832565b6000805160206143e583398151915280546001600160a01b0319166001600160a01b0392909216919091179055565b6060600080846001600160a01b03168460405161394e91906143c8565b600060405180830381855af49150503d8060008114613989576040519150601f19603f3d011682016040523d82523d6000602084013e61398e565b606091505b5091509150612fef8583836139bd565b34156113895760405163b398979f60e01b815260040160405180910390fd5b6060826139d2576139cd82613a19565b611a74565b81511580156139e957506001600160a01b0384163b155b15613a1257604051639996b31560e01b81526001600160a01b0385166004820152602401610832565b5080611a74565b805115613a295780518082602001fd5b604051630a12f52160e11b815260040160405180910390fd5b828054828255906000526020600020908101928215613a97579160200282015b82811115613a9757825182546001600160a01b0319166001600160a01b03909116178255602090920191600190910190613a62565b50613aa3929150613aa7565b5090565b5b80821115613aa35760008155600101613aa8565b80356001600160a01b0381168114613ad357600080fd5b919050565b60008060408385031215613aeb57600080fd5b82359150613afb60208401613abc565b90509250929050565b600060208284031215613b1657600080fd5b81356001600160e01b031981168114611a7457600080fd5b600060208284031215613b4057600080fd5b5035919050565b600060208284031215613b5957600080fd5b611a7482613abc565b634e487b7160e01b600052604160045260246000fd5b604051601f8201601f1916810167ffffffffffffffff81118282101715613ba157613ba1613b62565b604052919050565b600067ffffffffffffffff821115613bc357613bc3613b62565b50601f01601f191660200190565b60008060408385031215613be457600080fd5b613bed83613abc565b9150602083013567ffffffffffffffff811115613c0957600080fd5b8301601f81018513613c1a57600080fd5b8035613c2d613c2882613ba9565b613b78565b818152866020838501011115613c4257600080fd5b816020840160208301376000602083830101528093505050509250929050565b60008060408385031215613c7557600080fd5b613c7e83613abc565b946020939093013593505050565b600080600060608486031215613ca157600080fd5b83359250613cb160208501613abc565b9150604084013590509250925092565b60008060008060608587031215613cd757600080fd5b613ce085613abc565b935060208501359250604085013567ffffffffffffffff80821115613d0457600080fd5b818701915087601f830112613d1857600080fd5b813581811115613d2757600080fd5b8860208260051b8501011115613d3c57600080fd5b95989497505060200194505050565b600080600060608486031215613d6057600080fd5b613d6984613abc565b95602085013595506040909401359392505050565b602080825282518282018190526000919060409081850190868401855b82811015613df2578151805185528681015187860152858101516001600160a01b031686860152606080820151908601526080808201519086015260a0908101519085015260c09093019290850190600101613d9b565b5091979650505050505050565b60005b83811015613e1a578181015183820152602001613e02565b50506000910152565b60008151808452613e3b816020860160208601613dff565b601f01601f19169290920160200192915050565b602081526000611a746020830184613e23565b600080600060608486031215613e7757600080fd5b613e8084613abc565b9250613e8e60208501613abc565b9150613e9c60408501613abc565b90509250925092565b600081518084526020808501945080840160005b83811015613ede5781516001600160a01b031687529582019590820190600101613eb9565b509495945050505050565b60006020808301818452808551808352604092508286019150828160051b87010184880160005b83811015613f7a57603f19898403018552815160808151855260ff898301511689860152878201518189870152613f4982870182613ea5565b91505060608083015192508582038187015250613f668183613ea5565b968901969450505090860190600101613f10565b509098975050505050505050565b60008060008060808587031215613f9e57600080fd5b613fa785613abc565b9350602085013561ffff81168114613fbe57600080fd5b9250613fcc60408601613abc565b9396929550929360600135925050565b600060208284031215613fee57600080fd5b815160ff81168114611a7457600080fd5b634e487b7160e01b600052601160045260246000fd5b8082028115828204841417610a5257610a52613fff565b634e487b7160e01b600052601260045260246000fd5b6000826140515761405161402c565b500490565b81810381811115610a5257610a52613fff565b60208082526016908201527521b0b63632b91034b9903737ba1030b71020b236b4b760511b604082015260600190565b6000602082840312156140ab57600080fd5b5051919050565b6000602082840312156140c457600080fd5b81518015158114611a7457600080fd5b634e487b7160e01b600052603260045260246000fd5b600080604083850312156140fd57600080fd5b505080516020909101519092909150565b6020808252601e908201527f4572726f72207768696c65206f627461696e696e6720646563696d616c730000604082015260600190565b600181815b8085111561418057816000190482111561416657614166613fff565b8085161561417357918102915b93841c939080029061414a565b509250929050565b60008261419757506001610a52565b816141a457506000610a52565b81600181146141ba57600281146141c4576141e0565b6001915050610a52565b60ff8411156141d5576141d5613fff565b50506001821b610a52565b5060208310610133831016604e8410600b8410161715614203575081810a610a52565b61420d8383614145565b806000190482111561422157614221613fff565b029392505050565b6000611a7460ff841683614188565b600060ff821660ff810361424e5761424e613fff565b60010192915050565b60006001820161426957614269613fff565b5060010190565b83815260406020808301829052908201839052600090849060608401835b868110156142ba576001600160a01b036142a785613abc565b168252928201929082019060010161428e565b50979650505050505050565b6000826142d5576142d561402c565b500690565b80820180821115610a5257610a52613fff565b6000602082840312156142ff57600080fd5b815167ffffffffffffffff81111561431657600080fd5b8201601f8101841361432757600080fd5b8051614335613c2882613ba9565b81815285602083850101111561434a57600080fd5b612fef826020830160208601613dff565b60408152600061436e6040830185613e23565b8281036020840152612fef8185613e23565b634e487b7160e01b600052603160045260246000fd5b60ff8281168282160390811115610a5257610a52613fff565b60ff8181168382160190811115610a5257610a52613fff565b600082516143da818460208701613dff565b919091019291505056fe360894a13ba1a3210667c828492db98dca3e2076cc3735a920a3ca505d382bbc02dd7bc7dec4dceedda775e58dd541e08a116c6c53815c0bd028192f7b626800a2646970667358221220a8c2dd1f701f571e66c49b03b1986ca766df8a0cda539776d80c893656172f8564736f6c63430008140033","opcodes":"PUSH1 0xA0 PUSH1 0x40 MSTORE ADDRESS PUSH1 0x80 MSTORE CALLVALUE DUP1 ISZERO PUSH2 0x14 JUMPI PUSH1 0x0 DUP1 REVERT JUMPDEST POP PUSH1 0x80 MLOAD PUSH2 0x445A PUSH2 0x3E PUSH1 0x0 CODECOPY PUSH1 0x0 DUP2 DUP2 PUSH2 0x34BC ADD MSTORE DUP2 DUP2 PUSH2 0x34E5 ADD MSTORE PUSH2 0x3626 ADD MSTORE PUSH2 0x445A PUSH1 0x0 RETURN INVALID PUSH1 0x80 PUSH1 0x40 MSTORE PUSH1 0x4 CALLDATASIZE LT PUSH2 0x1F8 JUMPI PUSH1 0x0 CALLDATALOAD PUSH1 0xE0 SHR DUP1 PUSH4 0x81E7E20E GT PUSH2 0x10D JUMPI DUP1 PUSH4 0xC0C53B8B GT PUSH2 0xA0 JUMPI DUP1 PUSH4 0xD7D9F9EC GT PUSH2 0x6F JUMPI DUP1 PUSH4 0xD7D9F9EC EQ PUSH2 0x64F JUMPI DUP1 PUSH4 0xE0E713DD EQ PUSH2 0x66F JUMPI DUP1 PUSH4 0xEEE92395 EQ PUSH2 0x69C JUMPI DUP1 PUSH4 0xF1400062 EQ PUSH2 0x6BC JUMPI DUP1 PUSH4 0xF2FDE38B EQ PUSH2 0x6DC JUMPI PUSH1 0x0 DUP1 REVERT JUMPDEST DUP1 PUSH4 0xC0C53B8B EQ PUSH2 0x5CC JUMPI DUP1 PUSH4 0xC89F2CE4 EQ PUSH2 0x5EC JUMPI DUP1 PUSH4 0xD48BFCA7 EQ PUSH2 0x60F JUMPI DUP1 PUSH4 0xD547741F EQ PUSH2 0x62F JUMPI PUSH1 0x0 DUP1 REVERT JUMPDEST DUP1 PUSH4 0x969F9EFA GT PUSH2 0xDC JUMPI DUP1 PUSH4 0x969F9EFA EQ PUSH2 0x543 JUMPI DUP1 PUSH4 0x9EBB4112 EQ PUSH2 0x559 JUMPI DUP1 PUSH4 0xA217FDDF EQ PUSH2 0x579 JUMPI DUP1 PUSH4 0xAD3CB1CC EQ PUSH2 0x58E JUMPI PUSH1 0x0 DUP1 REVERT JUMPDEST DUP1 PUSH4 0x81E7E20E EQ PUSH2 0x44B JUMPI DUP1 PUSH4 0x87373FC1 EQ PUSH2 0x4AF JUMPI DUP1 PUSH4 0x8DA5CB5B EQ PUSH2 0x4DC JUMPI DUP1 PUSH4 0x91D14854 EQ PUSH2 0x523 JUMPI PUSH1 0x0 DUP1 REVERT JUMPDEST DUP1 PUSH4 0x4F1EF286 GT PUSH2 0x190 JUMPI DUP1 PUSH4 0x61E576B8 GT PUSH2 0x15F JUMPI DUP1 PUSH4 0x61E576B8 EQ PUSH2 0x3B6 JUMPI DUP1 PUSH4 0x6E99700A EQ PUSH2 0x3D6 JUMPI DUP1 PUSH4 0x715018A6 EQ PUSH2 0x3F6 JUMPI DUP1 PUSH4 0x75829DEF EQ PUSH2 0x40B JUMPI DUP1 PUSH4 0x81D945D2 EQ PUSH2 0x42B JUMPI PUSH1 0x0 DUP1 REVERT JUMPDEST DUP1 PUSH4 0x4F1EF286 EQ PUSH2 0x337 JUMPI DUP1 PUSH4 0x52D1902D EQ PUSH2 0x34A JUMPI DUP1 PUSH4 0x5C975ABB EQ PUSH2 0x35F JUMPI DUP1 PUSH4 0x5FA7B584 EQ PUSH2 0x396 JUMPI PUSH1 0x0 DUP1 REVERT JUMPDEST DUP1 PUSH4 0x2F2FF15D GT PUSH2 0x1CC JUMPI DUP1 PUSH4 0x2F2FF15D EQ PUSH2 0x2A2 JUMPI DUP1 PUSH4 0x36568ABE EQ PUSH2 0x2C2 JUMPI DUP1 PUSH4 0x3EAD66C8 EQ PUSH2 0x2E2 JUMPI DUP1 PUSH4 0x435E0283 EQ PUSH2 0x302 JUMPI PUSH1 0x0 DUP1 REVERT JUMPDEST DUP1 PUSH3 0xF714CE EQ PUSH2 0x1FD JUMPI DUP1 PUSH4 0x1FFC9A7 EQ PUSH2 0x21F JUMPI DUP1 PUSH4 0x1031F4F9 EQ PUSH2 0x254 JUMPI DUP1 PUSH4 0x248A9CA3 EQ PUSH2 0x274 JUMPI JUMPDEST PUSH1 0x0 DUP1 REVERT JUMPDEST CALLVALUE DUP1 ISZERO PUSH2 0x209 JUMPI PUSH1 0x0 DUP1 REVERT JUMPDEST POP PUSH2 0x21D PUSH2 0x218 CALLDATASIZE PUSH1 0x4 PUSH2 0x3AD8 JUMP JUMPDEST PUSH2 0x6FC JUMP JUMPDEST STOP JUMPDEST CALLVALUE DUP1 ISZERO PUSH2 0x22B JUMPI PUSH1 0x0 DUP1 REVERT JUMPDEST POP PUSH2 0x23F PUSH2 0x23A CALLDATASIZE PUSH1 0x4 PUSH2 0x3B04 JUMP JUMPDEST PUSH2 0xA21 JUMP JUMPDEST PUSH1 0x40 MLOAD SWAP1 ISZERO ISZERO DUP2 MSTORE PUSH1 0x20 ADD JUMPDEST PUSH1 0x40 MLOAD DUP1 SWAP2 SUB SWAP1 RETURN JUMPDEST CALLVALUE DUP1 ISZERO PUSH2 0x260 JUMPI PUSH1 0x0 DUP1 REVERT JUMPDEST POP PUSH2 0x21D PUSH2 0x26F CALLDATASIZE PUSH1 0x4 PUSH2 0x3B2E JUMP JUMPDEST PUSH2 0xA58 JUMP JUMPDEST CALLVALUE DUP1 ISZERO PUSH2 0x280 JUMPI PUSH1 0x0 DUP1 REVERT JUMPDEST POP PUSH2 0x294 PUSH2 0x28F CALLDATASIZE PUSH1 0x4 PUSH2 0x3B2E JUMP JUMPDEST PUSH2 0xA85 JUMP JUMPDEST PUSH1 0x40 MLOAD SWAP1 DUP2 MSTORE PUSH1 0x20 ADD PUSH2 0x24B JUMP JUMPDEST CALLVALUE DUP1 ISZERO PUSH2 0x2AE JUMPI PUSH1 0x0 DUP1 REVERT JUMPDEST POP PUSH2 0x21D PUSH2 0x2BD CALLDATASIZE PUSH1 0x4 PUSH2 0x3AD8 JUMP JUMPDEST PUSH2 0xAA7 JUMP JUMPDEST CALLVALUE DUP1 ISZERO PUSH2 0x2CE JUMPI PUSH1 0x0 DUP1 REVERT JUMPDEST POP PUSH2 0x21D PUSH2 0x2DD CALLDATASIZE PUSH1 0x4 PUSH2 0x3AD8 JUMP JUMPDEST PUSH2 0xAC9 JUMP JUMPDEST CALLVALUE DUP1 ISZERO PUSH2 0x2EE JUMPI PUSH1 0x0 DUP1 REVERT JUMPDEST POP PUSH2 0x21D PUSH2 0x2FD CALLDATASIZE PUSH1 0x4 PUSH2 0x3B47 JUMP JUMPDEST PUSH2 0xB01 JUMP JUMPDEST CALLVALUE DUP1 ISZERO PUSH2 0x30E JUMPI PUSH1 0x0 DUP1 REVERT JUMPDEST POP PUSH2 0x322 PUSH2 0x31D CALLDATASIZE PUSH1 0x4 PUSH2 0x3B2E JUMP JUMPDEST PUSH2 0xD04 JUMP JUMPDEST PUSH1 0x40 DUP1 MLOAD SWAP3 DUP4 MSTORE PUSH1 0x20 DUP4 ADD SWAP2 SWAP1 SWAP2 MSTORE ADD PUSH2 0x24B JUMP JUMPDEST PUSH2 0x21D PUSH2 0x345 CALLDATASIZE PUSH1 0x4 PUSH2 0x3BD1 JUMP JUMPDEST PUSH2 0xDED JUMP JUMPDEST CALLVALUE DUP1 ISZERO PUSH2 0x356 JUMPI PUSH1 0x0 DUP1 REVERT JUMPDEST POP PUSH2 0x294 PUSH2 0xE08 JUMP JUMPDEST CALLVALUE DUP1 ISZERO PUSH2 0x36B JUMPI PUSH1 0x0 DUP1 REVERT JUMPDEST POP PUSH32 0xCD5ED15C6E187E77E9AEE88184C21F4F2182AB5827CB3B7E07FBEDCD63F03300 SLOAD PUSH1 0xFF AND PUSH2 0x23F JUMP JUMPDEST CALLVALUE DUP1 ISZERO PUSH2 0x3A2 JUMPI PUSH1 0x0 DUP1 REVERT JUMPDEST POP PUSH2 0x21D PUSH2 0x3B1 CALLDATASIZE PUSH1 0x4 PUSH2 0x3B47 JUMP JUMPDEST PUSH2 0xE25 JUMP JUMPDEST CALLVALUE DUP1 ISZERO PUSH2 0x3C2 JUMPI PUSH1 0x0 DUP1 REVERT JUMPDEST POP PUSH2 0x21D PUSH2 0x3D1 CALLDATASIZE PUSH1 0x4 PUSH2 0x3C62 JUMP JUMPDEST PUSH2 0xE6E JUMP JUMPDEST CALLVALUE DUP1 ISZERO PUSH2 0x3E2 JUMPI PUSH1 0x0 DUP1 REVERT JUMPDEST POP PUSH2 0x21D PUSH2 0x3F1 CALLDATASIZE PUSH1 0x4 PUSH2 0x3C8C JUMP JUMPDEST PUSH2 0xF93 JUMP JUMPDEST CALLVALUE DUP1 ISZERO PUSH2 0x402 JUMPI PUSH1 0x0 DUP1 REVERT JUMPDEST POP PUSH2 0x21D PUSH2 0x1377 JUMP JUMPDEST CALLVALUE DUP1 ISZERO PUSH2 0x417 JUMPI PUSH1 0x0 DUP1 REVERT JUMPDEST POP PUSH2 0x21D PUSH2 0x426 CALLDATASIZE PUSH1 0x4 PUSH2 0x3B47 JUMP JUMPDEST PUSH2 0x138B JUMP JUMPDEST CALLVALUE DUP1 ISZERO PUSH2 0x437 JUMPI PUSH1 0x0 DUP1 REVERT JUMPDEST POP PUSH2 0x21D PUSH2 0x446 CALLDATASIZE PUSH1 0x4 PUSH2 0x3CC1 JUMP JUMPDEST PUSH2 0x13CC JUMP JUMPDEST CALLVALUE DUP1 ISZERO PUSH2 0x457 JUMPI PUSH1 0x0 DUP1 REVERT JUMPDEST POP PUSH2 0x48F PUSH2 0x466 CALLDATASIZE PUSH1 0x4 PUSH2 0x3B47 JUMP JUMPDEST PUSH1 0x5 PUSH1 0x20 DUP2 SWAP1 MSTORE PUSH1 0x0 SWAP2 DUP3 MSTORE PUSH1 0x40 SWAP1 SWAP2 KECCAK256 DUP1 SLOAD PUSH1 0x3 DUP3 ADD SLOAD PUSH1 0x4 DUP4 ADD SLOAD SWAP3 SWAP1 SWAP4 ADD SLOAD SWAP1 SWAP3 SWAP2 SWAP1 DUP5 JUMP JUMPDEST PUSH1 0x40 DUP1 MLOAD SWAP5 DUP6 MSTORE PUSH1 0x20 DUP6 ADD SWAP4 SWAP1 SWAP4 MSTORE SWAP2 DUP4 ADD MSTORE PUSH1 0x60 DUP3 ADD MSTORE PUSH1 0x80 ADD PUSH2 0x24B JUMP JUMPDEST CALLVALUE DUP1 ISZERO PUSH2 0x4BB JUMPI PUSH1 0x0 DUP1 REVERT JUMPDEST POP PUSH2 0x4CF PUSH2 0x4CA CALLDATASIZE PUSH1 0x4 PUSH2 0x3D4B JUMP JUMPDEST PUSH2 0x181B JUMP JUMPDEST PUSH1 0x40 MLOAD PUSH2 0x24B SWAP2 SWAP1 PUSH2 0x3D7E JUMP JUMPDEST CALLVALUE DUP1 ISZERO PUSH2 0x4E8 JUMPI PUSH1 0x0 DUP1 REVERT JUMPDEST POP PUSH32 0x9016D09D72D40FDAE2FD8CEAC6B6234C7706214FD39C1CD1E609A0528C199300 SLOAD PUSH1 0x40 MLOAD PUSH1 0x1 PUSH1 0x1 PUSH1 0xA0 SHL SUB SWAP1 SWAP2 AND DUP2 MSTORE PUSH1 0x20 ADD PUSH2 0x24B JUMP JUMPDEST CALLVALUE DUP1 ISZERO PUSH2 0x52F JUMPI PUSH1 0x0 DUP1 REVERT JUMPDEST POP PUSH2 0x23F PUSH2 0x53E CALLDATASIZE PUSH1 0x4 PUSH2 0x3AD8 JUMP JUMPDEST PUSH2 0x1A7B JUMP JUMPDEST CALLVALUE DUP1 ISZERO PUSH2 0x54F JUMPI PUSH1 0x0 DUP1 REVERT JUMPDEST POP PUSH2 0x294 PUSH1 0x2 SLOAD DUP2 JUMP JUMPDEST CALLVALUE DUP1 ISZERO PUSH2 0x565 JUMPI PUSH1 0x0 DUP1 REVERT JUMPDEST POP PUSH2 0x21D PUSH2 0x574 CALLDATASIZE PUSH1 0x4 PUSH2 0x3AD8 JUMP JUMPDEST PUSH2 0x1AB3 JUMP JUMPDEST CALLVALUE DUP1 ISZERO PUSH2 0x585 JUMPI PUSH1 0x0 DUP1 REVERT JUMPDEST POP PUSH2 0x294 PUSH1 0x0 DUP2 JUMP JUMPDEST CALLVALUE DUP1 ISZERO PUSH2 0x59A JUMPI PUSH1 0x0 DUP1 REVERT JUMPDEST POP PUSH2 0x5BF PUSH1 0x40 MLOAD DUP1 PUSH1 0x40 ADD PUSH1 0x40 MSTORE DUP1 PUSH1 0x5 DUP2 MSTORE PUSH1 0x20 ADD PUSH5 0x352E302E3 PUSH1 0xDC SHL DUP2 MSTORE POP DUP2 JUMP JUMPDEST PUSH1 0x40 MLOAD PUSH2 0x24B SWAP2 SWAP1 PUSH2 0x3E4F JUMP JUMPDEST CALLVALUE DUP1 ISZERO PUSH2 0x5D8 JUMPI PUSH1 0x0 DUP1 REVERT JUMPDEST POP PUSH2 0x21D PUSH2 0x5E7 CALLDATASIZE PUSH1 0x4 PUSH2 0x3E62 JUMP JUMPDEST PUSH2 0x1C70 JUMP JUMPDEST CALLVALUE DUP1 ISZERO PUSH2 0x5F8 JUMPI PUSH1 0x0 DUP1 REVERT JUMPDEST POP PUSH1 0x8 SLOAD PUSH1 0x9 SLOAD PUSH1 0xA SLOAD PUSH1 0xB SLOAD PUSH2 0x48F SWAP4 SWAP3 SWAP2 SWAP1 DUP5 JUMP JUMPDEST CALLVALUE DUP1 ISZERO PUSH2 0x61B JUMPI PUSH1 0x0 DUP1 REVERT JUMPDEST POP PUSH2 0x21D PUSH2 0x62A CALLDATASIZE PUSH1 0x4 PUSH2 0x3B47 JUMP JUMPDEST PUSH2 0x1DFB JUMP JUMPDEST CALLVALUE DUP1 ISZERO PUSH2 0x63B JUMPI PUSH1 0x0 DUP1 REVERT JUMPDEST POP PUSH2 0x21D PUSH2 0x64A CALLDATASIZE PUSH1 0x4 PUSH2 0x3AD8 JUMP JUMPDEST PUSH2 0x1F66 JUMP JUMPDEST CALLVALUE DUP1 ISZERO PUSH2 0x65B JUMPI PUSH1 0x0 DUP1 REVERT JUMPDEST POP PUSH2 0x21D PUSH2 0x66A CALLDATASIZE PUSH1 0x4 PUSH2 0x3C8C JUMP JUMPDEST PUSH2 0x1F82 JUMP JUMPDEST CALLVALUE DUP1 ISZERO PUSH2 0x67B JUMPI PUSH1 0x0 DUP1 REVERT JUMPDEST POP PUSH2 0x68F PUSH2 0x68A CALLDATASIZE PUSH1 0x4 PUSH2 0x3D4B JUMP JUMPDEST PUSH2 0x250C JUMP JUMPDEST PUSH1 0x40 MLOAD PUSH2 0x24B SWAP2 SWAP1 PUSH2 0x3EE9 JUMP JUMPDEST CALLVALUE DUP1 ISZERO PUSH2 0x6A8 JUMPI PUSH1 0x0 DUP1 REVERT JUMPDEST POP PUSH2 0x21D PUSH2 0x6B7 CALLDATASIZE PUSH1 0x4 PUSH2 0x3AD8 JUMP JUMPDEST PUSH2 0x27E3 JUMP JUMPDEST CALLVALUE DUP1 ISZERO PUSH2 0x6C8 JUMPI PUSH1 0x0 DUP1 REVERT JUMPDEST POP PUSH2 0x23F PUSH2 0x6D7 CALLDATASIZE PUSH1 0x4 PUSH2 0x3F88 JUMP JUMPDEST PUSH2 0x2B41 JUMP JUMPDEST CALLVALUE DUP1 ISZERO PUSH2 0x6E8 JUMPI PUSH1 0x0 DUP1 REVERT JUMPDEST POP PUSH2 0x21D PUSH2 0x6F7 CALLDATASIZE PUSH1 0x4 PUSH2 0x3B47 JUMP JUMPDEST PUSH2 0x2F24 JUMP JUMPDEST PUSH1 0x0 DUP2 PUSH1 0x1 PUSH1 0x1 PUSH1 0xA0 SHL SUB AND PUSH4 0x313CE567 PUSH1 0x40 MLOAD DUP2 PUSH4 0xFFFFFFFF AND PUSH1 0xE0 SHL DUP2 MSTORE PUSH1 0x4 ADD PUSH1 0x20 PUSH1 0x40 MLOAD DUP1 DUP4 SUB DUP2 DUP7 GAS STATICCALL ISZERO DUP1 ISZERO PUSH2 0x73C JUMPI RETURNDATASIZE PUSH1 0x0 DUP1 RETURNDATACOPY RETURNDATASIZE PUSH1 0x0 REVERT JUMPDEST POP POP POP POP PUSH1 0x40 MLOAD RETURNDATASIZE PUSH1 0x1F NOT PUSH1 0x1F DUP3 ADD AND DUP3 ADD DUP1 PUSH1 0x40 MSTORE POP DUP2 ADD SWAP1 PUSH2 0x760 SWAP2 SWAP1 PUSH2 0x3FDC JUMP JUMPDEST SWAP1 POP PUSH1 0x0 PUSH1 0x3 SLOAD DUP5 PUSH2 0x772 SWAP2 SWAP1 PUSH2 0x4015 JUMP JUMPDEST CALLER PUSH1 0x0 SWAP1 DUP2 MSTORE PUSH1 0x5 PUSH1 0x20 MSTORE PUSH1 0x40 SWAP1 KECCAK256 PUSH1 0xA SLOAD SWAP2 SWAP3 POP SWAP1 ISZERO PUSH2 0x7B3 JUMPI PUSH1 0xA SLOAD PUSH1 0x9 SLOAD PUSH2 0x7A5 SWAP1 PUSH8 0xDE0B6B3A7640000 PUSH2 0x4015 JUMP JUMPDEST PUSH2 0x7AF SWAP2 SWAP1 PUSH2 0x4042 JUMP JUMPDEST PUSH1 0xB SSTORE JUMPDEST PUSH1 0x5 DUP2 ADD SLOAD PUSH1 0x0 PUSH2 0x7C4 DUP3 TIMESTAMP PUSH2 0x2F62 JUMP JUMPDEST SWAP1 POP PUSH1 0xB4 DUP2 LT ISZERO PUSH2 0x83B JUMPI PUSH1 0x40 MLOAD PUSH3 0x461BCD PUSH1 0xE5 SHL DUP2 MSTORE PUSH1 0x20 PUSH1 0x4 DUP3 ADD MSTORE PUSH1 0x36 PUSH1 0x24 DUP3 ADD MSTORE PUSH32 0x5468652075736572206D7573742077616974206174206C656173742031383020 PUSH1 0x44 DUP3 ADD MSTORE PUSH22 0x6461797320746F2077697468647261772066756E6473 PUSH1 0x50 SHL PUSH1 0x64 DUP3 ADD MSTORE PUSH1 0x84 ADD JUMPDEST PUSH1 0x40 MLOAD DUP1 SWAP2 SUB SWAP1 REVERT JUMPDEST DUP4 DUP4 PUSH1 0x3 ADD SLOAD LT ISZERO PUSH2 0x882 JUMPI PUSH1 0x40 MLOAD PUSH3 0x461BCD PUSH1 0xE5 SHL DUP2 MSTORE PUSH1 0x20 PUSH1 0x4 DUP3 ADD MSTORE PUSH1 0x10 PUSH1 0x24 DUP3 ADD MSTORE PUSH16 0x496E7375666963656E742066756E6473 PUSH1 0x80 SHL PUSH1 0x44 DUP3 ADD MSTORE PUSH1 0x64 ADD PUSH2 0x832 JUMP JUMPDEST CALLER PUSH1 0x0 SWAP1 DUP2 MSTORE PUSH1 0x6 PUSH1 0x20 SWAP1 DUP2 MSTORE PUSH1 0x40 DUP1 DUP4 KECCAK256 PUSH1 0x1 PUSH1 0x1 PUSH1 0xA0 SHL SUB DUP11 AND DUP5 MSTORE SWAP1 SWAP2 MSTORE SWAP1 KECCAK256 SLOAD DUP5 GT ISZERO PUSH2 0x8F5 JUMPI PUSH1 0x40 MLOAD PUSH3 0x461BCD PUSH1 0xE5 SHL DUP2 MSTORE PUSH1 0x20 PUSH1 0x4 DUP3 ADD MSTORE PUSH1 0x1A PUSH1 0x24 DUP3 ADD MSTORE PUSH32 0x496E73756666696369656E7420746F6B656E2062616C616E6365000000000000 PUSH1 0x44 DUP3 ADD MSTORE PUSH1 0x64 ADD PUSH2 0x832 JUMP JUMPDEST CALLER PUSH1 0x0 SWAP1 DUP2 MSTORE PUSH1 0x6 PUSH1 0x20 SWAP1 DUP2 MSTORE PUSH1 0x40 DUP1 DUP4 KECCAK256 PUSH1 0x1 PUSH1 0x1 PUSH1 0xA0 SHL SUB DUP11 AND DUP5 MSTORE SWAP1 SWAP2 MSTORE DUP2 KECCAK256 DUP1 SLOAD DUP7 SWAP3 SWAP1 PUSH2 0x928 SWAP1 DUP5 SWAP1 PUSH2 0x4056 JUMP JUMPDEST SWAP1 SWAP2 SSTORE POP POP PUSH1 0x3 DUP4 ADD SLOAD PUSH1 0x0 SWAP1 PUSH8 0xDE0B6B3A7640000 SWAP1 PUSH2 0x949 SWAP1 DUP3 PUSH2 0x4015 JUMP JUMPDEST PUSH2 0x95B DUP8 PUSH8 0xDE0B6B3A7640000 PUSH2 0x4015 JUMP JUMPDEST PUSH1 0x4 DUP8 ADD SLOAD PUSH2 0x972 SWAP1 PUSH8 0xDE0B6B3A7640000 PUSH2 0x4015 JUMP JUMPDEST PUSH2 0x97C SWAP2 SWAP1 PUSH2 0x4015 JUMP JUMPDEST PUSH2 0x986 SWAP2 SWAP1 PUSH2 0x4042 JUMP JUMPDEST PUSH2 0x990 SWAP2 SWAP1 PUSH2 0x4042 JUMP JUMPDEST SWAP1 POP PUSH1 0x0 PUSH8 0xDE0B6B3A7640000 PUSH1 0x8 PUSH1 0x3 ADD SLOAD DUP4 PUSH2 0x9AE SWAP2 SWAP1 PUSH2 0x4015 JUMP JUMPDEST PUSH2 0x9B8 SWAP2 SWAP1 PUSH2 0x4042 JUMP JUMPDEST SWAP1 POP DUP2 PUSH1 0x8 PUSH1 0x2 ADD PUSH1 0x0 DUP3 DUP3 SLOAD PUSH2 0x9CF SWAP2 SWAP1 PUSH2 0x4056 JUMP JUMPDEST SWAP3 POP POP DUP2 SWAP1 SSTORE POP DUP2 DUP6 PUSH1 0x4 ADD PUSH1 0x0 DUP3 DUP3 SLOAD PUSH2 0x9EA SWAP2 SWAP1 PUSH2 0x4056 JUMP JUMPDEST SWAP1 SWAP2 SSTORE POP POP PUSH1 0x9 DUP1 SLOAD DUP3 SWAP2 SWAP1 PUSH1 0x0 SWAP1 PUSH2 0xA04 SWAP1 DUP5 SWAP1 PUSH2 0x4056 JUMP JUMPDEST SWAP1 SWAP2 SSTORE POP PUSH2 0xA16 SWAP1 POP DUP10 DUP3 DUP11 DUP11 PUSH2 0x2FF8 JUMP JUMPDEST POP POP POP POP POP POP POP POP POP JUMP JUMPDEST PUSH1 0x0 PUSH1 0x1 PUSH1 0x1 PUSH1 0xE0 SHL SUB NOT DUP3 AND PUSH4 0x7965DB0B PUSH1 0xE0 SHL EQ DUP1 PUSH2 0xA52 JUMPI POP PUSH4 0x1FFC9A7 PUSH1 0xE0 SHL PUSH1 0x1 PUSH1 0x1 PUSH1 0xE0 SHL SUB NOT DUP4 AND EQ JUMPDEST SWAP3 SWAP2 POP POP JUMP JUMPDEST PUSH2 0xA64 PUSH1 0x1 SLOAD CALLER PUSH2 0x1A7B JUMP JUMPDEST PUSH2 0xA80 JUMPI PUSH1 0x40 MLOAD PUSH3 0x461BCD PUSH1 0xE5 SHL DUP2 MSTORE PUSH1 0x4 ADD PUSH2 0x832 SWAP1 PUSH2 0x4069 JUMP JUMPDEST PUSH1 0x2 SSTORE JUMP JUMPDEST PUSH1 0x0 SWAP1 DUP2 MSTORE PUSH1 0x0 DUP1 MLOAD PUSH1 0x20 PUSH2 0x4405 DUP4 CODECOPY DUP2 MLOAD SWAP2 MSTORE PUSH1 0x20 MSTORE PUSH1 0x40 SWAP1 KECCAK256 PUSH1 0x1 ADD SLOAD SWAP1 JUMP JUMPDEST PUSH2 0xAB0 DUP3 PUSH2 0xA85 JUMP JUMPDEST PUSH2 0xAB9 DUP2 PUSH2 0x3386 JUMP JUMPDEST PUSH2 0xAC3 DUP4 DUP4 PUSH2 0x3390 JUMP JUMPDEST POP POP POP POP JUMP JUMPDEST PUSH1 0x1 PUSH1 0x1 PUSH1 0xA0 SHL SUB DUP2 AND CALLER EQ PUSH2 0xAF2 JUMPI PUSH1 0x40 MLOAD PUSH4 0x334BD919 PUSH1 0xE1 SHL DUP2 MSTORE PUSH1 0x4 ADD PUSH1 0x40 MLOAD DUP1 SWAP2 SUB SWAP1 REVERT JUMPDEST PUSH2 0xAFC DUP3 DUP3 PUSH2 0x3435 JUMP JUMPDEST POP POP POP JUMP JUMPDEST PUSH2 0xB0D PUSH1 0x1 SLOAD CALLER PUSH2 0x1A7B JUMP JUMPDEST PUSH2 0xB29 JUMPI PUSH1 0x40 MLOAD PUSH3 0x461BCD PUSH1 0xE5 SHL DUP2 MSTORE PUSH1 0x4 ADD PUSH2 0x832 SWAP1 PUSH2 0x4069 JUMP JUMPDEST PUSH1 0x40 MLOAD PUSH4 0x70A08231 PUSH1 0xE0 SHL DUP2 MSTORE ADDRESS PUSH1 0x4 DUP3 ADD MSTORE PUSH1 0x0 SWAP1 PUSH1 0x1 PUSH1 0x1 PUSH1 0xA0 SHL SUB DUP4 AND SWAP1 PUSH4 0x70A08231 SWAP1 PUSH1 0x24 ADD PUSH1 0x20 PUSH1 0x40 MLOAD DUP1 DUP4 SUB DUP2 DUP7 GAS STATICCALL ISZERO DUP1 ISZERO PUSH2 0xB70 JUMPI RETURNDATASIZE PUSH1 0x0 DUP1 RETURNDATACOPY RETURNDATASIZE PUSH1 0x0 REVERT JUMPDEST POP POP POP POP PUSH1 0x40 MLOAD RETURNDATASIZE PUSH1 0x1F NOT PUSH1 0x1F DUP3 ADD AND DUP3 ADD DUP1 PUSH1 0x40 MSTORE POP DUP2 ADD SWAP1 PUSH2 0xB94 SWAP2 SWAP1 PUSH2 0x4099 JUMP JUMPDEST PUSH1 0x8 SLOAD SWAP1 SWAP2 POP ISZERO PUSH2 0xBE7 JUMPI PUSH1 0x40 MLOAD PUSH3 0x461BCD PUSH1 0xE5 SHL DUP2 MSTORE PUSH1 0x20 PUSH1 0x4 DUP3 ADD MSTORE PUSH1 0x19 PUSH1 0x24 DUP3 ADD MSTORE PUSH32 0x54686520746F74616C2066756E6473206D757374206265203000000000000000 PUSH1 0x44 DUP3 ADD MSTORE PUSH1 0x64 ADD PUSH2 0x832 JUMP JUMPDEST PUSH1 0x0 DUP2 GT PUSH2 0xC43 JUMPI PUSH1 0x40 MLOAD PUSH3 0x461BCD PUSH1 0xE5 SHL DUP2 MSTORE PUSH1 0x20 PUSH1 0x4 DUP3 ADD MSTORE PUSH1 0x23 PUSH1 0x24 DUP3 ADD MSTORE PUSH32 0x5468652062616C616E6365206D75737420626520677265617468657220746861 PUSH1 0x44 DUP3 ADD MSTORE PUSH3 0x6E203 PUSH1 0xEC SHL PUSH1 0x64 DUP3 ADD MSTORE PUSH1 0x84 ADD PUSH2 0x832 JUMP JUMPDEST PUSH1 0x40 MLOAD PUSH4 0xA9059CBB PUSH1 0xE0 SHL DUP2 MSTORE CALLER PUSH1 0x4 DUP3 ADD MSTORE PUSH1 0x24 DUP2 ADD DUP3 SWAP1 MSTORE PUSH1 0x1 PUSH1 0x1 PUSH1 0xA0 SHL SUB DUP4 AND SWAP1 PUSH4 0xA9059CBB SWAP1 PUSH1 0x44 ADD PUSH1 0x20 PUSH1 0x40 MLOAD DUP1 DUP4 SUB DUP2 PUSH1 0x0 DUP8 GAS CALL ISZERO DUP1 ISZERO PUSH2 0xC90 JUMPI RETURNDATASIZE PUSH1 0x0 DUP1 RETURNDATACOPY RETURNDATASIZE PUSH1 0x0 REVERT JUMPDEST POP POP POP POP PUSH1 0x40 MLOAD RETURNDATASIZE PUSH1 0x1F NOT PUSH1 0x1F DUP3 ADD AND DUP3 ADD DUP1 PUSH1 0x40 MSTORE POP DUP2 ADD SWAP1 PUSH2 0xCB4 SWAP2 SWAP1 PUSH2 0x40B2 JUMP JUMPDEST PUSH2 0xD00 JUMPI PUSH1 0x40 MLOAD PUSH3 0x461BCD PUSH1 0xE5 SHL DUP2 MSTORE PUSH1 0x20 PUSH1 0x4 DUP3 ADD MSTORE PUSH1 0x1D PUSH1 0x24 DUP3 ADD MSTORE PUSH32 0x4572726F72207768696C65207472616E73666572696E672066756E6473000000 PUSH1 0x44 DUP3 ADD MSTORE PUSH1 0x64 ADD PUSH2 0x832 JUMP JUMPDEST POP POP JUMP JUMPDEST CALLER PUSH1 0x0 SWAP1 DUP2 MSTORE PUSH1 0x5 PUSH1 0x20 MSTORE PUSH1 0x40 DUP2 KECCAK256 PUSH1 0x1 DUP2 ADD DUP1 SLOAD DUP4 SWAP3 SWAP2 DUP4 SWAP2 DUP7 SWAP1 DUP2 LT PUSH2 0xD2E JUMPI PUSH2 0xD2E PUSH2 0x40D4 JUMP JUMPDEST SWAP1 PUSH1 0x0 MSTORE PUSH1 0x20 PUSH1 0x0 KECCAK256 SWAP1 PUSH1 0x6 MUL ADD SWAP1 POP PUSH1 0x0 PUSH2 0xD4E DUP3 PUSH1 0x4 ADD SLOAD TIMESTAMP PUSH2 0x2F62 JUMP JUMPDEST PUSH1 0x2 SLOAD PUSH1 0x1 DUP5 ADD SLOAD PUSH1 0x40 MLOAD PUSH4 0x1786F63 PUSH1 0xE2 SHL DUP2 MSTORE PUSH1 0x4 DUP2 ADD DUP5 SWAP1 MSTORE PUSH1 0x24 DUP2 ADD SWAP3 SWAP1 SWAP3 MSTORE PUSH1 0x44 DUP3 ADD MSTORE SWAP1 SWAP2 POP PUSH1 0x0 SWAP1 DUP2 SWAP1 PUSH20 0x0 SWAP1 PUSH4 0x5E1BD8C SWAP1 PUSH1 0x64 ADD PUSH1 0x40 DUP1 MLOAD DUP1 DUP4 SUB DUP2 DUP7 GAS DELEGATECALL ISZERO DUP1 ISZERO PUSH2 0xDBA JUMPI RETURNDATASIZE PUSH1 0x0 DUP1 RETURNDATACOPY RETURNDATASIZE PUSH1 0x0 REVERT JUMPDEST POP POP POP POP PUSH1 0x40 MLOAD RETURNDATASIZE PUSH1 0x1F NOT PUSH1 0x1F DUP3 ADD AND DUP3 ADD DUP1 PUSH1 0x40 MSTORE POP DUP2 ADD SWAP1 PUSH2 0xDDE SWAP2 SWAP1 PUSH2 0x40EA JUMP JUMPDEST SWAP1 SWAP10 SWAP1 SWAP9 POP SWAP7 POP POP POP POP POP POP POP JUMP JUMPDEST PUSH2 0xDF5 PUSH2 0x34B1 JUMP JUMPDEST PUSH2 0xDFE DUP3 PUSH2 0x3556 JUMP JUMPDEST PUSH2 0xD00 DUP3 DUP3 PUSH2 0x355E JUMP JUMPDEST PUSH1 0x0 PUSH2 0xE12 PUSH2 0x361B JUMP JUMPDEST POP PUSH1 0x0 DUP1 MLOAD PUSH1 0x20 PUSH2 0x43E5 DUP4 CODECOPY DUP2 MLOAD SWAP2 MSTORE SWAP1 JUMP JUMPDEST PUSH2 0xE31 PUSH1 0x1 SLOAD CALLER PUSH2 0x1A7B JUMP JUMPDEST PUSH2 0xE4D JUMPI PUSH1 0x40 MLOAD PUSH3 0x461BCD PUSH1 0xE5 SHL DUP2 MSTORE PUSH1 0x4 ADD PUSH2 0x832 SWAP1 PUSH2 0x4069 JUMP JUMPDEST PUSH1 0x1 PUSH1 0x1 PUSH1 0xA0 SHL SUB AND PUSH1 0x0 SWAP1 DUP2 MSTORE PUSH1 0x7 PUSH1 0x20 MSTORE PUSH1 0x40 SWAP1 KECCAK256 DUP1 SLOAD PUSH1 0xFF NOT AND SWAP1 SSTORE JUMP JUMPDEST PUSH2 0xE76 PUSH2 0x3664 JUMP JUMPDEST PUSH2 0xE82 PUSH1 0x1 SLOAD CALLER PUSH2 0x1A7B JUMP JUMPDEST PUSH2 0xE9E JUMPI PUSH1 0x40 MLOAD PUSH3 0x461BCD PUSH1 0xE5 SHL DUP2 MSTORE PUSH1 0x4 ADD PUSH2 0x832 SWAP1 PUSH2 0x4069 JUMP JUMPDEST PUSH1 0x0 PUSH1 0x3 SLOAD DUP3 PUSH2 0xEAE SWAP2 SWAP1 PUSH2 0x4015 JUMP JUMPDEST PUSH1 0x1 PUSH1 0x1 PUSH1 0xA0 SHL SUB DUP5 AND PUSH1 0x0 SWAP1 DUP2 MSTORE PUSH1 0x5 PUSH1 0x20 MSTORE PUSH1 0x40 SWAP1 KECCAK256 SLOAD SWAP1 SWAP2 POP DUP2 GT ISZERO PUSH2 0xF0C JUMPI PUSH1 0x40 MLOAD PUSH3 0x461BCD PUSH1 0xE5 SHL DUP2 MSTORE PUSH1 0x20 PUSH1 0x4 DUP3 ADD MSTORE PUSH1 0x10 PUSH1 0x24 DUP3 ADD MSTORE PUSH16 0x496E7375666963656E742071756F7461 PUSH1 0x80 SHL PUSH1 0x44 DUP3 ADD MSTORE PUSH1 0x64 ADD PUSH2 0x832 JUMP JUMPDEST PUSH1 0x1 PUSH1 0x1 PUSH1 0xA0 SHL SUB DUP4 AND PUSH1 0x0 SWAP1 DUP2 MSTORE PUSH1 0x5 PUSH1 0x20 MSTORE PUSH1 0x40 DUP2 KECCAK256 DUP1 SLOAD DUP4 SWAP3 SWAP1 PUSH2 0xF34 SWAP1 DUP5 SWAP1 PUSH2 0x4056 JUMP JUMPDEST SWAP1 SWAP2 SSTORE POP POP PUSH1 0x1 PUSH1 0x1 PUSH1 0xA0 SHL SUB DUP4 AND PUSH1 0x0 DUP2 DUP2 MSTORE PUSH1 0x5 PUSH1 0x20 MSTORE PUSH1 0x40 SWAP1 DUP2 SWAP1 KECCAK256 SLOAD SWAP1 MLOAD CALLER SWAP2 PUSH32 0x986757B5F72E5258DE572C036A9155B7F6FCE0DF14FFD1FA633617F668137A39 SWAP2 PUSH2 0xF86 SWAP2 DUP2 MSTORE PUSH1 0x20 ADD SWAP1 JUMP JUMPDEST PUSH1 0x40 MLOAD DUP1 SWAP2 SUB SWAP1 LOG3 POP POP POP JUMP JUMPDEST PUSH2 0xF9B PUSH2 0x3664 JUMP JUMPDEST CALLER PUSH1 0x0 SWAP1 DUP2 MSTORE PUSH1 0x5 PUSH1 0x20 MSTORE PUSH1 0x40 DUP2 KECCAK256 PUSH1 0x3 SLOAD SWAP1 SWAP2 SWAP1 PUSH2 0xFBA SWAP1 DUP7 PUSH2 0x4015 JUMP JUMPDEST SWAP1 POP DUP1 DUP3 PUSH1 0x0 ADD SLOAD LT ISZERO PUSH2 0x1029 JUMPI PUSH1 0x40 MLOAD PUSH3 0x461BCD PUSH1 0xE5 SHL DUP2 MSTORE PUSH1 0x20 PUSH1 0x4 DUP3 ADD MSTORE PUSH1 0x30 PUSH1 0x24 DUP3 ADD MSTORE PUSH32 0x546865207573657220686173206C6573732071756F7461207468616E20746865 PUSH1 0x44 DUP3 ADD MSTORE PUSH16 0x81C995C5D5A5C995908185B5BDD5B9D PUSH1 0x82 SHL PUSH1 0x64 DUP3 ADD MSTORE PUSH1 0x84 ADD PUSH2 0x832 JUMP JUMPDEST PUSH1 0x0 DUP5 PUSH1 0x1 PUSH1 0x1 PUSH1 0xA0 SHL SUB AND PUSH4 0x313CE567 PUSH1 0x40 MLOAD DUP2 PUSH4 0xFFFFFFFF AND PUSH1 0xE0 SHL DUP2 MSTORE PUSH1 0x4 ADD PUSH1 0x20 PUSH1 0x40 MLOAD DUP1 DUP4 SUB DUP2 DUP7 GAS STATICCALL ISZERO DUP1 ISZERO PUSH2 0x1069 JUMPI RETURNDATASIZE PUSH1 0x0 DUP1 RETURNDATACOPY RETURNDATASIZE PUSH1 0x0 REVERT JUMPDEST POP POP POP POP PUSH1 0x40 MLOAD RETURNDATASIZE PUSH1 0x1F NOT PUSH1 0x1F DUP3 ADD AND DUP3 ADD DUP1 PUSH1 0x40 MSTORE POP DUP2 ADD SWAP1 PUSH2 0x108D SWAP2 SWAP1 PUSH2 0x3FDC JUMP JUMPDEST SWAP1 POP PUSH1 0x0 DUP2 PUSH1 0xFF AND GT PUSH2 0x10B2 JUMPI PUSH1 0x40 MLOAD PUSH3 0x461BCD PUSH1 0xE5 SHL DUP2 MSTORE PUSH1 0x4 ADD PUSH2 0x832 SWAP1 PUSH2 0x410E JUMP JUMPDEST PUSH1 0x40 MLOAD PUSH4 0x70A08231 PUSH1 0xE0 SHL DUP2 MSTORE ADDRESS PUSH1 0x4 DUP3 ADD MSTORE PUSH1 0x0 SWAP1 PUSH1 0x1 PUSH1 0x1 PUSH1 0xA0 SHL SUB DUP8 AND SWAP1 PUSH4 0x70A08231 SWAP1 PUSH1 0x24 ADD PUSH1 0x20 PUSH1 0x40 MLOAD DUP1 DUP4 SUB DUP2 DUP7 GAS STATICCALL ISZERO DUP1 ISZERO PUSH2 0x10F9 JUMPI RETURNDATASIZE PUSH1 0x0 DUP1 RETURNDATACOPY RETURNDATASIZE PUSH1 0x0 REVERT JUMPDEST POP POP POP POP PUSH1 0x40 MLOAD RETURNDATASIZE PUSH1 0x1F NOT PUSH1 0x1F DUP3 ADD AND DUP3 ADD DUP1 PUSH1 0x40 MSTORE POP DUP2 ADD SWAP1 PUSH2 0x111D SWAP2 SWAP1 PUSH2 0x4099 JUMP JUMPDEST SWAP1 POP PUSH2 0x112A DUP3 PUSH1 0xA PUSH2 0x4229 JUMP JUMPDEST PUSH2 0x1134 SWAP1 DUP9 PUSH2 0x4015 JUMP JUMPDEST DUP2 LT ISZERO PUSH2 0x117A JUMPI PUSH1 0x40 MLOAD PUSH3 0x461BCD PUSH1 0xE5 SHL DUP2 MSTORE PUSH1 0x20 PUSH1 0x4 DUP3 ADD MSTORE PUSH1 0x14 PUSH1 0x24 DUP3 ADD MSTORE PUSH20 0x496E7375666963656E74206C6971756964697479 PUSH1 0x60 SHL PUSH1 0x44 DUP3 ADD MSTORE PUSH1 0x64 ADD PUSH2 0x832 JUMP JUMPDEST PUSH1 0x0 PUSH2 0x1184 PUSH2 0x36A7 JUMP JUMPDEST PUSH1 0x40 DUP1 MLOAD PUSH1 0xC0 DUP2 ADD DUP3 MSTORE DUP7 DUP2 MSTORE PUSH1 0x20 DUP1 DUP3 ADD DUP9 DUP2 MSTORE PUSH1 0x1 PUSH1 0x1 PUSH1 0xA0 SHL SUB DUP13 DUP2 AND SWAP5 DUP5 ADD SWAP5 DUP6 MSTORE PUSH1 0x60 DUP5 ADD DUP13 DUP2 MSTORE TIMESTAMP PUSH1 0x80 DUP7 ADD SWAP1 DUP2 MSTORE PUSH1 0xA0 DUP7 ADD DUP9 DUP2 MSTORE PUSH1 0x1 DUP15 DUP2 ADD DUP1 SLOAD DUP1 DUP4 ADD DUP3 SSTORE PUSH1 0x0 SWAP2 DUP3 MSTORE SWAP8 DUP2 KECCAK256 SWAP9 MLOAD PUSH1 0x6 SWAP1 SWAP9 MUL SWAP1 SWAP9 ADD SWAP7 DUP8 SSTORE SWAP5 MLOAD SWAP5 DUP7 ADD SWAP5 SWAP1 SWAP5 SSTORE SWAP6 MLOAD PUSH1 0x2 DUP6 ADD DUP1 SLOAD PUSH1 0x1 PUSH1 0x1 PUSH1 0xA0 SHL SUB NOT AND SWAP2 SWAP1 SWAP4 AND OR SWAP1 SWAP2 SSTORE MLOAD PUSH1 0x3 DUP4 ADD SSTORE SWAP3 MLOAD PUSH1 0x4 DUP3 ADD SSTORE SWAP2 MLOAD PUSH1 0x5 SWAP1 SWAP3 ADD SWAP2 SWAP1 SWAP2 SSTORE DUP7 SLOAD SWAP2 SWAP3 POP DUP6 SWAP2 DUP8 SWAP2 SWAP1 PUSH2 0x1231 SWAP1 DUP5 SWAP1 PUSH2 0x4056 JUMP JUMPDEST SWAP1 SWAP2 SSTORE POP POP PUSH1 0x1 PUSH1 0x1 PUSH1 0xA0 SHL SUB DUP8 AND PUSH4 0xA9059CBB CALLER PUSH2 0x1251 DUP7 PUSH1 0xA PUSH2 0x4229 JUMP JUMPDEST PUSH2 0x125B SWAP1 DUP13 PUSH2 0x4015 JUMP JUMPDEST PUSH1 0x40 MLOAD PUSH1 0x1 PUSH1 0x1 PUSH1 0xE0 SHL SUB NOT PUSH1 0xE0 DUP6 SWAP1 SHL AND DUP2 MSTORE PUSH1 0x1 PUSH1 0x1 PUSH1 0xA0 SHL SUB SWAP1 SWAP3 AND PUSH1 0x4 DUP4 ADD MSTORE PUSH1 0x24 DUP3 ADD MSTORE PUSH1 0x44 ADD PUSH1 0x20 PUSH1 0x40 MLOAD DUP1 DUP4 SUB DUP2 PUSH1 0x0 DUP8 GAS CALL ISZERO DUP1 ISZERO PUSH2 0x12A6 JUMPI RETURNDATASIZE PUSH1 0x0 DUP1 RETURNDATACOPY RETURNDATASIZE PUSH1 0x0 REVERT JUMPDEST POP POP POP POP PUSH1 0x40 MLOAD RETURNDATASIZE PUSH1 0x1F NOT PUSH1 0x1F DUP3 ADD AND DUP3 ADD DUP1 PUSH1 0x40 MSTORE POP DUP2 ADD SWAP1 PUSH2 0x12CA SWAP2 SWAP1 PUSH2 0x40B2 JUMP JUMPDEST PUSH2 0x1316 JUMPI PUSH1 0x40 MLOAD PUSH3 0x461BCD PUSH1 0xE5 SHL DUP2 MSTORE PUSH1 0x20 PUSH1 0x4 DUP3 ADD MSTORE PUSH1 0x1E PUSH1 0x24 DUP3 ADD MSTORE PUSH32 0x4572726F72207768696C65207472616E73666572696E67206173736574730000 PUSH1 0x44 DUP3 ADD MSTORE PUSH1 0x64 ADD PUSH2 0x832 JUMP JUMPDEST PUSH1 0x40 DUP1 MLOAD DUP6 DUP2 MSTORE PUSH1 0xFF DUP6 AND PUSH1 0x20 DUP3 ADD MSTORE SWAP1 DUP2 ADD DUP8 SWAP1 MSTORE PUSH1 0x60 DUP2 ADD DUP3 SWAP1 MSTORE PUSH1 0x1 PUSH1 0x1 PUSH1 0xA0 SHL SUB DUP9 AND SWAP1 CALLER SWAP1 PUSH32 0x473896B256EEDAA907360E7BB0DFD12EBCAD749E88D45AA79325BF4AAD4AFBFC SWAP1 PUSH1 0x80 ADD PUSH1 0x40 MLOAD DUP1 SWAP2 SUB SWAP1 LOG3 POP POP POP POP POP POP POP POP JUMP JUMPDEST PUSH2 0x137F PUSH2 0x3707 JUMP JUMPDEST PUSH2 0x1389 PUSH1 0x0 PUSH2 0x3762 JUMP JUMPDEST JUMP JUMPDEST PUSH2 0x1397 PUSH1 0x1 SLOAD CALLER PUSH2 0x1A7B JUMP JUMPDEST PUSH2 0x13B3 JUMPI PUSH1 0x40 MLOAD PUSH3 0x461BCD PUSH1 0xE5 SHL DUP2 MSTORE PUSH1 0x4 ADD PUSH2 0x832 SWAP1 PUSH2 0x4069 JUMP JUMPDEST PUSH2 0x13BF PUSH1 0x1 SLOAD DUP3 PUSH2 0x3390 JUMP JUMPDEST POP PUSH2 0xD00 PUSH1 0x1 SLOAD CALLER PUSH2 0x3435 JUMP JUMPDEST PUSH2 0x13D4 PUSH2 0x3664 JUMP JUMPDEST PUSH2 0x13E0 PUSH1 0x1 SLOAD CALLER PUSH2 0x1A7B JUMP JUMPDEST PUSH2 0x13FC JUMPI PUSH1 0x40 MLOAD PUSH3 0x461BCD PUSH1 0xE5 SHL DUP2 MSTORE PUSH1 0x4 ADD PUSH2 0x832 SWAP1 PUSH2 0x4069 JUMP JUMPDEST PUSH1 0x0 PUSH1 0x3 SLOAD DUP5 PUSH2 0x140C SWAP2 SWAP1 PUSH2 0x4015 JUMP JUMPDEST SWAP1 POP PUSH1 0x0 DUP3 PUSH8 0xFFFFFFFFFFFFFFFF DUP2 GT ISZERO PUSH2 0x1429 JUMPI PUSH2 0x1429 PUSH2 0x3B62 JUMP JUMPDEST PUSH1 0x40 MLOAD SWAP1 DUP1 DUP3 MSTORE DUP1 PUSH1 0x20 MUL PUSH1 0x20 ADD DUP3 ADD PUSH1 0x40 MSTORE DUP1 ISZERO PUSH2 0x1452 JUMPI DUP2 PUSH1 0x20 ADD PUSH1 0x20 DUP3 MUL DUP1 CALLDATASIZE DUP4 CALLDATACOPY ADD SWAP1 POP JUMPDEST POP SWAP1 POP PUSH1 0x3 DUP4 LT ISZERO PUSH2 0x14A6 JUMPI PUSH1 0x40 MLOAD PUSH3 0x461BCD PUSH1 0xE5 SHL DUP2 MSTORE PUSH1 0x20 PUSH1 0x4 DUP3 ADD MSTORE PUSH1 0x19 PUSH1 0x24 DUP3 ADD MSTORE PUSH32 0x5369676E657273206D757374206265206174206C656174203300000000000000 PUSH1 0x44 DUP3 ADD MSTORE PUSH1 0x64 ADD PUSH2 0x832 JUMP JUMPDEST PUSH1 0xA DUP4 GT ISZERO PUSH2 0x14F7 JUMPI PUSH1 0x40 MLOAD PUSH3 0x461BCD PUSH1 0xE5 SHL DUP2 MSTORE PUSH1 0x20 PUSH1 0x4 DUP3 ADD MSTORE PUSH1 0x1D PUSH1 0x24 DUP3 ADD MSTORE PUSH32 0x5369676E657273206D757374206265206C65617374207468616E203130000000 PUSH1 0x44 DUP3 ADD MSTORE PUSH1 0x64 ADD PUSH2 0x832 JUMP JUMPDEST PUSH1 0x0 DUP6 GT PUSH2 0x1547 JUMPI PUSH1 0x40 MLOAD PUSH3 0x461BCD PUSH1 0xE5 SHL DUP2 MSTORE PUSH1 0x20 PUSH1 0x4 DUP3 ADD MSTORE PUSH1 0x1E PUSH1 0x24 DUP3 ADD MSTORE PUSH32 0x416D6F756E74206D757374206265206772656174686572207468616E20300000 PUSH1 0x44 DUP3 ADD MSTORE PUSH1 0x64 ADD PUSH2 0x832 JUMP JUMPDEST PUSH1 0x1 PUSH1 0x1 PUSH1 0xA0 SHL SUB DUP7 AND PUSH1 0x0 SWAP1 DUP2 MSTORE PUSH1 0x5 PUSH1 0x20 SWAP1 DUP2 MSTORE PUSH1 0x40 DUP1 DUP4 KECCAK256 DUP2 MLOAD PUSH1 0x80 DUP2 ADD DUP4 MSTORE DUP7 DUP2 MSTORE DUP1 DUP5 ADD DUP6 DUP2 MSTORE DUP4 MLOAD DUP7 DUP2 MSTORE DUP1 DUP7 ADD DUP6 MSTORE DUP3 DUP6 ADD SWAP1 DUP2 MSTORE DUP5 MLOAD DUP8 DUP2 MSTORE DUP1 DUP8 ADD SWAP1 SWAP6 MSTORE PUSH1 0x60 DUP4 ADD SWAP5 SWAP1 SWAP5 MSTORE PUSH1 0x2 SWAP3 DUP4 ADD DUP1 SLOAD PUSH1 0x1 DUP1 DUP3 ADD DUP4 SSTORE SWAP2 DUP9 MSTORE SWAP7 DUP7 SWAP1 KECCAK256 DUP4 MLOAD PUSH1 0x4 SWAP1 SWAP9 MUL ADD SWAP7 DUP8 SSTORE SWAP1 MLOAD SWAP1 DUP7 ADD DUP1 SLOAD PUSH1 0xFF NOT AND PUSH1 0xFF SWAP1 SWAP3 AND SWAP2 SWAP1 SWAP2 OR SWAP1 SSTORE SWAP2 MLOAD DUP1 MLOAD SWAP3 SWAP5 SWAP4 PUSH2 0x15E3 SWAP4 SWAP3 DUP6 ADD SWAP3 SWAP2 ADD SWAP1 PUSH2 0x3A42 JUMP JUMPDEST POP PUSH1 0x60 DUP3 ADD MLOAD DUP1 MLOAD PUSH2 0x15FF SWAP2 PUSH1 0x3 DUP5 ADD SWAP2 PUSH1 0x20 SWAP1 SWAP2 ADD SWAP1 PUSH2 0x3A42 JUMP JUMPDEST POP POP POP PUSH1 0x0 DUP1 JUMPDEST PUSH1 0xFF DUP2 AND DUP6 GT ISZERO PUSH2 0x17A0 JUMPI PUSH1 0x0 DUP7 DUP7 DUP4 PUSH1 0xFF AND DUP2 DUP2 LT PUSH2 0x1628 JUMPI PUSH2 0x1628 PUSH2 0x40D4 JUMP JUMPDEST SWAP1 POP PUSH1 0x20 MUL ADD PUSH1 0x20 DUP2 ADD SWAP1 PUSH2 0x163D SWAP2 SWAP1 PUSH2 0x3B47 JUMP JUMPDEST SWAP1 POP PUSH1 0x0 JUMPDEST DUP4 DUP2 PUSH1 0xFF AND LT ISZERO PUSH2 0x16DA JUMPI DUP5 DUP2 PUSH1 0xFF AND DUP2 MLOAD DUP2 LT PUSH2 0x1662 JUMPI PUSH2 0x1662 PUSH2 0x40D4 JUMP JUMPDEST PUSH1 0x20 MUL PUSH1 0x20 ADD ADD MLOAD PUSH1 0x1 PUSH1 0x1 PUSH1 0xA0 SHL SUB AND DUP3 PUSH1 0x1 PUSH1 0x1 PUSH1 0xA0 SHL SUB AND SUB PUSH2 0x16CA JUMPI PUSH1 0x40 MLOAD PUSH3 0x461BCD PUSH1 0xE5 SHL DUP2 MSTORE PUSH1 0x20 PUSH1 0x4 DUP3 ADD MSTORE PUSH1 0x19 PUSH1 0x24 DUP3 ADD MSTORE PUSH32 0x4475706C6963617465207369676E657220646574656374656400000000000000 PUSH1 0x44 DUP3 ADD MSTORE PUSH1 0x64 ADD PUSH2 0x832 JUMP JUMPDEST PUSH2 0x16D3 DUP2 PUSH2 0x4238 JUMP JUMPDEST SWAP1 POP PUSH2 0x1642 JUMP JUMPDEST POP DUP1 DUP5 DUP5 DUP2 MLOAD DUP2 LT PUSH2 0x16EE JUMPI PUSH2 0x16EE PUSH2 0x40D4 JUMP JUMPDEST PUSH1 0x1 PUSH1 0x1 PUSH1 0xA0 SHL SUB SWAP1 SWAP3 AND PUSH1 0x20 SWAP3 DUP4 MUL SWAP2 SWAP1 SWAP2 ADD SWAP1 SWAP2 ADD MSTORE DUP3 PUSH2 0x1710 DUP2 PUSH2 0x4257 JUMP JUMPDEST PUSH1 0x1 PUSH1 0x1 PUSH1 0xA0 SHL SUB DUP12 AND PUSH1 0x0 SWAP1 DUP2 MSTORE PUSH1 0x5 PUSH1 0x20 MSTORE PUSH1 0x40 SWAP1 KECCAK256 PUSH1 0x2 ADD DUP1 SLOAD SWAP2 SWAP6 POP SWAP2 POP PUSH2 0x173E SWAP1 PUSH1 0x1 SWAP1 PUSH2 0x4056 JUMP JUMPDEST DUP2 SLOAD DUP2 LT PUSH2 0x174E JUMPI PUSH2 0x174E PUSH2 0x40D4 JUMP JUMPDEST PUSH1 0x0 SWAP2 DUP3 MSTORE PUSH1 0x20 DUP1 DUP4 KECCAK256 PUSH1 0x4 SWAP3 SWAP1 SWAP3 MUL SWAP1 SWAP2 ADD PUSH1 0x2 ADD DUP1 SLOAD PUSH1 0x1 DUP2 ADD DUP3 SSTORE SWAP1 DUP4 MSTORE SWAP2 KECCAK256 ADD DUP1 SLOAD PUSH1 0x1 PUSH1 0x1 PUSH1 0xA0 SHL SUB NOT AND PUSH1 0x1 PUSH1 0x1 PUSH1 0xA0 SHL SUB SWAP3 SWAP1 SWAP3 AND SWAP2 SWAP1 SWAP2 OR SWAP1 SSTORE PUSH2 0x1799 DUP2 PUSH2 0x4238 JUMP JUMPDEST SWAP1 POP PUSH2 0x1606 JUMP JUMPDEST POP PUSH1 0x1 PUSH1 0x1 PUSH1 0xA0 SHL SUB DUP8 AND PUSH1 0x0 DUP2 DUP2 MSTORE PUSH1 0x5 PUSH1 0x20 MSTORE PUSH1 0x40 SWAP1 KECCAK256 PUSH1 0x2 ADD SLOAD PUSH2 0x17C9 SWAP1 PUSH1 0x1 SWAP1 PUSH2 0x4056 JUMP JUMPDEST PUSH2 0xFFFF AND CALLER PUSH1 0x1 PUSH1 0x1 PUSH1 0xA0 SHL SUB AND PUSH32 0xB64377EC6609831EAA829C32823DF50AD3DB86E1636B0923EE03FA1A685EFF6 DUP10 DUP10 DUP10 PUSH1 0x40 MLOAD PUSH2 0x180A SWAP4 SWAP3 SWAP2 SWAP1 PUSH2 0x4270 JUMP JUMPDEST PUSH1 0x40 MLOAD DUP1 SWAP2 SUB SWAP1 LOG4 POP POP POP POP POP POP POP JUMP JUMPDEST PUSH1 0x1 PUSH1 0x1 PUSH1 0xA0 SHL SUB DUP4 AND PUSH1 0x0 SWAP1 DUP2 MSTORE PUSH1 0x5 PUSH1 0x20 MSTORE PUSH1 0x40 DUP2 KECCAK256 PUSH1 0x1 DUP2 ADD SLOAD PUSH1 0x60 SWAP3 PUSH2 0x1845 DUP6 DUP4 PUSH2 0x4042 JUMP JUMPDEST SWAP1 POP PUSH1 0x0 PUSH2 0x1853 DUP7 DUP5 PUSH2 0x42C6 JUMP JUMPDEST GT ISZERO PUSH2 0x1867 JUMPI PUSH2 0x1864 PUSH1 0x1 DUP3 PUSH2 0x42DA JUMP JUMPDEST SWAP1 POP JUMPDEST DUP1 DUP7 GT ISZERO PUSH2 0x18A6 JUMPI PUSH1 0x40 MLOAD PUSH3 0x461BCD PUSH1 0xE5 SHL DUP2 MSTORE PUSH1 0x20 PUSH1 0x4 DUP3 ADD MSTORE PUSH1 0xC PUSH1 0x24 DUP3 ADD MSTORE PUSH12 0x496E76616C69642070616765 PUSH1 0xA0 SHL PUSH1 0x44 DUP3 ADD MSTORE PUSH1 0x64 ADD PUSH2 0x832 JUMP JUMPDEST PUSH1 0x0 DUP6 GT PUSH2 0x18EA JUMPI PUSH1 0x40 MLOAD PUSH3 0x461BCD PUSH1 0xE5 SHL DUP2 MSTORE PUSH1 0x20 PUSH1 0x4 DUP3 ADD MSTORE PUSH1 0x11 PUSH1 0x24 DUP3 ADD MSTORE PUSH17 0x496E76616C696420706167652073697A65 PUSH1 0x78 SHL PUSH1 0x44 DUP3 ADD MSTORE PUSH1 0x64 ADD PUSH2 0x832 JUMP JUMPDEST PUSH1 0x0 DUP6 PUSH2 0x18F8 PUSH1 0x1 DUP10 PUSH2 0x4056 JUMP JUMPDEST PUSH2 0x1902 SWAP2 SWAP1 PUSH2 0x4015 JUMP JUMPDEST SWAP1 POP PUSH1 0x0 PUSH2 0x1910 DUP8 DUP4 PUSH2 0x42DA JUMP JUMPDEST SWAP1 POP DUP4 DUP2 GT ISZERO PUSH2 0x191D JUMPI POP DUP3 JUMPDEST PUSH1 0x0 PUSH2 0x1929 DUP4 DUP4 PUSH2 0x4056 JUMP JUMPDEST PUSH8 0xFFFFFFFFFFFFFFFF DUP2 GT ISZERO PUSH2 0x1941 JUMPI PUSH2 0x1941 PUSH2 0x3B62 JUMP JUMPDEST PUSH1 0x40 MLOAD SWAP1 DUP1 DUP3 MSTORE DUP1 PUSH1 0x20 MUL PUSH1 0x20 ADD DUP3 ADD PUSH1 0x40 MSTORE DUP1 ISZERO PUSH2 0x19B4 JUMPI DUP2 PUSH1 0x20 ADD JUMPDEST PUSH2 0x19A1 PUSH1 0x40 MLOAD DUP1 PUSH1 0xC0 ADD PUSH1 0x40 MSTORE DUP1 PUSH1 0x0 DUP2 MSTORE PUSH1 0x20 ADD PUSH1 0x0 DUP2 MSTORE PUSH1 0x20 ADD PUSH1 0x0 PUSH1 0x1 PUSH1 0x1 PUSH1 0xA0 SHL SUB AND DUP2 MSTORE PUSH1 0x20 ADD PUSH1 0x0 DUP2 MSTORE PUSH1 0x20 ADD PUSH1 0x0 DUP2 MSTORE PUSH1 0x20 ADD PUSH1 0x0 DUP2 MSTORE POP SWAP1 JUMP JUMPDEST DUP2 MSTORE PUSH1 0x20 ADD SWAP1 PUSH1 0x1 SWAP1 SUB SWAP1 DUP2 PUSH2 0x195F JUMPI SWAP1 POP JUMPDEST POP SWAP1 POP DUP3 JUMPDEST DUP3 DUP2 LT ISZERO PUSH2 0x1A6B JUMPI DUP7 PUSH1 0x1 ADD DUP2 DUP2 SLOAD DUP2 LT PUSH2 0x19D6 JUMPI PUSH2 0x19D6 PUSH2 0x40D4 JUMP JUMPDEST PUSH1 0x0 SWAP2 DUP3 MSTORE PUSH1 0x20 SWAP2 DUP3 SWAP1 KECCAK256 PUSH1 0x40 DUP1 MLOAD PUSH1 0xC0 DUP2 ADD DUP3 MSTORE PUSH1 0x6 SWAP1 SWAP4 MUL SWAP1 SWAP2 ADD DUP1 SLOAD DUP4 MSTORE PUSH1 0x1 DUP2 ADD SLOAD SWAP4 DUP4 ADD SWAP4 SWAP1 SWAP4 MSTORE PUSH1 0x2 DUP4 ADD SLOAD PUSH1 0x1 PUSH1 0x1 PUSH1 0xA0 SHL SUB AND SWAP1 DUP3 ADD MSTORE PUSH1 0x3 DUP3 ADD SLOAD PUSH1 0x60 DUP3 ADD MSTORE PUSH1 0x4 DUP3 ADD SLOAD PUSH1 0x80 DUP3 ADD MSTORE PUSH1 0x5 SWAP1 SWAP2 ADD SLOAD PUSH1 0xA0 DUP3 ADD MSTORE DUP3 PUSH2 0x1A3F DUP7 DUP5 PUSH2 0x4056 JUMP JUMPDEST DUP2 MLOAD DUP2 LT PUSH2 0x1A4F JUMPI PUSH2 0x1A4F PUSH2 0x40D4 JUMP JUMPDEST PUSH1 0x20 MUL PUSH1 0x20 ADD ADD DUP2 SWAP1 MSTORE POP DUP1 PUSH2 0x1A64 SWAP1 PUSH2 0x4257 JUMP JUMPDEST SWAP1 POP PUSH2 0x19B9 JUMP JUMPDEST POP SWAP6 POP POP POP POP POP POP JUMPDEST SWAP4 SWAP3 POP POP POP JUMP JUMPDEST PUSH1 0x0 SWAP2 DUP3 MSTORE PUSH1 0x0 DUP1 MLOAD PUSH1 0x20 PUSH2 0x4405 DUP4 CODECOPY DUP2 MLOAD SWAP2 MSTORE PUSH1 0x20 SWAP1 DUP2 MSTORE PUSH1 0x40 DUP1 DUP5 KECCAK256 PUSH1 0x1 PUSH1 0x1 PUSH1 0xA0 SHL SUB SWAP4 SWAP1 SWAP4 AND DUP5 MSTORE SWAP2 SWAP1 MSTORE SWAP1 KECCAK256 SLOAD PUSH1 0xFF AND SWAP1 JUMP JUMPDEST PUSH1 0x0 DUP2 PUSH1 0x1 PUSH1 0x1 PUSH1 0xA0 SHL SUB AND PUSH4 0x313CE567 PUSH1 0x40 MLOAD DUP2 PUSH4 0xFFFFFFFF AND PUSH1 0xE0 SHL DUP2 MSTORE PUSH1 0x4 ADD PUSH1 0x20 PUSH1 0x40 MLOAD DUP1 DUP4 SUB DUP2 DUP7 GAS STATICCALL ISZERO DUP1 ISZERO PUSH2 0x1AF3 JUMPI RETURNDATASIZE PUSH1 0x0 DUP1 RETURNDATACOPY RETURNDATASIZE PUSH1 0x0 REVERT JUMPDEST POP POP POP POP PUSH1 0x40 MLOAD RETURNDATASIZE PUSH1 0x1F NOT PUSH1 0x1F DUP3 ADD AND DUP3 ADD DUP1 PUSH1 0x40 MSTORE POP DUP2 ADD SWAP1 PUSH2 0x1B17 SWAP2 SWAP1 PUSH2 0x3FDC JUMP JUMPDEST SWAP1 POP PUSH1 0x0 PUSH1 0x3 SLOAD DUP5 PUSH2 0x1B29 SWAP2 SWAP1 PUSH2 0x4015 JUMP JUMPDEST CALLER PUSH1 0x0 SWAP1 DUP2 MSTORE PUSH1 0x5 PUSH1 0x20 DUP2 SWAP1 MSTORE PUSH1 0x40 SWAP1 SWAP2 KECCAK256 SWAP1 DUP2 ADD SLOAD PUSH1 0x3 DUP3 ADD SLOAD SWAP3 SWAP4 POP SWAP1 SWAP2 DUP4 GT ISZERO PUSH2 0x1B8B JUMPI PUSH1 0x40 MLOAD PUSH3 0x461BCD PUSH1 0xE5 SHL DUP2 MSTORE PUSH1 0x20 PUSH1 0x4 DUP3 ADD MSTORE PUSH1 0x10 PUSH1 0x24 DUP3 ADD MSTORE PUSH16 0x496E7375666963656E742066756E6473 PUSH1 0x80 SHL PUSH1 0x44 DUP3 ADD MSTORE PUSH1 0x64 ADD PUSH2 0x832 JUMP JUMPDEST CALLER PUSH1 0x0 SWAP1 DUP2 MSTORE PUSH1 0x6 PUSH1 0x20 SWAP1 DUP2 MSTORE PUSH1 0x40 DUP1 DUP4 KECCAK256 PUSH1 0x1 PUSH1 0x1 PUSH1 0xA0 SHL SUB DUP10 AND DUP5 MSTORE SWAP1 SWAP2 MSTORE SWAP1 KECCAK256 SLOAD DUP4 GT ISZERO PUSH2 0x1BFE JUMPI PUSH1 0x40 MLOAD PUSH3 0x461BCD PUSH1 0xE5 SHL DUP2 MSTORE PUSH1 0x20 PUSH1 0x4 DUP3 ADD MSTORE PUSH1 0x1A PUSH1 0x24 DUP3 ADD MSTORE PUSH32 0x496E73756666696369656E7420746F6B656E2062616C616E6365000000000000 PUSH1 0x44 DUP3 ADD MSTORE PUSH1 0x64 ADD PUSH2 0x832 JUMP JUMPDEST CALLER PUSH1 0x0 SWAP1 DUP2 MSTORE PUSH1 0x6 PUSH1 0x20 SWAP1 DUP2 MSTORE PUSH1 0x40 DUP1 DUP4 KECCAK256 PUSH1 0x1 PUSH1 0x1 PUSH1 0xA0 SHL SUB DUP10 AND DUP5 MSTORE SWAP1 SWAP2 MSTORE DUP2 KECCAK256 DUP1 SLOAD DUP6 SWAP3 SWAP1 PUSH2 0x1C31 SWAP1 DUP5 SWAP1 PUSH2 0x4056 JUMP JUMPDEST SWAP1 SWAP2 SSTORE POP POP PUSH1 0x4 DUP3 ADD SLOAD PUSH1 0xA DUP1 SLOAD PUSH1 0x0 SWAP1 PUSH2 0x1C4D SWAP1 DUP5 SWAP1 PUSH2 0x4056 JUMP JUMPDEST SWAP1 SWAP2 SSTORE POP POP PUSH1 0x0 PUSH1 0x4 DUP4 ADD DUP2 SWAP1 SSTORE PUSH2 0x1C68 SWAP1 DUP8 SWAP1 DUP8 DUP8 PUSH2 0x2FF8 JUMP JUMPDEST POP POP POP POP POP POP JUMP JUMPDEST PUSH32 0xF0C57E16840DF040F15088DC2F81FE391C3923BEC73E23A9662EFC9C229C6A00 DUP1 SLOAD PUSH1 0x1 PUSH1 0x40 SHL DUP2 DIV PUSH1 0xFF AND ISZERO SWAP1 PUSH8 0xFFFFFFFFFFFFFFFF AND PUSH1 0x0 DUP2 ISZERO DUP1 ISZERO PUSH2 0x1CB6 JUMPI POP DUP3 JUMPDEST SWAP1 POP PUSH1 0x0 DUP3 PUSH8 0xFFFFFFFFFFFFFFFF AND PUSH1 0x1 EQ DUP1 ISZERO PUSH2 0x1CD3 JUMPI POP ADDRESS EXTCODESIZE ISZERO JUMPDEST SWAP1 POP DUP2 ISZERO DUP1 ISZERO PUSH2 0x1CE1 JUMPI POP DUP1 ISZERO JUMPDEST ISZERO PUSH2 0x1CFF JUMPI PUSH1 0x40 MLOAD PUSH4 0xF92EE8A9 PUSH1 0xE0 SHL DUP2 MSTORE PUSH1 0x4 ADD PUSH1 0x40 MLOAD DUP1 SWAP2 SUB SWAP1 REVERT JUMPDEST DUP5 SLOAD PUSH8 0xFFFFFFFFFFFFFFFF NOT AND PUSH1 0x1 OR DUP6 SSTORE DUP4 ISZERO PUSH2 0x1D29 JUMPI DUP5 SLOAD PUSH1 0xFF PUSH1 0x40 SHL NOT AND PUSH1 0x1 PUSH1 0x40 SHL OR DUP6 SSTORE JUMPDEST PUSH2 0x1D32 DUP8 PUSH2 0x37D3 JUMP JUMPDEST PUSH2 0x1D3A PUSH2 0x37E4 JUMP JUMPDEST PUSH32 0x875992236F2B756C480A83B0053E711E5A04D6EC8BF4B52208EF8F002F175C7 PUSH1 0x0 DUP2 DUP2 SSTORE PUSH32 0xDF8B4C520FFE197C5343C6F5AEC59570151EF9A492F2C624FD45DDDE6135EC42 PUSH1 0x1 SSTORE PUSH2 0x3FB4 PUSH1 0x2 SSTORE PUSH2 0x3E8 PUSH1 0x3 SSTORE PUSH1 0x4 SSTORE PUSH2 0x1D9D SWAP1 DUP10 PUSH2 0x3390 JUMP JUMPDEST POP PUSH2 0x1DAA PUSH1 0x1 SLOAD DUP8 PUSH2 0x3390 JUMP JUMPDEST POP DUP4 ISZERO PUSH2 0x1DF1 JUMPI DUP5 SLOAD PUSH1 0xFF PUSH1 0x40 SHL NOT AND DUP6 SSTORE PUSH1 0x40 MLOAD PUSH1 0x1 DUP2 MSTORE PUSH32 0xC7F505B2F371AE2175EE4913F4499E1F2633A7B5936321EED1CDAEB6115181D2 SWAP1 PUSH1 0x20 ADD PUSH1 0x40 MLOAD DUP1 SWAP2 SUB SWAP1 LOG1 JUMPDEST POP POP POP POP POP POP POP POP JUMP JUMPDEST PUSH2 0x1E07 PUSH1 0x1 SLOAD CALLER PUSH2 0x1A7B JUMP JUMPDEST PUSH2 0x1E23 JUMPI PUSH1 0x40 MLOAD PUSH3 0x461BCD PUSH1 0xE5 SHL DUP2 MSTORE PUSH1 0x4 ADD PUSH2 0x832 SWAP1 PUSH2 0x4069 JUMP JUMPDEST PUSH2 0x1E2B PUSH2 0x3664 JUMP JUMPDEST PUSH1 0x1 PUSH1 0x1 PUSH1 0xA0 SHL SUB DUP2 AND PUSH1 0x0 DUP2 DUP2 MSTORE PUSH1 0x7 PUSH1 0x20 MSTORE PUSH1 0x40 DUP1 DUP3 KECCAK256 DUP1 SLOAD PUSH1 0xFF NOT AND PUSH1 0x1 OR SWAP1 SSTORE DUP1 MLOAD PUSH4 0x95D89B41 PUSH1 0xE0 SHL DUP2 MSTORE SWAP1 MLOAD SWAP2 SWAP3 SWAP2 PUSH4 0x95D89B41 SWAP2 PUSH1 0x4 DUP1 DUP3 ADD SWAP3 DUP7 SWAP3 SWAP1 SWAP2 SWAP1 DUP3 SWAP1 SUB ADD DUP2 DUP7 GAS STATICCALL ISZERO DUP1 ISZERO PUSH2 0x1E8A JUMPI RETURNDATASIZE PUSH1 0x0 DUP1 RETURNDATACOPY RETURNDATASIZE PUSH1 0x0 REVERT JUMPDEST POP POP POP POP PUSH1 0x40 MLOAD RETURNDATASIZE PUSH1 0x0 DUP3 RETURNDATACOPY PUSH1 0x1F RETURNDATASIZE SWAP1 DUP2 ADD PUSH1 0x1F NOT AND DUP3 ADD PUSH1 0x40 MSTORE PUSH2 0x1EB2 SWAP2 SWAP1 DUP2 ADD SWAP1 PUSH2 0x42ED JUMP JUMPDEST SWAP1 POP PUSH1 0x0 DUP3 PUSH1 0x1 PUSH1 0x1 PUSH1 0xA0 SHL SUB AND PUSH4 0x6FDDE03 PUSH1 0x40 MLOAD DUP2 PUSH4 0xFFFFFFFF AND PUSH1 0xE0 SHL DUP2 MSTORE PUSH1 0x4 ADD PUSH1 0x0 PUSH1 0x40 MLOAD DUP1 DUP4 SUB DUP2 DUP7 GAS STATICCALL ISZERO DUP1 ISZERO PUSH2 0x1EF4 JUMPI RETURNDATASIZE PUSH1 0x0 DUP1 RETURNDATACOPY RETURNDATASIZE PUSH1 0x0 REVERT JUMPDEST POP POP POP POP PUSH1 0x40 MLOAD RETURNDATASIZE PUSH1 0x0 DUP3 RETURNDATACOPY PUSH1 0x1F RETURNDATASIZE SWAP1 DUP2 ADD PUSH1 0x1F NOT AND DUP3 ADD PUSH1 0x40 MSTORE PUSH2 0x1F1C SWAP2 SWAP1 DUP2 ADD SWAP1 PUSH2 0x42ED JUMP JUMPDEST SWAP1 POP DUP3 PUSH1 0x1 PUSH1 0x1 PUSH1 0xA0 SHL SUB AND PUSH32 0x2FB34CE114A136590B874D8CF80E7652ADDA576578BACFA4F8023F720F569394 DUP4 DUP4 PUSH1 0x40 MLOAD PUSH2 0x1F59 SWAP3 SWAP2 SWAP1 PUSH2 0x435B JUMP JUMPDEST PUSH1 0x40 MLOAD DUP1 SWAP2 SUB SWAP1 LOG2 POP POP POP JUMP JUMPDEST PUSH2 0x1F6F DUP3 PUSH2 0xA85 JUMP JUMPDEST PUSH2 0x1F78 DUP2 PUSH2 0x3386 JUMP JUMPDEST PUSH2 0xAC3 DUP4 DUP4 PUSH2 0x3435 JUMP JUMPDEST CALLER PUSH1 0x0 SWAP1 DUP2 MSTORE PUSH1 0x5 PUSH1 0x20 MSTORE PUSH1 0x40 DUP2 KECCAK256 PUSH1 0x1 DUP2 ADD DUP1 SLOAD SWAP2 SWAP3 SWAP2 DUP5 SWAP1 DUP2 LT PUSH2 0x1FAA JUMPI PUSH2 0x1FAA PUSH2 0x40D4 JUMP JUMPDEST SWAP1 PUSH1 0x0 MSTORE PUSH1 0x20 PUSH1 0x0 KECCAK256 SWAP1 PUSH1 0x6 MUL ADD SWAP1 POP PUSH1 0x0 DUP6 SWAP1 POP PUSH1 0x0 PUSH2 0x1FCF DUP4 PUSH1 0x4 ADD SLOAD TIMESTAMP PUSH2 0x2F62 JUMP JUMPDEST PUSH1 0x2 SLOAD PUSH1 0x1 DUP6 ADD SLOAD PUSH1 0x40 MLOAD PUSH4 0x1786F63 PUSH1 0xE2 SHL DUP2 MSTORE PUSH1 0x4 DUP2 ADD DUP5 SWAP1 MSTORE PUSH1 0x24 DUP2 ADD SWAP3 SWAP1 SWAP3 MSTORE PUSH1 0x44 DUP3 ADD MSTORE SWAP1 SWAP2 POP PUSH1 0x0 SWAP1 DUP2 SWAP1 PUSH20 0x0 SWAP1 PUSH4 0x5E1BD8C SWAP1 PUSH1 0x64 ADD PUSH1 0x40 DUP1 MLOAD DUP1 DUP4 SUB DUP2 DUP7 GAS DELEGATECALL ISZERO DUP1 ISZERO PUSH2 0x203B JUMPI RETURNDATASIZE PUSH1 0x0 DUP1 RETURNDATACOPY RETURNDATASIZE PUSH1 0x0 REVERT JUMPDEST POP POP POP POP PUSH1 0x40 MLOAD RETURNDATASIZE PUSH1 0x1F NOT PUSH1 0x1F DUP3 ADD AND DUP3 ADD DUP1 PUSH1 0x40 MSTORE POP DUP2 ADD SWAP1 PUSH2 0x205F SWAP2 SWAP1 PUSH2 0x40EA JUMP JUMPDEST SWAP2 POP SWAP2 POP PUSH1 0x0 DUP9 PUSH1 0x1 PUSH1 0x1 PUSH1 0xA0 SHL SUB AND PUSH4 0x313CE567 PUSH1 0x40 MLOAD DUP2 PUSH4 0xFFFFFFFF AND PUSH1 0xE0 SHL DUP2 MSTORE PUSH1 0x4 ADD PUSH1 0x20 PUSH1 0x40 MLOAD DUP1 DUP4 SUB DUP2 DUP7 GAS STATICCALL ISZERO DUP1 ISZERO PUSH2 0x20A3 JUMPI RETURNDATASIZE PUSH1 0x0 DUP1 RETURNDATACOPY RETURNDATASIZE PUSH1 0x0 REVERT JUMPDEST POP POP POP POP PUSH1 0x40 MLOAD RETURNDATASIZE PUSH1 0x1F NOT PUSH1 0x1F DUP3 ADD AND DUP3 ADD DUP1 PUSH1 0x40 MSTORE POP DUP2 ADD SWAP1 PUSH2 0x20C7 SWAP2 SWAP1 PUSH2 0x3FDC JUMP JUMPDEST SWAP1 POP DUP3 DUP7 PUSH1 0x1 ADD PUSH1 0x0 DUP3 DUP3 SLOAD PUSH2 0x20DD SWAP2 SWAP1 PUSH2 0x42DA JUMP JUMPDEST SWAP1 SWAP2 SSTORE POP POP PUSH1 0x1 DUP7 ADD SLOAD DUP6 GT ISZERO PUSH2 0x212E JUMPI PUSH1 0x40 MLOAD PUSH3 0x461BCD PUSH1 0xE5 SHL DUP2 MSTORE PUSH1 0x20 PUSH1 0x4 DUP3 ADD MSTORE PUSH1 0x15 PUSH1 0x24 DUP3 ADD MSTORE PUSH21 0x496E76616C696420616D6F756E7420746F20706179 PUSH1 0x58 SHL PUSH1 0x44 DUP3 ADD MSTORE PUSH1 0x64 ADD PUSH2 0x832 JUMP JUMPDEST PUSH1 0x0 DUP2 PUSH1 0xFF AND GT PUSH2 0x2151 JUMPI PUSH1 0x40 MLOAD PUSH3 0x461BCD PUSH1 0xE5 SHL DUP2 MSTORE PUSH1 0x4 ADD PUSH2 0x832 SWAP1 PUSH2 0x410E JUMP JUMPDEST PUSH1 0x1 PUSH1 0x1 PUSH1 0xA0 SHL SUB DUP10 AND PUSH1 0x0 SWAP1 DUP2 MSTORE PUSH1 0x7 PUSH1 0x20 MSTORE PUSH1 0x40 SWAP1 KECCAK256 SLOAD PUSH1 0xFF AND PUSH2 0x21B9 JUMPI PUSH1 0x40 MLOAD PUSH3 0x461BCD PUSH1 0xE5 SHL DUP2 MSTORE PUSH1 0x20 PUSH1 0x4 DUP3 ADD DUP2 SWAP1 MSTORE PUSH1 0x24 DUP3 ADD MSTORE PUSH32 0x54686520746F6B656E206973206E6F742077686974656C697374656420796574 PUSH1 0x44 DUP3 ADD MSTORE PUSH1 0x64 ADD PUSH2 0x832 JUMP JUMPDEST DUP5 DUP7 PUSH1 0x1 ADD PUSH1 0x0 DUP3 DUP3 SLOAD PUSH2 0x21CD SWAP2 SWAP1 PUSH2 0x4056 JUMP JUMPDEST SWAP1 SWAP2 SSTORE POP POP PUSH1 0x9 DUP1 SLOAD DUP5 SWAP2 SWAP1 PUSH1 0x0 SWAP1 PUSH2 0x21E7 SWAP1 DUP5 SWAP1 PUSH2 0x42DA JUMP JUMPDEST SWAP1 SWAP2 SSTORE POP POP PUSH1 0x5 DUP7 ADD SLOAD PUSH1 0xA SLOAD ISZERO PUSH2 0x2230 JUMPI PUSH1 0xA SLOAD PUSH2 0x220E DUP6 PUSH8 0xDE0B6B3A7640000 PUSH2 0x4015 JUMP JUMPDEST PUSH2 0x2218 SWAP2 SWAP1 PUSH2 0x4042 JUMP JUMPDEST PUSH1 0xB DUP1 SLOAD PUSH1 0x0 SWAP1 PUSH2 0x222A SWAP1 DUP5 SWAP1 PUSH2 0x42DA JUMP JUMPDEST SWAP1 SWAP2 SSTORE POP POP JUMPDEST DUP7 PUSH1 0x1 ADD SLOAD PUSH1 0x0 SUB PUSH2 0x23B4 JUMPI DUP7 SLOAD PUSH1 0x1 DUP10 DUP2 ADD SLOAD GT ISZERO PUSH2 0x22F2 JUMPI PUSH1 0x1 DUP1 DUP11 ADD DUP1 SLOAD SWAP1 SWAP2 PUSH2 0x225C SWAP2 PUSH2 0x4056 JUMP JUMPDEST DUP2 SLOAD DUP2 LT PUSH2 0x226C JUMPI PUSH2 0x226C PUSH2 0x40D4 JUMP JUMPDEST SWAP1 PUSH1 0x0 MSTORE PUSH1 0x20 PUSH1 0x0 KECCAK256 SWAP1 PUSH1 0x6 MUL ADD DUP10 PUSH1 0x1 ADD DUP12 DUP2 SLOAD DUP2 LT PUSH2 0x228F JUMPI PUSH2 0x228F PUSH2 0x40D4 JUMP JUMPDEST PUSH1 0x0 SWAP2 DUP3 MSTORE PUSH1 0x20 SWAP1 SWAP2 KECCAK256 DUP3 SLOAD PUSH1 0x6 SWAP1 SWAP3 MUL ADD SWAP1 DUP2 SSTORE PUSH1 0x1 DUP1 DUP4 ADD SLOAD SWAP1 DUP3 ADD SSTORE PUSH1 0x2 DUP1 DUP4 ADD SLOAD SWAP1 DUP3 ADD DUP1 SLOAD PUSH1 0x1 PUSH1 0x1 PUSH1 0xA0 SHL SUB NOT AND PUSH1 0x1 PUSH1 0x1 PUSH1 0xA0 SHL SUB SWAP1 SWAP3 AND SWAP2 SWAP1 SWAP2 OR SWAP1 SSTORE PUSH1 0x3 DUP1 DUP4 ADD SLOAD SWAP1 DUP3 ADD SSTORE PUSH1 0x4 DUP1 DUP4 ADD SLOAD SWAP1 DUP3 ADD SSTORE PUSH1 0x5 SWAP2 DUP3 ADD SLOAD SWAP2 ADD SSTORE JUMPDEST DUP9 PUSH1 0x1 ADD DUP1 SLOAD DUP1 PUSH2 0x2305 JUMPI PUSH2 0x2305 PUSH2 0x4380 JUMP JUMPDEST PUSH1 0x0 DUP3 DUP2 MSTORE PUSH1 0x20 DUP2 KECCAK256 PUSH1 0x6 PUSH1 0x0 NOT SWAP1 SWAP4 ADD SWAP3 DUP4 MUL ADD DUP2 DUP2 SSTORE PUSH1 0x1 DUP2 ADD DUP3 SWAP1 SSTORE PUSH1 0x2 DUP2 ADD DUP1 SLOAD PUSH1 0x1 PUSH1 0x1 PUSH1 0xA0 SHL SUB NOT AND SWAP1 SSTORE PUSH1 0x3 DUP2 ADD DUP3 SWAP1 SSTORE PUSH1 0x4 DUP2 ADD DUP3 SWAP1 SSTORE PUSH1 0x5 ADD DUP2 SWAP1 SSTORE SWAP2 SSTORE DUP10 SLOAD DUP3 SWAP2 DUP12 SWAP2 PUSH2 0x235D SWAP1 DUP5 SWAP1 PUSH2 0x42DA JUMP JUMPDEST SWAP1 SWAP2 SSTORE POP POP PUSH1 0x40 DUP1 MLOAD DUP14 DUP2 MSTORE PUSH1 0xFF DUP6 AND PUSH1 0x20 DUP3 ADD MSTORE SWAP1 DUP2 ADD DUP4 SWAP1 MSTORE PUSH1 0x1 PUSH1 0x1 PUSH1 0xA0 SHL SUB DUP13 AND SWAP1 CALLER SWAP1 PUSH32 0x2F683797AE14900863BD7F5B624167CF9533F58FF4E068FCDC51EA4B45AB8A3E SWAP1 PUSH1 0x60 ADD PUSH1 0x40 MLOAD DUP1 SWAP2 SUB SWAP1 LOG3 POP JUMPDEST PUSH1 0x1 PUSH1 0x1 PUSH1 0xA0 SHL SUB DUP11 AND PUSH4 0x23B872DD CALLER ADDRESS PUSH2 0x23D0 PUSH1 0x3 DUP8 PUSH2 0x4396 JUMP JUMPDEST PUSH2 0x23DB SWAP1 PUSH1 0xA PUSH2 0x4229 JUMP JUMPDEST PUSH2 0x23E5 SWAP1 DUP12 PUSH2 0x4015 JUMP JUMPDEST PUSH1 0x40 MLOAD PUSH1 0x1 PUSH1 0x1 PUSH1 0xE0 SHL SUB NOT PUSH1 0xE0 DUP7 SWAP1 SHL AND DUP2 MSTORE PUSH1 0x1 PUSH1 0x1 PUSH1 0xA0 SHL SUB SWAP4 DUP5 AND PUSH1 0x4 DUP3 ADD MSTORE SWAP3 SWAP1 SWAP2 AND PUSH1 0x24 DUP4 ADD MSTORE PUSH1 0x44 DUP3 ADD MSTORE PUSH1 0x64 ADD PUSH1 0x20 PUSH1 0x40 MLOAD DUP1 DUP4 SUB DUP2 PUSH1 0x0 DUP8 GAS CALL ISZERO DUP1 ISZERO PUSH2 0x2439 JUMPI RETURNDATASIZE PUSH1 0x0 DUP1 RETURNDATACOPY RETURNDATASIZE PUSH1 0x0 REVERT JUMPDEST POP POP POP POP PUSH1 0x40 MLOAD RETURNDATASIZE PUSH1 0x1F NOT PUSH1 0x1F DUP3 ADD AND DUP3 ADD DUP1 PUSH1 0x40 MSTORE POP DUP2 ADD SWAP1 PUSH2 0x245D SWAP2 SWAP1 PUSH2 0x40B2 JUMP JUMPDEST PUSH2 0x24A9 JUMPI PUSH1 0x40 MLOAD PUSH3 0x461BCD PUSH1 0xE5 SHL DUP2 MSTORE PUSH1 0x20 PUSH1 0x4 DUP3 ADD MSTORE PUSH1 0x1E PUSH1 0x24 DUP3 ADD MSTORE PUSH32 0x4572726F72207768696C65207472616E73666572696E67206173736574730000 PUSH1 0x44 DUP3 ADD MSTORE PUSH1 0x64 ADD PUSH2 0x832 JUMP JUMPDEST PUSH1 0x40 DUP1 MLOAD DUP13 DUP2 MSTORE PUSH1 0x20 DUP2 ADD DUP7 SWAP1 MSTORE PUSH1 0xFF DUP5 AND DUP2 DUP4 ADD MSTORE PUSH1 0x60 DUP2 ADD DUP4 SWAP1 MSTORE SWAP1 MLOAD PUSH1 0x1 PUSH1 0x1 PUSH1 0xA0 SHL SUB DUP13 AND SWAP2 CALLER SWAP2 PUSH32 0x9CE47BCC134ECD272196E2D07A748C33630146263E848D49E2679807B2886AAB SWAP2 DUP2 SWAP1 SUB PUSH1 0x80 ADD SWAP1 LOG3 POP POP POP POP POP POP POP POP POP POP POP JUMP JUMPDEST PUSH1 0x1 PUSH1 0x1 PUSH1 0xA0 SHL SUB DUP4 AND PUSH1 0x0 SWAP1 DUP2 MSTORE PUSH1 0x5 PUSH1 0x20 MSTORE PUSH1 0x40 DUP2 KECCAK256 PUSH1 0x2 ADD DUP1 SLOAD PUSH1 0x60 SWAP3 PUSH2 0x2536 DUP6 DUP4 PUSH2 0x4042 JUMP JUMPDEST SWAP1 POP PUSH1 0x0 PUSH2 0x2544 DUP7 DUP5 PUSH2 0x42C6 JUMP JUMPDEST GT ISZERO PUSH2 0x2558 JUMPI PUSH2 0x2555 PUSH1 0x1 DUP3 PUSH2 0x42DA JUMP JUMPDEST SWAP1 POP JUMPDEST DUP1 DUP7 GT ISZERO PUSH2 0x2597 JUMPI PUSH1 0x40 MLOAD PUSH3 0x461BCD PUSH1 0xE5 SHL DUP2 MSTORE PUSH1 0x20 PUSH1 0x4 DUP3 ADD MSTORE PUSH1 0xC PUSH1 0x24 DUP3 ADD MSTORE PUSH12 0x496E76616C69642070616765 PUSH1 0xA0 SHL PUSH1 0x44 DUP3 ADD MSTORE PUSH1 0x64 ADD PUSH2 0x832 JUMP JUMPDEST PUSH1 0x0 DUP6 GT DUP1 ISZERO PUSH2 0x25A7 JUMPI POP DUP1 DUP6 GT ISZERO JUMPDEST PUSH2 0x25E7 JUMPI PUSH1 0x40 MLOAD PUSH3 0x461BCD PUSH1 0xE5 SHL DUP2 MSTORE PUSH1 0x20 PUSH1 0x4 DUP3 ADD MSTORE PUSH1 0x11 PUSH1 0x24 DUP3 ADD MSTORE PUSH17 0x496E76616C696420706167652073697A65 PUSH1 0x78 SHL PUSH1 0x44 DUP3 ADD MSTORE PUSH1 0x64 ADD PUSH2 0x832 JUMP JUMPDEST PUSH1 0x0 DUP6 PUSH2 0x25F5 PUSH1 0x1 DUP10 PUSH2 0x4056 JUMP JUMPDEST PUSH2 0x25FF SWAP2 SWAP1 PUSH2 0x4015 JUMP JUMPDEST SWAP1 POP PUSH1 0x0 PUSH2 0x260D DUP8 DUP4 PUSH2 0x42DA JUMP JUMPDEST SWAP1 POP DUP4 DUP2 GT ISZERO PUSH2 0x261A JUMPI POP DUP3 JUMPDEST PUSH1 0x0 PUSH2 0x2626 DUP4 DUP4 PUSH2 0x4056 JUMP JUMPDEST PUSH8 0xFFFFFFFFFFFFFFFF DUP2 GT ISZERO PUSH2 0x263E JUMPI PUSH2 0x263E PUSH2 0x3B62 JUMP JUMPDEST PUSH1 0x40 MLOAD SWAP1 DUP1 DUP3 MSTORE DUP1 PUSH1 0x20 MUL PUSH1 0x20 ADD DUP3 ADD PUSH1 0x40 MSTORE DUP1 ISZERO PUSH2 0x269D JUMPI DUP2 PUSH1 0x20 ADD JUMPDEST PUSH2 0x268A PUSH1 0x40 MLOAD DUP1 PUSH1 0x80 ADD PUSH1 0x40 MSTORE DUP1 PUSH1 0x0 DUP2 MSTORE PUSH1 0x20 ADD PUSH1 0x0 PUSH1 0xFF AND DUP2 MSTORE PUSH1 0x20 ADD PUSH1 0x60 DUP2 MSTORE PUSH1 0x20 ADD PUSH1 0x60 DUP2 MSTORE POP SWAP1 JUMP JUMPDEST DUP2 MSTORE PUSH1 0x20 ADD SWAP1 PUSH1 0x1 SWAP1 SUB SWAP1 DUP2 PUSH2 0x265C JUMPI SWAP1 POP JUMPDEST POP SWAP1 POP DUP3 JUMPDEST DUP3 DUP2 LT ISZERO PUSH2 0x1A6B JUMPI DUP7 DUP2 DUP2 SLOAD DUP2 LT PUSH2 0x26BC JUMPI PUSH2 0x26BC PUSH2 0x40D4 JUMP JUMPDEST PUSH1 0x0 SWAP2 DUP3 MSTORE PUSH1 0x20 SWAP2 DUP3 SWAP1 KECCAK256 PUSH1 0x40 DUP1 MLOAD PUSH1 0x80 DUP2 ADD DUP3 MSTORE PUSH1 0x4 SWAP1 SWAP4 MUL SWAP1 SWAP2 ADD DUP1 SLOAD DUP4 MSTORE PUSH1 0x1 DUP2 ADD SLOAD PUSH1 0xFF AND DUP4 DUP6 ADD MSTORE PUSH1 0x2 DUP2 ADD DUP1 SLOAD DUP4 MLOAD DUP2 DUP8 MUL DUP2 ADD DUP8 ADD DUP6 MSTORE DUP2 DUP2 MSTORE SWAP5 SWAP6 SWAP3 SWAP5 SWAP4 DUP7 ADD SWAP4 SWAP3 DUP4 ADD DUP3 DUP3 DUP1 ISZERO PUSH2 0x273F JUMPI PUSH1 0x20 MUL DUP3 ADD SWAP2 SWAP1 PUSH1 0x0 MSTORE PUSH1 0x20 PUSH1 0x0 KECCAK256 SWAP1 JUMPDEST DUP2 SLOAD PUSH1 0x1 PUSH1 0x1 PUSH1 0xA0 SHL SUB AND DUP2 MSTORE PUSH1 0x1 SWAP1 SWAP2 ADD SWAP1 PUSH1 0x20 ADD DUP1 DUP4 GT PUSH2 0x2721 JUMPI JUMPDEST POP POP POP POP POP DUP2 MSTORE PUSH1 0x20 ADD PUSH1 0x3 DUP3 ADD DUP1 SLOAD DUP1 PUSH1 0x20 MUL PUSH1 0x20 ADD PUSH1 0x40 MLOAD SWAP1 DUP2 ADD PUSH1 0x40 MSTORE DUP1 SWAP3 SWAP2 SWAP1 DUP2 DUP2 MSTORE PUSH1 0x20 ADD DUP3 DUP1 SLOAD DUP1 ISZERO PUSH2 0x27A1 JUMPI PUSH1 0x20 MUL DUP3 ADD SWAP2 SWAP1 PUSH1 0x0 MSTORE PUSH1 0x20 PUSH1 0x0 KECCAK256 SWAP1 JUMPDEST DUP2 SLOAD PUSH1 0x1 PUSH1 0x1 PUSH1 0xA0 SHL SUB AND DUP2 MSTORE PUSH1 0x1 SWAP1 SWAP2 ADD SWAP1 PUSH1 0x20 ADD DUP1 DUP4 GT PUSH2 0x2783 JUMPI JUMPDEST POP POP POP POP POP DUP2 MSTORE POP POP DUP3 DUP6 DUP4 PUSH2 0x27B7 SWAP2 SWAP1 PUSH2 0x4056 JUMP JUMPDEST DUP2 MLOAD DUP2 LT PUSH2 0x27C7 JUMPI PUSH2 0x27C7 PUSH2 0x40D4 JUMP JUMPDEST PUSH1 0x20 MUL PUSH1 0x20 ADD ADD DUP2 SWAP1 MSTORE POP DUP1 PUSH2 0x27DC SWAP1 PUSH2 0x4257 JUMP JUMPDEST SWAP1 POP PUSH2 0x26A2 JUMP JUMPDEST PUSH2 0x27EB PUSH2 0x3664 JUMP JUMPDEST PUSH1 0x1 PUSH1 0x1 PUSH1 0xA0 SHL SUB DUP2 AND PUSH1 0x0 SWAP1 DUP2 MSTORE PUSH1 0x7 PUSH1 0x20 MSTORE PUSH1 0x40 SWAP1 KECCAK256 SLOAD PUSH1 0xFF AND PUSH2 0x2853 JUMPI PUSH1 0x40 MLOAD PUSH3 0x461BCD PUSH1 0xE5 SHL DUP2 MSTORE PUSH1 0x20 PUSH1 0x4 DUP3 ADD MSTORE PUSH1 0x19 PUSH1 0x24 DUP3 ADD MSTORE PUSH32 0x546F6B656E206973206E6F7420696E2077686974656C69737400000000000000 PUSH1 0x44 DUP3 ADD MSTORE PUSH1 0x64 ADD PUSH2 0x832 JUMP JUMPDEST PUSH1 0x0 DUP2 PUSH1 0x1 PUSH1 0x1 PUSH1 0xA0 SHL SUB AND PUSH4 0x313CE567 PUSH1 0x40 MLOAD DUP2 PUSH4 0xFFFFFFFF AND PUSH1 0xE0 SHL DUP2 MSTORE PUSH1 0x4 ADD PUSH1 0x20 PUSH1 0x40 MLOAD DUP1 DUP4 SUB DUP2 DUP7 GAS STATICCALL ISZERO DUP1 ISZERO PUSH2 0x2893 JUMPI RETURNDATASIZE PUSH1 0x0 DUP1 RETURNDATACOPY RETURNDATASIZE PUSH1 0x0 REVERT JUMPDEST POP POP POP POP PUSH1 0x40 MLOAD RETURNDATASIZE PUSH1 0x1F NOT PUSH1 0x1F DUP3 ADD AND DUP3 ADD DUP1 PUSH1 0x40 MSTORE POP DUP2 ADD SWAP1 PUSH2 0x28B7 SWAP2 SWAP1 PUSH2 0x3FDC JUMP JUMPDEST SWAP1 POP PUSH1 0x0 DUP2 PUSH1 0xFF AND GT PUSH2 0x28DC JUMPI PUSH1 0x40 MLOAD PUSH3 0x461BCD PUSH1 0xE5 SHL DUP2 MSTORE PUSH1 0x4 ADD PUSH2 0x832 SWAP1 PUSH2 0x410E JUMP JUMPDEST PUSH1 0x0 PUSH1 0x3 SLOAD DUP5 PUSH2 0x28EC SWAP2 SWAP1 PUSH2 0x4015 JUMP JUMPDEST PUSH1 0x8 SLOAD SWAP1 SWAP2 POP PUSH1 0x0 SUB PUSH2 0x291D JUMPI CALLER PUSH1 0x0 SWAP1 DUP2 MSTORE PUSH1 0x5 PUSH1 0x20 MSTORE PUSH1 0x40 SWAP1 KECCAK256 PUSH1 0x4 ADD DUP2 SWAP1 SSTORE PUSH1 0xA DUP2 SWAP1 SSTORE PUSH1 0x8 DUP2 SWAP1 SSTORE PUSH2 0x299D JUMP JUMPDEST PUSH1 0x8 SLOAD PUSH1 0xA SLOAD PUSH1 0x0 SWAP2 SWAP1 PUSH2 0x2931 SWAP1 DUP5 PUSH2 0x4015 JUMP JUMPDEST PUSH2 0x293B SWAP2 SWAP1 PUSH2 0x4042 JUMP JUMPDEST CALLER PUSH1 0x0 SWAP1 DUP2 MSTORE PUSH1 0x5 PUSH1 0x20 MSTORE PUSH1 0x40 DUP2 KECCAK256 PUSH1 0x4 ADD DUP1 SLOAD SWAP3 SWAP4 POP DUP4 SWAP3 SWAP1 SWAP2 SWAP1 PUSH2 0x2962 SWAP1 DUP5 SWAP1 PUSH2 0x42DA JUMP JUMPDEST SWAP1 SWAP2 SSTORE POP POP PUSH1 0xA DUP1 SLOAD DUP3 SWAP2 SWAP1 PUSH1 0x0 SWAP1 PUSH2 0x297C SWAP1 DUP5 SWAP1 PUSH2 0x42DA JUMP JUMPDEST SWAP1 SWAP2 SSTORE POP POP PUSH1 0x8 DUP1 SLOAD DUP4 SWAP2 SWAP1 PUSH1 0x0 SWAP1 PUSH2 0x2996 SWAP1 DUP5 SWAP1 PUSH2 0x42DA JUMP JUMPDEST SWAP1 SWAP2 SSTORE POP POP POP JUMPDEST CALLER PUSH1 0x0 SWAP1 DUP2 MSTORE PUSH1 0x5 PUSH1 0x20 MSTORE PUSH1 0x40 DUP2 KECCAK256 PUSH1 0x3 ADD DUP1 SLOAD DUP4 SWAP3 SWAP1 PUSH2 0x29BF SWAP1 DUP5 SWAP1 PUSH2 0x42DA JUMP JUMPDEST SWAP1 SWAP2 SSTORE POP POP CALLER PUSH1 0x0 SWAP1 DUP2 MSTORE PUSH1 0x5 PUSH1 0x20 DUP2 DUP2 MSTORE PUSH1 0x40 DUP1 DUP5 KECCAK256 TIMESTAMP SWAP4 ADD SWAP3 SWAP1 SWAP3 SSTORE PUSH1 0x6 DUP2 MSTORE DUP2 DUP4 KECCAK256 PUSH1 0x1 PUSH1 0x1 PUSH1 0xA0 SHL SUB DUP8 AND DUP5 MSTORE SWAP1 MSTORE DUP2 KECCAK256 DUP1 SLOAD DUP4 SWAP3 SWAP1 PUSH2 0x2A04 SWAP1 DUP5 SWAP1 PUSH2 0x42DA JUMP JUMPDEST SWAP1 SWAP2 SSTORE POP POP PUSH1 0x1 PUSH1 0x1 PUSH1 0xA0 SHL SUB DUP4 AND PUSH4 0x23B872DD CALLER ADDRESS PUSH2 0x2A25 DUP7 PUSH1 0xA PUSH2 0x4229 JUMP JUMPDEST PUSH2 0x2A2F SWAP1 DUP10 PUSH2 0x4015 JUMP JUMPDEST PUSH1 0x40 MLOAD PUSH1 0x1 PUSH1 0x1 PUSH1 0xE0 SHL SUB NOT PUSH1 0xE0 DUP7 SWAP1 SHL AND DUP2 MSTORE PUSH1 0x1 PUSH1 0x1 PUSH1 0xA0 SHL SUB SWAP4 DUP5 AND PUSH1 0x4 DUP3 ADD MSTORE SWAP3 SWAP1 SWAP2 AND PUSH1 0x24 DUP4 ADD MSTORE PUSH1 0x44 DUP3 ADD MSTORE PUSH1 0x64 ADD PUSH1 0x20 PUSH1 0x40 MLOAD DUP1 DUP4 SUB DUP2 PUSH1 0x0 DUP8 GAS CALL ISZERO DUP1 ISZERO PUSH2 0x2A83 JUMPI RETURNDATASIZE PUSH1 0x0 DUP1 RETURNDATACOPY RETURNDATASIZE PUSH1 0x0 REVERT JUMPDEST POP POP POP POP PUSH1 0x40 MLOAD RETURNDATASIZE PUSH1 0x1F NOT PUSH1 0x1F DUP3 ADD AND DUP3 ADD DUP1 PUSH1 0x40 MSTORE POP DUP2 ADD SWAP1 PUSH2 0x2AA7 SWAP2 SWAP1 PUSH2 0x40B2 JUMP JUMPDEST PUSH2 0x2AF3 JUMPI PUSH1 0x40 MLOAD PUSH3 0x461BCD PUSH1 0xE5 SHL DUP2 MSTORE PUSH1 0x20 PUSH1 0x4 DUP3 ADD MSTORE PUSH1 0x1B PUSH1 0x24 DUP3 ADD MSTORE PUSH32 0x4572726F72207768696C65207472616E7366657220746F6B656E730000000000 PUSH1 0x44 DUP3 ADD MSTORE PUSH1 0x64 ADD PUSH2 0x832 JUMP JUMPDEST PUSH1 0x40 DUP1 MLOAD DUP6 DUP2 MSTORE PUSH1 0xFF DUP5 AND PUSH1 0x20 DUP3 ADD MSTORE PUSH1 0x1 PUSH1 0x1 PUSH1 0xA0 SHL SUB DUP6 AND SWAP2 CALLER SWAP2 PUSH32 0x9F9C6451DB74DC24EC4EF600603DE4A3A11FBE4234EEE83200B5469400652C51 SWAP2 ADD PUSH1 0x40 MLOAD DUP1 SWAP2 SUB SWAP1 LOG3 POP POP POP POP JUMP JUMPDEST PUSH1 0x0 PUSH2 0x2B4F PUSH1 0x0 SLOAD CALLER PUSH2 0x1A7B JUMP JUMPDEST PUSH2 0x2BAE JUMPI PUSH1 0x40 MLOAD PUSH3 0x461BCD PUSH1 0xE5 SHL DUP2 MSTORE PUSH1 0x20 PUSH1 0x4 DUP3 ADD MSTORE PUSH1 0x2A PUSH1 0x24 DUP3 ADD MSTORE PUSH32 0x43616C6C6572206973206E6F7420612076616C6964206174746573746174696F PUSH1 0x44 DUP3 ADD MSTORE PUSH10 0x37103932B9B7B63B32B9 PUSH1 0xB1 SHL PUSH1 0x64 DUP3 ADD MSTORE PUSH1 0x84 ADD PUSH2 0x832 JUMP JUMPDEST PUSH1 0x1 PUSH1 0x1 PUSH1 0xA0 SHL SUB DUP6 AND PUSH1 0x0 SWAP1 DUP2 MSTORE PUSH1 0x5 PUSH1 0x20 MSTORE PUSH1 0x40 DUP2 KECCAK256 PUSH1 0x2 ADD DUP1 SLOAD DUP3 SWAP2 SWAP1 PUSH2 0xFFFF DUP9 AND SWAP1 DUP2 LT PUSH2 0x2BE2 JUMPI PUSH2 0x2BE2 PUSH2 0x40D4 JUMP JUMPDEST SWAP1 PUSH1 0x0 MSTORE PUSH1 0x20 PUSH1 0x0 KECCAK256 SWAP1 PUSH1 0x4 MUL ADD SWAP1 POP DUP1 PUSH1 0x0 ADD SLOAD DUP5 EQ PUSH2 0x2C5F JUMPI PUSH1 0x40 MLOAD PUSH3 0x461BCD PUSH1 0xE5 SHL DUP2 MSTORE PUSH1 0x20 PUSH1 0x4 DUP3 ADD MSTORE PUSH1 0x31 PUSH1 0x24 DUP3 ADD MSTORE PUSH32 0x546865206174746573746174696F6E20616D6F756E7420646F6573206E6F7420 PUSH1 0x44 DUP3 ADD MSTORE PUSH17 0x1B585D18DA081D1A19481C995C5D595CDD PUSH1 0x7A SHL PUSH1 0x64 DUP3 ADD MSTORE PUSH1 0x84 ADD PUSH2 0x832 JUMP JUMPDEST DUP1 SLOAD PUSH1 0x2 DUP3 ADD SLOAD PUSH1 0x0 JUMPDEST DUP2 DUP2 PUSH1 0xFF AND LT ISZERO PUSH2 0x2CC5 JUMPI DUP8 PUSH1 0x1 PUSH1 0x1 PUSH1 0xA0 SHL SUB AND DUP5 PUSH1 0x2 ADD DUP3 PUSH1 0xFF AND DUP2 SLOAD DUP2 LT PUSH2 0x2C96 JUMPI PUSH2 0x2C96 PUSH2 0x40D4 JUMP JUMPDEST PUSH1 0x0 SWAP2 DUP3 MSTORE PUSH1 0x20 SWAP1 SWAP2 KECCAK256 ADD SLOAD PUSH1 0x1 PUSH1 0x1 PUSH1 0xA0 SHL SUB AND SUB PUSH2 0x2CB5 JUMPI PUSH1 0x1 SWAP5 POP JUMPDEST PUSH2 0x2CBE DUP2 PUSH2 0x4238 JUMP JUMPDEST SWAP1 POP PUSH2 0x2C69 JUMP JUMPDEST POP PUSH1 0x3 DUP4 ADD SLOAD PUSH1 0x0 SWAP1 DUP2 JUMPDEST DUP2 DUP2 PUSH1 0xFF AND LT ISZERO PUSH2 0x2D36 JUMPI PUSH1 0x3 DUP7 ADD SLOAD ISZERO PUSH2 0x2D36 JUMPI DUP10 PUSH1 0x1 PUSH1 0x1 PUSH1 0xA0 SHL SUB AND DUP7 PUSH1 0x3 ADD DUP3 PUSH1 0xFF AND DUP2 SLOAD DUP2 LT PUSH2 0x2D07 JUMPI PUSH2 0x2D07 PUSH2 0x40D4 JUMP JUMPDEST PUSH1 0x0 SWAP2 DUP3 MSTORE PUSH1 0x20 SWAP1 SWAP2 KECCAK256 ADD SLOAD PUSH1 0x1 PUSH1 0x1 PUSH1 0xA0 SHL SUB AND SUB PUSH2 0x2D26 JUMPI PUSH1 0x1 SWAP7 POP JUMPDEST PUSH2 0x2D2F DUP2 PUSH2 0x4238 JUMP JUMPDEST SWAP1 POP PUSH2 0x2CD0 JUMP JUMPDEST POP DUP6 PUSH2 0x2D84 JUMPI PUSH1 0x40 MLOAD PUSH3 0x461BCD PUSH1 0xE5 SHL DUP2 MSTORE PUSH1 0x20 PUSH1 0x4 DUP3 ADD MSTORE PUSH1 0x1C PUSH1 0x24 DUP3 ADD MSTORE PUSH32 0x53656E646572206973206E6F7420612076616C6964207369676E657200000000 PUSH1 0x44 DUP3 ADD MSTORE PUSH1 0x64 ADD PUSH2 0x832 JUMP JUMPDEST DUP2 ISZERO PUSH2 0x2DCA JUMPI PUSH1 0x40 MLOAD PUSH3 0x461BCD PUSH1 0xE5 SHL DUP2 MSTORE PUSH1 0x20 PUSH1 0x4 DUP3 ADD MSTORE PUSH1 0x15 PUSH1 0x24 DUP3 ADD MSTORE PUSH21 0x14D95B99195C881A185CC81CDA59DB9959081E595D PUSH1 0x5A SHL PUSH1 0x44 DUP3 ADD MSTORE PUSH1 0x64 ADD PUSH2 0x832 JUMP JUMPDEST PUSH1 0x3 DUP6 ADD DUP1 SLOAD PUSH1 0x1 DUP1 DUP3 ADD DUP4 SSTORE PUSH1 0x0 SWAP3 DUP4 MSTORE PUSH1 0x20 DUP4 KECCAK256 SWAP1 SWAP2 ADD DUP1 SLOAD PUSH1 0x1 PUSH1 0x1 PUSH1 0xA0 SHL SUB NOT AND PUSH1 0x1 PUSH1 0x1 PUSH1 0xA0 SHL SUB DUP14 AND OR SWAP1 SSTORE DUP1 DUP8 ADD DUP1 SLOAD SWAP2 SWAP3 SWAP1 SWAP2 PUSH2 0x2E13 SWAP1 DUP5 SWAP1 PUSH1 0xFF AND PUSH2 0x43AF JUMP JUMPDEST DUP3 SLOAD PUSH2 0x100 SWAP3 SWAP1 SWAP3 EXP PUSH1 0xFF DUP2 DUP2 MUL NOT SWAP1 SWAP4 AND SWAP2 DUP4 AND MUL OR SWAP1 SWAP2 SSTORE PUSH1 0x1 DUP8 ADD SLOAD AND PUSH1 0x3 SUB SWAP1 POP PUSH2 0x2EBD JUMPI PUSH1 0x1 PUSH1 0x1 PUSH1 0xA0 SHL SUB DUP12 AND PUSH1 0x0 SWAP1 DUP2 MSTORE PUSH1 0x5 PUSH1 0x20 MSTORE PUSH1 0x40 DUP2 KECCAK256 DUP1 SLOAD DUP7 SWAP3 SWAP1 PUSH2 0x2E64 SWAP1 DUP5 SWAP1 PUSH2 0x42DA JUMP JUMPDEST SWAP1 SWAP2 SSTORE POP POP PUSH1 0x1 PUSH1 0x1 PUSH1 0xA0 SHL SUB DUP12 DUP2 AND PUSH1 0x0 DUP2 DUP2 MSTORE PUSH1 0x5 PUSH1 0x20 SWAP1 DUP2 MSTORE PUSH1 0x40 SWAP2 DUP3 SWAP1 KECCAK256 SLOAD SWAP2 MLOAD SWAP2 DUP3 MSTORE SWAP2 SWAP3 DUP13 AND SWAP2 PUSH32 0x986757B5F72E5258DE572C036A9155B7F6FCE0DF14FFD1FA633617F668137A39 SWAP2 ADD PUSH1 0x40 MLOAD DUP1 SWAP2 SUB SWAP1 LOG3 JUMPDEST DUP11 PUSH1 0x1 PUSH1 0x1 PUSH1 0xA0 SHL SUB AND DUP11 PUSH2 0xFFFF AND DUP11 PUSH1 0x1 PUSH1 0x1 PUSH1 0xA0 SHL SUB AND PUSH32 0xEA585988944829641B25BE2DE9E0A1256C383FAC005BB8F3EBE5CD09B50D7C74 DUP9 PUSH1 0x0 ADD SLOAD PUSH1 0x40 MLOAD PUSH2 0x2F0B SWAP2 DUP2 MSTORE PUSH1 0x20 ADD SWAP1 JUMP JUMPDEST PUSH1 0x40 MLOAD DUP1 SWAP2 SUB SWAP1 LOG4 POP PUSH1 0x1 SWAP11 SWAP10 POP POP POP POP POP POP POP POP POP POP JUMP JUMPDEST PUSH2 0x2F2C PUSH2 0x3707 JUMP JUMPDEST PUSH1 0x1 PUSH1 0x1 PUSH1 0xA0 SHL SUB DUP2 AND PUSH2 0x2F56 JUMPI PUSH1 0x40 MLOAD PUSH4 0x1E4FBDF7 PUSH1 0xE0 SHL DUP2 MSTORE PUSH1 0x0 PUSH1 0x4 DUP3 ADD MSTORE PUSH1 0x24 ADD PUSH2 0x832 JUMP JUMPDEST PUSH2 0x2F5F DUP2 PUSH2 0x3762 JUMP JUMPDEST POP JUMP JUMPDEST PUSH1 0x0 DUP3 DUP3 LT ISZERO PUSH2 0x2FD2 JUMPI PUSH1 0x40 MLOAD PUSH3 0x461BCD PUSH1 0xE5 SHL DUP2 MSTORE PUSH1 0x20 PUSH1 0x4 DUP3 ADD MSTORE PUSH1 0x35 PUSH1 0x24 DUP3 ADD MSTORE PUSH32 0x46696E6973682074696D657374616D70206D7573742062652067726561746572 PUSH1 0x44 DUP3 ADD MSTORE PUSH21 0x207468616E2073746172742074696D657374616D7 PUSH1 0x5C SHL PUSH1 0x64 DUP3 ADD MSTORE PUSH1 0x84 ADD PUSH2 0x832 JUMP JUMPDEST PUSH1 0x0 PUSH2 0x2FDE DUP5 DUP5 PUSH2 0x4056 JUMP JUMPDEST SWAP1 POP PUSH1 0x0 PUSH2 0x2FEF PUSH3 0x15180 DUP4 PUSH2 0x4042 JUMP JUMPDEST SWAP6 SWAP5 POP POP POP POP POP JUMP JUMPDEST PUSH1 0x0 PUSH1 0x3 SLOAD DUP6 PUSH2 0x3008 SWAP2 SWAP1 PUSH2 0x4015 JUMP JUMPDEST CALLER PUSH1 0x0 SWAP1 DUP2 MSTORE PUSH1 0x5 PUSH1 0x20 MSTORE PUSH1 0x40 SWAP1 KECCAK256 SWAP1 SWAP2 POP PUSH2 0x3025 DUP4 PUSH1 0xA PUSH2 0x4229 JUMP JUMPDEST PUSH2 0x302F SWAP1 DUP8 PUSH2 0x4015 JUMP JUMPDEST PUSH1 0x40 MLOAD PUSH4 0x70A08231 PUSH1 0xE0 SHL DUP2 MSTORE ADDRESS PUSH1 0x4 DUP3 ADD MSTORE PUSH1 0x1 PUSH1 0x1 PUSH1 0xA0 SHL SUB DUP7 AND SWAP1 PUSH4 0x70A08231 SWAP1 PUSH1 0x24 ADD PUSH1 0x20 PUSH1 0x40 MLOAD DUP1 DUP4 SUB DUP2 DUP7 GAS STATICCALL ISZERO DUP1 ISZERO PUSH2 0x3073 JUMPI RETURNDATASIZE PUSH1 0x0 DUP1 RETURNDATACOPY RETURNDATASIZE PUSH1 0x0 REVERT JUMPDEST POP POP POP POP PUSH1 0x40 MLOAD RETURNDATASIZE PUSH1 0x1F NOT PUSH1 0x1F DUP3 ADD AND DUP3 ADD DUP1 PUSH1 0x40 MSTORE POP DUP2 ADD SWAP1 PUSH2 0x3097 SWAP2 SWAP1 PUSH2 0x4099 JUMP JUMPDEST LT ISZERO PUSH2 0x30DC JUMPI PUSH1 0x40 MLOAD PUSH3 0x461BCD PUSH1 0xE5 SHL DUP2 MSTORE PUSH1 0x20 PUSH1 0x4 DUP3 ADD MSTORE PUSH1 0x14 PUSH1 0x24 DUP3 ADD MSTORE PUSH20 0x496E7375666963656E74206C6971756964697479 PUSH1 0x60 SHL PUSH1 0x44 DUP3 ADD MSTORE PUSH1 0x64 ADD PUSH2 0x832 JUMP JUMPDEST PUSH1 0x0 DUP4 PUSH1 0xFF AND GT PUSH2 0x30FF JUMPI PUSH1 0x40 MLOAD PUSH3 0x461BCD PUSH1 0xE5 SHL DUP2 MSTORE PUSH1 0x4 ADD PUSH2 0x832 SWAP1 PUSH2 0x410E JUMP JUMPDEST PUSH1 0x0 DUP7 GT PUSH2 0x315A JUMPI PUSH1 0x40 MLOAD PUSH3 0x461BCD PUSH1 0xE5 SHL DUP2 MSTORE PUSH1 0x20 PUSH1 0x4 DUP3 ADD MSTORE PUSH1 0x22 PUSH1 0x24 DUP3 ADD MSTORE PUSH32 0x54686520616D6F756E74206D757374206265206772656174686572207468616E PUSH1 0x44 DUP3 ADD MSTORE PUSH2 0x203 PUSH1 0xF4 SHL PUSH1 0x64 DUP3 ADD MSTORE PUSH1 0x84 ADD PUSH2 0x832 JUMP JUMPDEST PUSH1 0x1 PUSH1 0x1 PUSH1 0xA0 SHL SUB DUP5 AND PUSH1 0x0 SWAP1 DUP2 MSTORE PUSH1 0x7 PUSH1 0x20 MSTORE PUSH1 0x40 SWAP1 KECCAK256 SLOAD PUSH1 0xFF AND PUSH2 0x31C2 JUMPI PUSH1 0x40 MLOAD PUSH3 0x461BCD PUSH1 0xE5 SHL DUP2 MSTORE PUSH1 0x20 PUSH1 0x4 DUP3 ADD DUP2 SWAP1 MSTORE PUSH1 0x24 DUP3 ADD MSTORE PUSH32 0x54686520746F6B656E206973206E6F742077686974656C697374656420796574 PUSH1 0x44 DUP3 ADD MSTORE PUSH1 0x64 ADD PUSH2 0x832 JUMP JUMPDEST DUP2 DUP2 PUSH1 0x3 ADD SLOAD LT ISZERO PUSH2 0x3207 JUMPI PUSH1 0x40 MLOAD PUSH3 0x461BCD PUSH1 0xE5 SHL DUP2 MSTORE PUSH1 0x20 PUSH1 0x4 DUP3 ADD MSTORE PUSH1 0xE PUSH1 0x24 DUP3 ADD MSTORE PUSH14 0x125B9D985B1A5908185B5BDD5B9D PUSH1 0x92 SHL PUSH1 0x44 DUP3 ADD MSTORE PUSH1 0x64 ADD PUSH2 0x832 JUMP JUMPDEST DUP2 DUP2 PUSH1 0x3 ADD PUSH1 0x0 DUP3 DUP3 SLOAD PUSH2 0x321B SWAP2 SWAP1 PUSH2 0x4056 JUMP JUMPDEST SWAP1 SWAP2 SSTORE POP POP PUSH1 0x8 DUP1 SLOAD DUP4 SWAP2 SWAP1 PUSH1 0x0 SWAP1 PUSH2 0x3235 SWAP1 DUP5 SWAP1 PUSH2 0x4056 JUMP JUMPDEST SWAP1 SWAP2 SSTORE POP POP PUSH1 0x1 PUSH1 0x1 PUSH1 0xA0 SHL SUB DUP5 AND PUSH4 0xA9059CBB CALLER PUSH2 0x3255 PUSH1 0x3 DUP8 PUSH2 0x4396 JUMP JUMPDEST PUSH2 0x3260 SWAP1 PUSH1 0xA PUSH2 0x4229 JUMP JUMPDEST PUSH2 0x326A DUP10 DUP8 PUSH2 0x42DA JUMP JUMPDEST PUSH2 0x3274 SWAP2 SWAP1 PUSH2 0x4015 JUMP JUMPDEST PUSH1 0x40 MLOAD PUSH1 0x1 PUSH1 0x1 PUSH1 0xE0 SHL SUB NOT PUSH1 0xE0 DUP6 SWAP1 SHL AND DUP2 MSTORE PUSH1 0x1 PUSH1 0x1 PUSH1 0xA0 SHL SUB SWAP1 SWAP3 AND PUSH1 0x4 DUP4 ADD MSTORE PUSH1 0x24 DUP3 ADD MSTORE PUSH1 0x44 ADD PUSH1 0x20 PUSH1 0x40 MLOAD DUP1 DUP4 SUB DUP2 PUSH1 0x0 DUP8 GAS CALL ISZERO DUP1 ISZERO PUSH2 0x32BF JUMPI RETURNDATASIZE PUSH1 0x0 DUP1 RETURNDATACOPY RETURNDATASIZE PUSH1 0x0 REVERT JUMPDEST POP POP POP POP PUSH1 0x40 MLOAD RETURNDATASIZE PUSH1 0x1F NOT PUSH1 0x1F DUP3 ADD AND DUP3 ADD DUP1 PUSH1 0x40 MSTORE POP DUP2 ADD SWAP1 PUSH2 0x32E3 SWAP2 SWAP1 PUSH2 0x40B2 JUMP JUMPDEST PUSH2 0x332F JUMPI PUSH1 0x40 MLOAD PUSH3 0x461BCD PUSH1 0xE5 SHL DUP2 MSTORE PUSH1 0x20 PUSH1 0x4 DUP3 ADD MSTORE PUSH1 0x1D PUSH1 0x24 DUP3 ADD MSTORE PUSH32 0x4661696C6564207768656E207769746864726177696E672066756E6473000000 PUSH1 0x44 DUP3 ADD MSTORE PUSH1 0x64 ADD PUSH2 0x832 JUMP JUMPDEST PUSH1 0x40 DUP1 MLOAD DUP8 DUP2 MSTORE PUSH1 0x20 DUP2 ADD DUP8 SWAP1 MSTORE PUSH1 0xFF DUP6 AND DUP2 DUP4 ADD MSTORE SWAP1 MLOAD PUSH1 0x1 PUSH1 0x1 PUSH1 0xA0 SHL SUB DUP7 AND SWAP2 CALLER SWAP2 PUSH32 0x4CCD5830047404934FF21145531B3E4EDBC2A057F1E3B73E37E6810AAAD80C4 SWAP2 DUP2 SWAP1 SUB PUSH1 0x60 ADD SWAP1 LOG3 POP POP POP POP POP POP JUMP JUMPDEST PUSH2 0x2F5F DUP2 CALLER PUSH2 0x37EC JUMP JUMPDEST PUSH1 0x0 PUSH1 0x0 DUP1 MLOAD PUSH1 0x20 PUSH2 0x4405 DUP4 CODECOPY DUP2 MLOAD SWAP2 MSTORE PUSH2 0x33AB DUP5 DUP5 PUSH2 0x1A7B JUMP JUMPDEST PUSH2 0x342B JUMPI PUSH1 0x0 DUP5 DUP2 MSTORE PUSH1 0x20 DUP3 DUP2 MSTORE PUSH1 0x40 DUP1 DUP4 KECCAK256 PUSH1 0x1 PUSH1 0x1 PUSH1 0xA0 SHL SUB DUP8 AND DUP5 MSTORE SWAP1 SWAP2 MSTORE SWAP1 KECCAK256 DUP1 SLOAD PUSH1 0xFF NOT AND PUSH1 0x1 OR SWAP1 SSTORE PUSH2 0x33E1 CALLER SWAP1 JUMP JUMPDEST PUSH1 0x1 PUSH1 0x1 PUSH1 0xA0 SHL SUB AND DUP4 PUSH1 0x1 PUSH1 0x1 PUSH1 0xA0 SHL SUB AND DUP6 PUSH32 0x2F8788117E7EFF1D82E926EC794901D17C78024A50270940304540A733656F0D PUSH1 0x40 MLOAD PUSH1 0x40 MLOAD DUP1 SWAP2 SUB SWAP1 LOG4 PUSH1 0x1 SWAP2 POP POP PUSH2 0xA52 JUMP JUMPDEST PUSH1 0x0 SWAP2 POP POP PUSH2 0xA52 JUMP JUMPDEST PUSH1 0x0 PUSH1 0x0 DUP1 MLOAD PUSH1 0x20 PUSH2 0x4405 DUP4 CODECOPY DUP2 MLOAD SWAP2 MSTORE PUSH2 0x3450 DUP5 DUP5 PUSH2 0x1A7B JUMP JUMPDEST ISZERO PUSH2 0x342B JUMPI PUSH1 0x0 DUP5 DUP2 MSTORE PUSH1 0x20 DUP3 DUP2 MSTORE PUSH1 0x40 DUP1 DUP4 KECCAK256 PUSH1 0x1 PUSH1 0x1 PUSH1 0xA0 SHL SUB DUP8 AND DUP1 DUP6 MSTORE SWAP3 MSTORE DUP1 DUP4 KECCAK256 DUP1 SLOAD PUSH1 0xFF NOT AND SWAP1 SSTORE MLOAD CALLER SWAP3 DUP8 SWAP2 PUSH32 0xF6391F5C32D9C69D2A47EA670B442974B53935D1EDC7FD64EB21E047A839171B SWAP2 SWAP1 LOG4 PUSH1 0x1 SWAP2 POP POP PUSH2 0xA52 JUMP JUMPDEST ADDRESS PUSH1 0x1 PUSH1 0x1 PUSH1 0xA0 SHL SUB PUSH32 0x0 AND EQ DUP1 PUSH2 0x3538 JUMPI POP PUSH32 0x0 PUSH1 0x1 PUSH1 0x1 PUSH1 0xA0 SHL SUB AND PUSH2 0x352C PUSH1 0x0 DUP1 MLOAD PUSH1 0x20 PUSH2 0x43E5 DUP4 CODECOPY DUP2 MLOAD SWAP2 MSTORE SLOAD PUSH1 0x1 PUSH1 0x1 PUSH1 0xA0 SHL SUB AND SWAP1 JUMP JUMPDEST PUSH1 0x1 PUSH1 0x1 PUSH1 0xA0 SHL SUB AND EQ ISZERO JUMPDEST ISZERO PUSH2 0x1389 JUMPI PUSH1 0x40 MLOAD PUSH4 0x703E46DD PUSH1 0xE1 SHL DUP2 MSTORE PUSH1 0x4 ADD PUSH1 0x40 MLOAD DUP1 SWAP2 SUB SWAP1 REVERT JUMPDEST PUSH2 0x2F5F PUSH2 0x3707 JUMP JUMPDEST DUP2 PUSH1 0x1 PUSH1 0x1 PUSH1 0xA0 SHL SUB AND PUSH4 0x52D1902D PUSH1 0x40 MLOAD DUP2 PUSH4 0xFFFFFFFF AND PUSH1 0xE0 SHL DUP2 MSTORE PUSH1 0x4 ADD PUSH1 0x20 PUSH1 0x40 MLOAD DUP1 DUP4 SUB DUP2 DUP7 GAS STATICCALL SWAP3 POP POP POP DUP1 ISZERO PUSH2 0x35B8 JUMPI POP PUSH1 0x40 DUP1 MLOAD PUSH1 0x1F RETURNDATASIZE SWAP1 DUP2 ADD PUSH1 0x1F NOT AND DUP3 ADD SWAP1 SWAP3 MSTORE PUSH2 0x35B5 SWAP2 DUP2 ADD SWAP1 PUSH2 0x4099 JUMP JUMPDEST PUSH1 0x1 JUMPDEST PUSH2 0x35E0 JUMPI PUSH1 0x40 MLOAD PUSH4 0x4C9C8CE3 PUSH1 0xE0 SHL DUP2 MSTORE PUSH1 0x1 PUSH1 0x1 PUSH1 0xA0 SHL SUB DUP4 AND PUSH1 0x4 DUP3 ADD MSTORE PUSH1 0x24 ADD PUSH2 0x832 JUMP JUMPDEST PUSH1 0x0 DUP1 MLOAD PUSH1 0x20 PUSH2 0x43E5 DUP4 CODECOPY DUP2 MLOAD SWAP2 MSTORE DUP2 EQ PUSH2 0x3611 JUMPI PUSH1 0x40 MLOAD PUSH4 0x2A875269 PUSH1 0xE2 SHL DUP2 MSTORE PUSH1 0x4 DUP2 ADD DUP3 SWAP1 MSTORE PUSH1 0x24 ADD PUSH2 0x832 JUMP JUMPDEST PUSH2 0xAFC DUP4 DUP4 PUSH2 0x3825 JUMP JUMPDEST ADDRESS PUSH1 0x1 PUSH1 0x1 PUSH1 0xA0 SHL SUB PUSH32 0x0 AND EQ PUSH2 0x1389 JUMPI PUSH1 0x40 MLOAD PUSH4 0x703E46DD PUSH1 0xE1 SHL DUP2 MSTORE PUSH1 0x4 ADD PUSH1 0x40 MLOAD DUP1 SWAP2 SUB SWAP1 REVERT JUMPDEST PUSH32 0xCD5ED15C6E187E77E9AEE88184C21F4F2182AB5827CB3B7E07FBEDCD63F03300 SLOAD PUSH1 0xFF AND ISZERO PUSH2 0x1389 JUMPI PUSH1 0x40 MLOAD PUSH4 0xD93C0665 PUSH1 0xE0 SHL DUP2 MSTORE PUSH1 0x4 ADD PUSH1 0x40 MLOAD DUP1 SWAP2 SUB SWAP1 REVERT JUMPDEST PUSH1 0x0 DUP1 PREVRANDAO TIMESTAMP PUSH1 0x4 SLOAD PUSH1 0x40 MLOAD PUSH1 0x20 ADD PUSH2 0x36D2 SWAP4 SWAP3 SWAP2 SWAP1 SWAP3 DUP4 MSTORE PUSH1 0x20 DUP4 ADD SWAP2 SWAP1 SWAP2 MSTORE PUSH1 0x40 DUP3 ADD MSTORE PUSH1 0x60 ADD SWAP1 JUMP JUMPDEST PUSH1 0x40 DUP1 MLOAD PUSH1 0x1F NOT DUP2 DUP5 SUB ADD DUP2 MSTORE SWAP2 SWAP1 MSTORE DUP1 MLOAD PUSH1 0x20 SWAP1 SWAP2 ADD KECCAK256 PUSH1 0x4 DUP1 SLOAD SWAP2 SWAP3 POP PUSH1 0x0 PUSH2 0x36FC DUP4 PUSH2 0x4257 JUMP JUMPDEST SWAP1 SWAP2 SSTORE POP SWAP1 SWAP3 SWAP2 POP POP JUMP JUMPDEST CALLER PUSH2 0x3739 PUSH32 0x9016D09D72D40FDAE2FD8CEAC6B6234C7706214FD39C1CD1E609A0528C199300 SLOAD PUSH1 0x1 PUSH1 0x1 PUSH1 0xA0 SHL SUB AND SWAP1 JUMP JUMPDEST PUSH1 0x1 PUSH1 0x1 PUSH1 0xA0 SHL SUB AND EQ PUSH2 0x1389 JUMPI PUSH1 0x40 MLOAD PUSH4 0x118CDAA7 PUSH1 0xE0 SHL DUP2 MSTORE CALLER PUSH1 0x4 DUP3 ADD MSTORE PUSH1 0x24 ADD PUSH2 0x832 JUMP JUMPDEST PUSH32 0x9016D09D72D40FDAE2FD8CEAC6B6234C7706214FD39C1CD1E609A0528C199300 DUP1 SLOAD PUSH1 0x1 PUSH1 0x1 PUSH1 0xA0 SHL SUB NOT DUP2 AND PUSH1 0x1 PUSH1 0x1 PUSH1 0xA0 SHL SUB DUP5 DUP2 AND SWAP2 DUP3 OR DUP5 SSTORE PUSH1 0x40 MLOAD SWAP3 AND SWAP2 DUP3 SWAP1 PUSH32 0x8BE0079C531659141344CD1FD0A4F28419497F9722A3DAAFE3B4186F6B6457E0 SWAP1 PUSH1 0x0 SWAP1 LOG3 POP POP POP JUMP JUMPDEST PUSH2 0x37DB PUSH2 0x387B JUMP JUMPDEST PUSH2 0x2F5F DUP2 PUSH2 0x38C4 JUMP JUMPDEST PUSH2 0x1389 PUSH2 0x387B JUMP JUMPDEST PUSH2 0x37F6 DUP3 DUP3 PUSH2 0x1A7B JUMP JUMPDEST PUSH2 0xD00 JUMPI PUSH1 0x40 MLOAD PUSH4 0xE2517D3F PUSH1 0xE0 SHL DUP2 MSTORE PUSH1 0x1 PUSH1 0x1 PUSH1 0xA0 SHL SUB DUP3 AND PUSH1 0x4 DUP3 ADD MSTORE PUSH1 0x24 DUP2 ADD DUP4 SWAP1 MSTORE PUSH1 0x44 ADD PUSH2 0x832 JUMP JUMPDEST PUSH2 0x382E DUP3 PUSH2 0x38CC JUMP JUMPDEST PUSH1 0x40 MLOAD PUSH1 0x1 PUSH1 0x1 PUSH1 0xA0 SHL SUB DUP4 AND SWAP1 PUSH32 0xBC7CD75A20EE27FD9ADEBAB32041F755214DBC6BFFA90CC0225B39DA2E5C2D3B SWAP1 PUSH1 0x0 SWAP1 LOG2 DUP1 MLOAD ISZERO PUSH2 0x3873 JUMPI PUSH2 0xAFC DUP3 DUP3 PUSH2 0x3931 JUMP JUMPDEST PUSH2 0xD00 PUSH2 0x399E JUMP JUMPDEST PUSH32 0xF0C57E16840DF040F15088DC2F81FE391C3923BEC73E23A9662EFC9C229C6A00 SLOAD PUSH1 0x1 PUSH1 0x40 SHL SWAP1 DIV PUSH1 0xFF AND PUSH2 0x1389 JUMPI PUSH1 0x40 MLOAD PUSH4 0x1AFCD79F PUSH1 0xE3 SHL DUP2 MSTORE PUSH1 0x4 ADD PUSH1 0x40 MLOAD DUP1 SWAP2 SUB SWAP1 REVERT JUMPDEST PUSH2 0x2F2C PUSH2 0x387B JUMP JUMPDEST DUP1 PUSH1 0x1 PUSH1 0x1 PUSH1 0xA0 SHL SUB AND EXTCODESIZE PUSH1 0x0 SUB PUSH2 0x3902 JUMPI PUSH1 0x40 MLOAD PUSH4 0x4C9C8CE3 PUSH1 0xE0 SHL DUP2 MSTORE PUSH1 0x1 PUSH1 0x1 PUSH1 0xA0 SHL SUB DUP3 AND PUSH1 0x4 DUP3 ADD MSTORE PUSH1 0x24 ADD PUSH2 0x832 JUMP JUMPDEST PUSH1 0x0 DUP1 MLOAD PUSH1 0x20 PUSH2 0x43E5 DUP4 CODECOPY DUP2 MLOAD SWAP2 MSTORE DUP1 SLOAD PUSH1 0x1 PUSH1 0x1 PUSH1 0xA0 SHL SUB NOT AND PUSH1 0x1 PUSH1 0x1 PUSH1 0xA0 SHL SUB SWAP3 SWAP1 SWAP3 AND SWAP2 SWAP1 SWAP2 OR SWAP1 SSTORE JUMP JUMPDEST PUSH1 0x60 PUSH1 0x0 DUP1 DUP5 PUSH1 0x1 PUSH1 0x1 PUSH1 0xA0 SHL SUB AND DUP5 PUSH1 0x40 MLOAD PUSH2 0x394E SWAP2 SWAP1 PUSH2 0x43C8 JUMP JUMPDEST PUSH1 0x0 PUSH1 0x40 MLOAD DUP1 DUP4 SUB DUP2 DUP6 GAS DELEGATECALL SWAP2 POP POP RETURNDATASIZE DUP1 PUSH1 0x0 DUP2 EQ PUSH2 0x3989 JUMPI PUSH1 0x40 MLOAD SWAP2 POP PUSH1 0x1F NOT PUSH1 0x3F RETURNDATASIZE ADD AND DUP3 ADD PUSH1 0x40 MSTORE RETURNDATASIZE DUP3 MSTORE RETURNDATASIZE PUSH1 0x0 PUSH1 0x20 DUP5 ADD RETURNDATACOPY PUSH2 0x398E JUMP JUMPDEST PUSH1 0x60 SWAP2 POP JUMPDEST POP SWAP2 POP SWAP2 POP PUSH2 0x2FEF DUP6 DUP4 DUP4 PUSH2 0x39BD JUMP JUMPDEST CALLVALUE ISZERO PUSH2 0x1389 JUMPI PUSH1 0x40 MLOAD PUSH4 0xB398979F PUSH1 0xE0 SHL DUP2 MSTORE PUSH1 0x4 ADD PUSH1 0x40 MLOAD DUP1 SWAP2 SUB SWAP1 REVERT JUMPDEST PUSH1 0x60 DUP3 PUSH2 0x39D2 JUMPI PUSH2 0x39CD DUP3 PUSH2 0x3A19 JUMP JUMPDEST PUSH2 0x1A74 JUMP JUMPDEST DUP2 MLOAD ISZERO DUP1 ISZERO PUSH2 0x39E9 JUMPI POP PUSH1 0x1 PUSH1 0x1 PUSH1 0xA0 SHL SUB DUP5 AND EXTCODESIZE ISZERO JUMPDEST ISZERO PUSH2 0x3A12 JUMPI PUSH1 0x40 MLOAD PUSH4 0x9996B315 PUSH1 0xE0 SHL DUP2 MSTORE PUSH1 0x1 PUSH1 0x1 PUSH1 0xA0 SHL SUB DUP6 AND PUSH1 0x4 DUP3 ADD MSTORE PUSH1 0x24 ADD PUSH2 0x832 JUMP JUMPDEST POP DUP1 PUSH2 0x1A74 JUMP JUMPDEST DUP1 MLOAD ISZERO PUSH2 0x3A29 JUMPI DUP1 MLOAD DUP1 DUP3 PUSH1 0x20 ADD REVERT JUMPDEST PUSH1 0x40 MLOAD PUSH4 0xA12F521 PUSH1 0xE1 SHL DUP2 MSTORE PUSH1 0x4 ADD PUSH1 0x40 MLOAD DUP1 SWAP2 SUB SWAP1 REVERT JUMPDEST DUP3 DUP1 SLOAD DUP3 DUP3 SSTORE SWAP1 PUSH1 0x0 MSTORE PUSH1 0x20 PUSH1 0x0 KECCAK256 SWAP1 DUP2 ADD SWAP3 DUP3 ISZERO PUSH2 0x3A97 JUMPI SWAP2 PUSH1 0x20 MUL DUP3 ADD JUMPDEST DUP3 DUP2 GT ISZERO PUSH2 0x3A97 JUMPI DUP3 MLOAD DUP3 SLOAD PUSH1 0x1 PUSH1 0x1 PUSH1 0xA0 SHL SUB NOT AND PUSH1 0x1 PUSH1 0x1 PUSH1 0xA0 SHL SUB SWAP1 SWAP2 AND OR DUP3 SSTORE PUSH1 0x20 SWAP1 SWAP3 ADD SWAP2 PUSH1 0x1 SWAP1 SWAP2 ADD SWAP1 PUSH2 0x3A62 JUMP JUMPDEST POP PUSH2 0x3AA3 SWAP3 SWAP2 POP PUSH2 0x3AA7 JUMP JUMPDEST POP SWAP1 JUMP JUMPDEST JUMPDEST DUP1 DUP3 GT ISZERO PUSH2 0x3AA3 JUMPI PUSH1 0x0 DUP2 SSTORE PUSH1 0x1 ADD PUSH2 0x3AA8 JUMP JUMPDEST DUP1 CALLDATALOAD PUSH1 0x1 PUSH1 0x1 PUSH1 0xA0 SHL SUB DUP2 AND DUP2 EQ PUSH2 0x3AD3 JUMPI PUSH1 0x0 DUP1 REVERT JUMPDEST SWAP2 SWAP1 POP JUMP JUMPDEST PUSH1 0x0 DUP1 PUSH1 0x40 DUP4 DUP6 SUB SLT ISZERO PUSH2 0x3AEB JUMPI PUSH1 0x0 DUP1 REVERT JUMPDEST DUP3 CALLDATALOAD SWAP2 POP PUSH2 0x3AFB PUSH1 0x20 DUP5 ADD PUSH2 0x3ABC JUMP JUMPDEST SWAP1 POP SWAP3 POP SWAP3 SWAP1 POP JUMP JUMPDEST PUSH1 0x0 PUSH1 0x20 DUP3 DUP5 SUB SLT ISZERO PUSH2 0x3B16 JUMPI PUSH1 0x0 DUP1 REVERT JUMPDEST DUP2 CALLDATALOAD PUSH1 0x1 PUSH1 0x1 PUSH1 0xE0 SHL SUB NOT DUP2 AND DUP2 EQ PUSH2 0x1A74 JUMPI PUSH1 0x0 DUP1 REVERT JUMPDEST PUSH1 0x0 PUSH1 0x20 DUP3 DUP5 SUB SLT ISZERO PUSH2 0x3B40 JUMPI PUSH1 0x0 DUP1 REVERT JUMPDEST POP CALLDATALOAD SWAP2 SWAP1 POP JUMP JUMPDEST PUSH1 0x0 PUSH1 0x20 DUP3 DUP5 SUB SLT ISZERO PUSH2 0x3B59 JUMPI PUSH1 0x0 DUP1 REVERT JUMPDEST PUSH2 0x1A74 DUP3 PUSH2 0x3ABC JUMP JUMPDEST PUSH4 0x4E487B71 PUSH1 0xE0 SHL PUSH1 0x0 MSTORE PUSH1 0x41 PUSH1 0x4 MSTORE PUSH1 0x24 PUSH1 0x0 REVERT JUMPDEST PUSH1 0x40 MLOAD PUSH1 0x1F DUP3 ADD PUSH1 0x1F NOT AND DUP2 ADD PUSH8 0xFFFFFFFFFFFFFFFF DUP2 GT DUP3 DUP3 LT OR ISZERO PUSH2 0x3BA1 JUMPI PUSH2 0x3BA1 PUSH2 0x3B62 JUMP JUMPDEST PUSH1 0x40 MSTORE SWAP2 SWAP1 POP JUMP JUMPDEST PUSH1 0x0 PUSH8 0xFFFFFFFFFFFFFFFF DUP3 GT ISZERO PUSH2 0x3BC3 JUMPI PUSH2 0x3BC3 PUSH2 0x3B62 JUMP JUMPDEST POP PUSH1 0x1F ADD PUSH1 0x1F NOT AND PUSH1 0x20 ADD SWAP1 JUMP JUMPDEST PUSH1 0x0 DUP1 PUSH1 0x40 DUP4 DUP6 SUB SLT ISZERO PUSH2 0x3BE4 JUMPI PUSH1 0x0 DUP1 REVERT JUMPDEST PUSH2 0x3BED DUP4 PUSH2 0x3ABC JUMP JUMPDEST SWAP2 POP PUSH1 0x20 DUP4 ADD CALLDATALOAD PUSH8 0xFFFFFFFFFFFFFFFF DUP2 GT ISZERO PUSH2 0x3C09 JUMPI PUSH1 0x0 DUP1 REVERT JUMPDEST DUP4 ADD PUSH1 0x1F DUP2 ADD DUP6 SGT PUSH2 0x3C1A JUMPI PUSH1 0x0 DUP1 REVERT JUMPDEST DUP1 CALLDATALOAD PUSH2 0x3C2D PUSH2 0x3C28 DUP3 PUSH2 0x3BA9 JUMP JUMPDEST PUSH2 0x3B78 JUMP JUMPDEST DUP2 DUP2 MSTORE DUP7 PUSH1 0x20 DUP4 DUP6 ADD ADD GT ISZERO PUSH2 0x3C42 JUMPI PUSH1 0x0 DUP1 REVERT JUMPDEST DUP2 PUSH1 0x20 DUP5 ADD PUSH1 0x20 DUP4 ADD CALLDATACOPY PUSH1 0x0 PUSH1 0x20 DUP4 DUP4 ADD ADD MSTORE DUP1 SWAP4 POP POP POP POP SWAP3 POP SWAP3 SWAP1 POP JUMP JUMPDEST PUSH1 0x0 DUP1 PUSH1 0x40 DUP4 DUP6 SUB SLT ISZERO PUSH2 0x3C75 JUMPI PUSH1 0x0 DUP1 REVERT JUMPDEST PUSH2 0x3C7E DUP4 PUSH2 0x3ABC JUMP JUMPDEST SWAP5 PUSH1 0x20 SWAP4 SWAP1 SWAP4 ADD CALLDATALOAD SWAP4 POP POP POP JUMP JUMPDEST PUSH1 0x0 DUP1 PUSH1 0x0 PUSH1 0x60 DUP5 DUP7 SUB SLT ISZERO PUSH2 0x3CA1 JUMPI PUSH1 0x0 DUP1 REVERT JUMPDEST DUP4 CALLDATALOAD SWAP3 POP PUSH2 0x3CB1 PUSH1 0x20 DUP6 ADD PUSH2 0x3ABC JUMP JUMPDEST SWAP2 POP PUSH1 0x40 DUP5 ADD CALLDATALOAD SWAP1 POP SWAP3 POP SWAP3 POP SWAP3 JUMP JUMPDEST PUSH1 0x0 DUP1 PUSH1 0x0 DUP1 PUSH1 0x60 DUP6 DUP8 SUB SLT ISZERO PUSH2 0x3CD7 JUMPI PUSH1 0x0 DUP1 REVERT JUMPDEST PUSH2 0x3CE0 DUP6 PUSH2 0x3ABC JUMP JUMPDEST SWAP4 POP PUSH1 0x20 DUP6 ADD CALLDATALOAD SWAP3 POP PUSH1 0x40 DUP6 ADD CALLDATALOAD PUSH8 0xFFFFFFFFFFFFFFFF DUP1 DUP3 GT ISZERO PUSH2 0x3D04 JUMPI PUSH1 0x0 DUP1 REVERT JUMPDEST DUP2 DUP8 ADD SWAP2 POP DUP8 PUSH1 0x1F DUP4 ADD SLT PUSH2 0x3D18 JUMPI PUSH1 0x0 DUP1 REVERT JUMPDEST DUP2 CALLDATALOAD DUP2 DUP2 GT ISZERO PUSH2 0x3D27 JUMPI PUSH1 0x0 DUP1 REVERT JUMPDEST DUP9 PUSH1 0x20 DUP3 PUSH1 0x5 SHL DUP6 ADD ADD GT ISZERO PUSH2 0x3D3C JUMPI PUSH1 0x0 DUP1 REVERT JUMPDEST SWAP6 SWAP9 SWAP5 SWAP8 POP POP PUSH1 0x20 ADD SWAP5 POP POP POP JUMP JUMPDEST PUSH1 0x0 DUP1 PUSH1 0x0 PUSH1 0x60 DUP5 DUP7 SUB SLT ISZERO PUSH2 0x3D60 JUMPI PUSH1 0x0 DUP1 REVERT JUMPDEST PUSH2 0x3D69 DUP5 PUSH2 0x3ABC JUMP JUMPDEST SWAP6 PUSH1 0x20 DUP6 ADD CALLDATALOAD SWAP6 POP PUSH1 0x40 SWAP1 SWAP5 ADD CALLDATALOAD SWAP4 SWAP3 POP POP POP JUMP JUMPDEST PUSH1 0x20 DUP1 DUP3 MSTORE DUP3 MLOAD DUP3 DUP3 ADD DUP2 SWAP1 MSTORE PUSH1 0x0 SWAP2 SWAP1 PUSH1 0x40 SWAP1 DUP2 DUP6 ADD SWAP1 DUP7 DUP5 ADD DUP6 JUMPDEST DUP3 DUP2 LT ISZERO PUSH2 0x3DF2 JUMPI DUP2 MLOAD DUP1 MLOAD DUP6 MSTORE DUP7 DUP2 ADD MLOAD DUP8 DUP7 ADD MSTORE DUP6 DUP2 ADD MLOAD PUSH1 0x1 PUSH1 0x1 PUSH1 0xA0 SHL SUB AND DUP7 DUP7 ADD MSTORE PUSH1 0x60 DUP1 DUP3 ADD MLOAD SWAP1 DUP7 ADD MSTORE PUSH1 0x80 DUP1 DUP3 ADD MLOAD SWAP1 DUP7 ADD MSTORE PUSH1 0xA0 SWAP1 DUP2 ADD MLOAD SWAP1 DUP6 ADD MSTORE PUSH1 0xC0 SWAP1 SWAP4 ADD SWAP3 SWAP1 DUP6 ADD SWAP1 PUSH1 0x1 ADD PUSH2 0x3D9B JUMP JUMPDEST POP SWAP2 SWAP8 SWAP7 POP POP POP POP POP POP POP JUMP JUMPDEST PUSH1 0x0 JUMPDEST DUP4 DUP2 LT ISZERO PUSH2 0x3E1A JUMPI DUP2 DUP2 ADD MLOAD DUP4 DUP3 ADD MSTORE PUSH1 0x20 ADD PUSH2 0x3E02 JUMP JUMPDEST POP POP PUSH1 0x0 SWAP2 ADD MSTORE JUMP JUMPDEST PUSH1 0x0 DUP2 MLOAD DUP1 DUP5 MSTORE PUSH2 0x3E3B DUP2 PUSH1 0x20 DUP7 ADD PUSH1 0x20 DUP7 ADD PUSH2 0x3DFF JUMP JUMPDEST PUSH1 0x1F ADD PUSH1 0x1F NOT AND SWAP3 SWAP1 SWAP3 ADD PUSH1 0x20 ADD SWAP3 SWAP2 POP POP JUMP JUMPDEST PUSH1 0x20 DUP2 MSTORE PUSH1 0x0 PUSH2 0x1A74 PUSH1 0x20 DUP4 ADD DUP5 PUSH2 0x3E23 JUMP JUMPDEST PUSH1 0x0 DUP1 PUSH1 0x0 PUSH1 0x60 DUP5 DUP7 SUB SLT ISZERO PUSH2 0x3E77 JUMPI PUSH1 0x0 DUP1 REVERT JUMPDEST PUSH2 0x3E80 DUP5 PUSH2 0x3ABC JUMP JUMPDEST SWAP3 POP PUSH2 0x3E8E PUSH1 0x20 DUP6 ADD PUSH2 0x3ABC JUMP JUMPDEST SWAP2 POP PUSH2 0x3E9C PUSH1 0x40 DUP6 ADD PUSH2 0x3ABC JUMP JUMPDEST SWAP1 POP SWAP3 POP SWAP3 POP SWAP3 JUMP JUMPDEST PUSH1 0x0 DUP2 MLOAD DUP1 DUP5 MSTORE PUSH1 0x20 DUP1 DUP6 ADD SWAP5 POP DUP1 DUP5 ADD PUSH1 0x0 JUMPDEST DUP4 DUP2 LT ISZERO PUSH2 0x3EDE JUMPI DUP2 MLOAD PUSH1 0x1 PUSH1 0x1 PUSH1 0xA0 SHL SUB AND DUP8 MSTORE SWAP6 DUP3 ADD SWAP6 SWAP1 DUP3 ADD SWAP1 PUSH1 0x1 ADD PUSH2 0x3EB9 JUMP JUMPDEST POP SWAP5 SWAP6 SWAP5 POP POP POP POP POP JUMP JUMPDEST PUSH1 0x0 PUSH1 0x20 DUP1 DUP4 ADD DUP2 DUP5 MSTORE DUP1 DUP6 MLOAD DUP1 DUP4 MSTORE PUSH1 0x40 SWAP3 POP DUP3 DUP7 ADD SWAP2 POP DUP3 DUP2 PUSH1 0x5 SHL DUP8 ADD ADD DUP5 DUP9 ADD PUSH1 0x0 JUMPDEST DUP4 DUP2 LT ISZERO PUSH2 0x3F7A JUMPI PUSH1 0x3F NOT DUP10 DUP5 SUB ADD DUP6 MSTORE DUP2 MLOAD PUSH1 0x80 DUP2 MLOAD DUP6 MSTORE PUSH1 0xFF DUP10 DUP4 ADD MLOAD AND DUP10 DUP7 ADD MSTORE DUP8 DUP3 ADD MLOAD DUP2 DUP10 DUP8 ADD MSTORE PUSH2 0x3F49 DUP3 DUP8 ADD DUP3 PUSH2 0x3EA5 JUMP JUMPDEST SWAP2 POP POP PUSH1 0x60 DUP1 DUP4 ADD MLOAD SWAP3 POP DUP6 DUP3 SUB DUP2 DUP8 ADD MSTORE POP PUSH2 0x3F66 DUP2 DUP4 PUSH2 0x3EA5 JUMP JUMPDEST SWAP7 DUP10 ADD SWAP7 SWAP5 POP POP POP SWAP1 DUP7 ADD SWAP1 PUSH1 0x1 ADD PUSH2 0x3F10 JUMP JUMPDEST POP SWAP1 SWAP9 SWAP8 POP POP POP POP POP POP POP POP JUMP JUMPDEST PUSH1 0x0 DUP1 PUSH1 0x0 DUP1 PUSH1 0x80 DUP6 DUP8 SUB SLT ISZERO PUSH2 0x3F9E JUMPI PUSH1 0x0 DUP1 REVERT JUMPDEST PUSH2 0x3FA7 DUP6 PUSH2 0x3ABC JUMP JUMPDEST SWAP4 POP PUSH1 0x20 DUP6 ADD CALLDATALOAD PUSH2 0xFFFF DUP2 AND DUP2 EQ PUSH2 0x3FBE JUMPI PUSH1 0x0 DUP1 REVERT JUMPDEST SWAP3 POP PUSH2 0x3FCC PUSH1 0x40 DUP7 ADD PUSH2 0x3ABC JUMP JUMPDEST SWAP4 SWAP7 SWAP3 SWAP6 POP SWAP3 SWAP4 PUSH1 0x60 ADD CALLDATALOAD SWAP3 POP POP JUMP JUMPDEST PUSH1 0x0 PUSH1 0x20 DUP3 DUP5 SUB SLT ISZERO PUSH2 0x3FEE JUMPI PUSH1 0x0 DUP1 REVERT JUMPDEST DUP2 MLOAD PUSH1 0xFF DUP2 AND DUP2 EQ PUSH2 0x1A74 JUMPI PUSH1 0x0 DUP1 REVERT JUMPDEST PUSH4 0x4E487B71 PUSH1 0xE0 SHL PUSH1 0x0 MSTORE PUSH1 0x11 PUSH1 0x4 MSTORE PUSH1 0x24 PUSH1 0x0 REVERT JUMPDEST DUP1 DUP3 MUL DUP2 ISZERO DUP3 DUP3 DIV DUP5 EQ OR PUSH2 0xA52 JUMPI PUSH2 0xA52 PUSH2 0x3FFF JUMP JUMPDEST PUSH4 0x4E487B71 PUSH1 0xE0 SHL PUSH1 0x0 MSTORE PUSH1 0x12 PUSH1 0x4 MSTORE PUSH1 0x24 PUSH1 0x0 REVERT JUMPDEST PUSH1 0x0 DUP3 PUSH2 0x4051 JUMPI PUSH2 0x4051 PUSH2 0x402C JUMP JUMPDEST POP DIV SWAP1 JUMP JUMPDEST DUP2 DUP2 SUB DUP2 DUP2 GT ISZERO PUSH2 0xA52 JUMPI PUSH2 0xA52 PUSH2 0x3FFF JUMP JUMPDEST PUSH1 0x20 DUP1 DUP3 MSTORE PUSH1 0x16 SWAP1 DUP3 ADD MSTORE PUSH22 0x21B0B63632B91034B9903737BA1030B71020B236B4B7 PUSH1 0x51 SHL PUSH1 0x40 DUP3 ADD MSTORE PUSH1 0x60 ADD SWAP1 JUMP JUMPDEST PUSH1 0x0 PUSH1 0x20 DUP3 DUP5 SUB SLT ISZERO PUSH2 0x40AB JUMPI PUSH1 0x0 DUP1 REVERT JUMPDEST POP MLOAD SWAP2 SWAP1 POP JUMP JUMPDEST PUSH1 0x0 PUSH1 0x20 DUP3 DUP5 SUB SLT ISZERO PUSH2 0x40C4 JUMPI PUSH1 0x0 DUP1 REVERT JUMPDEST DUP2 MLOAD DUP1 ISZERO ISZERO DUP2 EQ PUSH2 0x1A74 JUMPI PUSH1 0x0 DUP1 REVERT JUMPDEST PUSH4 0x4E487B71 PUSH1 0xE0 SHL PUSH1 0x0 MSTORE PUSH1 0x32 PUSH1 0x4 MSTORE PUSH1 0x24 PUSH1 0x0 REVERT JUMPDEST PUSH1 0x0 DUP1 PUSH1 0x40 DUP4 DUP6 SUB SLT ISZERO PUSH2 0x40FD JUMPI PUSH1 0x0 DUP1 REVERT JUMPDEST POP POP DUP1 MLOAD PUSH1 0x20 SWAP1 SWAP2 ADD MLOAD SWAP1 SWAP3 SWAP1 SWAP2 POP JUMP JUMPDEST PUSH1 0x20 DUP1 DUP3 MSTORE PUSH1 0x1E SWAP1 DUP3 ADD MSTORE PUSH32 0x4572726F72207768696C65206F627461696E696E6720646563696D616C730000 PUSH1 0x40 DUP3 ADD MSTORE PUSH1 0x60 ADD SWAP1 JUMP JUMPDEST PUSH1 0x1 DUP2 DUP2 JUMPDEST DUP1 DUP6 GT ISZERO PUSH2 0x4180 JUMPI DUP2 PUSH1 0x0 NOT DIV DUP3 GT ISZERO PUSH2 0x4166 JUMPI PUSH2 0x4166 PUSH2 0x3FFF JUMP JUMPDEST DUP1 DUP6 AND ISZERO PUSH2 0x4173 JUMPI SWAP2 DUP2 MUL SWAP2 JUMPDEST SWAP4 DUP5 SHR SWAP4 SWAP1 DUP1 MUL SWAP1 PUSH2 0x414A JUMP JUMPDEST POP SWAP3 POP SWAP3 SWAP1 POP JUMP JUMPDEST PUSH1 0x0 DUP3 PUSH2 0x4197 JUMPI POP PUSH1 0x1 PUSH2 0xA52 JUMP JUMPDEST DUP2 PUSH2 0x41A4 JUMPI POP PUSH1 0x0 PUSH2 0xA52 JUMP JUMPDEST DUP2 PUSH1 0x1 DUP2 EQ PUSH2 0x41BA JUMPI PUSH1 0x2 DUP2 EQ PUSH2 0x41C4 JUMPI PUSH2 0x41E0 JUMP JUMPDEST PUSH1 0x1 SWAP2 POP POP PUSH2 0xA52 JUMP JUMPDEST PUSH1 0xFF DUP5 GT ISZERO PUSH2 0x41D5 JUMPI PUSH2 0x41D5 PUSH2 0x3FFF JUMP JUMPDEST POP POP PUSH1 0x1 DUP3 SHL PUSH2 0xA52 JUMP JUMPDEST POP PUSH1 0x20 DUP4 LT PUSH2 0x133 DUP4 LT AND PUSH1 0x4E DUP5 LT PUSH1 0xB DUP5 LT AND OR ISZERO PUSH2 0x4203 JUMPI POP DUP2 DUP2 EXP PUSH2 0xA52 JUMP JUMPDEST PUSH2 0x420D DUP4 DUP4 PUSH2 0x4145 JUMP JUMPDEST DUP1 PUSH1 0x0 NOT DIV DUP3 GT ISZERO PUSH2 0x4221 JUMPI PUSH2 0x4221 PUSH2 0x3FFF JUMP JUMPDEST MUL SWAP4 SWAP3 POP POP POP JUMP JUMPDEST PUSH1 0x0 PUSH2 0x1A74 PUSH1 0xFF DUP5 AND DUP4 PUSH2 0x4188 JUMP JUMPDEST PUSH1 0x0 PUSH1 0xFF DUP3 AND PUSH1 0xFF DUP2 SUB PUSH2 0x424E JUMPI PUSH2 0x424E PUSH2 0x3FFF JUMP JUMPDEST PUSH1 0x1 ADD SWAP3 SWAP2 POP POP JUMP JUMPDEST PUSH1 0x0 PUSH1 0x1 DUP3 ADD PUSH2 0x4269 JUMPI PUSH2 0x4269 PUSH2 0x3FFF JUMP JUMPDEST POP PUSH1 0x1 ADD SWAP1 JUMP JUMPDEST DUP4 DUP2 MSTORE PUSH1 0x40 PUSH1 0x20 DUP1 DUP4 ADD DUP3 SWAP1 MSTORE SWAP1 DUP3 ADD DUP4 SWAP1 MSTORE PUSH1 0x0 SWAP1 DUP5 SWAP1 PUSH1 0x60 DUP5 ADD DUP4 JUMPDEST DUP7 DUP2 LT ISZERO PUSH2 0x42BA JUMPI PUSH1 0x1 PUSH1 0x1 PUSH1 0xA0 SHL SUB PUSH2 0x42A7 DUP6 PUSH2 0x3ABC JUMP JUMPDEST AND DUP3 MSTORE SWAP3 DUP3 ADD SWAP3 SWAP1 DUP3 ADD SWAP1 PUSH1 0x1 ADD PUSH2 0x428E JUMP JUMPDEST POP SWAP8 SWAP7 POP POP POP POP POP POP POP JUMP JUMPDEST PUSH1 0x0 DUP3 PUSH2 0x42D5 JUMPI PUSH2 0x42D5 PUSH2 0x402C JUMP JUMPDEST POP MOD SWAP1 JUMP JUMPDEST DUP1 DUP3 ADD DUP1 DUP3 GT ISZERO PUSH2 0xA52 JUMPI PUSH2 0xA52 PUSH2 0x3FFF JUMP JUMPDEST PUSH1 0x0 PUSH1 0x20 DUP3 DUP5 SUB SLT ISZERO PUSH2 0x42FF JUMPI PUSH1 0x0 DUP1 REVERT JUMPDEST DUP2 MLOAD PUSH8 0xFFFFFFFFFFFFFFFF DUP2 GT ISZERO PUSH2 0x4316 JUMPI PUSH1 0x0 DUP1 REVERT JUMPDEST DUP3 ADD PUSH1 0x1F DUP2 ADD DUP5 SGT PUSH2 0x4327 JUMPI PUSH1 0x0 DUP1 REVERT JUMPDEST DUP1 MLOAD PUSH2 0x4335 PUSH2 0x3C28 DUP3 PUSH2 0x3BA9 JUMP JUMPDEST DUP2 DUP2 MSTORE DUP6 PUSH1 0x20 DUP4 DUP6 ADD ADD GT ISZERO PUSH2 0x434A JUMPI PUSH1 0x0 DUP1 REVERT JUMPDEST PUSH2 0x2FEF DUP3 PUSH1 0x20 DUP4 ADD PUSH1 0x20 DUP7 ADD PUSH2 0x3DFF JUMP JUMPDEST PUSH1 0x40 DUP2 MSTORE PUSH1 0x0 PUSH2 0x436E PUSH1 0x40 DUP4 ADD DUP6 PUSH2 0x3E23 JUMP JUMPDEST DUP3 DUP2 SUB PUSH1 0x20 DUP5 ADD MSTORE PUSH2 0x2FEF DUP2 DUP6 PUSH2 0x3E23 JUMP JUMPDEST PUSH4 0x4E487B71 PUSH1 0xE0 SHL PUSH1 0x0 MSTORE PUSH1 0x31 PUSH1 0x4 MSTORE PUSH1 0x24 PUSH1 0x0 REVERT JUMPDEST PUSH1 0xFF DUP3 DUP2 AND DUP3 DUP3 AND SUB SWAP1 DUP2 GT ISZERO PUSH2 0xA52 JUMPI PUSH2 0xA52 PUSH2 0x3FFF JUMP JUMPDEST PUSH1 0xFF DUP2 DUP2 AND DUP4 DUP3 AND ADD SWAP1 DUP2 GT ISZERO PUSH2 0xA52 JUMPI PUSH2 0xA52 PUSH2 0x3FFF JUMP JUMPDEST PUSH1 0x0 DUP3 MLOAD PUSH2 0x43DA DUP2 DUP5 PUSH1 0x20 DUP8 ADD PUSH2 0x3DFF JUMP JUMPDEST SWAP2 SWAP1 SWAP2 ADD SWAP3 SWAP2 POP POP JUMP INVALID CALLDATASIZE ADDMOD SWAP5 LOG1 EXTCODESIZE LOG1 LOG3 0x21 MOD PUSH8 0xC828492DB98DCA3E KECCAK256 PUSH23 0xCC3735A920A3CA505D382BBC02DD7BC7DEC4DCEEDDA775 0xE5 DUP14 0xD5 COINBASE 0xE0 DUP11 GT PUSH13 0x6C53815C0BD028192F7B626800 LOG2 PUSH5 0x6970667358 0x22 SLT KECCAK256 0xA8 0xC2 0xDD 0x1F PUSH17 0x1F571E66C49B03B1986CA766DF8A0CDA53 SWAP8 PUSH23 0xD80C893656172F8564736F6C6343000814003300000000 "},"methodIdentifiers":{"DEFAULT_ADMIN_ROLE()":"a217fddf","INTEREST_RATE_PER_DAY()":"969f9efa","UPGRADE_INTERFACE_VERSION()":"ad3cb1cc","addToken(address)":"d48bfca7","calculateInterests(uint256)":"435e0283","decreaseQuota(address,uint256)":"61e576b8","fund(uint256,address)":"eee92395","funds()":"c89f2ce4","getRoleAdmin(bytes32)":"248a9ca3","getSpareFunds(address)":"3ead66c8","getUserLendsPaginated(address,uint256,uint256)":"87373fc1","getUserQuotaRequests(address,uint256,uint256)":"e0e713dd","grantRole(bytes32,address)":"2f2ff15d","hasRole(bytes32,address)":"91d14854","increaseQuota(address,uint16,address,uint256)":"f1400062","initialize(address,address,address)":"c0c53b8b","owner()":"8da5cb5b","paused()":"5c975abb","payDebt(uint256,address,uint256)":"d7d9f9ec","proxiableUUID()":"52d1902d","removeToken(address)":"5fa7b584","renounceOwnership()":"715018a6","renounceRole(bytes32,address)":"36568abe","requestIncreaseQuota(address,uint256,address[])":"81d945d2","requestLend(uint256,address,uint256)":"6e99700a","revokeRole(bytes32,address)":"d547741f","setInterestPerDay(uint256)":"1031f4f9","supportsInterface(bytes4)":"01ffc9a7","transferAdmin(address)":"75829def","transferOwnership(address)":"f2fde38b","upgradeToAndCall(address,bytes)":"4f1ef286","user(address)":"81e7e20e","withdraw(uint256,address)":"00f714ce","withdrawWithoutInterests(uint256,address)":"9ebb4112"}},"storageLayout":{"storage":[{"astId":5379,"contract":"contracts/ReFiMedLendUpgradeable.sol:ReFiMedLendUpgradeable","label":"ATTESTATION_RESOLVER","offset":0,"slot":"0","type":"t_bytes32"},{"astId":5381,"contract":"contracts/ReFiMedLendUpgradeable.sol:ReFiMedLendUpgradeable","label":"ADMIN","offset":0,"slot":"1","type":"t_bytes32"},{"astId":5383,"contract":"contracts/ReFiMedLendUpgradeable.sol:ReFiMedLendUpgradeable","label":"INTEREST_RATE_PER_DAY","offset":0,"slot":"2","type":"t_uint256"},{"astId":5385,"contract":"contracts/ReFiMedLendUpgradeable.sol:ReFiMedLendUpgradeable","label":"_SCALAR","offset":0,"slot":"3","type":"t_uint256"},{"astId":5387,"contract":"contracts/ReFiMedLendUpgradeable.sol:ReFiMedLendUpgradeable","label":"_lendNonce","offset":0,"slot":"4","type":"t_uint256"},{"astId":5392,"contract":"contracts/ReFiMedLendUpgradeable.sol:ReFiMedLendUpgradeable","label":"user","offset":0,"slot":"5","type":"t_mapping(t_address,t_struct(User)5368_storage)"},{"astId":5398,"contract":"contracts/ReFiMedLendUpgradeable.sol:ReFiMedLendUpgradeable","label":"_userTokenBalances","offset":0,"slot":"6","type":"t_mapping(t_address,t_mapping(t_address,t_uint256))"},{"astId":5402,"contract":"contracts/ReFiMedLendUpgradeable.sol:ReFiMedLendUpgradeable","label":"_tokens","offset":0,"slot":"7","type":"t_mapping(t_address,t_bool)"},{"astId":5405,"contract":"contracts/ReFiMedLendUpgradeable.sol:ReFiMedLendUpgradeable","label":"funds","offset":0,"slot":"8","type":"t_struct(Funds)5377_storage"}],"types":{"t_address":{"encoding":"inplace","label":"address","numberOfBytes":"20"},"t_array(t_address)dyn_storage":{"base":"t_address","encoding":"dynamic_array","label":"address[]","numberOfBytes":"32"},"t_array(t_struct(Lend)5340_storage)dyn_storage":{"base":"t_struct(Lend)5340_storage","encoding":"dynamic_array","label":"struct ReFiMedLendUpgradeable.Lend[]","numberOfBytes":"32"},"t_array(t_struct(UserQuotaRequest)5351_storage)dyn_storage":{"base":"t_struct(UserQuotaRequest)5351_storage","encoding":"dynamic_array","label":"struct ReFiMedLendUpgradeable.UserQuotaRequest[]","numberOfBytes":"32"},"t_bool":{"encoding":"inplace","label":"bool","numberOfBytes":"1"},"t_bytes32":{"encoding":"inplace","label":"bytes32","numberOfBytes":"32"},"t_mapping(t_address,t_bool)":{"encoding":"mapping","key":"t_address","label":"mapping(address => bool)","numberOfBytes":"32","value":"t_bool"},"t_mapping(t_address,t_mapping(t_address,t_uint256))":{"encoding":"mapping","key":"t_address","label":"mapping(address => mapping(address => uint256))","numberOfBytes":"32","value":"t_mapping(t_address,t_uint256)"},"t_mapping(t_address,t_struct(User)5368_storage)":{"encoding":"mapping","key":"t_address","label":"mapping(address => struct ReFiMedLendUpgradeable.User)","numberOfBytes":"32","value":"t_struct(User)5368_storage"},"t_mapping(t_address,t_uint256)":{"encoding":"mapping","key":"t_address","label":"mapping(address => uint256)","numberOfBytes":"32","value":"t_uint256"},"t_struct(Funds)5377_storage":{"encoding":"inplace","label":"struct ReFiMedLendUpgradeable.Funds","members":[{"astId":5370,"contract":"contracts/ReFiMedLendUpgradeable.sol:ReFiMedLendUpgradeable","label":"totalFunds","offset":0,"slot":"0","type":"t_uint256"},{"astId":5372,"contract":"contracts/ReFiMedLendUpgradeable.sol:ReFiMedLendUpgradeable","label":"interests","offset":0,"slot":"1","type":"t_uint256"},{"astId":5374,"contract":"contracts/ReFiMedLendUpgradeable.sol:ReFiMedLendUpgradeable","label":"totalInterestShares","offset":0,"slot":"2","type":"t_uint256"},{"astId":5376,"contract":"contracts/ReFiMedLendUpgradeable.sol:ReFiMedLendUpgradeable","label":"interestPerShare","offset":0,"slot":"3","type":"t_uint256"}],"numberOfBytes":"128"},"t_struct(Lend)5340_storage":{"encoding":"inplace","label":"struct ReFiMedLendUpgradeable.Lend","members":[{"astId":5329,"contract":"contracts/ReFiMedLendUpgradeable.sol:ReFiMedLendUpgradeable","label":"initialAmount","offset":0,"slot":"0","type":"t_uint256"},{"astId":5331,"contract":"contracts/ReFiMedLendUpgradeable.sol:ReFiMedLendUpgradeable","label":"currentAmount","offset":0,"slot":"1","type":"t_uint256"},{"astId":5333,"contract":"contracts/ReFiMedLendUpgradeable.sol:ReFiMedLendUpgradeable","label":"token","offset":0,"slot":"2","type":"t_address"},{"astId":5335,"contract":"contracts/ReFiMedLendUpgradeable.sol:ReFiMedLendUpgradeable","label":"expectPaymentDue","offset":0,"slot":"3","type":"t_uint256"},{"astId":5337,"contract":"contracts/ReFiMedLendUpgradeable.sol:ReFiMedLendUpgradeable","label":"latestDebtTimestamp","offset":0,"slot":"4","type":"t_uint256"},{"astId":5339,"contract":"contracts/ReFiMedLendUpgradeable.sol:ReFiMedLendUpgradeable","label":"nonce","offset":0,"slot":"5","type":"t_uint256"}],"numberOfBytes":"192"},"t_struct(User)5368_storage":{"encoding":"inplace","label":"struct ReFiMedLendUpgradeable.User","members":[{"astId":5353,"contract":"contracts/ReFiMedLendUpgradeable.sol:ReFiMedLendUpgradeable","label":"quota","offset":0,"slot":"0","type":"t_uint256"},{"astId":5357,"contract":"contracts/ReFiMedLendUpgradeable.sol:ReFiMedLendUpgradeable","label":"currentLends","offset":0,"slot":"1","type":"t_array(t_struct(Lend)5340_storage)dyn_storage"},{"astId":5361,"contract":"contracts/ReFiMedLendUpgradeable.sol:ReFiMedLendUpgradeable","label":"userQuotaRequests","offset":0,"slot":"2","type":"t_array(t_struct(UserQuotaRequest)5351_storage)dyn_storage"},{"astId":5363,"contract":"contracts/ReFiMedLendUpgradeable.sol:ReFiMedLendUpgradeable","label":"currentFund","offset":0,"slot":"3","type":"t_uint256"},{"astId":5365,"contract":"contracts/ReFiMedLendUpgradeable.sol:ReFiMedLendUpgradeable","label":"interestShares","offset":0,"slot":"4","type":"t_uint256"},{"astId":5367,"contract":"contracts/ReFiMedLendUpgradeable.sol:ReFiMedLendUpgradeable","label":"lastFund","offset":0,"slot":"5","type":"t_uint256"}],"numberOfBytes":"192"},"t_struct(UserQuotaRequest)5351_storage":{"encoding":"inplace","label":"struct ReFiMedLendUpgradeable.UserQuotaRequest","members":[{"astId":5342,"contract":"contracts/ReFiMedLendUpgradeable.sol:ReFiMedLendUpgradeable","label":"amount","offset":0,"slot":"0","type":"t_uint256"},{"astId":5344,"contract":"contracts/ReFiMedLendUpgradeable.sol:ReFiMedLendUpgradeable","label":"successfulSigns","offset":0,"slot":"1","type":"t_uint8"},{"astId":5347,"contract":"contracts/ReFiMedLendUpgradeable.sol:ReFiMedLendUpgradeable","label":"signers","offset":0,"slot":"2","type":"t_array(t_address)dyn_storage"},{"astId":5350,"contract":"contracts/ReFiMedLendUpgradeable.sol:ReFiMedLendUpgradeable","label":"signedBy","offset":0,"slot":"3","type":"t_array(t_address)dyn_storage"}],"numberOfBytes":"128"},"t_uint256":{"encoding":"inplace","label":"uint256","numberOfBytes":"32"},"t_uint8":{"encoding":"inplace","label":"uint8","numberOfBytes":"1"}}}}}}