{"@ethereum-attestation-service/eas-contracts/contracts/Semver.sol":{"Semver":{"abi":[{"inputs":[{"internalType":"uint256","name":"major","type":"uint256"},{"internalType":"uint256","name":"minor","type":"uint256"},{"internalType":"uint256","name":"patch","type":"uint256"}],"stateMutability":"nonpayable","type":"constructor"},{"inputs":[],"name":"version","outputs":[{"internalType":"string","name":"","type":"string"}],"stateMutability":"view","type":"function"}],"evm":{"bytecode":{"linkReferences":{},"object":"60e060405234801561001057600080fd5b506040516103f43803806103f483398101604081905261002f91610040565b60809290925260a05260c05261006e565b60008060006060848603121561005557600080fd5b8351925060208401519150604084015190509250925092565b60805160a05160c05161035a61009a600039600060a701526000607e015260006055015261035a6000f3fe608060405234801561001057600080fd5b506004361061002b5760003560e01c806354fd4d5014610030575b600080fd5b61003861004e565b6040516100459190610281565b60405180910390f35b60606100797f00000000000000000000000000000000000000000000000000000000000000006100f1565b6100a27f00000000000000000000000000000000000000000000000000000000000000006100f1565b6100cb7f00000000000000000000000000000000000000000000000000000000000000006100f1565b6040516020016100dd939291906102b4565b604051602081830303815290604052905090565b606060006100fe83610184565b600101905060008167ffffffffffffffff81111561011e5761011e61030e565b6040519080825280601f01601f191660200182016040528015610148576020820181803683370190505b5090508181016020015b600019016f181899199a1a9b1b9c1cb0b131b232b360811b600a86061a8153600a850494508461015257509392505050565b60008072184f03e93ff9f4daa797ed6e38ed64bf6a1f0160401b83106101c35772184f03e93ff9f4daa797ed6e38ed64bf6a1f0160401b830492506040015b6d04ee2d6d415b85acef810000000083106101ef576d04ee2d6d415b85acef8100000000830492506020015b662386f26fc10000831061020d57662386f26fc10000830492506010015b6305f5e1008310610225576305f5e100830492506008015b612710831061023957612710830492506004015b6064831061024b576064830492506002015b600a8310610257576001015b92915050565b60005b83811015610278578181015183820152602001610260565b50506000910152565b60208152600082518060208401526102a081604085016020870161025d565b601f01601f19169190910160400192915050565b600084516102c681846020890161025d565b8083019050601760f91b80825285516102e6816001850160208a0161025d565b6001920191820152835161030181600284016020880161025d565b0160020195945050505050565b634e487b7160e01b600052604160045260246000fdfea2646970667358221220c5318a6cbdb4771c92e7273574187e61fbf3879102c9b42729ac258b64567fdb64736f6c63430008140033","opcodes":"PUSH1 0xE0 PUSH1 0x40 MSTORE CALLVALUE DUP1 ISZERO PUSH2 0x10 JUMPI PUSH1 0x0 DUP1 REVERT JUMPDEST POP PUSH1 0x40 MLOAD PUSH2 0x3F4 CODESIZE SUB DUP1 PUSH2 0x3F4 DUP4 CODECOPY DUP2 ADD PUSH1 0x40 DUP2 SWAP1 MSTORE PUSH2 0x2F SWAP2 PUSH2 0x40 JUMP JUMPDEST PUSH1 0x80 SWAP3 SWAP1 SWAP3 MSTORE PUSH1 0xA0 MSTORE PUSH1 0xC0 MSTORE PUSH2 0x6E JUMP JUMPDEST PUSH1 0x0 DUP1 PUSH1 0x0 PUSH1 0x60 DUP5 DUP7 SUB SLT ISZERO PUSH2 0x55 JUMPI PUSH1 0x0 DUP1 REVERT JUMPDEST DUP4 MLOAD SWAP3 POP PUSH1 0x20 DUP5 ADD MLOAD SWAP2 POP PUSH1 0x40 DUP5 ADD MLOAD SWAP1 POP SWAP3 POP SWAP3 POP SWAP3 JUMP JUMPDEST PUSH1 0x80 MLOAD PUSH1 0xA0 MLOAD PUSH1 0xC0 MLOAD PUSH2 0x35A PUSH2 0x9A PUSH1 0x0 CODECOPY PUSH1 0x0 PUSH1 0xA7 ADD MSTORE PUSH1 0x0 PUSH1 0x7E ADD MSTORE PUSH1 0x0 PUSH1 0x55 ADD MSTORE PUSH2 0x35A PUSH1 0x0 RETURN INVALID PUSH1 0x80 PUSH1 0x40 MSTORE CALLVALUE DUP1 ISZERO PUSH2 0x10 JUMPI PUSH1 0x0 DUP1 REVERT JUMPDEST POP PUSH1 0x4 CALLDATASIZE LT PUSH2 0x2B JUMPI PUSH1 0x0 CALLDATALOAD PUSH1 0xE0 SHR DUP1 PUSH4 0x54FD4D50 EQ PUSH2 0x30 JUMPI JUMPDEST PUSH1 0x0 DUP1 REVERT JUMPDEST PUSH2 0x38 PUSH2 0x4E JUMP JUMPDEST PUSH1 0x40 MLOAD PUSH2 0x45 SWAP2 SWAP1 PUSH2 0x281 JUMP JUMPDEST PUSH1 0x40 MLOAD DUP1 SWAP2 SUB SWAP1 RETURN JUMPDEST PUSH1 0x60 PUSH2 0x79 PUSH32 0x0 PUSH2 0xF1 JUMP JUMPDEST PUSH2 0xA2 PUSH32 0x0 PUSH2 0xF1 JUMP JUMPDEST PUSH2 0xCB PUSH32 0x0 PUSH2 0xF1 JUMP JUMPDEST PUSH1 0x40 MLOAD PUSH1 0x20 ADD PUSH2 0xDD SWAP4 SWAP3 SWAP2 SWAP1 PUSH2 0x2B4 JUMP JUMPDEST PUSH1 0x40 MLOAD PUSH1 0x20 DUP2 DUP4 SUB SUB DUP2 MSTORE SWAP1 PUSH1 0x40 MSTORE SWAP1 POP SWAP1 JUMP JUMPDEST PUSH1 0x60 PUSH1 0x0 PUSH2 0xFE DUP4 PUSH2 0x184 JUMP JUMPDEST PUSH1 0x1 ADD SWAP1 POP PUSH1 0x0 DUP2 PUSH8 0xFFFFFFFFFFFFFFFF DUP2 GT ISZERO PUSH2 0x11E JUMPI PUSH2 0x11E PUSH2 0x30E JUMP JUMPDEST PUSH1 0x40 MLOAD SWAP1 DUP1 DUP3 MSTORE DUP1 PUSH1 0x1F ADD PUSH1 0x1F NOT AND PUSH1 0x20 ADD DUP3 ADD PUSH1 0x40 MSTORE DUP1 ISZERO PUSH2 0x148 JUMPI PUSH1 0x20 DUP3 ADD DUP2 DUP1 CALLDATASIZE DUP4 CALLDATACOPY ADD SWAP1 POP JUMPDEST POP SWAP1 POP DUP2 DUP2 ADD PUSH1 0x20 ADD JUMPDEST PUSH1 0x0 NOT ADD PUSH16 0x181899199A1A9B1B9C1CB0B131B232B3 PUSH1 0x81 SHL PUSH1 0xA DUP7 MOD BYTE DUP2 MSTORE8 PUSH1 0xA DUP6 DIV SWAP5 POP DUP5 PUSH2 0x152 JUMPI POP SWAP4 SWAP3 POP POP POP JUMP JUMPDEST PUSH1 0x0 DUP1 PUSH19 0x184F03E93FF9F4DAA797ED6E38ED64BF6A1F01 PUSH1 0x40 SHL DUP4 LT PUSH2 0x1C3 JUMPI PUSH19 0x184F03E93FF9F4DAA797ED6E38ED64BF6A1F01 PUSH1 0x40 SHL DUP4 DIV SWAP3 POP PUSH1 0x40 ADD JUMPDEST PUSH14 0x4EE2D6D415B85ACEF8100000000 DUP4 LT PUSH2 0x1EF JUMPI PUSH14 0x4EE2D6D415B85ACEF8100000000 DUP4 DIV SWAP3 POP PUSH1 0x20 ADD JUMPDEST PUSH7 0x2386F26FC10000 DUP4 LT PUSH2 0x20D JUMPI PUSH7 0x2386F26FC10000 DUP4 DIV SWAP3 POP PUSH1 0x10 ADD JUMPDEST PUSH4 0x5F5E100 DUP4 LT PUSH2 0x225 JUMPI PUSH4 0x5F5E100 DUP4 DIV SWAP3 POP PUSH1 0x8 ADD JUMPDEST PUSH2 0x2710 DUP4 LT PUSH2 0x239 JUMPI PUSH2 0x2710 DUP4 DIV SWAP3 POP PUSH1 0x4 ADD JUMPDEST PUSH1 0x64 DUP4 LT PUSH2 0x24B JUMPI PUSH1 0x64 DUP4 DIV SWAP3 POP PUSH1 0x2 ADD JUMPDEST PUSH1 0xA DUP4 LT PUSH2 0x257 JUMPI PUSH1 0x1 ADD JUMPDEST SWAP3 SWAP2 POP POP JUMP JUMPDEST PUSH1 0x0 JUMPDEST DUP4 DUP2 LT ISZERO PUSH2 0x278 JUMPI DUP2 DUP2 ADD MLOAD DUP4 DUP3 ADD MSTORE PUSH1 0x20 ADD PUSH2 0x260 JUMP JUMPDEST POP POP PUSH1 0x0 SWAP2 ADD MSTORE JUMP JUMPDEST PUSH1 0x20 DUP2 MSTORE PUSH1 0x0 DUP3 MLOAD DUP1 PUSH1 0x20 DUP5 ADD MSTORE PUSH2 0x2A0 DUP2 PUSH1 0x40 DUP6 ADD PUSH1 0x20 DUP8 ADD PUSH2 0x25D JUMP JUMPDEST PUSH1 0x1F ADD PUSH1 0x1F NOT AND SWAP2 SWAP1 SWAP2 ADD PUSH1 0x40 ADD SWAP3 SWAP2 POP POP JUMP JUMPDEST PUSH1 0x0 DUP5 MLOAD PUSH2 0x2C6 DUP2 DUP5 PUSH1 0x20 DUP10 ADD PUSH2 0x25D JUMP JUMPDEST DUP1 DUP4 ADD SWAP1 POP PUSH1 0x17 PUSH1 0xF9 SHL DUP1 DUP3 MSTORE DUP6 MLOAD PUSH2 0x2E6 DUP2 PUSH1 0x1 DUP6 ADD PUSH1 0x20 DUP11 ADD PUSH2 0x25D JUMP JUMPDEST PUSH1 0x1 SWAP3 ADD SWAP2 DUP3 ADD MSTORE DUP4 MLOAD PUSH2 0x301 DUP2 PUSH1 0x2 DUP5 ADD PUSH1 0x20 DUP9 ADD PUSH2 0x25D JUMP JUMPDEST ADD PUSH1 0x2 ADD SWAP6 SWAP5 POP POP POP POP POP JUMP JUMPDEST PUSH4 0x4E487B71 PUSH1 0xE0 SHL PUSH1 0x0 MSTORE PUSH1 0x41 PUSH1 0x4 MSTORE PUSH1 0x24 PUSH1 0x0 REVERT INVALID LOG2 PUSH5 0x6970667358 0x22 SLT KECCAK256 0xC5 BALANCE DUP11 PUSH13 0xBDB4771C92E7273574187E61FB RETURN DUP8 SWAP2 MUL 0xC9 0xB4 0x27 0x29 0xAC 0x25 DUP12 PUSH5 0x567FDB6473 PUSH16 0x6C634300081400330000000000000000 "},"methodIdentifiers":{"version()":"54fd4d50"}},"storageLayout":{"storage":[],"types":null}}}}