{"contracts/ReFiMedLendResolver.sol":{"ReFiMedLendResolver":{"abi":[{"inputs":[{"internalType":"contract IEAS","name":"eas","type":"address"}],"stateMutability":"nonpayable","type":"constructor"},{"inputs":[],"name":"AccessDenied","type":"error"},{"inputs":[],"name":"InsufficientValue","type":"error"},{"inputs":[],"name":"InvalidEAS","type":"error"},{"inputs":[],"name":"InvalidLength","type":"error"},{"inputs":[],"name":"NotPayable","type":"error"},{"inputs":[{"components":[{"internalType":"bytes32","name":"uid","type":"bytes32"},{"internalType":"bytes32","name":"schema","type":"bytes32"},{"internalType":"uint64","name":"time","type":"uint64"},{"internalType":"uint64","name":"expirationTime","type":"uint64"},{"internalType":"uint64","name":"revocationTime","type":"uint64"},{"internalType":"bytes32","name":"refUID","type":"bytes32"},{"internalType":"address","name":"recipient","type":"address"},{"internalType":"address","name":"attester","type":"address"},{"internalType":"bool","name":"revocable","type":"bool"},{"internalType":"bytes","name":"data","type":"bytes"}],"internalType":"struct Attestation","name":"attestation","type":"tuple"}],"name":"attest","outputs":[{"internalType":"bool","name":"","type":"bool"}],"stateMutability":"payable","type":"function"},{"inputs":[],"name":"isPayable","outputs":[{"internalType":"bool","name":"","type":"bool"}],"stateMutability":"pure","type":"function"},{"inputs":[{"components":[{"internalType":"bytes32","name":"uid","type":"bytes32"},{"internalType":"bytes32","name":"schema","type":"bytes32"},{"internalType":"uint64","name":"time","type":"uint64"},{"internalType":"uint64","name":"expirationTime","type":"uint64"},{"internalType":"uint64","name":"revocationTime","type":"uint64"},{"internalType":"bytes32","name":"refUID","type":"bytes32"},{"internalType":"address","name":"recipient","type":"address"},{"internalType":"address","name":"attester","type":"address"},{"internalType":"bool","name":"revocable","type":"bool"},{"internalType":"bytes","name":"data","type":"bytes"}],"internalType":"struct Attestation[]","name":"attestations","type":"tuple[]"},{"internalType":"uint256[]","name":"values","type":"uint256[]"}],"name":"multiAttest","outputs":[{"internalType":"bool","name":"","type":"bool"}],"stateMutability":"payable","type":"function"},{"inputs":[{"components":[{"internalType":"bytes32","name":"uid","type":"bytes32"},{"internalType":"bytes32","name":"schema","type":"bytes32"},{"internalType":"uint64","name":"time","type":"uint64"},{"internalType":"uint64","name":"expirationTime","type":"uint64"},{"internalType":"uint64","name":"revocationTime","type":"uint64"},{"internalType":"bytes32","name":"refUID","type":"bytes32"},{"internalType":"address","name":"recipient","type":"address"},{"internalType":"address","name":"attester","type":"address"},{"internalType":"bool","name":"revocable","type":"bool"},{"internalType":"bytes","name":"data","type":"bytes"}],"internalType":"struct Attestation[]","name":"attestations","type":"tuple[]"},{"internalType":"uint256[]","name":"values","type":"uint256[]"}],"name":"multiRevoke","outputs":[{"internalType":"bool","name":"","type":"bool"}],"stateMutability":"payable","type":"function"},{"inputs":[{"components":[{"internalType":"bytes32","name":"uid","type":"bytes32"},{"internalType":"bytes32","name":"schema","type":"bytes32"},{"internalType":"uint64","name":"time","type":"uint64"},{"internalType":"uint64","name":"expirationTime","type":"uint64"},{"internalType":"uint64","name":"revocationTime","type":"uint64"},{"internalType":"bytes32","name":"refUID","type":"bytes32"},{"internalType":"address","name":"recipient","type":"address"},{"internalType":"address","name":"attester","type":"address"},{"internalType":"bool","name":"revocable","type":"bool"},{"internalType":"bytes","name":"data","type":"bytes"}],"internalType":"struct Attestation","name":"attestation","type":"tuple"}],"name":"revoke","outputs":[{"internalType":"bool","name":"","type":"bool"}],"stateMutability":"payable","type":"function"},{"inputs":[{"internalType":"address","name":"lendManager","type":"address"}],"name":"setLendManager","outputs":[],"stateMutability":"nonpayable","type":"function"},{"inputs":[],"name":"version","outputs":[{"internalType":"string","name":"","type":"string"}],"stateMutability":"view","type":"function"},{"stateMutability":"payable","type":"receive"}],"evm":{"bytecode":{"linkReferences":{},"object":"61010060405234801561001157600080fd5b50604051610a6c380380610a6c83398101604081905261003091610079565b6001608052600360a052600060c052806001600160a01b038116610067576040516341bc07ff60e11b815260040160405180910390fd5b6001600160a01b031660e052506100a9565b60006020828403121561008b57600080fd5b81516001600160a01b03811681146100a257600080fd5b9392505050565b60805160a05160c05160e05161098a6100e26000396000610467015260006101ca015260006101a101526000610178015261098a6000f3fe6080604052600436106100745760003560e01c8063ce46e0461161004e578063ce46e046146100fa578063d6285b7f1461010e578063e49617e11461014b578063e60c35051461015e57600080fd5b806354fd4d501461009957806388e5b2d9146100c457806391db0b7e146100e757600080fd5b3661009457604051631574f9f360e01b815260040160405180910390fd5b005b600080fd5b3480156100a557600080fd5b506100ae610171565b6040516100bb9190610698565b60405180910390f35b6100d76100d2366004610717565b610214565b60405190151581526020016100bb565b6100d76100f5366004610717565b6102e3565b34801561010657600080fd5b5060006100d7565b34801561011a57600080fd5b5061009261012936600461079b565b600080546001600160a01b0319166001600160a01b0392909216919091179055565b6100d76101593660046107bf565b6103a2565b6100d761016c3660046107bf565b6103b5565b606061019c7f00000000000000000000000000000000000000000000000000000000000000006103c9565b6101c57f00000000000000000000000000000000000000000000000000000000000000006103c9565b6101ee7f00000000000000000000000000000000000000000000000000000000000000006103c9565b604051602001610200939291906107fb565b604051602081830303815290604052905090565b600061021e61045c565b8382811461023f5760405163251f56a160e21b815260040160405180910390fd5b3460005b828110156102d357600086868381811061025f5761025f610855565b905060200201359050828111156102895760405163044044a560e21b815260040160405180910390fd5b6102b689898481811061029e5761029e610855565b90506020028101906102b0919061086b565b50600190565b6102c75760009450505050506102db565b90910390600101610243565b506001925050505b949350505050565b60006102ed61045c565b8382811461030e5760405163251f56a160e21b815260040160405180910390fd5b3460005b828110156102d357600086868381811061032e5761032e610855565b905060200201359050828111156103585760405163044044a560e21b815260040160405180910390fd5b61038589898481811061036d5761036d610855565b905060200281019061037f919061086b565b826104a7565b6103965760009450505050506102db565b90910390600101610312565b60006103ac61045c565b60015b92915050565b60006103bf61045c565b6103af82346104a7565b606060006103d68361059c565b600101905060008167ffffffffffffffff8111156103f6576103f661088c565b6040519080825280601f01601f191660200182016040528015610420576020820181803683370190505b5090508181016020015b600019016f181899199a1a9b1b9c1cb0b131b232b360811b600a86061a8153600a850494508461042a57509392505050565b336001600160a01b037f000000000000000000000000000000000000000000000000000000000000000016146104a557604051634ca8886760e01b815260040160405180910390fd5b565b60008080806104ba6101208701876108a2565b8101906104c791906108e9565b600080549396509194509250906001600160a01b031663f140006284846104f56101008c0160e08d0161079b565b6040516001600160e01b031960e086901b1681526001600160a01b03938416600482015261ffff9092166024830152919091166044820152606481018790526084016020604051808303816000875af1158015610556573d6000803e3d6000fd5b505050506040513d601f19601f8201168201806040525081019061057a9190610932565b9050801561058f5760019450505050506103af565b5060009695505050505050565b60008072184f03e93ff9f4daa797ed6e38ed64bf6a1f0160401b83106105db5772184f03e93ff9f4daa797ed6e38ed64bf6a1f0160401b830492506040015b6d04ee2d6d415b85acef81000000008310610607576d04ee2d6d415b85acef8100000000830492506020015b662386f26fc10000831061062557662386f26fc10000830492506010015b6305f5e100831061063d576305f5e100830492506008015b612710831061065157612710830492506004015b60648310610663576064830492506002015b600a83106103af5760010192915050565b60005b8381101561068f578181015183820152602001610677565b50506000910152565b60208152600082518060208401526106b7816040850160208701610674565b601f01601f19169190910160400192915050565b60008083601f8401126106dd57600080fd5b50813567ffffffffffffffff8111156106f557600080fd5b6020830191508360208260051b850101111561071057600080fd5b9250929050565b6000806000806040858703121561072d57600080fd5b843567ffffffffffffffff8082111561074557600080fd5b610751888389016106cb565b9096509450602087013591508082111561076a57600080fd5b50610777878288016106cb565b95989497509550505050565b6001600160a01b038116811461079857600080fd5b50565b6000602082840312156107ad57600080fd5b81356107b881610783565b9392505050565b6000602082840312156107d157600080fd5b813567ffffffffffffffff8111156107e857600080fd5b820161014081850312156107b857600080fd5b6000845161080d818460208901610674565b8083019050601760f91b808252855161082d816001850160208a01610674565b60019201918201528351610848816002840160208801610674565b0160020195945050505050565b634e487b7160e01b600052603260045260246000fd5b6000823561013e1983360301811261088257600080fd5b9190910192915050565b634e487b7160e01b600052604160045260246000fd5b6000808335601e198436030181126108b957600080fd5b83018035915067ffffffffffffffff8211156108d457600080fd5b60200191503681900382131561071057600080fd5b6000806000606084860312156108fe57600080fd5b83359250602084013561091081610783565b9150604084013561ffff8116811461092757600080fd5b809150509250925092565b60006020828403121561094457600080fd5b815180151581146107b857600080fdfea2646970667358221220609234630c5a1f945d7619611a82550788cadec7b5af4194145e3ec561b0111064736f6c63430008140033","opcodes":"PUSH2 0x100 PUSH1 0x40 MSTORE CALLVALUE DUP1 ISZERO PUSH2 0x11 JUMPI PUSH1 0x0 DUP1 REVERT JUMPDEST POP PUSH1 0x40 MLOAD PUSH2 0xA6C CODESIZE SUB DUP1 PUSH2 0xA6C DUP4 CODECOPY DUP2 ADD PUSH1 0x40 DUP2 SWAP1 MSTORE PUSH2 0x30 SWAP2 PUSH2 0x79 JUMP JUMPDEST PUSH1 0x1 PUSH1 0x80 MSTORE PUSH1 0x3 PUSH1 0xA0 MSTORE PUSH1 0x0 PUSH1 0xC0 MSTORE DUP1 PUSH1 0x1 PUSH1 0x1 PUSH1 0xA0 SHL SUB DUP2 AND PUSH2 0x67 JUMPI PUSH1 0x40 MLOAD PUSH4 0x41BC07FF PUSH1 0xE1 SHL DUP2 MSTORE PUSH1 0x4 ADD PUSH1 0x40 MLOAD DUP1 SWAP2 SUB SWAP1 REVERT JUMPDEST PUSH1 0x1 PUSH1 0x1 PUSH1 0xA0 SHL SUB AND PUSH1 0xE0 MSTORE POP PUSH2 0xA9 JUMP JUMPDEST PUSH1 0x0 PUSH1 0x20 DUP3 DUP5 SUB SLT ISZERO PUSH2 0x8B JUMPI PUSH1 0x0 DUP1 REVERT JUMPDEST DUP2 MLOAD PUSH1 0x1 PUSH1 0x1 PUSH1 0xA0 SHL SUB DUP2 AND DUP2 EQ PUSH2 0xA2 JUMPI PUSH1 0x0 DUP1 REVERT JUMPDEST SWAP4 SWAP3 POP POP POP JUMP JUMPDEST PUSH1 0x80 MLOAD PUSH1 0xA0 MLOAD PUSH1 0xC0 MLOAD PUSH1 0xE0 MLOAD PUSH2 0x98A PUSH2 0xE2 PUSH1 0x0 CODECOPY PUSH1 0x0 PUSH2 0x467 ADD MSTORE PUSH1 0x0 PUSH2 0x1CA ADD MSTORE PUSH1 0x0 PUSH2 0x1A1 ADD MSTORE PUSH1 0x0 PUSH2 0x178 ADD MSTORE PUSH2 0x98A PUSH1 0x0 RETURN INVALID PUSH1 0x80 PUSH1 0x40 MSTORE PUSH1 0x4 CALLDATASIZE LT PUSH2 0x74 JUMPI PUSH1 0x0 CALLDATALOAD PUSH1 0xE0 SHR DUP1 PUSH4 0xCE46E046 GT PUSH2 0x4E JUMPI DUP1 PUSH4 0xCE46E046 EQ PUSH2 0xFA JUMPI DUP1 PUSH4 0xD6285B7F EQ PUSH2 0x10E JUMPI DUP1 PUSH4 0xE49617E1 EQ PUSH2 0x14B JUMPI DUP1 PUSH4 0xE60C3505 EQ PUSH2 0x15E JUMPI PUSH1 0x0 DUP1 REVERT JUMPDEST DUP1 PUSH4 0x54FD4D50 EQ PUSH2 0x99 JUMPI DUP1 PUSH4 0x88E5B2D9 EQ PUSH2 0xC4 JUMPI DUP1 PUSH4 0x91DB0B7E EQ PUSH2 0xE7 JUMPI PUSH1 0x0 DUP1 REVERT JUMPDEST CALLDATASIZE PUSH2 0x94 JUMPI PUSH1 0x40 MLOAD PUSH4 0x1574F9F3 PUSH1 0xE0 SHL DUP2 MSTORE PUSH1 0x4 ADD PUSH1 0x40 MLOAD DUP1 SWAP2 SUB SWAP1 REVERT JUMPDEST STOP JUMPDEST PUSH1 0x0 DUP1 REVERT JUMPDEST CALLVALUE DUP1 ISZERO PUSH2 0xA5 JUMPI PUSH1 0x0 DUP1 REVERT JUMPDEST POP PUSH2 0xAE PUSH2 0x171 JUMP JUMPDEST PUSH1 0x40 MLOAD PUSH2 0xBB SWAP2 SWAP1 PUSH2 0x698 JUMP JUMPDEST PUSH1 0x40 MLOAD DUP1 SWAP2 SUB SWAP1 RETURN JUMPDEST PUSH2 0xD7 PUSH2 0xD2 CALLDATASIZE PUSH1 0x4 PUSH2 0x717 JUMP JUMPDEST PUSH2 0x214 JUMP JUMPDEST PUSH1 0x40 MLOAD SWAP1 ISZERO ISZERO DUP2 MSTORE PUSH1 0x20 ADD PUSH2 0xBB JUMP JUMPDEST PUSH2 0xD7 PUSH2 0xF5 CALLDATASIZE PUSH1 0x4 PUSH2 0x717 JUMP JUMPDEST PUSH2 0x2E3 JUMP JUMPDEST CALLVALUE DUP1 ISZERO PUSH2 0x106 JUMPI PUSH1 0x0 DUP1 REVERT JUMPDEST POP PUSH1 0x0 PUSH2 0xD7 JUMP JUMPDEST CALLVALUE DUP1 ISZERO PUSH2 0x11A JUMPI PUSH1 0x0 DUP1 REVERT JUMPDEST POP PUSH2 0x92 PUSH2 0x129 CALLDATASIZE PUSH1 0x4 PUSH2 0x79B JUMP JUMPDEST PUSH1 0x0 DUP1 SLOAD PUSH1 0x1 PUSH1 0x1 PUSH1 0xA0 SHL SUB NOT AND PUSH1 0x1 PUSH1 0x1 PUSH1 0xA0 SHL SUB SWAP3 SWAP1 SWAP3 AND SWAP2 SWAP1 SWAP2 OR SWAP1 SSTORE JUMP JUMPDEST PUSH2 0xD7 PUSH2 0x159 CALLDATASIZE PUSH1 0x4 PUSH2 0x7BF JUMP JUMPDEST PUSH2 0x3A2 JUMP JUMPDEST PUSH2 0xD7 PUSH2 0x16C CALLDATASIZE PUSH1 0x4 PUSH2 0x7BF JUMP JUMPDEST PUSH2 0x3B5 JUMP JUMPDEST PUSH1 0x60 PUSH2 0x19C PUSH32 0x0 PUSH2 0x3C9 JUMP JUMPDEST PUSH2 0x1C5 PUSH32 0x0 PUSH2 0x3C9 JUMP JUMPDEST PUSH2 0x1EE PUSH32 0x0 PUSH2 0x3C9 JUMP JUMPDEST PUSH1 0x40 MLOAD PUSH1 0x20 ADD PUSH2 0x200 SWAP4 SWAP3 SWAP2 SWAP1 PUSH2 0x7FB JUMP JUMPDEST PUSH1 0x40 MLOAD PUSH1 0x20 DUP2 DUP4 SUB SUB DUP2 MSTORE SWAP1 PUSH1 0x40 MSTORE SWAP1 POP SWAP1 JUMP JUMPDEST PUSH1 0x0 PUSH2 0x21E PUSH2 0x45C JUMP JUMPDEST DUP4 DUP3 DUP2 EQ PUSH2 0x23F JUMPI PUSH1 0x40 MLOAD PUSH4 0x251F56A1 PUSH1 0xE2 SHL DUP2 MSTORE PUSH1 0x4 ADD PUSH1 0x40 MLOAD DUP1 SWAP2 SUB SWAP1 REVERT JUMPDEST CALLVALUE PUSH1 0x0 JUMPDEST DUP3 DUP2 LT ISZERO PUSH2 0x2D3 JUMPI PUSH1 0x0 DUP7 DUP7 DUP4 DUP2 DUP2 LT PUSH2 0x25F JUMPI PUSH2 0x25F PUSH2 0x855 JUMP JUMPDEST SWAP1 POP PUSH1 0x20 MUL ADD CALLDATALOAD SWAP1 POP DUP3 DUP2 GT ISZERO PUSH2 0x289 JUMPI PUSH1 0x40 MLOAD PUSH4 0x44044A5 PUSH1 0xE2 SHL DUP2 MSTORE PUSH1 0x4 ADD PUSH1 0x40 MLOAD DUP1 SWAP2 SUB SWAP1 REVERT JUMPDEST PUSH2 0x2B6 DUP10 DUP10 DUP5 DUP2 DUP2 LT PUSH2 0x29E JUMPI PUSH2 0x29E PUSH2 0x855 JUMP JUMPDEST SWAP1 POP PUSH1 0x20 MUL DUP2 ADD SWAP1 PUSH2 0x2B0 SWAP2 SWAP1 PUSH2 0x86B JUMP JUMPDEST POP PUSH1 0x1 SWAP1 JUMP JUMPDEST PUSH2 0x2C7 JUMPI PUSH1 0x0 SWAP5 POP POP POP POP POP PUSH2 0x2DB JUMP JUMPDEST SWAP1 SWAP2 SUB SWAP1 PUSH1 0x1 ADD PUSH2 0x243 JUMP JUMPDEST POP PUSH1 0x1 SWAP3 POP POP POP JUMPDEST SWAP5 SWAP4 POP POP POP POP JUMP JUMPDEST PUSH1 0x0 PUSH2 0x2ED PUSH2 0x45C JUMP JUMPDEST DUP4 DUP3 DUP2 EQ PUSH2 0x30E JUMPI PUSH1 0x40 MLOAD PUSH4 0x251F56A1 PUSH1 0xE2 SHL DUP2 MSTORE PUSH1 0x4 ADD PUSH1 0x40 MLOAD DUP1 SWAP2 SUB SWAP1 REVERT JUMPDEST CALLVALUE PUSH1 0x0 JUMPDEST DUP3 DUP2 LT ISZERO PUSH2 0x2D3 JUMPI PUSH1 0x0 DUP7 DUP7 DUP4 DUP2 DUP2 LT PUSH2 0x32E JUMPI PUSH2 0x32E PUSH2 0x855 JUMP JUMPDEST SWAP1 POP PUSH1 0x20 MUL ADD CALLDATALOAD SWAP1 POP DUP3 DUP2 GT ISZERO PUSH2 0x358 JUMPI PUSH1 0x40 MLOAD PUSH4 0x44044A5 PUSH1 0xE2 SHL DUP2 MSTORE PUSH1 0x4 ADD PUSH1 0x40 MLOAD DUP1 SWAP2 SUB SWAP1 REVERT JUMPDEST PUSH2 0x385 DUP10 DUP10 DUP5 DUP2 DUP2 LT PUSH2 0x36D JUMPI PUSH2 0x36D PUSH2 0x855 JUMP JUMPDEST SWAP1 POP PUSH1 0x20 MUL DUP2 ADD SWAP1 PUSH2 0x37F SWAP2 SWAP1 PUSH2 0x86B JUMP JUMPDEST DUP3 PUSH2 0x4A7 JUMP JUMPDEST PUSH2 0x396 JUMPI PUSH1 0x0 SWAP5 POP POP POP POP POP PUSH2 0x2DB JUMP JUMPDEST SWAP1 SWAP2 SUB SWAP1 PUSH1 0x1 ADD PUSH2 0x312 JUMP JUMPDEST PUSH1 0x0 PUSH2 0x3AC PUSH2 0x45C JUMP JUMPDEST PUSH1 0x1 JUMPDEST SWAP3 SWAP2 POP POP JUMP JUMPDEST PUSH1 0x0 PUSH2 0x3BF PUSH2 0x45C JUMP JUMPDEST PUSH2 0x3AF DUP3 CALLVALUE PUSH2 0x4A7 JUMP JUMPDEST PUSH1 0x60 PUSH1 0x0 PUSH2 0x3D6 DUP4 PUSH2 0x59C JUMP JUMPDEST PUSH1 0x1 ADD SWAP1 POP PUSH1 0x0 DUP2 PUSH8 0xFFFFFFFFFFFFFFFF DUP2 GT ISZERO PUSH2 0x3F6 JUMPI PUSH2 0x3F6 PUSH2 0x88C JUMP JUMPDEST PUSH1 0x40 MLOAD SWAP1 DUP1 DUP3 MSTORE DUP1 PUSH1 0x1F ADD PUSH1 0x1F NOT AND PUSH1 0x20 ADD DUP3 ADD PUSH1 0x40 MSTORE DUP1 ISZERO PUSH2 0x420 JUMPI PUSH1 0x20 DUP3 ADD DUP2 DUP1 CALLDATASIZE DUP4 CALLDATACOPY ADD SWAP1 POP JUMPDEST POP SWAP1 POP DUP2 DUP2 ADD PUSH1 0x20 ADD JUMPDEST PUSH1 0x0 NOT ADD PUSH16 0x181899199A1A9B1B9C1CB0B131B232B3 PUSH1 0x81 SHL PUSH1 0xA DUP7 MOD BYTE DUP2 MSTORE8 PUSH1 0xA DUP6 DIV SWAP5 POP DUP5 PUSH2 0x42A JUMPI POP SWAP4 SWAP3 POP POP POP JUMP JUMPDEST CALLER PUSH1 0x1 PUSH1 0x1 PUSH1 0xA0 SHL SUB PUSH32 0x0 AND EQ PUSH2 0x4A5 JUMPI PUSH1 0x40 MLOAD PUSH4 0x4CA88867 PUSH1 0xE0 SHL DUP2 MSTORE PUSH1 0x4 ADD PUSH1 0x40 MLOAD DUP1 SWAP2 SUB SWAP1 REVERT JUMPDEST JUMP JUMPDEST PUSH1 0x0 DUP1 DUP1 DUP1 PUSH2 0x4BA PUSH2 0x120 DUP8 ADD DUP8 PUSH2 0x8A2 JUMP JUMPDEST DUP2 ADD SWAP1 PUSH2 0x4C7 SWAP2 SWAP1 PUSH2 0x8E9 JUMP JUMPDEST PUSH1 0x0 DUP1 SLOAD SWAP4 SWAP7 POP SWAP2 SWAP5 POP SWAP3 POP SWAP1 PUSH1 0x1 PUSH1 0x1 PUSH1 0xA0 SHL SUB AND PUSH4 0xF1400062 DUP5 DUP5 PUSH2 0x4F5 PUSH2 0x100 DUP13 ADD PUSH1 0xE0 DUP14 ADD PUSH2 0x79B JUMP JUMPDEST PUSH1 0x40 MLOAD PUSH1 0x1 PUSH1 0x1 PUSH1 0xE0 SHL SUB NOT PUSH1 0xE0 DUP7 SWAP1 SHL AND DUP2 MSTORE PUSH1 0x1 PUSH1 0x1 PUSH1 0xA0 SHL SUB SWAP4 DUP5 AND PUSH1 0x4 DUP3 ADD MSTORE PUSH2 0xFFFF SWAP1 SWAP3 AND PUSH1 0x24 DUP4 ADD MSTORE SWAP2 SWAP1 SWAP2 AND PUSH1 0x44 DUP3 ADD MSTORE PUSH1 0x64 DUP2 ADD DUP8 SWAP1 MSTORE PUSH1 0x84 ADD PUSH1 0x20 PUSH1 0x40 MLOAD DUP1 DUP4 SUB DUP2 PUSH1 0x0 DUP8 GAS CALL ISZERO DUP1 ISZERO PUSH2 0x556 JUMPI RETURNDATASIZE PUSH1 0x0 DUP1 RETURNDATACOPY RETURNDATASIZE PUSH1 0x0 REVERT JUMPDEST POP POP POP POP PUSH1 0x40 MLOAD RETURNDATASIZE PUSH1 0x1F NOT PUSH1 0x1F DUP3 ADD AND DUP3 ADD DUP1 PUSH1 0x40 MSTORE POP DUP2 ADD SWAP1 PUSH2 0x57A SWAP2 SWAP1 PUSH2 0x932 JUMP JUMPDEST SWAP1 POP DUP1 ISZERO PUSH2 0x58F JUMPI PUSH1 0x1 SWAP5 POP POP POP POP POP PUSH2 0x3AF JUMP JUMPDEST POP PUSH1 0x0 SWAP7 SWAP6 POP POP POP POP POP POP JUMP JUMPDEST PUSH1 0x0 DUP1 PUSH19 0x184F03E93FF9F4DAA797ED6E38ED64BF6A1F01 PUSH1 0x40 SHL DUP4 LT PUSH2 0x5DB JUMPI PUSH19 0x184F03E93FF9F4DAA797ED6E38ED64BF6A1F01 PUSH1 0x40 SHL DUP4 DIV SWAP3 POP PUSH1 0x40 ADD JUMPDEST PUSH14 0x4EE2D6D415B85ACEF8100000000 DUP4 LT PUSH2 0x607 JUMPI PUSH14 0x4EE2D6D415B85ACEF8100000000 DUP4 DIV SWAP3 POP PUSH1 0x20 ADD JUMPDEST PUSH7 0x2386F26FC10000 DUP4 LT PUSH2 0x625 JUMPI PUSH7 0x2386F26FC10000 DUP4 DIV SWAP3 POP PUSH1 0x10 ADD JUMPDEST PUSH4 0x5F5E100 DUP4 LT PUSH2 0x63D JUMPI PUSH4 0x5F5E100 DUP4 DIV SWAP3 POP PUSH1 0x8 ADD JUMPDEST PUSH2 0x2710 DUP4 LT PUSH2 0x651 JUMPI PUSH2 0x2710 DUP4 DIV SWAP3 POP PUSH1 0x4 ADD JUMPDEST PUSH1 0x64 DUP4 LT PUSH2 0x663 JUMPI PUSH1 0x64 DUP4 DIV SWAP3 POP PUSH1 0x2 ADD JUMPDEST PUSH1 0xA DUP4 LT PUSH2 0x3AF JUMPI PUSH1 0x1 ADD SWAP3 SWAP2 POP POP JUMP JUMPDEST PUSH1 0x0 JUMPDEST DUP4 DUP2 LT ISZERO PUSH2 0x68F JUMPI DUP2 DUP2 ADD MLOAD DUP4 DUP3 ADD MSTORE PUSH1 0x20 ADD PUSH2 0x677 JUMP JUMPDEST POP POP PUSH1 0x0 SWAP2 ADD MSTORE JUMP JUMPDEST PUSH1 0x20 DUP2 MSTORE PUSH1 0x0 DUP3 MLOAD DUP1 PUSH1 0x20 DUP5 ADD MSTORE PUSH2 0x6B7 DUP2 PUSH1 0x40 DUP6 ADD PUSH1 0x20 DUP8 ADD PUSH2 0x674 JUMP JUMPDEST PUSH1 0x1F ADD PUSH1 0x1F NOT AND SWAP2 SWAP1 SWAP2 ADD PUSH1 0x40 ADD SWAP3 SWAP2 POP POP JUMP JUMPDEST PUSH1 0x0 DUP1 DUP4 PUSH1 0x1F DUP5 ADD SLT PUSH2 0x6DD JUMPI PUSH1 0x0 DUP1 REVERT JUMPDEST POP DUP2 CALLDATALOAD PUSH8 0xFFFFFFFFFFFFFFFF DUP2 GT ISZERO PUSH2 0x6F5 JUMPI PUSH1 0x0 DUP1 REVERT JUMPDEST PUSH1 0x20 DUP4 ADD SWAP2 POP DUP4 PUSH1 0x20 DUP3 PUSH1 0x5 SHL DUP6 ADD ADD GT ISZERO PUSH2 0x710 JUMPI PUSH1 0x0 DUP1 REVERT JUMPDEST SWAP3 POP SWAP3 SWAP1 POP JUMP JUMPDEST PUSH1 0x0 DUP1 PUSH1 0x0 DUP1 PUSH1 0x40 DUP6 DUP8 SUB SLT ISZERO PUSH2 0x72D JUMPI PUSH1 0x0 DUP1 REVERT JUMPDEST DUP5 CALLDATALOAD PUSH8 0xFFFFFFFFFFFFFFFF DUP1 DUP3 GT ISZERO PUSH2 0x745 JUMPI PUSH1 0x0 DUP1 REVERT JUMPDEST PUSH2 0x751 DUP9 DUP4 DUP10 ADD PUSH2 0x6CB JUMP JUMPDEST SWAP1 SWAP7 POP SWAP5 POP PUSH1 0x20 DUP8 ADD CALLDATALOAD SWAP2 POP DUP1 DUP3 GT ISZERO PUSH2 0x76A JUMPI PUSH1 0x0 DUP1 REVERT JUMPDEST POP PUSH2 0x777 DUP8 DUP3 DUP9 ADD PUSH2 0x6CB JUMP JUMPDEST SWAP6 SWAP9 SWAP5 SWAP8 POP SWAP6 POP POP POP POP JUMP JUMPDEST PUSH1 0x1 PUSH1 0x1 PUSH1 0xA0 SHL SUB DUP2 AND DUP2 EQ PUSH2 0x798 JUMPI PUSH1 0x0 DUP1 REVERT JUMPDEST POP JUMP JUMPDEST PUSH1 0x0 PUSH1 0x20 DUP3 DUP5 SUB SLT ISZERO PUSH2 0x7AD JUMPI PUSH1 0x0 DUP1 REVERT JUMPDEST DUP2 CALLDATALOAD PUSH2 0x7B8 DUP2 PUSH2 0x783 JUMP JUMPDEST SWAP4 SWAP3 POP POP POP JUMP JUMPDEST PUSH1 0x0 PUSH1 0x20 DUP3 DUP5 SUB SLT ISZERO PUSH2 0x7D1 JUMPI PUSH1 0x0 DUP1 REVERT JUMPDEST DUP2 CALLDATALOAD PUSH8 0xFFFFFFFFFFFFFFFF DUP2 GT ISZERO PUSH2 0x7E8 JUMPI PUSH1 0x0 DUP1 REVERT JUMPDEST DUP3 ADD PUSH2 0x140 DUP2 DUP6 SUB SLT ISZERO PUSH2 0x7B8 JUMPI PUSH1 0x0 DUP1 REVERT JUMPDEST PUSH1 0x0 DUP5 MLOAD PUSH2 0x80D DUP2 DUP5 PUSH1 0x20 DUP10 ADD PUSH2 0x674 JUMP JUMPDEST DUP1 DUP4 ADD SWAP1 POP PUSH1 0x17 PUSH1 0xF9 SHL DUP1 DUP3 MSTORE DUP6 MLOAD PUSH2 0x82D DUP2 PUSH1 0x1 DUP6 ADD PUSH1 0x20 DUP11 ADD PUSH2 0x674 JUMP JUMPDEST PUSH1 0x1 SWAP3 ADD SWAP2 DUP3 ADD MSTORE DUP4 MLOAD PUSH2 0x848 DUP2 PUSH1 0x2 DUP5 ADD PUSH1 0x20 DUP9 ADD PUSH2 0x674 JUMP JUMPDEST ADD PUSH1 0x2 ADD SWAP6 SWAP5 POP POP POP POP POP JUMP JUMPDEST PUSH4 0x4E487B71 PUSH1 0xE0 SHL PUSH1 0x0 MSTORE PUSH1 0x32 PUSH1 0x4 MSTORE PUSH1 0x24 PUSH1 0x0 REVERT JUMPDEST PUSH1 0x0 DUP3 CALLDATALOAD PUSH2 0x13E NOT DUP4 CALLDATASIZE SUB ADD DUP2 SLT PUSH2 0x882 JUMPI PUSH1 0x0 DUP1 REVERT JUMPDEST SWAP2 SWAP1 SWAP2 ADD SWAP3 SWAP2 POP POP JUMP JUMPDEST PUSH4 0x4E487B71 PUSH1 0xE0 SHL PUSH1 0x0 MSTORE PUSH1 0x41 PUSH1 0x4 MSTORE PUSH1 0x24 PUSH1 0x0 REVERT JUMPDEST PUSH1 0x0 DUP1 DUP4 CALLDATALOAD PUSH1 0x1E NOT DUP5 CALLDATASIZE SUB ADD DUP2 SLT PUSH2 0x8B9 JUMPI PUSH1 0x0 DUP1 REVERT JUMPDEST DUP4 ADD DUP1 CALLDATALOAD SWAP2 POP PUSH8 0xFFFFFFFFFFFFFFFF DUP3 GT ISZERO PUSH2 0x8D4 JUMPI PUSH1 0x0 DUP1 REVERT JUMPDEST PUSH1 0x20 ADD SWAP2 POP CALLDATASIZE DUP2 SWAP1 SUB DUP3 SGT ISZERO PUSH2 0x710 JUMPI PUSH1 0x0 DUP1 REVERT JUMPDEST PUSH1 0x0 DUP1 PUSH1 0x0 PUSH1 0x60 DUP5 DUP7 SUB SLT ISZERO PUSH2 0x8FE JUMPI PUSH1 0x0 DUP1 REVERT JUMPDEST DUP4 CALLDATALOAD SWAP3 POP PUSH1 0x20 DUP5 ADD CALLDATALOAD PUSH2 0x910 DUP2 PUSH2 0x783 JUMP JUMPDEST SWAP2 POP PUSH1 0x40 DUP5 ADD CALLDATALOAD PUSH2 0xFFFF DUP2 AND DUP2 EQ PUSH2 0x927 JUMPI PUSH1 0x0 DUP1 REVERT JUMPDEST DUP1 SWAP2 POP POP SWAP3 POP SWAP3 POP SWAP3 JUMP JUMPDEST PUSH1 0x0 PUSH1 0x20 DUP3 DUP5 SUB SLT ISZERO PUSH2 0x944 JUMPI PUSH1 0x0 DUP1 REVERT JUMPDEST DUP2 MLOAD DUP1 ISZERO ISZERO DUP2 EQ PUSH2 0x7B8 JUMPI PUSH1 0x0 DUP1 REVERT INVALID LOG2 PUSH5 0x6970667358 0x22 SLT KECCAK256 PUSH1 0x92 CALLVALUE PUSH4 0xC5A1F94 0x5D PUSH23 0x19611A82550788CADEC7B5AF4194145E3EC561B0111064 PUSH20 0x6F6C634300081400330000000000000000000000 "},"methodIdentifiers":{"attest((bytes32,bytes32,uint64,uint64,uint64,bytes32,address,address,bool,bytes))":"e60c3505","isPayable()":"ce46e046","multiAttest((bytes32,bytes32,uint64,uint64,uint64,bytes32,address,address,bool,bytes)[],uint256[])":"91db0b7e","multiRevoke((bytes32,bytes32,uint64,uint64,uint64,bytes32,address,address,bool,bytes)[],uint256[])":"88e5b2d9","revoke((bytes32,bytes32,uint64,uint64,uint64,bytes32,address,address,bool,bytes))":"e49617e1","setLendManager(address)":"d6285b7f","version()":"54fd4d50"}},"storageLayout":{"storage":[{"astId":2325,"contract":"contracts/ReFiMedLendResolver.sol:ReFiMedLendResolver","label":"_lendManager","offset":0,"slot":"0","type":"t_address"}],"types":{"t_address":{"encoding":"inplace","label":"address","numberOfBytes":"20"}}}}}}