{"contracts/ReFiMedLendUpgradeable.sol":{"ReFiMedLendUpgradeable":{"abi":[{"inputs":[],"name":"AccessControlBadConfirmation","type":"error"},{"inputs":[{"internalType":"address","name":"account","type":"address"},{"internalType":"bytes32","name":"neededRole","type":"bytes32"}],"name":"AccessControlUnauthorizedAccount","type":"error"},{"inputs":[{"internalType":"address","name":"target","type":"address"}],"name":"AddressEmptyCode","type":"error"},{"inputs":[{"internalType":"address","name":"implementation","type":"address"}],"name":"ERC1967InvalidImplementation","type":"error"},{"inputs":[],"name":"ERC1967NonPayable","type":"error"},{"inputs":[],"name":"EnforcedPause","type":"error"},{"inputs":[],"name":"ExpectedPause","type":"error"},{"inputs":[],"name":"FailedInnerCall","type":"error"},{"inputs":[],"name":"InvalidInitialization","type":"error"},{"inputs":[],"name":"NotInitializing","type":"error"},{"inputs":[{"internalType":"address","name":"owner","type":"address"}],"name":"OwnableInvalidOwner","type":"error"},{"inputs":[{"internalType":"address","name":"account","type":"address"}],"name":"OwnableUnauthorizedAccount","type":"error"},{"inputs":[],"name":"UUPSUnauthorizedCallContext","type":"error"},{"inputs":[{"internalType":"bytes32","name":"slot","type":"bytes32"}],"name":"UUPSUnsupportedProxiableUUID","type":"error"},{"inputs":[],"name":"UnavailableAmount","type":"error"},{"anonymous":false,"inputs":[{"indexed":true,"internalType":"address","name":"debtor","type":"address"},{"indexed":false,"internalType":"uint256","name":"amount","type":"uint256"},{"indexed":false,"internalType":"uint256","name":"interests","type":"uint256"},{"indexed":true,"internalType":"address","name":"token","type":"address"},{"indexed":false,"internalType":"uint8","name":"decimals","type":"uint8"},{"indexed":false,"internalType":"uint256","name":"nonce","type":"uint256"}],"name":"Debt","type":"event"},{"anonymous":false,"inputs":[{"indexed":true,"internalType":"address","name":"funder","type":"address"},{"indexed":false,"internalType":"uint256","name":"amount","type":"uint256"},{"indexed":true,"internalType":"address","name":"token","type":"address"},{"indexed":false,"internalType":"uint8","name":"decimals","type":"uint8"}],"name":"Funded","type":"event"},{"anonymous":false,"inputs":[{"indexed":false,"internalType":"uint64","name":"version","type":"uint64"}],"name":"Initialized","type":"event"},{"anonymous":false,"inputs":[{"indexed":true,"internalType":"address","name":"lender","type":"address"},{"indexed":false,"internalType":"uint256","name":"amount","type":"uint256"},{"indexed":true,"internalType":"address","name":"token","type":"address"},{"indexed":false,"internalType":"uint8","name":"decimals","type":"uint8"},{"indexed":false,"internalType":"uint256","name":"nonce","type":"uint256"}],"name":"LendRepaid","type":"event"},{"anonymous":false,"inputs":[{"indexed":true,"internalType":"address","name":"lender","type":"address"},{"indexed":false,"internalType":"uint256","name":"amount","type":"uint256"},{"indexed":true,"internalType":"address","name":"token","type":"address"},{"indexed":false,"internalType":"uint8","name":"decimals","type":"uint8"},{"indexed":false,"internalType":"uint256","name":"paymentDue","type":"uint256"},{"indexed":false,"internalType":"uint256","name":"nonce","type":"uint256"}],"name":"Lending","type":"event"},{"anonymous":false,"inputs":[{"indexed":true,"internalType":"address","name":"previousOwner","type":"address"},{"indexed":true,"internalType":"address","name":"newOwner","type":"address"}],"name":"OwnershipTransferred","type":"event"},{"anonymous":false,"inputs":[{"indexed":false,"internalType":"address","name":"account","type":"address"}],"name":"Paused","type":"event"},{"anonymous":false,"inputs":[{"indexed":true,"internalType":"bytes32","name":"role","type":"bytes32"},{"indexed":true,"internalType":"bytes32","name":"previousAdminRole","type":"bytes32"},{"indexed":true,"internalType":"bytes32","name":"newAdminRole","type":"bytes32"}],"name":"RoleAdminChanged","type":"event"},{"anonymous":false,"inputs":[{"indexed":true,"internalType":"bytes32","name":"role","type":"bytes32"},{"indexed":true,"internalType":"address","name":"account","type":"address"},{"indexed":true,"internalType":"address","name":"sender","type":"address"}],"name":"RoleGranted","type":"event"},{"anonymous":false,"inputs":[{"indexed":true,"internalType":"bytes32","name":"role","type":"bytes32"},{"indexed":true,"internalType":"address","name":"account","type":"address"},{"indexed":true,"internalType":"address","name":"sender","type":"address"}],"name":"RoleRevoked","type":"event"},{"anonymous":false,"inputs":[{"indexed":true,"internalType":"address","name":"tokenAddress","type":"address"},{"indexed":false,"internalType":"string","name":"symbol","type":"string"},{"indexed":false,"internalType":"string","name":"name","type":"string"}],"name":"TokenAdded","type":"event"},{"anonymous":false,"inputs":[{"indexed":false,"internalType":"address","name":"account","type":"address"}],"name":"Unpaused","type":"event"},{"anonymous":false,"inputs":[{"indexed":true,"internalType":"address","name":"implementation","type":"address"}],"name":"Upgraded","type":"event"},{"anonymous":false,"inputs":[{"indexed":true,"internalType":"address","name":"caller","type":"address"},{"indexed":true,"internalType":"address","name":"recipent","type":"address"},{"indexed":false,"internalType":"uint256","name":"amount","type":"uint256"}],"name":"UserQuotaChanged","type":"event"},{"anonymous":false,"inputs":[{"indexed":true,"internalType":"address","name":"caller","type":"address"},{"indexed":true,"internalType":"uint16","name":"index","type":"uint16"},{"indexed":true,"internalType":"address","name":"recipent","type":"address"},{"indexed":false,"internalType":"uint256","name":"amount","type":"uint256"},{"indexed":false,"internalType":"address[]","name":"signers","type":"address[]"}],"name":"UserQuotaIncreaseRequest","type":"event"},{"anonymous":false,"inputs":[{"indexed":true,"internalType":"address","name":"signer","type":"address"},{"indexed":true,"internalType":"uint16","name":"index","type":"uint16"},{"indexed":true,"internalType":"address","name":"recipent","type":"address"},{"indexed":false,"internalType":"uint256","name":"amount","type":"uint256"}],"name":"UserQuotaSigned","type":"event"},{"anonymous":false,"inputs":[{"indexed":true,"internalType":"address","name":"withdrawer","type":"address"},{"indexed":false,"internalType":"uint256","name":"amount","type":"uint256"},{"indexed":false,"internalType":"uint256","name":"interests","type":"uint256"},{"indexed":true,"internalType":"address","name":"token","type":"address"},{"indexed":false,"internalType":"uint8","name":"decimals","type":"uint8"}],"name":"Withdraw","type":"event"},{"inputs":[],"name":"DEFAULT_ADMIN_ROLE","outputs":[{"internalType":"bytes32","name":"","type":"bytes32"}],"stateMutability":"view","type":"function"},{"inputs":[],"name":"INTEREST_RATE_PER_DAY","outputs":[{"internalType":"uint256","name":"","type":"uint256"}],"stateMutability":"view","type":"function"},{"inputs":[],"name":"UPGRADE_INTERFACE_VERSION","outputs":[{"internalType":"string","name":"","type":"string"}],"stateMutability":"view","type":"function"},{"inputs":[{"internalType":"address","name":"tokenAddress","type":"address"}],"name":"addToken","outputs":[],"stateMutability":"nonpayable","type":"function"},{"inputs":[{"internalType":"uint256","name":"amount","type":"uint256"},{"internalType":"address","name":"token","type":"address"},{"internalType":"uint256","name":"lendIndex","type":"uint256"}],"name":"calculateInterests","outputs":[{"internalType":"uint256","name":"interests","type":"uint256"},{"internalType":"uint256","name":"totalDebt","type":"uint256"}],"stateMutability":"view","type":"function"},{"inputs":[{"internalType":"address","name":"recipent","type":"address"},{"internalType":"uint256","name":"amount","type":"uint256"}],"name":"decreaseQuota","outputs":[],"stateMutability":"nonpayable","type":"function"},{"inputs":[{"internalType":"uint256","name":"amount","type":"uint256"},{"internalType":"address","name":"token","type":"address"}],"name":"fund","outputs":[],"stateMutability":"nonpayable","type":"function"},{"inputs":[],"name":"funds","outputs":[{"internalType":"uint256","name":"totalFunds","type":"uint256"},{"internalType":"uint256","name":"interests","type":"uint256"},{"internalType":"uint256","name":"totalInterestShares","type":"uint256"},{"internalType":"uint256","name":"interestPerShare","type":"uint256"}],"stateMutability":"view","type":"function"},{"inputs":[{"internalType":"bytes32","name":"role","type":"bytes32"}],"name":"getRoleAdmin","outputs":[{"internalType":"bytes32","name":"","type":"bytes32"}],"stateMutability":"view","type":"function"},{"inputs":[{"internalType":"address","name":"token","type":"address"}],"name":"getSpareFunds","outputs":[],"stateMutability":"nonpayable","type":"function"},{"inputs":[{"internalType":"address","name":"userAddress","type":"address"},{"internalType":"uint256","name":"page","type":"uint256"},{"internalType":"uint256","name":"pageSize","type":"uint256"}],"name":"getUserLendsPaginated","outputs":[{"components":[{"internalType":"uint256","name":"initialAmount","type":"uint256"},{"internalType":"uint256","name":"currentAmount","type":"uint256"},{"internalType":"address","name":"token","type":"address"},{"internalType":"uint256","name":"expectPaymentDue","type":"uint256"},{"internalType":"uint256","name":"latestDebtTimestamp","type":"uint256"},{"internalType":"uint256","name":"nonce","type":"uint256"}],"internalType":"struct ReFiMedLendUpgradeable.Lend[]","name":"","type":"tuple[]"}],"stateMutability":"view","type":"function"},{"inputs":[{"internalType":"address","name":"userAddress","type":"address"},{"internalType":"uint256","name":"page","type":"uint256"},{"internalType":"uint256","name":"pageSize","type":"uint256"}],"name":"getUserQuotaRequests","outputs":[{"components":[{"internalType":"uint256","name":"amount","type":"uint256"},{"internalType":"uint8","name":"successfulSigns","type":"uint8"},{"internalType":"address[]","name":"signers","type":"address[]"},{"internalType":"address[]","name":"signedBy","type":"address[]"}],"internalType":"struct ReFiMedLendUpgradeable.UserQuotaRequest[]","name":"","type":"tuple[]"}],"stateMutability":"view","type":"function"},{"inputs":[{"internalType":"bytes32","name":"role","type":"bytes32"},{"internalType":"address","name":"account","type":"address"}],"name":"grantRole","outputs":[],"stateMutability":"nonpayable","type":"function"},{"inputs":[{"internalType":"bytes32","name":"role","type":"bytes32"},{"internalType":"address","name":"account","type":"address"}],"name":"hasRole","outputs":[{"internalType":"bool","name":"","type":"bool"}],"stateMutability":"view","type":"function"},{"inputs":[{"internalType":"address","name":"recipent","type":"address"},{"internalType":"uint16","name":"index","type":"uint16"},{"internalType":"address","name":"caller","type":"address"},{"internalType":"uint256","name":"amount","type":"uint256"}],"name":"increaseQuota","outputs":[{"internalType":"bool","name":"","type":"bool"}],"stateMutability":"nonpayable","type":"function"},{"inputs":[{"internalType":"address","name":"_attestationResolver","type":"address"},{"internalType":"address","name":"multisig","type":"address"},{"internalType":"address","name":"admin","type":"address"}],"name":"initialize","outputs":[],"stateMutability":"nonpayable","type":"function"},{"inputs":[],"name":"owner","outputs":[{"internalType":"address","name":"","type":"address"}],"stateMutability":"view","type":"function"},{"inputs":[],"name":"paused","outputs":[{"internalType":"bool","name":"","type":"bool"}],"stateMutability":"view","type":"function"},{"inputs":[{"internalType":"uint256","name":"amount","type":"uint256"},{"internalType":"address","name":"token","type":"address"},{"internalType":"uint256","name":"lendIndex","type":"uint256"}],"name":"payDebt","outputs":[],"stateMutability":"nonpayable","type":"function"},{"inputs":[],"name":"proxiableUUID","outputs":[{"internalType":"bytes32","name":"","type":"bytes32"}],"stateMutability":"view","type":"function"},{"inputs":[],"name":"renounceOwnership","outputs":[],"stateMutability":"nonpayable","type":"function"},{"inputs":[{"internalType":"bytes32","name":"role","type":"bytes32"},{"internalType":"address","name":"callerConfirmation","type":"address"}],"name":"renounceRole","outputs":[],"stateMutability":"nonpayable","type":"function"},{"inputs":[{"internalType":"address","name":"recipent","type":"address"},{"internalType":"uint256","name":"amount","type":"uint256"},{"internalType":"address[]","name":"signers","type":"address[]"}],"name":"requestIncreaseQuota","outputs":[],"stateMutability":"nonpayable","type":"function"},{"inputs":[{"internalType":"uint256","name":"amount","type":"uint256"},{"internalType":"address","name":"token","type":"address"},{"internalType":"uint256","name":"paymentDue","type":"uint256"}],"name":"requestLend","outputs":[],"stateMutability":"nonpayable","type":"function"},{"inputs":[{"internalType":"bytes32","name":"role","type":"bytes32"},{"internalType":"address","name":"account","type":"address"}],"name":"revokeRole","outputs":[],"stateMutability":"nonpayable","type":"function"},{"inputs":[{"internalType":"uint256","name":"interestRate","type":"uint256"}],"name":"setInterestPerDay","outputs":[],"stateMutability":"nonpayable","type":"function"},{"inputs":[{"internalType":"bytes4","name":"interfaceId","type":"bytes4"}],"name":"supportsInterface","outputs":[{"internalType":"bool","name":"","type":"bool"}],"stateMutability":"view","type":"function"},{"inputs":[{"internalType":"address","name":"newOwner","type":"address"}],"name":"transferOwnership","outputs":[],"stateMutability":"nonpayable","type":"function"},{"inputs":[{"internalType":"address","name":"newImplementation","type":"address"},{"internalType":"bytes","name":"data","type":"bytes"}],"name":"upgradeToAndCall","outputs":[],"stateMutability":"payable","type":"function"},{"inputs":[{"internalType":"address","name":"","type":"address"}],"name":"user","outputs":[{"internalType":"uint256","name":"quota","type":"uint256"},{"internalType":"uint256","name":"currentFund","type":"uint256"},{"internalType":"uint256","name":"interestShares","type":"uint256"},{"internalType":"uint256","name":"lastFund","type":"uint256"}],"stateMutability":"view","type":"function"},{"inputs":[{"internalType":"uint256","name":"amount","type":"uint256"},{"internalType":"address","name":"token","type":"address"}],"name":"withdraw","outputs":[],"stateMutability":"nonpayable","type":"function"},{"inputs":[{"internalType":"uint256","name":"amount","type":"uint256"},{"internalType":"address","name":"token","type":"address"}],"name":"withdrawWithoutInterests","outputs":[],"stateMutability":"nonpayable","type":"function"}],"evm":{"bytecode":{"linkReferences":{"library/LendManagerUtils.sol":{"Utils":[{"length":20,"start":7212},{"length":20,"start":7810}]}},"object":"60a06040523060805234801561001457600080fd5b506080516142e661003e600039600081816132f20152818161331b015261345c01526142e66000f3fe6080604052600436106101e25760003560e01c80638da5cb5b11610102578063caba969f11610095578063e0e713dd11610064578063e0e713dd14610619578063eee9239514610646578063f140006214610666578063f2fde38b1461068657600080fd5b8063caba969f14610584578063d48bfca7146105b9578063d547741f146105d9578063d7d9f9ec146105f957600080fd5b8063a217fddf116100d1578063a217fddf146104ee578063ad3cb1cc14610503578063c0c53b8b14610541578063c89f2ce41461056157600080fd5b80638da5cb5b1461045157806391d1485414610498578063969f9efa146104b85780639ebb4112146104ce57600080fd5b806352d1902d1161017a578063715018a611610149578063715018a61461038b57806381d945d2146103a057806381e7e20e146103c057806387373fc11461042457600080fd5b806352d1902d146102ff5780635c975abb1461031457806361e576b81461034b5780636e99700a1461036b57600080fd5b80632f2ff15d116101b65780632f2ff15d1461028c57806336568abe146102ac5780633ead66c8146102cc5780634f1ef286146102ec57600080fd5b8062f714ce146101e757806301ffc9a7146102095780631031f4f91461023e578063248a9ca31461025e575b600080fd5b3480156101f357600080fd5b5061020761020236600461390e565b6106a6565b005b34801561021557600080fd5b5061022961022436600461393a565b61091d565b60405190151581526020015b60405180910390f35b34801561024a57600080fd5b50610207610259366004613964565b610954565b34801561026a57600080fd5b5061027e610279366004613964565b610981565b604051908152602001610235565b34801561029857600080fd5b506102076102a736600461390e565b6109a3565b3480156102b857600080fd5b506102076102c736600461390e565b6109c5565b3480156102d857600080fd5b506102076102e736600461397d565b6109fd565b6102076102fa366004613a07565b610c00565b34801561030b57600080fd5b5061027e610c1b565b34801561032057600080fd5b507fcd5ed15c6e187e77e9aee88184c21f4f2182ab5827cb3b7e07fbedcd63f033005460ff16610229565b34801561035757600080fd5b50610207610366366004613a98565b610c38565b34801561037757600080fd5b50610207610386366004613ac2565b610d5d565b34801561039757600080fd5b50610207611141565b3480156103ac57600080fd5b506102076103bb366004613af7565b611155565b3480156103cc57600080fd5b506104046103db36600461397d565b600560208190526000918252604090912080546003820154600483015492909301549092919084565b604080519485526020850193909352918301526060820152608001610235565b34801561043057600080fd5b5061044461043f366004613b81565b611584565b6040516102359190613bb4565b34801561045d57600080fd5b507f9016d09d72d40fdae2fd8ceac6b6234c7706214fd39c1cd1e609a0528c199300546040516001600160a01b039091168152602001610235565b3480156104a457600080fd5b506102296104b336600461390e565b6117e4565b3480156104c457600080fd5b5061027e60025481565b3480156104da57600080fd5b506102076104e936600461390e565b61181c565b3480156104fa57600080fd5b5061027e600081565b34801561050f57600080fd5b50610534604051806040016040528060058152602001640352e302e360dc1b81525081565b6040516102359190613c85565b34801561054d57600080fd5b5061020761055c366004613c98565b6119e2565b34801561056d57600080fd5b50600854600954600a54600b546104049392919084565b34801561059057600080fd5b506105a461059f366004613ac2565b611b6c565b60408051928352602083019190915201610235565b3480156105c557600080fd5b506102076105d436600461397d565b611c5d565b3480156105e557600080fd5b506102076105f436600461390e565b611da8565b34801561060557600080fd5b50610207610614366004613ac2565b611dc4565b34801561062557600080fd5b50610639610634366004613b81565b61234e565b6040516102359190613d1f565b34801561065257600080fd5b5061020761066136600461390e565b612625565b34801561067257600080fd5b50610229610681366004613dbe565b612977565b34801561069257600080fd5b506102076106a136600461397d565b612d5a565b6000816001600160a01b031663313ce5676040518163ffffffff1660e01b8152600401602060405180830381865afa1580156106e6573d6000803e3d6000fd5b505050506040513d601f19601f8201168201806040525081019061070a9190613e12565b905060006003548461071c9190613e4b565b33600090815260056020819052604082209081015492935091906107408242612d98565b905060b481101561076c5760405162461bcd60e51b815260040161076390613e62565b60405180910390fd5b83836003015410156107b35760405162461bcd60e51b815260206004820152601060248201526f496e7375666963656e742066756e647360801b6044820152606401610763565b3360009081526006602090815260408083206001600160a01b038a1684529091529020548411156108265760405162461bcd60e51b815260206004820152601a60248201527f496e73756666696369656e7420746f6b656e2062616c616e63650000000000006044820152606401610763565b3360009081526006602090815260408083206001600160a01b038a16845290915281208054869290610859908490613eb8565b9091555050600b546004840154600091670de0b6b3a76400009161087d9190613e4b565b6108879190613ee1565b90508360040154600860020160008282546108a29190613eb8565b90915550506004840180549060006108ba8380613eb8565b9091555050600980548291906000906108d4908490613eb8565b9091555050600a541561090757600a546009546108f990670de0b6b3a7640000613e4b565b6109039190613ee1565b600b555b61091388828989612e2e565b5050505050505050565b60006001600160e01b03198216637965db0b60e01b148061094e57506301ffc9a760e01b6001600160e01b03198316145b92915050565b610960600154336117e4565b61097c5760405162461bcd60e51b815260040161076390613ef5565b600255565b6000908152600080516020614291833981519152602052604090206001015490565b6109ac82610981565b6109b5816131bc565b6109bf83836131c6565b50505050565b6001600160a01b03811633146109ee5760405163334bd91960e11b815260040160405180910390fd5b6109f8828261326b565b505050565b610a09600154336117e4565b610a255760405162461bcd60e51b815260040161076390613ef5565b6040516370a0823160e01b81523060048201526000906001600160a01b038316906370a0823190602401602060405180830381865afa158015610a6c573d6000803e3d6000fd5b505050506040513d601f19601f82011682018060405250810190610a909190613f25565b60085490915015610ae35760405162461bcd60e51b815260206004820152601960248201527f54686520746f74616c2066756e6473206d7573742062652030000000000000006044820152606401610763565b60008111610b3f5760405162461bcd60e51b815260206004820152602360248201527f5468652062616c616e6365206d7573742062652067726561746865722074686160448201526206e20360ec1b6064820152608401610763565b60405163a9059cbb60e01b8152336004820152602481018290526001600160a01b0383169063a9059cbb906044016020604051808303816000875af1158015610b8c573d6000803e3d6000fd5b505050506040513d601f19601f82011682018060405250810190610bb09190613f3e565b610bfc5760405162461bcd60e51b815260206004820152601d60248201527f4572726f72207768696c65207472616e73666572696e672066756e64730000006044820152606401610763565b5050565b610c086132e7565b610c118261338c565b610bfc8282613394565b6000610c25613451565b5060008051602061427183398151915290565b610c4061349a565b610c4c600154336117e4565b610c685760405162461bcd60e51b815260040161076390613ef5565b600060035482610c789190613e4b565b6001600160a01b038416600090815260056020526040902054909150811115610cd65760405162461bcd60e51b815260206004820152601060248201526f496e7375666963656e742071756f746160801b6044820152606401610763565b6001600160a01b03831660009081526005602052604081208054839290610cfe908490613eb8565b90915550506001600160a01b0383166000818152600560205260409081902054905133917f986757b5f72e5258de572c036a9155b7f6fce0df14ffd1fa633617f668137a3991610d5091815260200190565b60405180910390a3505050565b610d6561349a565b336000908152600560205260408120600354909190610d849086613e4b565b90508082600001541015610df35760405162461bcd60e51b815260206004820152603060248201527f546865207573657220686173206c6573732071756f7461207468616e2074686560448201526f081c995c5d5a5c995908185b5bdd5b9d60821b6064820152608401610763565b6000846001600160a01b031663313ce5676040518163ffffffff1660e01b8152600401602060405180830381865afa158015610e33573d6000803e3d6000fd5b505050506040513d601f19601f82011682018060405250810190610e579190613e12565b905060008160ff1611610e7c5760405162461bcd60e51b815260040161076390613f60565b6040516370a0823160e01b81523060048201526000906001600160a01b038716906370a0823190602401602060405180830381865afa158015610ec3573d6000803e3d6000fd5b505050506040513d601f19601f82011682018060405250810190610ee79190613f25565b9050610ef482600a61407b565b610efe9088613e4b565b811015610f445760405162461bcd60e51b8152602060048201526014602482015273496e7375666963656e74206c697175696469747960601b6044820152606401610763565b6000610f4e6134dd565b6040805160c08101825286815260208082018881526001600160a01b038c8116948401948552606084018c8152426080860190815260a0860188815260018e81018054808301825560009182529781209851600690980290980196875594519486019490945595516002850180546001600160a01b031916919093161790915551600383015592516004820155915160059092019190915586549192508591879190610ffb908490613eb8565b90915550506001600160a01b03871663a9059cbb3361101b86600a61407b565b611025908c613e4b565b6040516001600160e01b031960e085901b1681526001600160a01b03909216600483015260248201526044016020604051808303816000875af1158015611070573d6000803e3d6000fd5b505050506040513d601f19601f820116820180604052508101906110949190613f3e565b6110e05760405162461bcd60e51b815260206004820152601e60248201527f4572726f72207768696c65207472616e73666572696e672061737365747300006044820152606401610763565b6040805185815260ff85166020820152908101879052606081018290526001600160a01b0388169033907f473896b256eedaa907360e7bb0dfd12ebcad749e88d45aa79325bf4aad4afbfc9060800160405180910390a35050505050505050565b61114961353d565b6111536000613598565b565b61115d61349a565b61116561353d565b6000600354846111759190613e4b565b905060008267ffffffffffffffff81111561119257611192613998565b6040519080825280602002602001820160405280156111bb578160200160208202803683370190505b509050600383101561120f5760405162461bcd60e51b815260206004820152601960248201527f5369676e657273206d757374206265206174206c6561742033000000000000006044820152606401610763565b600a8311156112605760405162461bcd60e51b815260206004820152601d60248201527f5369676e657273206d757374206265206c65617374207468616e2031300000006044820152606401610763565b600085116112b05760405162461bcd60e51b815260206004820152601e60248201527f416d6f756e74206d757374206265206772656174686572207468616e203000006044820152606401610763565b6001600160a01b03861660009081526005602090815260408083208151608081018352868152808401858152835186815280860185528285019081528451878152808701909552606083019490945260029283018054600180820183559188529686902083516004909802019687559051908601805460ff191660ff9092169190911790559151805192949361134c9392850192910190613878565b5060608201518051611368916003840191602090910190613878565b5050506000805b60ff811685111561150957600086868360ff168181106113915761139161408a565b90506020020160208101906113a6919061397d565b905060005b838160ff16101561144357848160ff16815181106113cb576113cb61408a565b60200260200101516001600160a01b0316826001600160a01b0316036114335760405162461bcd60e51b815260206004820152601960248201527f4475706c6963617465207369676e6572206465746563746564000000000000006044820152606401610763565b61143c816140a0565b90506113ab565b50808484815181106114575761145761408a565b6001600160a01b039092166020928302919091019091015282611479816140bf565b6001600160a01b038b166000908152600560205260409020600201805491955091506114a790600190613eb8565b815481106114b7576114b761408a565b60009182526020808320600492909202909101600201805460018101825590835291200180546001600160a01b0319166001600160a01b0392909216919091179055611502816140a0565b905061136f565b506001600160a01b03871660008181526005602052604090206002015461153290600190613eb8565b61ffff16336001600160a01b03167f0b64377ec6609831eaa829c32823df50ad3db86e1636b0923ee03fa1a685eff6898989604051611573939291906140d8565b60405180910390a450505050505050565b6001600160a01b038316600090815260056020526040812060018101546060926115ae8583613ee1565b905060006115bc868461412e565b11156115d0576115cd600182614142565b90505b8086111561160f5760405162461bcd60e51b815260206004820152600c60248201526b496e76616c6964207061676560a01b6044820152606401610763565b600085116116535760405162461bcd60e51b8152602060048201526011602482015270496e76616c696420706167652073697a6560781b6044820152606401610763565b600085611661600189613eb8565b61166b9190613e4b565b905060006116798783614142565b9050838111156116865750825b60006116928383613eb8565b67ffffffffffffffff8111156116aa576116aa613998565b60405190808252806020026020018201604052801561171d57816020015b61170a6040518060c00160405280600081526020016000815260200160006001600160a01b031681526020016000815260200160008152602001600081525090565b8152602001906001900390816116c85790505b509050825b828110156117d45786600101818154811061173f5761173f61408a565b60009182526020918290206040805160c08101825260069093029091018054835260018101549383019390935260028301546001600160a01b031690820152600382015460608201526004820154608082015260059091015460a0820152826117a88684613eb8565b815181106117b8576117b861408a565b6020026020010181905250806117cd906140bf565b9050611722565b50955050505050505b9392505050565b6000918252600080516020614291833981519152602090815260408084206001600160a01b0393909316845291905290205460ff1690565b6000816001600160a01b031663313ce5676040518163ffffffff1660e01b8152600401602060405180830381865afa15801561185c573d6000803e3d6000fd5b505050506040513d601f19601f820116820180604052508101906118809190613e12565b90506000600354846118929190613e4b565b33600090815260056020819052604082209081015492935091906118b68242612d98565b905060b48110156118d95760405162461bcd60e51b815260040161076390613e62565b83836003015410156119205760405162461bcd60e51b815260206004820152601060248201526f496e7375666963656e742066756e647360801b6044820152606401610763565b3360009081526006602090815260408083206001600160a01b038a1684529091529020548411156119935760405162461bcd60e51b815260206004820152601a60248201527f496e73756666696369656e7420746f6b656e2062616c616e63650000000000006044820152606401610763565b3360009081526006602090815260408083206001600160a01b038a168452909152812080548692906119c6908490613eb8565b909155506119d990508760008888612e2e565b50505050505050565b7ff0c57e16840df040f15088dc2f81fe391c3923bec73e23a9662efc9c229c6a008054600160401b810460ff16159067ffffffffffffffff16600081158015611a285750825b905060008267ffffffffffffffff166001148015611a455750303b155b905081158015611a53575080155b15611a715760405163f92ee8a960e01b815260040160405180910390fd5b845467ffffffffffffffff191660011785558315611a9b57845460ff60401b1916600160401b1785555b611aa487613609565b611aac61361a565b7f0875992236f2b756c480a83b0053e711e5a04d6ec8bf4b52208ef8f002f175c760008181557fdf8b4c520ffe197c5343c6f5aec59570151ef9a492f2c624fd45ddde6135ec42600155613fb46002556103e8600355600455611b0f90896131c6565b50611b1c600154876131c6565b50831561091357845460ff60401b19168555604051600181527fc7f505b2f371ae2175ee4913f4499e1f2633a7b5936321eed1cdaeb6115181d29060200160405180910390a15050505050505050565b336000908152600560205260408120600181018054839291839186908110611b9657611b9661408a565b9060005260206000209060060201905060008790506000611bbb836004015442612d98565b60025460018501546040516301786f6360e21b81526004810184905260248101929092526044820152909150600090819073__$4626204449fc70c87ce483fdc6e5c1e6b6$__906305e1bd8c906064016040805180830381865af4158015611c27573d6000803e3d6000fd5b505050506040513d601f19601f82011682018060405250810190611c4b9190614155565b909c909b509950505050505050505050565b611c6561353d565b611c6d61349a565b6001600160a01b038116600081815260076020526040808220805460ff1916600117905580516395d89b4160e01b815290519192916395d89b419160048082019286929091908290030181865afa158015611ccc573d6000803e3d6000fd5b505050506040513d6000823e601f3d908101601f19168201604052611cf49190810190614179565b90506000826001600160a01b03166306fdde036040518163ffffffff1660e01b8152600401600060405180830381865afa158015611d36573d6000803e3d6000fd5b505050506040513d6000823e601f3d908101601f19168201604052611d5e9190810190614179565b9050826001600160a01b03167f2fb34ce114a136590b874d8cf80e7652adda576578bacfa4f8023f720f5693948383604051611d9b9291906141e7565b60405180910390a2505050565b611db182610981565b611dba816131bc565b6109bf838361326b565b33600090815260056020526040812060018101805491929184908110611dec57611dec61408a565b9060005260206000209060060201905060008590506000611e11836004015442612d98565b60025460018501546040516301786f6360e21b81526004810184905260248101929092526044820152909150600090819073__$4626204449fc70c87ce483fdc6e5c1e6b6$__906305e1bd8c906064016040805180830381865af4158015611e7d573d6000803e3d6000fd5b505050506040513d601f19601f82011682018060405250810190611ea19190614155565b915091506000886001600160a01b031663313ce5676040518163ffffffff1660e01b8152600401602060405180830381865afa158015611ee5573d6000803e3d6000fd5b505050506040513d601f19601f82011682018060405250810190611f099190613e12565b905082866001016000828254611f1f9190614142565b90915550506001860154851115611f705760405162461bcd60e51b8152602060048201526015602482015274496e76616c696420616d6f756e7420746f2070617960581b6044820152606401610763565b60008160ff1611611f935760405162461bcd60e51b815260040161076390613f60565b6001600160a01b03891660009081526007602052604090205460ff16611ffb5760405162461bcd60e51b815260206004820181905260248201527f54686520746f6b656e206973206e6f742077686974656c6973746564207965746044820152606401610763565b8486600101600082825461200f9190613eb8565b909155505060098054849190600090612029908490614142565b90915550506005860154600a541561207257600a5461205085670de0b6b3a7640000613e4b565b61205a9190613ee1565b600b805460009061206c908490614142565b90915550505b86600101546000036121f65786546001898101541115612134576001808a018054909161209e91613eb8565b815481106120ae576120ae61408a565b9060005260206000209060060201896001018b815481106120d1576120d161408a565b6000918252602090912082546006909202019081556001808301549082015560028083015490820180546001600160a01b0319166001600160a01b0390921691909117905560038083015490820155600480830154908201556005918201549101555b886001018054806121475761214761420c565b600082815260208120600660001990930192830201818155600181018290556002810180546001600160a01b031916905560038101829055600481018290556005018190559155895482918b9161219f908490614142565b9091555050604080518d815260ff851660208201529081018390526001600160a01b038c169033907f2f683797ae14900863bd7f5b624167cf9533f58ff4e068fcdc51ea4b45ab8a3e9060600160405180910390a3505b6001600160a01b038a166323b872dd3330612212600387614222565b61221d90600a61407b565b612227908b613e4b565b6040516001600160e01b031960e086901b1681526001600160a01b03938416600482015292909116602483015260448201526064016020604051808303816000875af115801561227b573d6000803e3d6000fd5b505050506040513d601f19601f8201168201806040525081019061229f9190613f3e565b6122eb5760405162461bcd60e51b815260206004820152601e60248201527f4572726f72207768696c65207472616e73666572696e672061737365747300006044820152606401610763565b604080518c81526020810186905260ff8416818301526060810183905290516001600160a01b038c169133917f9ce47bcc134ecd272196e2d07a748c33630146263e848d49e2679807b2886aab9181900360800190a35050505050505050505050565b6001600160a01b038316600090815260056020526040812060020180546060926123788583613ee1565b90506000612386868461412e565b111561239a57612397600182614142565b90505b808611156123d95760405162461bcd60e51b815260206004820152600c60248201526b496e76616c6964207061676560a01b6044820152606401610763565b6000851180156123e95750808511155b6124295760405162461bcd60e51b8152602060048201526011602482015270496e76616c696420706167652073697a6560781b6044820152606401610763565b600085612437600189613eb8565b6124419190613e4b565b9050600061244f8783614142565b90508381111561245c5750825b60006124688383613eb8565b67ffffffffffffffff81111561248057612480613998565b6040519080825280602002602001820160405280156124df57816020015b6124cc604051806080016040528060008152602001600060ff16815260200160608152602001606081525090565b81526020019060019003908161249e5790505b509050825b828110156117d4578681815481106124fe576124fe61408a565b600091825260209182902060408051608081018252600490930290910180548352600181015460ff1683850152600281018054835181870281018701855281815294959294938601939283018282801561258157602002820191906000526020600020905b81546001600160a01b03168152600190910190602001808311612563575b50505050508152602001600382018054806020026020016040519081016040528092919081815260200182805480156125e357602002820191906000526020600020905b81546001600160a01b031681526001909101906020018083116125c5575b5050505050815250508285836125f99190613eb8565b815181106126095761260961408a565b60200260200101819052508061261e906140bf565b90506124e4565b61262d61349a565b6001600160a01b03811660009081526007602052604090205460ff166126955760405162461bcd60e51b815260206004820152601960248201527f546f6b656e206973206e6f7420696e2077686974656c697374000000000000006044820152606401610763565b6000816001600160a01b031663313ce5676040518163ffffffff1660e01b8152600401602060405180830381865afa1580156126d5573d6000803e3d6000fd5b505050506040513d601f19601f820116820180604052508101906126f99190613e12565b905060008160ff161161271e5760405162461bcd60e51b815260040161076390613f60565b60006003548461272e9190613e4b565b60085490915060000361275f57336000908152600560205260409020600401819055600a81905560088190556127d3565b600854600a5460009161277191613ee1565b33600090815260056020526040812060040180549293508392909190612798908490614142565b9091555050600a80548291906000906127b2908490614142565b9091555050600880548391906000906127cc908490614142565b9091555050505b33600090815260056020526040812060030180548392906127f5908490614142565b909155505033600090815260056020818152604080842042930192909255600681528183206001600160a01b038716845290528120805483929061283a908490614142565b90915550506001600160a01b0383166323b872dd333061285b86600a61407b565b6128659089613e4b565b6040516001600160e01b031960e086901b1681526001600160a01b03938416600482015292909116602483015260448201526064016020604051808303816000875af11580156128b9573d6000803e3d6000fd5b505050506040513d601f19601f820116820180604052508101906128dd9190613f3e565b6129295760405162461bcd60e51b815260206004820152601b60248201527f4572726f72207768696c65207472616e7366657220746f6b656e7300000000006044820152606401610763565b6040805185815260ff841660208201526001600160a01b0385169133917f9f9c6451db74dc24ec4ef600603de4a3a11fbe4234eee83200b5469400652c51910160405180910390a350505050565b6000612985600054336117e4565b6129e45760405162461bcd60e51b815260206004820152602a60248201527f43616c6c6572206973206e6f7420612076616c6964206174746573746174696f60448201526937103932b9b7b63b32b960b11b6064820152608401610763565b6001600160a01b0385166000908152600560205260408120600201805482919061ffff8816908110612a1857612a1861408a565b9060005260206000209060040201905080600001548414612a955760405162461bcd60e51b815260206004820152603160248201527f546865206174746573746174696f6e20616d6f756e7420646f6573206e6f74206044820152701b585d18da081d1a19481c995c5d595cdd607a1b6064820152608401610763565b8054600282015460005b818160ff161015612afb57876001600160a01b0316846002018260ff1681548110612acc57612acc61408a565b6000918252602090912001546001600160a01b031603612aeb57600194505b612af4816140a0565b9050612a9f565b506003830154600090815b818160ff161015612b6c57600386015415612b6c57896001600160a01b0316866003018260ff1681548110612b3d57612b3d61408a565b6000918252602090912001546001600160a01b031603612b5c57600196505b612b65816140a0565b9050612b06565b5085612bba5760405162461bcd60e51b815260206004820152601c60248201527f53656e646572206973206e6f7420612076616c6964207369676e6572000000006044820152606401610763565b8115612c005760405162461bcd60e51b815260206004820152601560248201527414d95b99195c881a185cc81cda59db9959081e595d605a1b6044820152606401610763565b6003850180546001808201835560009283526020832090910180546001600160a01b0319166001600160a01b038d16179055808701805491929091612c4990849060ff1661423b565b82546101009290920a60ff8181021990931691831602179091556001870154166003039050612cf3576001600160a01b038b1660009081526005602052604081208054869290612c9a908490614142565b90915550506001600160a01b038b811660008181526005602090815260409182902054915191825291928c16917f986757b5f72e5258de572c036a9155b7f6fce0df14ffd1fa633617f668137a39910160405180910390a35b8a6001600160a01b03168a61ffff168a6001600160a01b03167fea585988944829641b25be2de9e0a1256c383fac005bb8f3ebe5cd09b50d7c748860000154604051612d4191815260200190565b60405180910390a45060019a9950505050505050505050565b612d6261353d565b6001600160a01b038116612d8c57604051631e4fbdf760e01b815260006004820152602401610763565b612d9581613598565b50565b600082821015612e085760405162461bcd60e51b815260206004820152603560248201527f46696e6973682074696d657374616d70206d75737420626520677265617465726044820152740207468616e2073746172742074696d657374616d7605c1b6064820152608401610763565b6000612e148484613eb8565b90506000612e256201518083613ee1565b95945050505050565b600060035485612e3e9190613e4b565b336000908152600560205260409020909150612e5b83600a61407b565b612e659087613e4b565b6040516370a0823160e01b81523060048201526001600160a01b038616906370a0823190602401602060405180830381865afa158015612ea9573d6000803e3d6000fd5b505050506040513d601f19601f82011682018060405250810190612ecd9190613f25565b1015612f125760405162461bcd60e51b8152602060048201526014602482015273496e7375666963656e74206c697175696469747960601b6044820152606401610763565b60008360ff1611612f355760405162461bcd60e51b815260040161076390613f60565b60008611612f905760405162461bcd60e51b815260206004820152602260248201527f54686520616d6f756e74206d757374206265206772656174686572207468616e604482015261020360f41b6064820152608401610763565b6001600160a01b03841660009081526007602052604090205460ff16612ff85760405162461bcd60e51b815260206004820181905260248201527f54686520746f6b656e206973206e6f742077686974656c6973746564207965746044820152606401610763565b818160030154101561303d5760405162461bcd60e51b815260206004820152600e60248201526d125b9d985b1a5908185b5bdd5b9d60921b6044820152606401610763565b818160030160008282546130519190613eb8565b90915550506008805483919060009061306b908490613eb8565b90915550506001600160a01b03841663a9059cbb3361308b600387614222565b61309690600a61407b565b6130a08987614142565b6130aa9190613e4b565b6040516001600160e01b031960e085901b1681526001600160a01b03909216600483015260248201526044016020604051808303816000875af11580156130f5573d6000803e3d6000fd5b505050506040513d601f19601f820116820180604052508101906131199190613f3e565b6131655760405162461bcd60e51b815260206004820152601d60248201527f4661696c6564207768656e207769746864726177696e672066756e64730000006044820152606401610763565b604080518781526020810187905260ff85168183015290516001600160a01b0386169133917f04ccd5830047404934ff21145531b3e4edbc2a057f1e3b73e37e6810aaad80c49181900360600190a3505050505050565b612d958133613622565b60006000805160206142918339815191526131e184846117e4565b613261576000848152602082815260408083206001600160a01b03871684529091529020805460ff191660011790556132173390565b6001600160a01b0316836001600160a01b0316857f2f8788117e7eff1d82e926ec794901d17c78024a50270940304540a733656f0d60405160405180910390a4600191505061094e565b600091505061094e565b600060008051602061429183398151915261328684846117e4565b15613261576000848152602082815260408083206001600160a01b0387168085529252808320805460ff1916905551339287917ff6391f5c32d9c69d2a47ea670b442974b53935d1edc7fd64eb21e047a839171b9190a4600191505061094e565b306001600160a01b037f000000000000000000000000000000000000000000000000000000000000000016148061336e57507f00000000000000000000000000000000000000000000000000000000000000006001600160a01b0316613362600080516020614271833981519152546001600160a01b031690565b6001600160a01b031614155b156111535760405163703e46dd60e11b815260040160405180910390fd5b612d9561353d565b816001600160a01b03166352d1902d6040518163ffffffff1660e01b8152600401602060405180830381865afa9250505080156133ee575060408051601f3d908101601f191682019092526133eb91810190613f25565b60015b61341657604051634c9c8ce360e01b81526001600160a01b0383166004820152602401610763565b600080516020614271833981519152811461344757604051632a87526960e21b815260048101829052602401610763565b6109f8838361365b565b306001600160a01b037f000000000000000000000000000000000000000000000000000000000000000016146111535760405163703e46dd60e11b815260040160405180910390fd5b7fcd5ed15c6e187e77e9aee88184c21f4f2182ab5827cb3b7e07fbedcd63f033005460ff16156111535760405163d93c066560e01b815260040160405180910390fd5b6000804442600454604051602001613508939291909283526020830191909152604082015260600190565b60408051601f198184030181529190528051602090910120600480549192506000613532836140bf565b909155509092915050565b3361356f7f9016d09d72d40fdae2fd8ceac6b6234c7706214fd39c1cd1e609a0528c199300546001600160a01b031690565b6001600160a01b0316146111535760405163118cdaa760e01b8152336004820152602401610763565b7f9016d09d72d40fdae2fd8ceac6b6234c7706214fd39c1cd1e609a0528c19930080546001600160a01b031981166001600160a01b03848116918217845560405192169182907f8be0079c531659141344cd1fd0a4f28419497f9722a3daafe3b4186f6b6457e090600090a3505050565b6136116136b1565b612d95816136fa565b6111536136b1565b61362c82826117e4565b610bfc5760405163e2517d3f60e01b81526001600160a01b038216600482015260248101839052604401610763565b61366482613702565b6040516001600160a01b038316907fbc7cd75a20ee27fd9adebab32041f755214dbc6bffa90cc0225b39da2e5c2d3b90600090a28051156136a9576109f88282613767565b610bfc6137d4565b7ff0c57e16840df040f15088dc2f81fe391c3923bec73e23a9662efc9c229c6a0054600160401b900460ff1661115357604051631afcd79f60e31b815260040160405180910390fd5b612d626136b1565b806001600160a01b03163b60000361373857604051634c9c8ce360e01b81526001600160a01b0382166004820152602401610763565b60008051602061427183398151915280546001600160a01b0319166001600160a01b0392909216919091179055565b6060600080846001600160a01b0316846040516137849190614254565b600060405180830381855af49150503d80600081146137bf576040519150601f19603f3d011682016040523d82523d6000602084013e6137c4565b606091505b5091509150612e258583836137f3565b34156111535760405163b398979f60e01b815260040160405180910390fd5b606082613808576138038261384f565b6117dd565b815115801561381f57506001600160a01b0384163b155b1561384857604051639996b31560e01b81526001600160a01b0385166004820152602401610763565b50806117dd565b80511561385f5780518082602001fd5b604051630a12f52160e11b815260040160405180910390fd5b8280548282559060005260206000209081019282156138cd579160200282015b828111156138cd57825182546001600160a01b0319166001600160a01b03909116178255602090920191600190910190613898565b506138d99291506138dd565b5090565b5b808211156138d957600081556001016138de565b80356001600160a01b038116811461390957600080fd5b919050565b6000806040838503121561392157600080fd5b82359150613931602084016138f2565b90509250929050565b60006020828403121561394c57600080fd5b81356001600160e01b0319811681146117dd57600080fd5b60006020828403121561397657600080fd5b5035919050565b60006020828403121561398f57600080fd5b6117dd826138f2565b634e487b7160e01b600052604160045260246000fd5b604051601f8201601f1916810167ffffffffffffffff811182821017156139d7576139d7613998565b604052919050565b600067ffffffffffffffff8211156139f9576139f9613998565b50601f01601f191660200190565b60008060408385031215613a1a57600080fd5b613a23836138f2565b9150602083013567ffffffffffffffff811115613a3f57600080fd5b8301601f81018513613a5057600080fd5b8035613a63613a5e826139df565b6139ae565b818152866020838501011115613a7857600080fd5b816020840160208301376000602083830101528093505050509250929050565b60008060408385031215613aab57600080fd5b613ab4836138f2565b946020939093013593505050565b600080600060608486031215613ad757600080fd5b83359250613ae7602085016138f2565b9150604084013590509250925092565b60008060008060608587031215613b0d57600080fd5b613b16856138f2565b935060208501359250604085013567ffffffffffffffff80821115613b3a57600080fd5b818701915087601f830112613b4e57600080fd5b813581811115613b5d57600080fd5b8860208260051b8501011115613b7257600080fd5b95989497505060200194505050565b600080600060608486031215613b9657600080fd5b613b9f846138f2565b95602085013595506040909401359392505050565b602080825282518282018190526000919060409081850190868401855b82811015613c28578151805185528681015187860152858101516001600160a01b031686860152606080820151908601526080808201519086015260a0908101519085015260c09093019290850190600101613bd1565b5091979650505050505050565b60005b83811015613c50578181015183820152602001613c38565b50506000910152565b60008151808452613c71816020860160208601613c35565b601f01601f19169290920160200192915050565b6020815260006117dd6020830184613c59565b600080600060608486031215613cad57600080fd5b613cb6846138f2565b9250613cc4602085016138f2565b9150613cd2604085016138f2565b90509250925092565b600081518084526020808501945080840160005b83811015613d145781516001600160a01b031687529582019590820190600101613cef565b509495945050505050565b60006020808301818452808551808352604092508286019150828160051b87010184880160005b83811015613db057603f19898403018552815160808151855260ff898301511689860152878201518189870152613d7f82870182613cdb565b91505060608083015192508582038187015250613d9c8183613cdb565b968901969450505090860190600101613d46565b509098975050505050505050565b60008060008060808587031215613dd457600080fd5b613ddd856138f2565b9350602085013561ffff81168114613df457600080fd5b9250613e02604086016138f2565b9396929550929360600135925050565b600060208284031215613e2457600080fd5b815160ff811681146117dd57600080fd5b634e487b7160e01b600052601160045260246000fd5b808202811582820484141761094e5761094e613e35565b60208082526036908201527f5468652075736572206d7573742077616974206174206c6561737420313830206040820152756461797320746f2077697468647261772066756e647360501b606082015260800190565b8181038181111561094e5761094e613e35565b634e487b7160e01b600052601260045260246000fd5b600082613ef057613ef0613ecb565b500490565b60208082526016908201527521b0b63632b91034b9903737ba1030b71020b236b4b760511b604082015260600190565b600060208284031215613f3757600080fd5b5051919050565b600060208284031215613f5057600080fd5b815180151581146117dd57600080fd5b6020808252601e908201527f4572726f72207768696c65206f627461696e696e6720646563696d616c730000604082015260600190565b600181815b80851115613fd2578160001904821115613fb857613fb8613e35565b80851615613fc557918102915b93841c9390800290613f9c565b509250929050565b600082613fe95750600161094e565b81613ff65750600061094e565b816001811461400c576002811461401657614032565b600191505061094e565b60ff84111561402757614027613e35565b50506001821b61094e565b5060208310610133831016604e8410600b8410161715614055575081810a61094e565b61405f8383613f97565b806000190482111561407357614073613e35565b029392505050565b60006117dd60ff841683613fda565b634e487b7160e01b600052603260045260246000fd5b600060ff821660ff81036140b6576140b6613e35565b60010192915050565b6000600182016140d1576140d1613e35565b5060010190565b83815260406020808301829052908201839052600090849060608401835b86811015614122576001600160a01b0361410f856138f2565b16825292820192908201906001016140f6565b50979650505050505050565b60008261413d5761413d613ecb565b500690565b8082018082111561094e5761094e613e35565b6000806040838503121561416857600080fd5b505080516020909101519092909150565b60006020828403121561418b57600080fd5b815167ffffffffffffffff8111156141a257600080fd5b8201601f810184136141b357600080fd5b80516141c1613a5e826139df565b8181528560208385010111156141d657600080fd5b612e25826020830160208601613c35565b6040815260006141fa6040830185613c59565b8281036020840152612e258185613c59565b634e487b7160e01b600052603160045260246000fd5b60ff828116828216039081111561094e5761094e613e35565b60ff818116838216019081111561094e5761094e613e35565b60008251614266818460208701613c35565b919091019291505056fe360894a13ba1a3210667c828492db98dca3e2076cc3735a920a3ca505d382bbc02dd7bc7dec4dceedda775e58dd541e08a116c6c53815c0bd028192f7b626800a264697066735822122096bd96629b0289f0b7dcd1468e52dd1c880499bda2097941ac0b04dda8aa421e64736f6c63430008140033","opcodes":"PUSH1 0xA0 PUSH1 0x40 MSTORE ADDRESS PUSH1 0x80 MSTORE CALLVALUE DUP1 ISZERO PUSH2 0x14 JUMPI PUSH1 0x0 DUP1 REVERT JUMPDEST POP PUSH1 0x80 MLOAD PUSH2 0x42E6 PUSH2 0x3E PUSH1 0x0 CODECOPY PUSH1 0x0 DUP2 DUP2 PUSH2 0x32F2 ADD MSTORE DUP2 DUP2 PUSH2 0x331B ADD MSTORE PUSH2 0x345C ADD MSTORE PUSH2 0x42E6 PUSH1 0x0 RETURN INVALID PUSH1 0x80 PUSH1 0x40 MSTORE PUSH1 0x4 CALLDATASIZE LT PUSH2 0x1E2 JUMPI PUSH1 0x0 CALLDATALOAD PUSH1 0xE0 SHR DUP1 PUSH4 0x8DA5CB5B GT PUSH2 0x102 JUMPI DUP1 PUSH4 0xCABA969F GT PUSH2 0x95 JUMPI DUP1 PUSH4 0xE0E713DD GT PUSH2 0x64 JUMPI DUP1 PUSH4 0xE0E713DD EQ PUSH2 0x619 JUMPI DUP1 PUSH4 0xEEE92395 EQ PUSH2 0x646 JUMPI DUP1 PUSH4 0xF1400062 EQ PUSH2 0x666 JUMPI DUP1 PUSH4 0xF2FDE38B EQ PUSH2 0x686 JUMPI PUSH1 0x0 DUP1 REVERT JUMPDEST DUP1 PUSH4 0xCABA969F EQ PUSH2 0x584 JUMPI DUP1 PUSH4 0xD48BFCA7 EQ PUSH2 0x5B9 JUMPI DUP1 PUSH4 0xD547741F EQ PUSH2 0x5D9 JUMPI DUP1 PUSH4 0xD7D9F9EC EQ PUSH2 0x5F9 JUMPI PUSH1 0x0 DUP1 REVERT JUMPDEST DUP1 PUSH4 0xA217FDDF GT PUSH2 0xD1 JUMPI DUP1 PUSH4 0xA217FDDF EQ PUSH2 0x4EE JUMPI DUP1 PUSH4 0xAD3CB1CC EQ PUSH2 0x503 JUMPI DUP1 PUSH4 0xC0C53B8B EQ PUSH2 0x541 JUMPI DUP1 PUSH4 0xC89F2CE4 EQ PUSH2 0x561 JUMPI PUSH1 0x0 DUP1 REVERT JUMPDEST DUP1 PUSH4 0x8DA5CB5B EQ PUSH2 0x451 JUMPI DUP1 PUSH4 0x91D14854 EQ PUSH2 0x498 JUMPI DUP1 PUSH4 0x969F9EFA EQ PUSH2 0x4B8 JUMPI DUP1 PUSH4 0x9EBB4112 EQ PUSH2 0x4CE JUMPI PUSH1 0x0 DUP1 REVERT JUMPDEST DUP1 PUSH4 0x52D1902D GT PUSH2 0x17A JUMPI DUP1 PUSH4 0x715018A6 GT PUSH2 0x149 JUMPI DUP1 PUSH4 0x715018A6 EQ PUSH2 0x38B JUMPI DUP1 PUSH4 0x81D945D2 EQ PUSH2 0x3A0 JUMPI DUP1 PUSH4 0x81E7E20E EQ PUSH2 0x3C0 JUMPI DUP1 PUSH4 0x87373FC1 EQ PUSH2 0x424 JUMPI PUSH1 0x0 DUP1 REVERT JUMPDEST DUP1 PUSH4 0x52D1902D EQ PUSH2 0x2FF JUMPI DUP1 PUSH4 0x5C975ABB EQ PUSH2 0x314 JUMPI DUP1 PUSH4 0x61E576B8 EQ PUSH2 0x34B JUMPI DUP1 PUSH4 0x6E99700A EQ PUSH2 0x36B JUMPI PUSH1 0x0 DUP1 REVERT JUMPDEST DUP1 PUSH4 0x2F2FF15D GT PUSH2 0x1B6 JUMPI DUP1 PUSH4 0x2F2FF15D EQ PUSH2 0x28C JUMPI DUP1 PUSH4 0x36568ABE EQ PUSH2 0x2AC JUMPI DUP1 PUSH4 0x3EAD66C8 EQ PUSH2 0x2CC JUMPI DUP1 PUSH4 0x4F1EF286 EQ PUSH2 0x2EC JUMPI PUSH1 0x0 DUP1 REVERT JUMPDEST DUP1 PUSH3 0xF714CE EQ PUSH2 0x1E7 JUMPI DUP1 PUSH4 0x1FFC9A7 EQ PUSH2 0x209 JUMPI DUP1 PUSH4 0x1031F4F9 EQ PUSH2 0x23E JUMPI DUP1 PUSH4 0x248A9CA3 EQ PUSH2 0x25E JUMPI JUMPDEST PUSH1 0x0 DUP1 REVERT JUMPDEST CALLVALUE DUP1 ISZERO PUSH2 0x1F3 JUMPI PUSH1 0x0 DUP1 REVERT JUMPDEST POP PUSH2 0x207 PUSH2 0x202 CALLDATASIZE PUSH1 0x4 PUSH2 0x390E JUMP JUMPDEST PUSH2 0x6A6 JUMP JUMPDEST STOP JUMPDEST CALLVALUE DUP1 ISZERO PUSH2 0x215 JUMPI PUSH1 0x0 DUP1 REVERT JUMPDEST POP PUSH2 0x229 PUSH2 0x224 CALLDATASIZE PUSH1 0x4 PUSH2 0x393A JUMP JUMPDEST PUSH2 0x91D JUMP JUMPDEST PUSH1 0x40 MLOAD SWAP1 ISZERO ISZERO DUP2 MSTORE PUSH1 0x20 ADD JUMPDEST PUSH1 0x40 MLOAD DUP1 SWAP2 SUB SWAP1 RETURN JUMPDEST CALLVALUE DUP1 ISZERO PUSH2 0x24A JUMPI PUSH1 0x0 DUP1 REVERT JUMPDEST POP PUSH2 0x207 PUSH2 0x259 CALLDATASIZE PUSH1 0x4 PUSH2 0x3964 JUMP JUMPDEST PUSH2 0x954 JUMP JUMPDEST CALLVALUE DUP1 ISZERO PUSH2 0x26A JUMPI PUSH1 0x0 DUP1 REVERT JUMPDEST POP PUSH2 0x27E PUSH2 0x279 CALLDATASIZE PUSH1 0x4 PUSH2 0x3964 JUMP JUMPDEST PUSH2 0x981 JUMP JUMPDEST PUSH1 0x40 MLOAD SWAP1 DUP2 MSTORE PUSH1 0x20 ADD PUSH2 0x235 JUMP JUMPDEST CALLVALUE DUP1 ISZERO PUSH2 0x298 JUMPI PUSH1 0x0 DUP1 REVERT JUMPDEST POP PUSH2 0x207 PUSH2 0x2A7 CALLDATASIZE PUSH1 0x4 PUSH2 0x390E JUMP JUMPDEST PUSH2 0x9A3 JUMP JUMPDEST CALLVALUE DUP1 ISZERO PUSH2 0x2B8 JUMPI PUSH1 0x0 DUP1 REVERT JUMPDEST POP PUSH2 0x207 PUSH2 0x2C7 CALLDATASIZE PUSH1 0x4 PUSH2 0x390E JUMP JUMPDEST PUSH2 0x9C5 JUMP JUMPDEST CALLVALUE DUP1 ISZERO PUSH2 0x2D8 JUMPI PUSH1 0x0 DUP1 REVERT JUMPDEST POP PUSH2 0x207 PUSH2 0x2E7 CALLDATASIZE PUSH1 0x4 PUSH2 0x397D JUMP JUMPDEST PUSH2 0x9FD JUMP JUMPDEST PUSH2 0x207 PUSH2 0x2FA CALLDATASIZE PUSH1 0x4 PUSH2 0x3A07 JUMP JUMPDEST PUSH2 0xC00 JUMP JUMPDEST CALLVALUE DUP1 ISZERO PUSH2 0x30B JUMPI PUSH1 0x0 DUP1 REVERT JUMPDEST POP PUSH2 0x27E PUSH2 0xC1B JUMP JUMPDEST CALLVALUE DUP1 ISZERO PUSH2 0x320 JUMPI PUSH1 0x0 DUP1 REVERT JUMPDEST POP PUSH32 0xCD5ED15C6E187E77E9AEE88184C21F4F2182AB5827CB3B7E07FBEDCD63F03300 SLOAD PUSH1 0xFF AND PUSH2 0x229 JUMP JUMPDEST CALLVALUE DUP1 ISZERO PUSH2 0x357 JUMPI PUSH1 0x0 DUP1 REVERT JUMPDEST POP PUSH2 0x207 PUSH2 0x366 CALLDATASIZE PUSH1 0x4 PUSH2 0x3A98 JUMP JUMPDEST PUSH2 0xC38 JUMP JUMPDEST CALLVALUE DUP1 ISZERO PUSH2 0x377 JUMPI PUSH1 0x0 DUP1 REVERT JUMPDEST POP PUSH2 0x207 PUSH2 0x386 CALLDATASIZE PUSH1 0x4 PUSH2 0x3AC2 JUMP JUMPDEST PUSH2 0xD5D JUMP JUMPDEST CALLVALUE DUP1 ISZERO PUSH2 0x397 JUMPI PUSH1 0x0 DUP1 REVERT JUMPDEST POP PUSH2 0x207 PUSH2 0x1141 JUMP JUMPDEST CALLVALUE DUP1 ISZERO PUSH2 0x3AC JUMPI PUSH1 0x0 DUP1 REVERT JUMPDEST POP PUSH2 0x207 PUSH2 0x3BB CALLDATASIZE PUSH1 0x4 PUSH2 0x3AF7 JUMP JUMPDEST PUSH2 0x1155 JUMP JUMPDEST CALLVALUE DUP1 ISZERO PUSH2 0x3CC JUMPI PUSH1 0x0 DUP1 REVERT JUMPDEST POP PUSH2 0x404 PUSH2 0x3DB CALLDATASIZE PUSH1 0x4 PUSH2 0x397D JUMP JUMPDEST PUSH1 0x5 PUSH1 0x20 DUP2 SWAP1 MSTORE PUSH1 0x0 SWAP2 DUP3 MSTORE PUSH1 0x40 SWAP1 SWAP2 KECCAK256 DUP1 SLOAD PUSH1 0x3 DUP3 ADD SLOAD PUSH1 0x4 DUP4 ADD SLOAD SWAP3 SWAP1 SWAP4 ADD SLOAD SWAP1 SWAP3 SWAP2 SWAP1 DUP5 JUMP JUMPDEST PUSH1 0x40 DUP1 MLOAD SWAP5 DUP6 MSTORE PUSH1 0x20 DUP6 ADD SWAP4 SWAP1 SWAP4 MSTORE SWAP2 DUP4 ADD MSTORE PUSH1 0x60 DUP3 ADD MSTORE PUSH1 0x80 ADD PUSH2 0x235 JUMP JUMPDEST CALLVALUE DUP1 ISZERO PUSH2 0x430 JUMPI PUSH1 0x0 DUP1 REVERT JUMPDEST POP PUSH2 0x444 PUSH2 0x43F CALLDATASIZE PUSH1 0x4 PUSH2 0x3B81 JUMP JUMPDEST PUSH2 0x1584 JUMP JUMPDEST PUSH1 0x40 MLOAD PUSH2 0x235 SWAP2 SWAP1 PUSH2 0x3BB4 JUMP JUMPDEST CALLVALUE DUP1 ISZERO PUSH2 0x45D JUMPI PUSH1 0x0 DUP1 REVERT JUMPDEST POP PUSH32 0x9016D09D72D40FDAE2FD8CEAC6B6234C7706214FD39C1CD1E609A0528C199300 SLOAD PUSH1 0x40 MLOAD PUSH1 0x1 PUSH1 0x1 PUSH1 0xA0 SHL SUB SWAP1 SWAP2 AND DUP2 MSTORE PUSH1 0x20 ADD PUSH2 0x235 JUMP JUMPDEST CALLVALUE DUP1 ISZERO PUSH2 0x4A4 JUMPI PUSH1 0x0 DUP1 REVERT JUMPDEST POP PUSH2 0x229 PUSH2 0x4B3 CALLDATASIZE PUSH1 0x4 PUSH2 0x390E JUMP JUMPDEST PUSH2 0x17E4 JUMP JUMPDEST CALLVALUE DUP1 ISZERO PUSH2 0x4C4 JUMPI PUSH1 0x0 DUP1 REVERT JUMPDEST POP PUSH2 0x27E PUSH1 0x2 SLOAD DUP2 JUMP JUMPDEST CALLVALUE DUP1 ISZERO PUSH2 0x4DA JUMPI PUSH1 0x0 DUP1 REVERT JUMPDEST POP PUSH2 0x207 PUSH2 0x4E9 CALLDATASIZE PUSH1 0x4 PUSH2 0x390E JUMP JUMPDEST PUSH2 0x181C JUMP JUMPDEST CALLVALUE DUP1 ISZERO PUSH2 0x4FA JUMPI PUSH1 0x0 DUP1 REVERT JUMPDEST POP PUSH2 0x27E PUSH1 0x0 DUP2 JUMP JUMPDEST CALLVALUE DUP1 ISZERO PUSH2 0x50F JUMPI PUSH1 0x0 DUP1 REVERT JUMPDEST POP PUSH2 0x534 PUSH1 0x40 MLOAD DUP1 PUSH1 0x40 ADD PUSH1 0x40 MSTORE DUP1 PUSH1 0x5 DUP2 MSTORE PUSH1 0x20 ADD PUSH5 0x352E302E3 PUSH1 0xDC SHL DUP2 MSTORE POP DUP2 JUMP JUMPDEST PUSH1 0x40 MLOAD PUSH2 0x235 SWAP2 SWAP1 PUSH2 0x3C85 JUMP JUMPDEST CALLVALUE DUP1 ISZERO PUSH2 0x54D JUMPI PUSH1 0x0 DUP1 REVERT JUMPDEST POP PUSH2 0x207 PUSH2 0x55C CALLDATASIZE PUSH1 0x4 PUSH2 0x3C98 JUMP JUMPDEST PUSH2 0x19E2 JUMP JUMPDEST CALLVALUE DUP1 ISZERO PUSH2 0x56D JUMPI PUSH1 0x0 DUP1 REVERT JUMPDEST POP PUSH1 0x8 SLOAD PUSH1 0x9 SLOAD PUSH1 0xA SLOAD PUSH1 0xB SLOAD PUSH2 0x404 SWAP4 SWAP3 SWAP2 SWAP1 DUP5 JUMP JUMPDEST CALLVALUE DUP1 ISZERO PUSH2 0x590 JUMPI PUSH1 0x0 DUP1 REVERT JUMPDEST POP PUSH2 0x5A4 PUSH2 0x59F CALLDATASIZE PUSH1 0x4 PUSH2 0x3AC2 JUMP JUMPDEST PUSH2 0x1B6C JUMP JUMPDEST PUSH1 0x40 DUP1 MLOAD SWAP3 DUP4 MSTORE PUSH1 0x20 DUP4 ADD SWAP2 SWAP1 SWAP2 MSTORE ADD PUSH2 0x235 JUMP JUMPDEST CALLVALUE DUP1 ISZERO PUSH2 0x5C5 JUMPI PUSH1 0x0 DUP1 REVERT JUMPDEST POP PUSH2 0x207 PUSH2 0x5D4 CALLDATASIZE PUSH1 0x4 PUSH2 0x397D JUMP JUMPDEST PUSH2 0x1C5D JUMP JUMPDEST CALLVALUE DUP1 ISZERO PUSH2 0x5E5 JUMPI PUSH1 0x0 DUP1 REVERT JUMPDEST POP PUSH2 0x207 PUSH2 0x5F4 CALLDATASIZE PUSH1 0x4 PUSH2 0x390E JUMP JUMPDEST PUSH2 0x1DA8 JUMP JUMPDEST CALLVALUE DUP1 ISZERO PUSH2 0x605 JUMPI PUSH1 0x0 DUP1 REVERT JUMPDEST POP PUSH2 0x207 PUSH2 0x614 CALLDATASIZE PUSH1 0x4 PUSH2 0x3AC2 JUMP JUMPDEST PUSH2 0x1DC4 JUMP JUMPDEST CALLVALUE DUP1 ISZERO PUSH2 0x625 JUMPI PUSH1 0x0 DUP1 REVERT JUMPDEST POP PUSH2 0x639 PUSH2 0x634 CALLDATASIZE PUSH1 0x4 PUSH2 0x3B81 JUMP JUMPDEST PUSH2 0x234E JUMP JUMPDEST PUSH1 0x40 MLOAD PUSH2 0x235 SWAP2 SWAP1 PUSH2 0x3D1F JUMP JUMPDEST CALLVALUE DUP1 ISZERO PUSH2 0x652 JUMPI PUSH1 0x0 DUP1 REVERT JUMPDEST POP PUSH2 0x207 PUSH2 0x661 CALLDATASIZE PUSH1 0x4 PUSH2 0x390E JUMP JUMPDEST PUSH2 0x2625 JUMP JUMPDEST CALLVALUE DUP1 ISZERO PUSH2 0x672 JUMPI PUSH1 0x0 DUP1 REVERT JUMPDEST POP PUSH2 0x229 PUSH2 0x681 CALLDATASIZE PUSH1 0x4 PUSH2 0x3DBE JUMP JUMPDEST PUSH2 0x2977 JUMP JUMPDEST CALLVALUE DUP1 ISZERO PUSH2 0x692 JUMPI PUSH1 0x0 DUP1 REVERT JUMPDEST POP PUSH2 0x207 PUSH2 0x6A1 CALLDATASIZE PUSH1 0x4 PUSH2 0x397D JUMP JUMPDEST PUSH2 0x2D5A JUMP JUMPDEST PUSH1 0x0 DUP2 PUSH1 0x1 PUSH1 0x1 PUSH1 0xA0 SHL SUB AND PUSH4 0x313CE567 PUSH1 0x40 MLOAD DUP2 PUSH4 0xFFFFFFFF AND PUSH1 0xE0 SHL DUP2 MSTORE PUSH1 0x4 ADD PUSH1 0x20 PUSH1 0x40 MLOAD DUP1 DUP4 SUB DUP2 DUP7 GAS STATICCALL ISZERO DUP1 ISZERO PUSH2 0x6E6 JUMPI RETURNDATASIZE PUSH1 0x0 DUP1 RETURNDATACOPY RETURNDATASIZE PUSH1 0x0 REVERT JUMPDEST POP POP POP POP PUSH1 0x40 MLOAD RETURNDATASIZE PUSH1 0x1F NOT PUSH1 0x1F DUP3 ADD AND DUP3 ADD DUP1 PUSH1 0x40 MSTORE POP DUP2 ADD SWAP1 PUSH2 0x70A SWAP2 SWAP1 PUSH2 0x3E12 JUMP JUMPDEST SWAP1 POP PUSH1 0x0 PUSH1 0x3 SLOAD DUP5 PUSH2 0x71C SWAP2 SWAP1 PUSH2 0x3E4B JUMP JUMPDEST CALLER PUSH1 0x0 SWAP1 DUP2 MSTORE PUSH1 0x5 PUSH1 0x20 DUP2 SWAP1 MSTORE PUSH1 0x40 DUP3 KECCAK256 SWAP1 DUP2 ADD SLOAD SWAP3 SWAP4 POP SWAP2 SWAP1 PUSH2 0x740 DUP3 TIMESTAMP PUSH2 0x2D98 JUMP JUMPDEST SWAP1 POP PUSH1 0xB4 DUP2 LT ISZERO PUSH2 0x76C JUMPI PUSH1 0x40 MLOAD PUSH3 0x461BCD PUSH1 0xE5 SHL DUP2 MSTORE PUSH1 0x4 ADD PUSH2 0x763 SWAP1 PUSH2 0x3E62 JUMP JUMPDEST PUSH1 0x40 MLOAD DUP1 SWAP2 SUB SWAP1 REVERT JUMPDEST DUP4 DUP4 PUSH1 0x3 ADD SLOAD LT ISZERO PUSH2 0x7B3 JUMPI PUSH1 0x40 MLOAD PUSH3 0x461BCD PUSH1 0xE5 SHL DUP2 MSTORE PUSH1 0x20 PUSH1 0x4 DUP3 ADD MSTORE PUSH1 0x10 PUSH1 0x24 DUP3 ADD MSTORE PUSH16 0x496E7375666963656E742066756E6473 PUSH1 0x80 SHL PUSH1 0x44 DUP3 ADD MSTORE PUSH1 0x64 ADD PUSH2 0x763 JUMP JUMPDEST CALLER PUSH1 0x0 SWAP1 DUP2 MSTORE PUSH1 0x6 PUSH1 0x20 SWAP1 DUP2 MSTORE PUSH1 0x40 DUP1 DUP4 KECCAK256 PUSH1 0x1 PUSH1 0x1 PUSH1 0xA0 SHL SUB DUP11 AND DUP5 MSTORE SWAP1 SWAP2 MSTORE SWAP1 KECCAK256 SLOAD DUP5 GT ISZERO PUSH2 0x826 JUMPI PUSH1 0x40 MLOAD PUSH3 0x461BCD PUSH1 0xE5 SHL DUP2 MSTORE PUSH1 0x20 PUSH1 0x4 DUP3 ADD MSTORE PUSH1 0x1A PUSH1 0x24 DUP3 ADD MSTORE PUSH32 0x496E73756666696369656E7420746F6B656E2062616C616E6365000000000000 PUSH1 0x44 DUP3 ADD MSTORE PUSH1 0x64 ADD PUSH2 0x763 JUMP JUMPDEST CALLER PUSH1 0x0 SWAP1 DUP2 MSTORE PUSH1 0x6 PUSH1 0x20 SWAP1 DUP2 MSTORE PUSH1 0x40 DUP1 DUP4 KECCAK256 PUSH1 0x1 PUSH1 0x1 PUSH1 0xA0 SHL SUB DUP11 AND DUP5 MSTORE SWAP1 SWAP2 MSTORE DUP2 KECCAK256 DUP1 SLOAD DUP7 SWAP3 SWAP1 PUSH2 0x859 SWAP1 DUP5 SWAP1 PUSH2 0x3EB8 JUMP JUMPDEST SWAP1 SWAP2 SSTORE POP POP PUSH1 0xB SLOAD PUSH1 0x4 DUP5 ADD SLOAD PUSH1 0x0 SWAP2 PUSH8 0xDE0B6B3A7640000 SWAP2 PUSH2 0x87D SWAP2 SWAP1 PUSH2 0x3E4B JUMP JUMPDEST PUSH2 0x887 SWAP2 SWAP1 PUSH2 0x3EE1 JUMP JUMPDEST SWAP1 POP DUP4 PUSH1 0x4 ADD SLOAD PUSH1 0x8 PUSH1 0x2 ADD PUSH1 0x0 DUP3 DUP3 SLOAD PUSH2 0x8A2 SWAP2 SWAP1 PUSH2 0x3EB8 JUMP JUMPDEST SWAP1 SWAP2 SSTORE POP POP PUSH1 0x4 DUP5 ADD DUP1 SLOAD SWAP1 PUSH1 0x0 PUSH2 0x8BA DUP4 DUP1 PUSH2 0x3EB8 JUMP JUMPDEST SWAP1 SWAP2 SSTORE POP POP PUSH1 0x9 DUP1 SLOAD DUP3 SWAP2 SWAP1 PUSH1 0x0 SWAP1 PUSH2 0x8D4 SWAP1 DUP5 SWAP1 PUSH2 0x3EB8 JUMP JUMPDEST SWAP1 SWAP2 SSTORE POP POP PUSH1 0xA SLOAD ISZERO PUSH2 0x907 JUMPI PUSH1 0xA SLOAD PUSH1 0x9 SLOAD PUSH2 0x8F9 SWAP1 PUSH8 0xDE0B6B3A7640000 PUSH2 0x3E4B JUMP JUMPDEST PUSH2 0x903 SWAP2 SWAP1 PUSH2 0x3EE1 JUMP JUMPDEST PUSH1 0xB SSTORE JUMPDEST PUSH2 0x913 DUP9 DUP3 DUP10 DUP10 PUSH2 0x2E2E JUMP JUMPDEST POP POP POP POP POP POP POP POP JUMP JUMPDEST PUSH1 0x0 PUSH1 0x1 PUSH1 0x1 PUSH1 0xE0 SHL SUB NOT DUP3 AND PUSH4 0x7965DB0B PUSH1 0xE0 SHL EQ DUP1 PUSH2 0x94E JUMPI POP PUSH4 0x1FFC9A7 PUSH1 0xE0 SHL PUSH1 0x1 PUSH1 0x1 PUSH1 0xE0 SHL SUB NOT DUP4 AND EQ JUMPDEST SWAP3 SWAP2 POP POP JUMP JUMPDEST PUSH2 0x960 PUSH1 0x1 SLOAD CALLER PUSH2 0x17E4 JUMP JUMPDEST PUSH2 0x97C JUMPI PUSH1 0x40 MLOAD PUSH3 0x461BCD PUSH1 0xE5 SHL DUP2 MSTORE PUSH1 0x4 ADD PUSH2 0x763 SWAP1 PUSH2 0x3EF5 JUMP JUMPDEST PUSH1 0x2 SSTORE JUMP JUMPDEST PUSH1 0x0 SWAP1 DUP2 MSTORE PUSH1 0x0 DUP1 MLOAD PUSH1 0x20 PUSH2 0x4291 DUP4 CODECOPY DUP2 MLOAD SWAP2 MSTORE PUSH1 0x20 MSTORE PUSH1 0x40 SWAP1 KECCAK256 PUSH1 0x1 ADD SLOAD SWAP1 JUMP JUMPDEST PUSH2 0x9AC DUP3 PUSH2 0x981 JUMP JUMPDEST PUSH2 0x9B5 DUP2 PUSH2 0x31BC JUMP JUMPDEST PUSH2 0x9BF DUP4 DUP4 PUSH2 0x31C6 JUMP JUMPDEST POP POP POP POP JUMP JUMPDEST PUSH1 0x1 PUSH1 0x1 PUSH1 0xA0 SHL SUB DUP2 AND CALLER EQ PUSH2 0x9EE JUMPI PUSH1 0x40 MLOAD PUSH4 0x334BD919 PUSH1 0xE1 SHL DUP2 MSTORE PUSH1 0x4 ADD PUSH1 0x40 MLOAD DUP1 SWAP2 SUB SWAP1 REVERT JUMPDEST PUSH2 0x9F8 DUP3 DUP3 PUSH2 0x326B JUMP JUMPDEST POP POP POP JUMP JUMPDEST PUSH2 0xA09 PUSH1 0x1 SLOAD CALLER PUSH2 0x17E4 JUMP JUMPDEST PUSH2 0xA25 JUMPI PUSH1 0x40 MLOAD PUSH3 0x461BCD PUSH1 0xE5 SHL DUP2 MSTORE PUSH1 0x4 ADD PUSH2 0x763 SWAP1 PUSH2 0x3EF5 JUMP JUMPDEST PUSH1 0x40 MLOAD PUSH4 0x70A08231 PUSH1 0xE0 SHL DUP2 MSTORE ADDRESS PUSH1 0x4 DUP3 ADD MSTORE PUSH1 0x0 SWAP1 PUSH1 0x1 PUSH1 0x1 PUSH1 0xA0 SHL SUB DUP4 AND SWAP1 PUSH4 0x70A08231 SWAP1 PUSH1 0x24 ADD PUSH1 0x20 PUSH1 0x40 MLOAD DUP1 DUP4 SUB DUP2 DUP7 GAS STATICCALL ISZERO DUP1 ISZERO PUSH2 0xA6C JUMPI RETURNDATASIZE PUSH1 0x0 DUP1 RETURNDATACOPY RETURNDATASIZE PUSH1 0x0 REVERT JUMPDEST POP POP POP POP PUSH1 0x40 MLOAD RETURNDATASIZE PUSH1 0x1F NOT PUSH1 0x1F DUP3 ADD AND DUP3 ADD DUP1 PUSH1 0x40 MSTORE POP DUP2 ADD SWAP1 PUSH2 0xA90 SWAP2 SWAP1 PUSH2 0x3F25 JUMP JUMPDEST PUSH1 0x8 SLOAD SWAP1 SWAP2 POP ISZERO PUSH2 0xAE3 JUMPI PUSH1 0x40 MLOAD PUSH3 0x461BCD PUSH1 0xE5 SHL DUP2 MSTORE PUSH1 0x20 PUSH1 0x4 DUP3 ADD MSTORE PUSH1 0x19 PUSH1 0x24 DUP3 ADD MSTORE PUSH32 0x54686520746F74616C2066756E6473206D757374206265203000000000000000 PUSH1 0x44 DUP3 ADD MSTORE PUSH1 0x64 ADD PUSH2 0x763 JUMP JUMPDEST PUSH1 0x0 DUP2 GT PUSH2 0xB3F JUMPI PUSH1 0x40 MLOAD PUSH3 0x461BCD PUSH1 0xE5 SHL DUP2 MSTORE PUSH1 0x20 PUSH1 0x4 DUP3 ADD MSTORE PUSH1 0x23 PUSH1 0x24 DUP3 ADD MSTORE PUSH32 0x5468652062616C616E6365206D75737420626520677265617468657220746861 PUSH1 0x44 DUP3 ADD MSTORE PUSH3 0x6E203 PUSH1 0xEC SHL PUSH1 0x64 DUP3 ADD MSTORE PUSH1 0x84 ADD PUSH2 0x763 JUMP JUMPDEST PUSH1 0x40 MLOAD PUSH4 0xA9059CBB PUSH1 0xE0 SHL DUP2 MSTORE CALLER PUSH1 0x4 DUP3 ADD MSTORE PUSH1 0x24 DUP2 ADD DUP3 SWAP1 MSTORE PUSH1 0x1 PUSH1 0x1 PUSH1 0xA0 SHL SUB DUP4 AND SWAP1 PUSH4 0xA9059CBB SWAP1 PUSH1 0x44 ADD PUSH1 0x20 PUSH1 0x40 MLOAD DUP1 DUP4 SUB DUP2 PUSH1 0x0 DUP8 GAS CALL ISZERO DUP1 ISZERO PUSH2 0xB8C JUMPI RETURNDATASIZE PUSH1 0x0 DUP1 RETURNDATACOPY RETURNDATASIZE PUSH1 0x0 REVERT JUMPDEST POP POP POP POP PUSH1 0x40 MLOAD RETURNDATASIZE PUSH1 0x1F NOT PUSH1 0x1F DUP3 ADD AND DUP3 ADD DUP1 PUSH1 0x40 MSTORE POP DUP2 ADD SWAP1 PUSH2 0xBB0 SWAP2 SWAP1 PUSH2 0x3F3E JUMP JUMPDEST PUSH2 0xBFC JUMPI PUSH1 0x40 MLOAD PUSH3 0x461BCD PUSH1 0xE5 SHL DUP2 MSTORE PUSH1 0x20 PUSH1 0x4 DUP3 ADD MSTORE PUSH1 0x1D PUSH1 0x24 DUP3 ADD MSTORE PUSH32 0x4572726F72207768696C65207472616E73666572696E672066756E6473000000 PUSH1 0x44 DUP3 ADD MSTORE PUSH1 0x64 ADD PUSH2 0x763 JUMP JUMPDEST POP POP JUMP JUMPDEST PUSH2 0xC08 PUSH2 0x32E7 JUMP JUMPDEST PUSH2 0xC11 DUP3 PUSH2 0x338C JUMP JUMPDEST PUSH2 0xBFC DUP3 DUP3 PUSH2 0x3394 JUMP JUMPDEST PUSH1 0x0 PUSH2 0xC25 PUSH2 0x3451 JUMP JUMPDEST POP PUSH1 0x0 DUP1 MLOAD PUSH1 0x20 PUSH2 0x4271 DUP4 CODECOPY DUP2 MLOAD SWAP2 MSTORE SWAP1 JUMP JUMPDEST PUSH2 0xC40 PUSH2 0x349A JUMP JUMPDEST PUSH2 0xC4C PUSH1 0x1 SLOAD CALLER PUSH2 0x17E4 JUMP JUMPDEST PUSH2 0xC68 JUMPI PUSH1 0x40 MLOAD PUSH3 0x461BCD PUSH1 0xE5 SHL DUP2 MSTORE PUSH1 0x4 ADD PUSH2 0x763 SWAP1 PUSH2 0x3EF5 JUMP JUMPDEST PUSH1 0x0 PUSH1 0x3 SLOAD DUP3 PUSH2 0xC78 SWAP2 SWAP1 PUSH2 0x3E4B JUMP JUMPDEST PUSH1 0x1 PUSH1 0x1 PUSH1 0xA0 SHL SUB DUP5 AND PUSH1 0x0 SWAP1 DUP2 MSTORE PUSH1 0x5 PUSH1 0x20 MSTORE PUSH1 0x40 SWAP1 KECCAK256 SLOAD SWAP1 SWAP2 POP DUP2 GT ISZERO PUSH2 0xCD6 JUMPI PUSH1 0x40 MLOAD PUSH3 0x461BCD PUSH1 0xE5 SHL DUP2 MSTORE PUSH1 0x20 PUSH1 0x4 DUP3 ADD MSTORE PUSH1 0x10 PUSH1 0x24 DUP3 ADD MSTORE PUSH16 0x496E7375666963656E742071756F7461 PUSH1 0x80 SHL PUSH1 0x44 DUP3 ADD MSTORE PUSH1 0x64 ADD PUSH2 0x763 JUMP JUMPDEST PUSH1 0x1 PUSH1 0x1 PUSH1 0xA0 SHL SUB DUP4 AND PUSH1 0x0 SWAP1 DUP2 MSTORE PUSH1 0x5 PUSH1 0x20 MSTORE PUSH1 0x40 DUP2 KECCAK256 DUP1 SLOAD DUP4 SWAP3 SWAP1 PUSH2 0xCFE SWAP1 DUP5 SWAP1 PUSH2 0x3EB8 JUMP JUMPDEST SWAP1 SWAP2 SSTORE POP POP PUSH1 0x1 PUSH1 0x1 PUSH1 0xA0 SHL SUB DUP4 AND PUSH1 0x0 DUP2 DUP2 MSTORE PUSH1 0x5 PUSH1 0x20 MSTORE PUSH1 0x40 SWAP1 DUP2 SWAP1 KECCAK256 SLOAD SWAP1 MLOAD CALLER SWAP2 PUSH32 0x986757B5F72E5258DE572C036A9155B7F6FCE0DF14FFD1FA633617F668137A39 SWAP2 PUSH2 0xD50 SWAP2 DUP2 MSTORE PUSH1 0x20 ADD SWAP1 JUMP JUMPDEST PUSH1 0x40 MLOAD DUP1 SWAP2 SUB SWAP1 LOG3 POP POP POP JUMP JUMPDEST PUSH2 0xD65 PUSH2 0x349A JUMP JUMPDEST CALLER PUSH1 0x0 SWAP1 DUP2 MSTORE PUSH1 0x5 PUSH1 0x20 MSTORE PUSH1 0x40 DUP2 KECCAK256 PUSH1 0x3 SLOAD SWAP1 SWAP2 SWAP1 PUSH2 0xD84 SWAP1 DUP7 PUSH2 0x3E4B JUMP JUMPDEST SWAP1 POP DUP1 DUP3 PUSH1 0x0 ADD SLOAD LT ISZERO PUSH2 0xDF3 JUMPI PUSH1 0x40 MLOAD PUSH3 0x461BCD PUSH1 0xE5 SHL DUP2 MSTORE PUSH1 0x20 PUSH1 0x4 DUP3 ADD MSTORE PUSH1 0x30 PUSH1 0x24 DUP3 ADD MSTORE PUSH32 0x546865207573657220686173206C6573732071756F7461207468616E20746865 PUSH1 0x44 DUP3 ADD MSTORE PUSH16 0x81C995C5D5A5C995908185B5BDD5B9D PUSH1 0x82 SHL PUSH1 0x64 DUP3 ADD MSTORE PUSH1 0x84 ADD PUSH2 0x763 JUMP JUMPDEST PUSH1 0x0 DUP5 PUSH1 0x1 PUSH1 0x1 PUSH1 0xA0 SHL SUB AND PUSH4 0x313CE567 PUSH1 0x40 MLOAD DUP2 PUSH4 0xFFFFFFFF AND PUSH1 0xE0 SHL DUP2 MSTORE PUSH1 0x4 ADD PUSH1 0x20 PUSH1 0x40 MLOAD DUP1 DUP4 SUB DUP2 DUP7 GAS STATICCALL ISZERO DUP1 ISZERO PUSH2 0xE33 JUMPI RETURNDATASIZE PUSH1 0x0 DUP1 RETURNDATACOPY RETURNDATASIZE PUSH1 0x0 REVERT JUMPDEST POP POP POP POP PUSH1 0x40 MLOAD RETURNDATASIZE PUSH1 0x1F NOT PUSH1 0x1F DUP3 ADD AND DUP3 ADD DUP1 PUSH1 0x40 MSTORE POP DUP2 ADD SWAP1 PUSH2 0xE57 SWAP2 SWAP1 PUSH2 0x3E12 JUMP JUMPDEST SWAP1 POP PUSH1 0x0 DUP2 PUSH1 0xFF AND GT PUSH2 0xE7C JUMPI PUSH1 0x40 MLOAD PUSH3 0x461BCD PUSH1 0xE5 SHL DUP2 MSTORE PUSH1 0x4 ADD PUSH2 0x763 SWAP1 PUSH2 0x3F60 JUMP JUMPDEST PUSH1 0x40 MLOAD PUSH4 0x70A08231 PUSH1 0xE0 SHL DUP2 MSTORE ADDRESS PUSH1 0x4 DUP3 ADD MSTORE PUSH1 0x0 SWAP1 PUSH1 0x1 PUSH1 0x1 PUSH1 0xA0 SHL SUB DUP8 AND SWAP1 PUSH4 0x70A08231 SWAP1 PUSH1 0x24 ADD PUSH1 0x20 PUSH1 0x40 MLOAD DUP1 DUP4 SUB DUP2 DUP7 GAS STATICCALL ISZERO DUP1 ISZERO PUSH2 0xEC3 JUMPI RETURNDATASIZE PUSH1 0x0 DUP1 RETURNDATACOPY RETURNDATASIZE PUSH1 0x0 REVERT JUMPDEST POP POP POP POP PUSH1 0x40 MLOAD RETURNDATASIZE PUSH1 0x1F NOT PUSH1 0x1F DUP3 ADD AND DUP3 ADD DUP1 PUSH1 0x40 MSTORE POP DUP2 ADD SWAP1 PUSH2 0xEE7 SWAP2 SWAP1 PUSH2 0x3F25 JUMP JUMPDEST SWAP1 POP PUSH2 0xEF4 DUP3 PUSH1 0xA PUSH2 0x407B JUMP JUMPDEST PUSH2 0xEFE SWAP1 DUP9 PUSH2 0x3E4B JUMP JUMPDEST DUP2 LT ISZERO PUSH2 0xF44 JUMPI PUSH1 0x40 MLOAD PUSH3 0x461BCD PUSH1 0xE5 SHL DUP2 MSTORE PUSH1 0x20 PUSH1 0x4 DUP3 ADD MSTORE PUSH1 0x14 PUSH1 0x24 DUP3 ADD MSTORE PUSH20 0x496E7375666963656E74206C6971756964697479 PUSH1 0x60 SHL PUSH1 0x44 DUP3 ADD MSTORE PUSH1 0x64 ADD PUSH2 0x763 JUMP JUMPDEST PUSH1 0x0 PUSH2 0xF4E PUSH2 0x34DD JUMP JUMPDEST PUSH1 0x40 DUP1 MLOAD PUSH1 0xC0 DUP2 ADD DUP3 MSTORE DUP7 DUP2 MSTORE PUSH1 0x20 DUP1 DUP3 ADD DUP9 DUP2 MSTORE PUSH1 0x1 PUSH1 0x1 PUSH1 0xA0 SHL SUB DUP13 DUP2 AND SWAP5 DUP5 ADD SWAP5 DUP6 MSTORE PUSH1 0x60 DUP5 ADD DUP13 DUP2 MSTORE TIMESTAMP PUSH1 0x80 DUP7 ADD SWAP1 DUP2 MSTORE PUSH1 0xA0 DUP7 ADD DUP9 DUP2 MSTORE PUSH1 0x1 DUP15 DUP2 ADD DUP1 SLOAD DUP1 DUP4 ADD DUP3 SSTORE PUSH1 0x0 SWAP2 DUP3 MSTORE SWAP8 DUP2 KECCAK256 SWAP9 MLOAD PUSH1 0x6 SWAP1 SWAP9 MUL SWAP1 SWAP9 ADD SWAP7 DUP8 SSTORE SWAP5 MLOAD SWAP5 DUP7 ADD SWAP5 SWAP1 SWAP5 SSTORE SWAP6 MLOAD PUSH1 0x2 DUP6 ADD DUP1 SLOAD PUSH1 0x1 PUSH1 0x1 PUSH1 0xA0 SHL SUB NOT AND SWAP2 SWAP1 SWAP4 AND OR SWAP1 SWAP2 SSTORE MLOAD PUSH1 0x3 DUP4 ADD SSTORE SWAP3 MLOAD PUSH1 0x4 DUP3 ADD SSTORE SWAP2 MLOAD PUSH1 0x5 SWAP1 SWAP3 ADD SWAP2 SWAP1 SWAP2 SSTORE DUP7 SLOAD SWAP2 SWAP3 POP DUP6 SWAP2 DUP8 SWAP2 SWAP1 PUSH2 0xFFB SWAP1 DUP5 SWAP1 PUSH2 0x3EB8 JUMP JUMPDEST SWAP1 SWAP2 SSTORE POP POP PUSH1 0x1 PUSH1 0x1 PUSH1 0xA0 SHL SUB DUP8 AND PUSH4 0xA9059CBB CALLER PUSH2 0x101B DUP7 PUSH1 0xA PUSH2 0x407B JUMP JUMPDEST PUSH2 0x1025 SWAP1 DUP13 PUSH2 0x3E4B JUMP JUMPDEST PUSH1 0x40 MLOAD PUSH1 0x1 PUSH1 0x1 PUSH1 0xE0 SHL SUB NOT PUSH1 0xE0 DUP6 SWAP1 SHL AND DUP2 MSTORE PUSH1 0x1 PUSH1 0x1 PUSH1 0xA0 SHL SUB SWAP1 SWAP3 AND PUSH1 0x4 DUP4 ADD MSTORE PUSH1 0x24 DUP3 ADD MSTORE PUSH1 0x44 ADD PUSH1 0x20 PUSH1 0x40 MLOAD DUP1 DUP4 SUB DUP2 PUSH1 0x0 DUP8 GAS CALL ISZERO DUP1 ISZERO PUSH2 0x1070 JUMPI RETURNDATASIZE PUSH1 0x0 DUP1 RETURNDATACOPY RETURNDATASIZE PUSH1 0x0 REVERT JUMPDEST POP POP POP POP PUSH1 0x40 MLOAD RETURNDATASIZE PUSH1 0x1F NOT PUSH1 0x1F DUP3 ADD AND DUP3 ADD DUP1 PUSH1 0x40 MSTORE POP DUP2 ADD SWAP1 PUSH2 0x1094 SWAP2 SWAP1 PUSH2 0x3F3E JUMP JUMPDEST PUSH2 0x10E0 JUMPI PUSH1 0x40 MLOAD PUSH3 0x461BCD PUSH1 0xE5 SHL DUP2 MSTORE PUSH1 0x20 PUSH1 0x4 DUP3 ADD MSTORE PUSH1 0x1E PUSH1 0x24 DUP3 ADD MSTORE PUSH32 0x4572726F72207768696C65207472616E73666572696E67206173736574730000 PUSH1 0x44 DUP3 ADD MSTORE PUSH1 0x64 ADD PUSH2 0x763 JUMP JUMPDEST PUSH1 0x40 DUP1 MLOAD DUP6 DUP2 MSTORE PUSH1 0xFF DUP6 AND PUSH1 0x20 DUP3 ADD MSTORE SWAP1 DUP2 ADD DUP8 SWAP1 MSTORE PUSH1 0x60 DUP2 ADD DUP3 SWAP1 MSTORE PUSH1 0x1 PUSH1 0x1 PUSH1 0xA0 SHL SUB DUP9 AND SWAP1 CALLER SWAP1 PUSH32 0x473896B256EEDAA907360E7BB0DFD12EBCAD749E88D45AA79325BF4AAD4AFBFC SWAP1 PUSH1 0x80 ADD PUSH1 0x40 MLOAD DUP1 SWAP2 SUB SWAP1 LOG3 POP POP POP POP POP POP POP POP JUMP JUMPDEST PUSH2 0x1149 PUSH2 0x353D JUMP JUMPDEST PUSH2 0x1153 PUSH1 0x0 PUSH2 0x3598 JUMP JUMPDEST JUMP JUMPDEST PUSH2 0x115D PUSH2 0x349A JUMP JUMPDEST PUSH2 0x1165 PUSH2 0x353D JUMP JUMPDEST PUSH1 0x0 PUSH1 0x3 SLOAD DUP5 PUSH2 0x1175 SWAP2 SWAP1 PUSH2 0x3E4B JUMP JUMPDEST SWAP1 POP PUSH1 0x0 DUP3 PUSH8 0xFFFFFFFFFFFFFFFF DUP2 GT ISZERO PUSH2 0x1192 JUMPI PUSH2 0x1192 PUSH2 0x3998 JUMP JUMPDEST PUSH1 0x40 MLOAD SWAP1 DUP1 DUP3 MSTORE DUP1 PUSH1 0x20 MUL PUSH1 0x20 ADD DUP3 ADD PUSH1 0x40 MSTORE DUP1 ISZERO PUSH2 0x11BB JUMPI DUP2 PUSH1 0x20 ADD PUSH1 0x20 DUP3 MUL DUP1 CALLDATASIZE DUP4 CALLDATACOPY ADD SWAP1 POP JUMPDEST POP SWAP1 POP PUSH1 0x3 DUP4 LT ISZERO PUSH2 0x120F JUMPI PUSH1 0x40 MLOAD PUSH3 0x461BCD PUSH1 0xE5 SHL DUP2 MSTORE PUSH1 0x20 PUSH1 0x4 DUP3 ADD MSTORE PUSH1 0x19 PUSH1 0x24 DUP3 ADD MSTORE PUSH32 0x5369676E657273206D757374206265206174206C656174203300000000000000 PUSH1 0x44 DUP3 ADD MSTORE PUSH1 0x64 ADD PUSH2 0x763 JUMP JUMPDEST PUSH1 0xA DUP4 GT ISZERO PUSH2 0x1260 JUMPI PUSH1 0x40 MLOAD PUSH3 0x461BCD PUSH1 0xE5 SHL DUP2 MSTORE PUSH1 0x20 PUSH1 0x4 DUP3 ADD MSTORE PUSH1 0x1D PUSH1 0x24 DUP3 ADD MSTORE PUSH32 0x5369676E657273206D757374206265206C65617374207468616E203130000000 PUSH1 0x44 DUP3 ADD MSTORE PUSH1 0x64 ADD PUSH2 0x763 JUMP JUMPDEST PUSH1 0x0 DUP6 GT PUSH2 0x12B0 JUMPI PUSH1 0x40 MLOAD PUSH3 0x461BCD PUSH1 0xE5 SHL DUP2 MSTORE PUSH1 0x20 PUSH1 0x4 DUP3 ADD MSTORE PUSH1 0x1E PUSH1 0x24 DUP3 ADD MSTORE PUSH32 0x416D6F756E74206D757374206265206772656174686572207468616E20300000 PUSH1 0x44 DUP3 ADD MSTORE PUSH1 0x64 ADD PUSH2 0x763 JUMP JUMPDEST PUSH1 0x1 PUSH1 0x1 PUSH1 0xA0 SHL SUB DUP7 AND PUSH1 0x0 SWAP1 DUP2 MSTORE PUSH1 0x5 PUSH1 0x20 SWAP1 DUP2 MSTORE PUSH1 0x40 DUP1 DUP4 KECCAK256 DUP2 MLOAD PUSH1 0x80 DUP2 ADD DUP4 MSTORE DUP7 DUP2 MSTORE DUP1 DUP5 ADD DUP6 DUP2 MSTORE DUP4 MLOAD DUP7 DUP2 MSTORE DUP1 DUP7 ADD DUP6 MSTORE DUP3 DUP6 ADD SWAP1 DUP2 MSTORE DUP5 MLOAD DUP8 DUP2 MSTORE DUP1 DUP8 ADD SWAP1 SWAP6 MSTORE PUSH1 0x60 DUP4 ADD SWAP5 SWAP1 SWAP5 MSTORE PUSH1 0x2 SWAP3 DUP4 ADD DUP1 SLOAD PUSH1 0x1 DUP1 DUP3 ADD DUP4 SSTORE SWAP2 DUP9 MSTORE SWAP7 DUP7 SWAP1 KECCAK256 DUP4 MLOAD PUSH1 0x4 SWAP1 SWAP9 MUL ADD SWAP7 DUP8 SSTORE SWAP1 MLOAD SWAP1 DUP7 ADD DUP1 SLOAD PUSH1 0xFF NOT AND PUSH1 0xFF SWAP1 SWAP3 AND SWAP2 SWAP1 SWAP2 OR SWAP1 SSTORE SWAP2 MLOAD DUP1 MLOAD SWAP3 SWAP5 SWAP4 PUSH2 0x134C SWAP4 SWAP3 DUP6 ADD SWAP3 SWAP2 ADD SWAP1 PUSH2 0x3878 JUMP JUMPDEST POP PUSH1 0x60 DUP3 ADD MLOAD DUP1 MLOAD PUSH2 0x1368 SWAP2 PUSH1 0x3 DUP5 ADD SWAP2 PUSH1 0x20 SWAP1 SWAP2 ADD SWAP1 PUSH2 0x3878 JUMP JUMPDEST POP POP POP PUSH1 0x0 DUP1 JUMPDEST PUSH1 0xFF DUP2 AND DUP6 GT ISZERO PUSH2 0x1509 JUMPI PUSH1 0x0 DUP7 DUP7 DUP4 PUSH1 0xFF AND DUP2 DUP2 LT PUSH2 0x1391 JUMPI PUSH2 0x1391 PUSH2 0x408A JUMP JUMPDEST SWAP1 POP PUSH1 0x20 MUL ADD PUSH1 0x20 DUP2 ADD SWAP1 PUSH2 0x13A6 SWAP2 SWAP1 PUSH2 0x397D JUMP JUMPDEST SWAP1 POP PUSH1 0x0 JUMPDEST DUP4 DUP2 PUSH1 0xFF AND LT ISZERO PUSH2 0x1443 JUMPI DUP5 DUP2 PUSH1 0xFF AND DUP2 MLOAD DUP2 LT PUSH2 0x13CB JUMPI PUSH2 0x13CB PUSH2 0x408A JUMP JUMPDEST PUSH1 0x20 MUL PUSH1 0x20 ADD ADD MLOAD PUSH1 0x1 PUSH1 0x1 PUSH1 0xA0 SHL SUB AND DUP3 PUSH1 0x1 PUSH1 0x1 PUSH1 0xA0 SHL SUB AND SUB PUSH2 0x1433 JUMPI PUSH1 0x40 MLOAD PUSH3 0x461BCD PUSH1 0xE5 SHL DUP2 MSTORE PUSH1 0x20 PUSH1 0x4 DUP3 ADD MSTORE PUSH1 0x19 PUSH1 0x24 DUP3 ADD MSTORE PUSH32 0x4475706C6963617465207369676E657220646574656374656400000000000000 PUSH1 0x44 DUP3 ADD MSTORE PUSH1 0x64 ADD PUSH2 0x763 JUMP JUMPDEST PUSH2 0x143C DUP2 PUSH2 0x40A0 JUMP JUMPDEST SWAP1 POP PUSH2 0x13AB JUMP JUMPDEST POP DUP1 DUP5 DUP5 DUP2 MLOAD DUP2 LT PUSH2 0x1457 JUMPI PUSH2 0x1457 PUSH2 0x408A JUMP JUMPDEST PUSH1 0x1 PUSH1 0x1 PUSH1 0xA0 SHL SUB SWAP1 SWAP3 AND PUSH1 0x20 SWAP3 DUP4 MUL SWAP2 SWAP1 SWAP2 ADD SWAP1 SWAP2 ADD MSTORE DUP3 PUSH2 0x1479 DUP2 PUSH2 0x40BF JUMP JUMPDEST PUSH1 0x1 PUSH1 0x1 PUSH1 0xA0 SHL SUB DUP12 AND PUSH1 0x0 SWAP1 DUP2 MSTORE PUSH1 0x5 PUSH1 0x20 MSTORE PUSH1 0x40 SWAP1 KECCAK256 PUSH1 0x2 ADD DUP1 SLOAD SWAP2 SWAP6 POP SWAP2 POP PUSH2 0x14A7 SWAP1 PUSH1 0x1 SWAP1 PUSH2 0x3EB8 JUMP JUMPDEST DUP2 SLOAD DUP2 LT PUSH2 0x14B7 JUMPI PUSH2 0x14B7 PUSH2 0x408A JUMP JUMPDEST PUSH1 0x0 SWAP2 DUP3 MSTORE PUSH1 0x20 DUP1 DUP4 KECCAK256 PUSH1 0x4 SWAP3 SWAP1 SWAP3 MUL SWAP1 SWAP2 ADD PUSH1 0x2 ADD DUP1 SLOAD PUSH1 0x1 DUP2 ADD DUP3 SSTORE SWAP1 DUP4 MSTORE SWAP2 KECCAK256 ADD DUP1 SLOAD PUSH1 0x1 PUSH1 0x1 PUSH1 0xA0 SHL SUB NOT AND PUSH1 0x1 PUSH1 0x1 PUSH1 0xA0 SHL SUB SWAP3 SWAP1 SWAP3 AND SWAP2 SWAP1 SWAP2 OR SWAP1 SSTORE PUSH2 0x1502 DUP2 PUSH2 0x40A0 JUMP JUMPDEST SWAP1 POP PUSH2 0x136F JUMP JUMPDEST POP PUSH1 0x1 PUSH1 0x1 PUSH1 0xA0 SHL SUB DUP8 AND PUSH1 0x0 DUP2 DUP2 MSTORE PUSH1 0x5 PUSH1 0x20 MSTORE PUSH1 0x40 SWAP1 KECCAK256 PUSH1 0x2 ADD SLOAD PUSH2 0x1532 SWAP1 PUSH1 0x1 SWAP1 PUSH2 0x3EB8 JUMP JUMPDEST PUSH2 0xFFFF AND CALLER PUSH1 0x1 PUSH1 0x1 PUSH1 0xA0 SHL SUB AND PUSH32 0xB64377EC6609831EAA829C32823DF50AD3DB86E1636B0923EE03FA1A685EFF6 DUP10 DUP10 DUP10 PUSH1 0x40 MLOAD PUSH2 0x1573 SWAP4 SWAP3 SWAP2 SWAP1 PUSH2 0x40D8 JUMP JUMPDEST PUSH1 0x40 MLOAD DUP1 SWAP2 SUB SWAP1 LOG4 POP POP POP POP POP POP POP JUMP JUMPDEST PUSH1 0x1 PUSH1 0x1 PUSH1 0xA0 SHL SUB DUP4 AND PUSH1 0x0 SWAP1 DUP2 MSTORE PUSH1 0x5 PUSH1 0x20 MSTORE PUSH1 0x40 DUP2 KECCAK256 PUSH1 0x1 DUP2 ADD SLOAD PUSH1 0x60 SWAP3 PUSH2 0x15AE DUP6 DUP4 PUSH2 0x3EE1 JUMP JUMPDEST SWAP1 POP PUSH1 0x0 PUSH2 0x15BC DUP7 DUP5 PUSH2 0x412E JUMP JUMPDEST GT ISZERO PUSH2 0x15D0 JUMPI PUSH2 0x15CD PUSH1 0x1 DUP3 PUSH2 0x4142 JUMP JUMPDEST SWAP1 POP JUMPDEST DUP1 DUP7 GT ISZERO PUSH2 0x160F JUMPI PUSH1 0x40 MLOAD PUSH3 0x461BCD PUSH1 0xE5 SHL DUP2 MSTORE PUSH1 0x20 PUSH1 0x4 DUP3 ADD MSTORE PUSH1 0xC PUSH1 0x24 DUP3 ADD MSTORE PUSH12 0x496E76616C69642070616765 PUSH1 0xA0 SHL PUSH1 0x44 DUP3 ADD MSTORE PUSH1 0x64 ADD PUSH2 0x763 JUMP JUMPDEST PUSH1 0x0 DUP6 GT PUSH2 0x1653 JUMPI PUSH1 0x40 MLOAD PUSH3 0x461BCD PUSH1 0xE5 SHL DUP2 MSTORE PUSH1 0x20 PUSH1 0x4 DUP3 ADD MSTORE PUSH1 0x11 PUSH1 0x24 DUP3 ADD MSTORE PUSH17 0x496E76616C696420706167652073697A65 PUSH1 0x78 SHL PUSH1 0x44 DUP3 ADD MSTORE PUSH1 0x64 ADD PUSH2 0x763 JUMP JUMPDEST PUSH1 0x0 DUP6 PUSH2 0x1661 PUSH1 0x1 DUP10 PUSH2 0x3EB8 JUMP JUMPDEST PUSH2 0x166B SWAP2 SWAP1 PUSH2 0x3E4B JUMP JUMPDEST SWAP1 POP PUSH1 0x0 PUSH2 0x1679 DUP8 DUP4 PUSH2 0x4142 JUMP JUMPDEST SWAP1 POP DUP4 DUP2 GT ISZERO PUSH2 0x1686 JUMPI POP DUP3 JUMPDEST PUSH1 0x0 PUSH2 0x1692 DUP4 DUP4 PUSH2 0x3EB8 JUMP JUMPDEST PUSH8 0xFFFFFFFFFFFFFFFF DUP2 GT ISZERO PUSH2 0x16AA JUMPI PUSH2 0x16AA PUSH2 0x3998 JUMP JUMPDEST PUSH1 0x40 MLOAD SWAP1 DUP1 DUP3 MSTORE DUP1 PUSH1 0x20 MUL PUSH1 0x20 ADD DUP3 ADD PUSH1 0x40 MSTORE DUP1 ISZERO PUSH2 0x171D JUMPI DUP2 PUSH1 0x20 ADD JUMPDEST PUSH2 0x170A PUSH1 0x40 MLOAD DUP1 PUSH1 0xC0 ADD PUSH1 0x40 MSTORE DUP1 PUSH1 0x0 DUP2 MSTORE PUSH1 0x20 ADD PUSH1 0x0 DUP2 MSTORE PUSH1 0x20 ADD PUSH1 0x0 PUSH1 0x1 PUSH1 0x1 PUSH1 0xA0 SHL SUB AND DUP2 MSTORE PUSH1 0x20 ADD PUSH1 0x0 DUP2 MSTORE PUSH1 0x20 ADD PUSH1 0x0 DUP2 MSTORE PUSH1 0x20 ADD PUSH1 0x0 DUP2 MSTORE POP SWAP1 JUMP JUMPDEST DUP2 MSTORE PUSH1 0x20 ADD SWAP1 PUSH1 0x1 SWAP1 SUB SWAP1 DUP2 PUSH2 0x16C8 JUMPI SWAP1 POP JUMPDEST POP SWAP1 POP DUP3 JUMPDEST DUP3 DUP2 LT ISZERO PUSH2 0x17D4 JUMPI DUP7 PUSH1 0x1 ADD DUP2 DUP2 SLOAD DUP2 LT PUSH2 0x173F JUMPI PUSH2 0x173F PUSH2 0x408A JUMP JUMPDEST PUSH1 0x0 SWAP2 DUP3 MSTORE PUSH1 0x20 SWAP2 DUP3 SWAP1 KECCAK256 PUSH1 0x40 DUP1 MLOAD PUSH1 0xC0 DUP2 ADD DUP3 MSTORE PUSH1 0x6 SWAP1 SWAP4 MUL SWAP1 SWAP2 ADD DUP1 SLOAD DUP4 MSTORE PUSH1 0x1 DUP2 ADD SLOAD SWAP4 DUP4 ADD SWAP4 SWAP1 SWAP4 MSTORE PUSH1 0x2 DUP4 ADD SLOAD PUSH1 0x1 PUSH1 0x1 PUSH1 0xA0 SHL SUB AND SWAP1 DUP3 ADD MSTORE PUSH1 0x3 DUP3 ADD SLOAD PUSH1 0x60 DUP3 ADD MSTORE PUSH1 0x4 DUP3 ADD SLOAD PUSH1 0x80 DUP3 ADD MSTORE PUSH1 0x5 SWAP1 SWAP2 ADD SLOAD PUSH1 0xA0 DUP3 ADD MSTORE DUP3 PUSH2 0x17A8 DUP7 DUP5 PUSH2 0x3EB8 JUMP JUMPDEST DUP2 MLOAD DUP2 LT PUSH2 0x17B8 JUMPI PUSH2 0x17B8 PUSH2 0x408A JUMP JUMPDEST PUSH1 0x20 MUL PUSH1 0x20 ADD ADD DUP2 SWAP1 MSTORE POP DUP1 PUSH2 0x17CD SWAP1 PUSH2 0x40BF JUMP JUMPDEST SWAP1 POP PUSH2 0x1722 JUMP JUMPDEST POP SWAP6 POP POP POP POP POP POP JUMPDEST SWAP4 SWAP3 POP POP POP JUMP JUMPDEST PUSH1 0x0 SWAP2 DUP3 MSTORE PUSH1 0x0 DUP1 MLOAD PUSH1 0x20 PUSH2 0x4291 DUP4 CODECOPY DUP2 MLOAD SWAP2 MSTORE PUSH1 0x20 SWAP1 DUP2 MSTORE PUSH1 0x40 DUP1 DUP5 KECCAK256 PUSH1 0x1 PUSH1 0x1 PUSH1 0xA0 SHL SUB SWAP4 SWAP1 SWAP4 AND DUP5 MSTORE SWAP2 SWAP1 MSTORE SWAP1 KECCAK256 SLOAD PUSH1 0xFF AND SWAP1 JUMP JUMPDEST PUSH1 0x0 DUP2 PUSH1 0x1 PUSH1 0x1 PUSH1 0xA0 SHL SUB AND PUSH4 0x313CE567 PUSH1 0x40 MLOAD DUP2 PUSH4 0xFFFFFFFF AND PUSH1 0xE0 SHL DUP2 MSTORE PUSH1 0x4 ADD PUSH1 0x20 PUSH1 0x40 MLOAD DUP1 DUP4 SUB DUP2 DUP7 GAS STATICCALL ISZERO DUP1 ISZERO PUSH2 0x185C JUMPI RETURNDATASIZE PUSH1 0x0 DUP1 RETURNDATACOPY RETURNDATASIZE PUSH1 0x0 REVERT JUMPDEST POP POP POP POP PUSH1 0x40 MLOAD RETURNDATASIZE PUSH1 0x1F NOT PUSH1 0x1F DUP3 ADD AND DUP3 ADD DUP1 PUSH1 0x40 MSTORE POP DUP2 ADD SWAP1 PUSH2 0x1880 SWAP2 SWAP1 PUSH2 0x3E12 JUMP JUMPDEST SWAP1 POP PUSH1 0x0 PUSH1 0x3 SLOAD DUP5 PUSH2 0x1892 SWAP2 SWAP1 PUSH2 0x3E4B JUMP JUMPDEST CALLER PUSH1 0x0 SWAP1 DUP2 MSTORE PUSH1 0x5 PUSH1 0x20 DUP2 SWAP1 MSTORE PUSH1 0x40 DUP3 KECCAK256 SWAP1 DUP2 ADD SLOAD SWAP3 SWAP4 POP SWAP2 SWAP1 PUSH2 0x18B6 DUP3 TIMESTAMP PUSH2 0x2D98 JUMP JUMPDEST SWAP1 POP PUSH1 0xB4 DUP2 LT ISZERO PUSH2 0x18D9 JUMPI PUSH1 0x40 MLOAD PUSH3 0x461BCD PUSH1 0xE5 SHL DUP2 MSTORE PUSH1 0x4 ADD PUSH2 0x763 SWAP1 PUSH2 0x3E62 JUMP JUMPDEST DUP4 DUP4 PUSH1 0x3 ADD SLOAD LT ISZERO PUSH2 0x1920 JUMPI PUSH1 0x40 MLOAD PUSH3 0x461BCD PUSH1 0xE5 SHL DUP2 MSTORE PUSH1 0x20 PUSH1 0x4 DUP3 ADD MSTORE PUSH1 0x10 PUSH1 0x24 DUP3 ADD MSTORE PUSH16 0x496E7375666963656E742066756E6473 PUSH1 0x80 SHL PUSH1 0x44 DUP3 ADD MSTORE PUSH1 0x64 ADD PUSH2 0x763 JUMP JUMPDEST CALLER PUSH1 0x0 SWAP1 DUP2 MSTORE PUSH1 0x6 PUSH1 0x20 SWAP1 DUP2 MSTORE PUSH1 0x40 DUP1 DUP4 KECCAK256 PUSH1 0x1 PUSH1 0x1 PUSH1 0xA0 SHL SUB DUP11 AND DUP5 MSTORE SWAP1 SWAP2 MSTORE SWAP1 KECCAK256 SLOAD DUP5 GT ISZERO PUSH2 0x1993 JUMPI PUSH1 0x40 MLOAD PUSH3 0x461BCD PUSH1 0xE5 SHL DUP2 MSTORE PUSH1 0x20 PUSH1 0x4 DUP3 ADD MSTORE PUSH1 0x1A PUSH1 0x24 DUP3 ADD MSTORE PUSH32 0x496E73756666696369656E7420746F6B656E2062616C616E6365000000000000 PUSH1 0x44 DUP3 ADD MSTORE PUSH1 0x64 ADD PUSH2 0x763 JUMP JUMPDEST CALLER PUSH1 0x0 SWAP1 DUP2 MSTORE PUSH1 0x6 PUSH1 0x20 SWAP1 DUP2 MSTORE PUSH1 0x40 DUP1 DUP4 KECCAK256 PUSH1 0x1 PUSH1 0x1 PUSH1 0xA0 SHL SUB DUP11 AND DUP5 MSTORE SWAP1 SWAP2 MSTORE DUP2 KECCAK256 DUP1 SLOAD DUP7 SWAP3 SWAP1 PUSH2 0x19C6 SWAP1 DUP5 SWAP1 PUSH2 0x3EB8 JUMP JUMPDEST SWAP1 SWAP2 SSTORE POP PUSH2 0x19D9 SWAP1 POP DUP8 PUSH1 0x0 DUP9 DUP9 PUSH2 0x2E2E JUMP JUMPDEST POP POP POP POP POP POP POP JUMP JUMPDEST PUSH32 0xF0C57E16840DF040F15088DC2F81FE391C3923BEC73E23A9662EFC9C229C6A00 DUP1 SLOAD PUSH1 0x1 PUSH1 0x40 SHL DUP2 DIV PUSH1 0xFF AND ISZERO SWAP1 PUSH8 0xFFFFFFFFFFFFFFFF AND PUSH1 0x0 DUP2 ISZERO DUP1 ISZERO PUSH2 0x1A28 JUMPI POP DUP3 JUMPDEST SWAP1 POP PUSH1 0x0 DUP3 PUSH8 0xFFFFFFFFFFFFFFFF AND PUSH1 0x1 EQ DUP1 ISZERO PUSH2 0x1A45 JUMPI POP ADDRESS EXTCODESIZE ISZERO JUMPDEST SWAP1 POP DUP2 ISZERO DUP1 ISZERO PUSH2 0x1A53 JUMPI POP DUP1 ISZERO JUMPDEST ISZERO PUSH2 0x1A71 JUMPI PUSH1 0x40 MLOAD PUSH4 0xF92EE8A9 PUSH1 0xE0 SHL DUP2 MSTORE PUSH1 0x4 ADD PUSH1 0x40 MLOAD DUP1 SWAP2 SUB SWAP1 REVERT JUMPDEST DUP5 SLOAD PUSH8 0xFFFFFFFFFFFFFFFF NOT AND PUSH1 0x1 OR DUP6 SSTORE DUP4 ISZERO PUSH2 0x1A9B JUMPI DUP5 SLOAD PUSH1 0xFF PUSH1 0x40 SHL NOT AND PUSH1 0x1 PUSH1 0x40 SHL OR DUP6 SSTORE JUMPDEST PUSH2 0x1AA4 DUP8 PUSH2 0x3609 JUMP JUMPDEST PUSH2 0x1AAC PUSH2 0x361A JUMP JUMPDEST PUSH32 0x875992236F2B756C480A83B0053E711E5A04D6EC8BF4B52208EF8F002F175C7 PUSH1 0x0 DUP2 DUP2 SSTORE PUSH32 0xDF8B4C520FFE197C5343C6F5AEC59570151EF9A492F2C624FD45DDDE6135EC42 PUSH1 0x1 SSTORE PUSH2 0x3FB4 PUSH1 0x2 SSTORE PUSH2 0x3E8 PUSH1 0x3 SSTORE PUSH1 0x4 SSTORE PUSH2 0x1B0F SWAP1 DUP10 PUSH2 0x31C6 JUMP JUMPDEST POP PUSH2 0x1B1C PUSH1 0x1 SLOAD DUP8 PUSH2 0x31C6 JUMP JUMPDEST POP DUP4 ISZERO PUSH2 0x913 JUMPI DUP5 SLOAD PUSH1 0xFF PUSH1 0x40 SHL NOT AND DUP6 SSTORE PUSH1 0x40 MLOAD PUSH1 0x1 DUP2 MSTORE PUSH32 0xC7F505B2F371AE2175EE4913F4499E1F2633A7B5936321EED1CDAEB6115181D2 SWAP1 PUSH1 0x20 ADD PUSH1 0x40 MLOAD DUP1 SWAP2 SUB SWAP1 LOG1 POP POP POP POP POP POP POP POP JUMP JUMPDEST CALLER PUSH1 0x0 SWAP1 DUP2 MSTORE PUSH1 0x5 PUSH1 0x20 MSTORE PUSH1 0x40 DUP2 KECCAK256 PUSH1 0x1 DUP2 ADD DUP1 SLOAD DUP4 SWAP3 SWAP2 DUP4 SWAP2 DUP7 SWAP1 DUP2 LT PUSH2 0x1B96 JUMPI PUSH2 0x1B96 PUSH2 0x408A JUMP JUMPDEST SWAP1 PUSH1 0x0 MSTORE PUSH1 0x20 PUSH1 0x0 KECCAK256 SWAP1 PUSH1 0x6 MUL ADD SWAP1 POP PUSH1 0x0 DUP8 SWAP1 POP PUSH1 0x0 PUSH2 0x1BBB DUP4 PUSH1 0x4 ADD SLOAD TIMESTAMP PUSH2 0x2D98 JUMP JUMPDEST PUSH1 0x2 SLOAD PUSH1 0x1 DUP6 ADD SLOAD PUSH1 0x40 MLOAD PUSH4 0x1786F63 PUSH1 0xE2 SHL DUP2 MSTORE PUSH1 0x4 DUP2 ADD DUP5 SWAP1 MSTORE PUSH1 0x24 DUP2 ADD SWAP3 SWAP1 SWAP3 MSTORE PUSH1 0x44 DUP3 ADD MSTORE SWAP1 SWAP2 POP PUSH1 0x0 SWAP1 DUP2 SWAP1 PUSH20 0x0 SWAP1 PUSH4 0x5E1BD8C SWAP1 PUSH1 0x64 ADD PUSH1 0x40 DUP1 MLOAD DUP1 DUP4 SUB DUP2 DUP7 GAS DELEGATECALL ISZERO DUP1 ISZERO PUSH2 0x1C27 JUMPI RETURNDATASIZE PUSH1 0x0 DUP1 RETURNDATACOPY RETURNDATASIZE PUSH1 0x0 REVERT JUMPDEST POP POP POP POP PUSH1 0x40 MLOAD RETURNDATASIZE PUSH1 0x1F NOT PUSH1 0x1F DUP3 ADD AND DUP3 ADD DUP1 PUSH1 0x40 MSTORE POP DUP2 ADD SWAP1 PUSH2 0x1C4B SWAP2 SWAP1 PUSH2 0x4155 JUMP JUMPDEST SWAP1 SWAP13 SWAP1 SWAP12 POP SWAP10 POP POP POP POP POP POP POP POP POP POP JUMP JUMPDEST PUSH2 0x1C65 PUSH2 0x353D JUMP JUMPDEST PUSH2 0x1C6D PUSH2 0x349A JUMP JUMPDEST PUSH1 0x1 PUSH1 0x1 PUSH1 0xA0 SHL SUB DUP2 AND PUSH1 0x0 DUP2 DUP2 MSTORE PUSH1 0x7 PUSH1 0x20 MSTORE PUSH1 0x40 DUP1 DUP3 KECCAK256 DUP1 SLOAD PUSH1 0xFF NOT AND PUSH1 0x1 OR SWAP1 SSTORE DUP1 MLOAD PUSH4 0x95D89B41 PUSH1 0xE0 SHL DUP2 MSTORE SWAP1 MLOAD SWAP2 SWAP3 SWAP2 PUSH4 0x95D89B41 SWAP2 PUSH1 0x4 DUP1 DUP3 ADD SWAP3 DUP7 SWAP3 SWAP1 SWAP2 SWAP1 DUP3 SWAP1 SUB ADD DUP2 DUP7 GAS STATICCALL ISZERO DUP1 ISZERO PUSH2 0x1CCC JUMPI RETURNDATASIZE PUSH1 0x0 DUP1 RETURNDATACOPY RETURNDATASIZE PUSH1 0x0 REVERT JUMPDEST POP POP POP POP PUSH1 0x40 MLOAD RETURNDATASIZE PUSH1 0x0 DUP3 RETURNDATACOPY PUSH1 0x1F RETURNDATASIZE SWAP1 DUP2 ADD PUSH1 0x1F NOT AND DUP3 ADD PUSH1 0x40 MSTORE PUSH2 0x1CF4 SWAP2 SWAP1 DUP2 ADD SWAP1 PUSH2 0x4179 JUMP JUMPDEST SWAP1 POP PUSH1 0x0 DUP3 PUSH1 0x1 PUSH1 0x1 PUSH1 0xA0 SHL SUB AND PUSH4 0x6FDDE03 PUSH1 0x40 MLOAD DUP2 PUSH4 0xFFFFFFFF AND PUSH1 0xE0 SHL DUP2 MSTORE PUSH1 0x4 ADD PUSH1 0x0 PUSH1 0x40 MLOAD DUP1 DUP4 SUB DUP2 DUP7 GAS STATICCALL ISZERO DUP1 ISZERO PUSH2 0x1D36 JUMPI RETURNDATASIZE PUSH1 0x0 DUP1 RETURNDATACOPY RETURNDATASIZE PUSH1 0x0 REVERT JUMPDEST POP POP POP POP PUSH1 0x40 MLOAD RETURNDATASIZE PUSH1 0x0 DUP3 RETURNDATACOPY PUSH1 0x1F RETURNDATASIZE SWAP1 DUP2 ADD PUSH1 0x1F NOT AND DUP3 ADD PUSH1 0x40 MSTORE PUSH2 0x1D5E SWAP2 SWAP1 DUP2 ADD SWAP1 PUSH2 0x4179 JUMP JUMPDEST SWAP1 POP DUP3 PUSH1 0x1 PUSH1 0x1 PUSH1 0xA0 SHL SUB AND PUSH32 0x2FB34CE114A136590B874D8CF80E7652ADDA576578BACFA4F8023F720F569394 DUP4 DUP4 PUSH1 0x40 MLOAD PUSH2 0x1D9B SWAP3 SWAP2 SWAP1 PUSH2 0x41E7 JUMP JUMPDEST PUSH1 0x40 MLOAD DUP1 SWAP2 SUB SWAP1 LOG2 POP POP POP JUMP JUMPDEST PUSH2 0x1DB1 DUP3 PUSH2 0x981 JUMP JUMPDEST PUSH2 0x1DBA DUP2 PUSH2 0x31BC JUMP JUMPDEST PUSH2 0x9BF DUP4 DUP4 PUSH2 0x326B JUMP JUMPDEST CALLER PUSH1 0x0 SWAP1 DUP2 MSTORE PUSH1 0x5 PUSH1 0x20 MSTORE PUSH1 0x40 DUP2 KECCAK256 PUSH1 0x1 DUP2 ADD DUP1 SLOAD SWAP2 SWAP3 SWAP2 DUP5 SWAP1 DUP2 LT PUSH2 0x1DEC JUMPI PUSH2 0x1DEC PUSH2 0x408A JUMP JUMPDEST SWAP1 PUSH1 0x0 MSTORE PUSH1 0x20 PUSH1 0x0 KECCAK256 SWAP1 PUSH1 0x6 MUL ADD SWAP1 POP PUSH1 0x0 DUP6 SWAP1 POP PUSH1 0x0 PUSH2 0x1E11 DUP4 PUSH1 0x4 ADD SLOAD TIMESTAMP PUSH2 0x2D98 JUMP JUMPDEST PUSH1 0x2 SLOAD PUSH1 0x1 DUP6 ADD SLOAD PUSH1 0x40 MLOAD PUSH4 0x1786F63 PUSH1 0xE2 SHL DUP2 MSTORE PUSH1 0x4 DUP2 ADD DUP5 SWAP1 MSTORE PUSH1 0x24 DUP2 ADD SWAP3 SWAP1 SWAP3 MSTORE PUSH1 0x44 DUP3 ADD MSTORE SWAP1 SWAP2 POP PUSH1 0x0 SWAP1 DUP2 SWAP1 PUSH20 0x0 SWAP1 PUSH4 0x5E1BD8C SWAP1 PUSH1 0x64 ADD PUSH1 0x40 DUP1 MLOAD DUP1 DUP4 SUB DUP2 DUP7 GAS DELEGATECALL ISZERO DUP1 ISZERO PUSH2 0x1E7D JUMPI RETURNDATASIZE PUSH1 0x0 DUP1 RETURNDATACOPY RETURNDATASIZE PUSH1 0x0 REVERT JUMPDEST POP POP POP POP PUSH1 0x40 MLOAD RETURNDATASIZE PUSH1 0x1F NOT PUSH1 0x1F DUP3 ADD AND DUP3 ADD DUP1 PUSH1 0x40 MSTORE POP DUP2 ADD SWAP1 PUSH2 0x1EA1 SWAP2 SWAP1 PUSH2 0x4155 JUMP JUMPDEST SWAP2 POP SWAP2 POP PUSH1 0x0 DUP9 PUSH1 0x1 PUSH1 0x1 PUSH1 0xA0 SHL SUB AND PUSH4 0x313CE567 PUSH1 0x40 MLOAD DUP2 PUSH4 0xFFFFFFFF AND PUSH1 0xE0 SHL DUP2 MSTORE PUSH1 0x4 ADD PUSH1 0x20 PUSH1 0x40 MLOAD DUP1 DUP4 SUB DUP2 DUP7 GAS STATICCALL ISZERO DUP1 ISZERO PUSH2 0x1EE5 JUMPI RETURNDATASIZE PUSH1 0x0 DUP1 RETURNDATACOPY RETURNDATASIZE PUSH1 0x0 REVERT JUMPDEST POP POP POP POP PUSH1 0x40 MLOAD RETURNDATASIZE PUSH1 0x1F NOT PUSH1 0x1F DUP3 ADD AND DUP3 ADD DUP1 PUSH1 0x40 MSTORE POP DUP2 ADD SWAP1 PUSH2 0x1F09 SWAP2 SWAP1 PUSH2 0x3E12 JUMP JUMPDEST SWAP1 POP DUP3 DUP7 PUSH1 0x1 ADD PUSH1 0x0 DUP3 DUP3 SLOAD PUSH2 0x1F1F SWAP2 SWAP1 PUSH2 0x4142 JUMP JUMPDEST SWAP1 SWAP2 SSTORE POP POP PUSH1 0x1 DUP7 ADD SLOAD DUP6 GT ISZERO PUSH2 0x1F70 JUMPI PUSH1 0x40 MLOAD PUSH3 0x461BCD PUSH1 0xE5 SHL DUP2 MSTORE PUSH1 0x20 PUSH1 0x4 DUP3 ADD MSTORE PUSH1 0x15 PUSH1 0x24 DUP3 ADD MSTORE PUSH21 0x496E76616C696420616D6F756E7420746F20706179 PUSH1 0x58 SHL PUSH1 0x44 DUP3 ADD MSTORE PUSH1 0x64 ADD PUSH2 0x763 JUMP JUMPDEST PUSH1 0x0 DUP2 PUSH1 0xFF AND GT PUSH2 0x1F93 JUMPI PUSH1 0x40 MLOAD PUSH3 0x461BCD PUSH1 0xE5 SHL DUP2 MSTORE PUSH1 0x4 ADD PUSH2 0x763 SWAP1 PUSH2 0x3F60 JUMP JUMPDEST PUSH1 0x1 PUSH1 0x1 PUSH1 0xA0 SHL SUB DUP10 AND PUSH1 0x0 SWAP1 DUP2 MSTORE PUSH1 0x7 PUSH1 0x20 MSTORE PUSH1 0x40 SWAP1 KECCAK256 SLOAD PUSH1 0xFF AND PUSH2 0x1FFB JUMPI PUSH1 0x40 MLOAD PUSH3 0x461BCD PUSH1 0xE5 SHL DUP2 MSTORE PUSH1 0x20 PUSH1 0x4 DUP3 ADD DUP2 SWAP1 MSTORE PUSH1 0x24 DUP3 ADD MSTORE PUSH32 0x54686520746F6B656E206973206E6F742077686974656C697374656420796574 PUSH1 0x44 DUP3 ADD MSTORE PUSH1 0x64 ADD PUSH2 0x763 JUMP JUMPDEST DUP5 DUP7 PUSH1 0x1 ADD PUSH1 0x0 DUP3 DUP3 SLOAD PUSH2 0x200F SWAP2 SWAP1 PUSH2 0x3EB8 JUMP JUMPDEST SWAP1 SWAP2 SSTORE POP POP PUSH1 0x9 DUP1 SLOAD DUP5 SWAP2 SWAP1 PUSH1 0x0 SWAP1 PUSH2 0x2029 SWAP1 DUP5 SWAP1 PUSH2 0x4142 JUMP JUMPDEST SWAP1 SWAP2 SSTORE POP POP PUSH1 0x5 DUP7 ADD SLOAD PUSH1 0xA SLOAD ISZERO PUSH2 0x2072 JUMPI PUSH1 0xA SLOAD PUSH2 0x2050 DUP6 PUSH8 0xDE0B6B3A7640000 PUSH2 0x3E4B JUMP JUMPDEST PUSH2 0x205A SWAP2 SWAP1 PUSH2 0x3EE1 JUMP JUMPDEST PUSH1 0xB DUP1 SLOAD PUSH1 0x0 SWAP1 PUSH2 0x206C SWAP1 DUP5 SWAP1 PUSH2 0x4142 JUMP JUMPDEST SWAP1 SWAP2 SSTORE POP POP JUMPDEST DUP7 PUSH1 0x1 ADD SLOAD PUSH1 0x0 SUB PUSH2 0x21F6 JUMPI DUP7 SLOAD PUSH1 0x1 DUP10 DUP2 ADD SLOAD GT ISZERO PUSH2 0x2134 JUMPI PUSH1 0x1 DUP1 DUP11 ADD DUP1 SLOAD SWAP1 SWAP2 PUSH2 0x209E SWAP2 PUSH2 0x3EB8 JUMP JUMPDEST DUP2 SLOAD DUP2 LT PUSH2 0x20AE JUMPI PUSH2 0x20AE PUSH2 0x408A JUMP JUMPDEST SWAP1 PUSH1 0x0 MSTORE PUSH1 0x20 PUSH1 0x0 KECCAK256 SWAP1 PUSH1 0x6 MUL ADD DUP10 PUSH1 0x1 ADD DUP12 DUP2 SLOAD DUP2 LT PUSH2 0x20D1 JUMPI PUSH2 0x20D1 PUSH2 0x408A JUMP JUMPDEST PUSH1 0x0 SWAP2 DUP3 MSTORE PUSH1 0x20 SWAP1 SWAP2 KECCAK256 DUP3 SLOAD PUSH1 0x6 SWAP1 SWAP3 MUL ADD SWAP1 DUP2 SSTORE PUSH1 0x1 DUP1 DUP4 ADD SLOAD SWAP1 DUP3 ADD SSTORE PUSH1 0x2 DUP1 DUP4 ADD SLOAD SWAP1 DUP3 ADD DUP1 SLOAD PUSH1 0x1 PUSH1 0x1 PUSH1 0xA0 SHL SUB NOT AND PUSH1 0x1 PUSH1 0x1 PUSH1 0xA0 SHL SUB SWAP1 SWAP3 AND SWAP2 SWAP1 SWAP2 OR SWAP1 SSTORE PUSH1 0x3 DUP1 DUP4 ADD SLOAD SWAP1 DUP3 ADD SSTORE PUSH1 0x4 DUP1 DUP4 ADD SLOAD SWAP1 DUP3 ADD SSTORE PUSH1 0x5 SWAP2 DUP3 ADD SLOAD SWAP2 ADD SSTORE JUMPDEST DUP9 PUSH1 0x1 ADD DUP1 SLOAD DUP1 PUSH2 0x2147 JUMPI PUSH2 0x2147 PUSH2 0x420C JUMP JUMPDEST PUSH1 0x0 DUP3 DUP2 MSTORE PUSH1 0x20 DUP2 KECCAK256 PUSH1 0x6 PUSH1 0x0 NOT SWAP1 SWAP4 ADD SWAP3 DUP4 MUL ADD DUP2 DUP2 SSTORE PUSH1 0x1 DUP2 ADD DUP3 SWAP1 SSTORE PUSH1 0x2 DUP2 ADD DUP1 SLOAD PUSH1 0x1 PUSH1 0x1 PUSH1 0xA0 SHL SUB NOT AND SWAP1 SSTORE PUSH1 0x3 DUP2 ADD DUP3 SWAP1 SSTORE PUSH1 0x4 DUP2 ADD DUP3 SWAP1 SSTORE PUSH1 0x5 ADD DUP2 SWAP1 SSTORE SWAP2 SSTORE DUP10 SLOAD DUP3 SWAP2 DUP12 SWAP2 PUSH2 0x219F SWAP1 DUP5 SWAP1 PUSH2 0x4142 JUMP JUMPDEST SWAP1 SWAP2 SSTORE POP POP PUSH1 0x40 DUP1 MLOAD DUP14 DUP2 MSTORE PUSH1 0xFF DUP6 AND PUSH1 0x20 DUP3 ADD MSTORE SWAP1 DUP2 ADD DUP4 SWAP1 MSTORE PUSH1 0x1 PUSH1 0x1 PUSH1 0xA0 SHL SUB DUP13 AND SWAP1 CALLER SWAP1 PUSH32 0x2F683797AE14900863BD7F5B624167CF9533F58FF4E068FCDC51EA4B45AB8A3E SWAP1 PUSH1 0x60 ADD PUSH1 0x40 MLOAD DUP1 SWAP2 SUB SWAP1 LOG3 POP JUMPDEST PUSH1 0x1 PUSH1 0x1 PUSH1 0xA0 SHL SUB DUP11 AND PUSH4 0x23B872DD CALLER ADDRESS PUSH2 0x2212 PUSH1 0x3 DUP8 PUSH2 0x4222 JUMP JUMPDEST PUSH2 0x221D SWAP1 PUSH1 0xA PUSH2 0x407B JUMP JUMPDEST PUSH2 0x2227 SWAP1 DUP12 PUSH2 0x3E4B JUMP JUMPDEST PUSH1 0x40 MLOAD PUSH1 0x1 PUSH1 0x1 PUSH1 0xE0 SHL SUB NOT PUSH1 0xE0 DUP7 SWAP1 SHL AND DUP2 MSTORE PUSH1 0x1 PUSH1 0x1 PUSH1 0xA0 SHL SUB SWAP4 DUP5 AND PUSH1 0x4 DUP3 ADD MSTORE SWAP3 SWAP1 SWAP2 AND PUSH1 0x24 DUP4 ADD MSTORE PUSH1 0x44 DUP3 ADD MSTORE PUSH1 0x64 ADD PUSH1 0x20 PUSH1 0x40 MLOAD DUP1 DUP4 SUB DUP2 PUSH1 0x0 DUP8 GAS CALL ISZERO DUP1 ISZERO PUSH2 0x227B JUMPI RETURNDATASIZE PUSH1 0x0 DUP1 RETURNDATACOPY RETURNDATASIZE PUSH1 0x0 REVERT JUMPDEST POP POP POP POP PUSH1 0x40 MLOAD RETURNDATASIZE PUSH1 0x1F NOT PUSH1 0x1F DUP3 ADD AND DUP3 ADD DUP1 PUSH1 0x40 MSTORE POP DUP2 ADD SWAP1 PUSH2 0x229F SWAP2 SWAP1 PUSH2 0x3F3E JUMP JUMPDEST PUSH2 0x22EB JUMPI PUSH1 0x40 MLOAD PUSH3 0x461BCD PUSH1 0xE5 SHL DUP2 MSTORE PUSH1 0x20 PUSH1 0x4 DUP3 ADD MSTORE PUSH1 0x1E PUSH1 0x24 DUP3 ADD MSTORE PUSH32 0x4572726F72207768696C65207472616E73666572696E67206173736574730000 PUSH1 0x44 DUP3 ADD MSTORE PUSH1 0x64 ADD PUSH2 0x763 JUMP JUMPDEST PUSH1 0x40 DUP1 MLOAD DUP13 DUP2 MSTORE PUSH1 0x20 DUP2 ADD DUP7 SWAP1 MSTORE PUSH1 0xFF DUP5 AND DUP2 DUP4 ADD MSTORE PUSH1 0x60 DUP2 ADD DUP4 SWAP1 MSTORE SWAP1 MLOAD PUSH1 0x1 PUSH1 0x1 PUSH1 0xA0 SHL SUB DUP13 AND SWAP2 CALLER SWAP2 PUSH32 0x9CE47BCC134ECD272196E2D07A748C33630146263E848D49E2679807B2886AAB SWAP2 DUP2 SWAP1 SUB PUSH1 0x80 ADD SWAP1 LOG3 POP POP POP POP POP POP POP POP POP POP POP JUMP JUMPDEST PUSH1 0x1 PUSH1 0x1 PUSH1 0xA0 SHL SUB DUP4 AND PUSH1 0x0 SWAP1 DUP2 MSTORE PUSH1 0x5 PUSH1 0x20 MSTORE PUSH1 0x40 DUP2 KECCAK256 PUSH1 0x2 ADD DUP1 SLOAD PUSH1 0x60 SWAP3 PUSH2 0x2378 DUP6 DUP4 PUSH2 0x3EE1 JUMP JUMPDEST SWAP1 POP PUSH1 0x0 PUSH2 0x2386 DUP7 DUP5 PUSH2 0x412E JUMP JUMPDEST GT ISZERO PUSH2 0x239A JUMPI PUSH2 0x2397 PUSH1 0x1 DUP3 PUSH2 0x4142 JUMP JUMPDEST SWAP1 POP JUMPDEST DUP1 DUP7 GT ISZERO PUSH2 0x23D9 JUMPI PUSH1 0x40 MLOAD PUSH3 0x461BCD PUSH1 0xE5 SHL DUP2 MSTORE PUSH1 0x20 PUSH1 0x4 DUP3 ADD MSTORE PUSH1 0xC PUSH1 0x24 DUP3 ADD MSTORE PUSH12 0x496E76616C69642070616765 PUSH1 0xA0 SHL PUSH1 0x44 DUP3 ADD MSTORE PUSH1 0x64 ADD PUSH2 0x763 JUMP JUMPDEST PUSH1 0x0 DUP6 GT DUP1 ISZERO PUSH2 0x23E9 JUMPI POP DUP1 DUP6 GT ISZERO JUMPDEST PUSH2 0x2429 JUMPI PUSH1 0x40 MLOAD PUSH3 0x461BCD PUSH1 0xE5 SHL DUP2 MSTORE PUSH1 0x20 PUSH1 0x4 DUP3 ADD MSTORE PUSH1 0x11 PUSH1 0x24 DUP3 ADD MSTORE PUSH17 0x496E76616C696420706167652073697A65 PUSH1 0x78 SHL PUSH1 0x44 DUP3 ADD MSTORE PUSH1 0x64 ADD PUSH2 0x763 JUMP JUMPDEST PUSH1 0x0 DUP6 PUSH2 0x2437 PUSH1 0x1 DUP10 PUSH2 0x3EB8 JUMP JUMPDEST PUSH2 0x2441 SWAP2 SWAP1 PUSH2 0x3E4B JUMP JUMPDEST SWAP1 POP PUSH1 0x0 PUSH2 0x244F DUP8 DUP4 PUSH2 0x4142 JUMP JUMPDEST SWAP1 POP DUP4 DUP2 GT ISZERO PUSH2 0x245C JUMPI POP DUP3 JUMPDEST PUSH1 0x0 PUSH2 0x2468 DUP4 DUP4 PUSH2 0x3EB8 JUMP JUMPDEST PUSH8 0xFFFFFFFFFFFFFFFF DUP2 GT ISZERO PUSH2 0x2480 JUMPI PUSH2 0x2480 PUSH2 0x3998 JUMP JUMPDEST PUSH1 0x40 MLOAD SWAP1 DUP1 DUP3 MSTORE DUP1 PUSH1 0x20 MUL PUSH1 0x20 ADD DUP3 ADD PUSH1 0x40 MSTORE DUP1 ISZERO PUSH2 0x24DF JUMPI DUP2 PUSH1 0x20 ADD JUMPDEST PUSH2 0x24CC PUSH1 0x40 MLOAD DUP1 PUSH1 0x80 ADD PUSH1 0x40 MSTORE DUP1 PUSH1 0x0 DUP2 MSTORE PUSH1 0x20 ADD PUSH1 0x0 PUSH1 0xFF AND DUP2 MSTORE PUSH1 0x20 ADD PUSH1 0x60 DUP2 MSTORE PUSH1 0x20 ADD PUSH1 0x60 DUP2 MSTORE POP SWAP1 JUMP JUMPDEST DUP2 MSTORE PUSH1 0x20 ADD SWAP1 PUSH1 0x1 SWAP1 SUB SWAP1 DUP2 PUSH2 0x249E JUMPI SWAP1 POP JUMPDEST POP SWAP1 POP DUP3 JUMPDEST DUP3 DUP2 LT ISZERO PUSH2 0x17D4 JUMPI DUP7 DUP2 DUP2 SLOAD DUP2 LT PUSH2 0x24FE JUMPI PUSH2 0x24FE PUSH2 0x408A JUMP JUMPDEST PUSH1 0x0 SWAP2 DUP3 MSTORE PUSH1 0x20 SWAP2 DUP3 SWAP1 KECCAK256 PUSH1 0x40 DUP1 MLOAD PUSH1 0x80 DUP2 ADD DUP3 MSTORE PUSH1 0x4 SWAP1 SWAP4 MUL SWAP1 SWAP2 ADD DUP1 SLOAD DUP4 MSTORE PUSH1 0x1 DUP2 ADD SLOAD PUSH1 0xFF AND DUP4 DUP6 ADD MSTORE PUSH1 0x2 DUP2 ADD DUP1 SLOAD DUP4 MLOAD DUP2 DUP8 MUL DUP2 ADD DUP8 ADD DUP6 MSTORE DUP2 DUP2 MSTORE SWAP5 SWAP6 SWAP3 SWAP5 SWAP4 DUP7 ADD SWAP4 SWAP3 DUP4 ADD DUP3 DUP3 DUP1 ISZERO PUSH2 0x2581 JUMPI PUSH1 0x20 MUL DUP3 ADD SWAP2 SWAP1 PUSH1 0x0 MSTORE PUSH1 0x20 PUSH1 0x0 KECCAK256 SWAP1 JUMPDEST DUP2 SLOAD PUSH1 0x1 PUSH1 0x1 PUSH1 0xA0 SHL SUB AND DUP2 MSTORE PUSH1 0x1 SWAP1 SWAP2 ADD SWAP1 PUSH1 0x20 ADD DUP1 DUP4 GT PUSH2 0x2563 JUMPI JUMPDEST POP POP POP POP POP DUP2 MSTORE PUSH1 0x20 ADD PUSH1 0x3 DUP3 ADD DUP1 SLOAD DUP1 PUSH1 0x20 MUL PUSH1 0x20 ADD PUSH1 0x40 MLOAD SWAP1 DUP2 ADD PUSH1 0x40 MSTORE DUP1 SWAP3 SWAP2 SWAP1 DUP2 DUP2 MSTORE PUSH1 0x20 ADD DUP3 DUP1 SLOAD DUP1 ISZERO PUSH2 0x25E3 JUMPI PUSH1 0x20 MUL DUP3 ADD SWAP2 SWAP1 PUSH1 0x0 MSTORE PUSH1 0x20 PUSH1 0x0 KECCAK256 SWAP1 JUMPDEST DUP2 SLOAD PUSH1 0x1 PUSH1 0x1 PUSH1 0xA0 SHL SUB AND DUP2 MSTORE PUSH1 0x1 SWAP1 SWAP2 ADD SWAP1 PUSH1 0x20 ADD DUP1 DUP4 GT PUSH2 0x25C5 JUMPI JUMPDEST POP POP POP POP POP DUP2 MSTORE POP POP DUP3 DUP6 DUP4 PUSH2 0x25F9 SWAP2 SWAP1 PUSH2 0x3EB8 JUMP JUMPDEST DUP2 MLOAD DUP2 LT PUSH2 0x2609 JUMPI PUSH2 0x2609 PUSH2 0x408A JUMP JUMPDEST PUSH1 0x20 MUL PUSH1 0x20 ADD ADD DUP2 SWAP1 MSTORE POP DUP1 PUSH2 0x261E SWAP1 PUSH2 0x40BF JUMP JUMPDEST SWAP1 POP PUSH2 0x24E4 JUMP JUMPDEST PUSH2 0x262D PUSH2 0x349A JUMP JUMPDEST PUSH1 0x1 PUSH1 0x1 PUSH1 0xA0 SHL SUB DUP2 AND PUSH1 0x0 SWAP1 DUP2 MSTORE PUSH1 0x7 PUSH1 0x20 MSTORE PUSH1 0x40 SWAP1 KECCAK256 SLOAD PUSH1 0xFF AND PUSH2 0x2695 JUMPI PUSH1 0x40 MLOAD PUSH3 0x461BCD PUSH1 0xE5 SHL DUP2 MSTORE PUSH1 0x20 PUSH1 0x4 DUP3 ADD MSTORE PUSH1 0x19 PUSH1 0x24 DUP3 ADD MSTORE PUSH32 0x546F6B656E206973206E6F7420696E2077686974656C69737400000000000000 PUSH1 0x44 DUP3 ADD MSTORE PUSH1 0x64 ADD PUSH2 0x763 JUMP JUMPDEST PUSH1 0x0 DUP2 PUSH1 0x1 PUSH1 0x1 PUSH1 0xA0 SHL SUB AND PUSH4 0x313CE567 PUSH1 0x40 MLOAD DUP2 PUSH4 0xFFFFFFFF AND PUSH1 0xE0 SHL DUP2 MSTORE PUSH1 0x4 ADD PUSH1 0x20 PUSH1 0x40 MLOAD DUP1 DUP4 SUB DUP2 DUP7 GAS STATICCALL ISZERO DUP1 ISZERO PUSH2 0x26D5 JUMPI RETURNDATASIZE PUSH1 0x0 DUP1 RETURNDATACOPY RETURNDATASIZE PUSH1 0x0 REVERT JUMPDEST POP POP POP POP PUSH1 0x40 MLOAD RETURNDATASIZE PUSH1 0x1F NOT PUSH1 0x1F DUP3 ADD AND DUP3 ADD DUP1 PUSH1 0x40 MSTORE POP DUP2 ADD SWAP1 PUSH2 0x26F9 SWAP2 SWAP1 PUSH2 0x3E12 JUMP JUMPDEST SWAP1 POP PUSH1 0x0 DUP2 PUSH1 0xFF AND GT PUSH2 0x271E JUMPI PUSH1 0x40 MLOAD PUSH3 0x461BCD PUSH1 0xE5 SHL DUP2 MSTORE PUSH1 0x4 ADD PUSH2 0x763 SWAP1 PUSH2 0x3F60 JUMP JUMPDEST PUSH1 0x0 PUSH1 0x3 SLOAD DUP5 PUSH2 0x272E SWAP2 SWAP1 PUSH2 0x3E4B JUMP JUMPDEST PUSH1 0x8 SLOAD SWAP1 SWAP2 POP PUSH1 0x0 SUB PUSH2 0x275F JUMPI CALLER PUSH1 0x0 SWAP1 DUP2 MSTORE PUSH1 0x5 PUSH1 0x20 MSTORE PUSH1 0x40 SWAP1 KECCAK256 PUSH1 0x4 ADD DUP2 SWAP1 SSTORE PUSH1 0xA DUP2 SWAP1 SSTORE PUSH1 0x8 DUP2 SWAP1 SSTORE PUSH2 0x27D3 JUMP JUMPDEST PUSH1 0x8 SLOAD PUSH1 0xA SLOAD PUSH1 0x0 SWAP2 PUSH2 0x2771 SWAP2 PUSH2 0x3EE1 JUMP JUMPDEST CALLER PUSH1 0x0 SWAP1 DUP2 MSTORE PUSH1 0x5 PUSH1 0x20 MSTORE PUSH1 0x40 DUP2 KECCAK256 PUSH1 0x4 ADD DUP1 SLOAD SWAP3 SWAP4 POP DUP4 SWAP3 SWAP1 SWAP2 SWAP1 PUSH2 0x2798 SWAP1 DUP5 SWAP1 PUSH2 0x4142 JUMP JUMPDEST SWAP1 SWAP2 SSTORE POP POP PUSH1 0xA DUP1 SLOAD DUP3 SWAP2 SWAP1 PUSH1 0x0 SWAP1 PUSH2 0x27B2 SWAP1 DUP5 SWAP1 PUSH2 0x4142 JUMP JUMPDEST SWAP1 SWAP2 SSTORE POP POP PUSH1 0x8 DUP1 SLOAD DUP4 SWAP2 SWAP1 PUSH1 0x0 SWAP1 PUSH2 0x27CC SWAP1 DUP5 SWAP1 PUSH2 0x4142 JUMP JUMPDEST SWAP1 SWAP2 SSTORE POP POP POP JUMPDEST CALLER PUSH1 0x0 SWAP1 DUP2 MSTORE PUSH1 0x5 PUSH1 0x20 MSTORE PUSH1 0x40 DUP2 KECCAK256 PUSH1 0x3 ADD DUP1 SLOAD DUP4 SWAP3 SWAP1 PUSH2 0x27F5 SWAP1 DUP5 SWAP1 PUSH2 0x4142 JUMP JUMPDEST SWAP1 SWAP2 SSTORE POP POP CALLER PUSH1 0x0 SWAP1 DUP2 MSTORE PUSH1 0x5 PUSH1 0x20 DUP2 DUP2 MSTORE PUSH1 0x40 DUP1 DUP5 KECCAK256 TIMESTAMP SWAP4 ADD SWAP3 SWAP1 SWAP3 SSTORE PUSH1 0x6 DUP2 MSTORE DUP2 DUP4 KECCAK256 PUSH1 0x1 PUSH1 0x1 PUSH1 0xA0 SHL SUB DUP8 AND DUP5 MSTORE SWAP1 MSTORE DUP2 KECCAK256 DUP1 SLOAD DUP4 SWAP3 SWAP1 PUSH2 0x283A SWAP1 DUP5 SWAP1 PUSH2 0x4142 JUMP JUMPDEST SWAP1 SWAP2 SSTORE POP POP PUSH1 0x1 PUSH1 0x1 PUSH1 0xA0 SHL SUB DUP4 AND PUSH4 0x23B872DD CALLER ADDRESS PUSH2 0x285B DUP7 PUSH1 0xA PUSH2 0x407B JUMP JUMPDEST PUSH2 0x2865 SWAP1 DUP10 PUSH2 0x3E4B JUMP JUMPDEST PUSH1 0x40 MLOAD PUSH1 0x1 PUSH1 0x1 PUSH1 0xE0 SHL SUB NOT PUSH1 0xE0 DUP7 SWAP1 SHL AND DUP2 MSTORE PUSH1 0x1 PUSH1 0x1 PUSH1 0xA0 SHL SUB SWAP4 DUP5 AND PUSH1 0x4 DUP3 ADD MSTORE SWAP3 SWAP1 SWAP2 AND PUSH1 0x24 DUP4 ADD MSTORE PUSH1 0x44 DUP3 ADD MSTORE PUSH1 0x64 ADD PUSH1 0x20 PUSH1 0x40 MLOAD DUP1 DUP4 SUB DUP2 PUSH1 0x0 DUP8 GAS CALL ISZERO DUP1 ISZERO PUSH2 0x28B9 JUMPI RETURNDATASIZE PUSH1 0x0 DUP1 RETURNDATACOPY RETURNDATASIZE PUSH1 0x0 REVERT JUMPDEST POP POP POP POP PUSH1 0x40 MLOAD RETURNDATASIZE PUSH1 0x1F NOT PUSH1 0x1F DUP3 ADD AND DUP3 ADD DUP1 PUSH1 0x40 MSTORE POP DUP2 ADD SWAP1 PUSH2 0x28DD SWAP2 SWAP1 PUSH2 0x3F3E JUMP JUMPDEST PUSH2 0x2929 JUMPI PUSH1 0x40 MLOAD PUSH3 0x461BCD PUSH1 0xE5 SHL DUP2 MSTORE PUSH1 0x20 PUSH1 0x4 DUP3 ADD MSTORE PUSH1 0x1B PUSH1 0x24 DUP3 ADD MSTORE PUSH32 0x4572726F72207768696C65207472616E7366657220746F6B656E730000000000 PUSH1 0x44 DUP3 ADD MSTORE PUSH1 0x64 ADD PUSH2 0x763 JUMP JUMPDEST PUSH1 0x40 DUP1 MLOAD DUP6 DUP2 MSTORE PUSH1 0xFF DUP5 AND PUSH1 0x20 DUP3 ADD MSTORE PUSH1 0x1 PUSH1 0x1 PUSH1 0xA0 SHL SUB DUP6 AND SWAP2 CALLER SWAP2 PUSH32 0x9F9C6451DB74DC24EC4EF600603DE4A3A11FBE4234EEE83200B5469400652C51 SWAP2 ADD PUSH1 0x40 MLOAD DUP1 SWAP2 SUB SWAP1 LOG3 POP POP POP POP JUMP JUMPDEST PUSH1 0x0 PUSH2 0x2985 PUSH1 0x0 SLOAD CALLER PUSH2 0x17E4 JUMP JUMPDEST PUSH2 0x29E4 JUMPI PUSH1 0x40 MLOAD PUSH3 0x461BCD PUSH1 0xE5 SHL DUP2 MSTORE PUSH1 0x20 PUSH1 0x4 DUP3 ADD MSTORE PUSH1 0x2A PUSH1 0x24 DUP3 ADD MSTORE PUSH32 0x43616C6C6572206973206E6F7420612076616C6964206174746573746174696F PUSH1 0x44 DUP3 ADD MSTORE PUSH10 0x37103932B9B7B63B32B9 PUSH1 0xB1 SHL PUSH1 0x64 DUP3 ADD MSTORE PUSH1 0x84 ADD PUSH2 0x763 JUMP JUMPDEST PUSH1 0x1 PUSH1 0x1 PUSH1 0xA0 SHL SUB DUP6 AND PUSH1 0x0 SWAP1 DUP2 MSTORE PUSH1 0x5 PUSH1 0x20 MSTORE PUSH1 0x40 DUP2 KECCAK256 PUSH1 0x2 ADD DUP1 SLOAD DUP3 SWAP2 SWAP1 PUSH2 0xFFFF DUP9 AND SWAP1 DUP2 LT PUSH2 0x2A18 JUMPI PUSH2 0x2A18 PUSH2 0x408A JUMP JUMPDEST SWAP1 PUSH1 0x0 MSTORE PUSH1 0x20 PUSH1 0x0 KECCAK256 SWAP1 PUSH1 0x4 MUL ADD SWAP1 POP DUP1 PUSH1 0x0 ADD SLOAD DUP5 EQ PUSH2 0x2A95 JUMPI PUSH1 0x40 MLOAD PUSH3 0x461BCD PUSH1 0xE5 SHL DUP2 MSTORE PUSH1 0x20 PUSH1 0x4 DUP3 ADD MSTORE PUSH1 0x31 PUSH1 0x24 DUP3 ADD MSTORE PUSH32 0x546865206174746573746174696F6E20616D6F756E7420646F6573206E6F7420 PUSH1 0x44 DUP3 ADD MSTORE PUSH17 0x1B585D18DA081D1A19481C995C5D595CDD PUSH1 0x7A SHL PUSH1 0x64 DUP3 ADD MSTORE PUSH1 0x84 ADD PUSH2 0x763 JUMP JUMPDEST DUP1 SLOAD PUSH1 0x2 DUP3 ADD SLOAD PUSH1 0x0 JUMPDEST DUP2 DUP2 PUSH1 0xFF AND LT ISZERO PUSH2 0x2AFB JUMPI DUP8 PUSH1 0x1 PUSH1 0x1 PUSH1 0xA0 SHL SUB AND DUP5 PUSH1 0x2 ADD DUP3 PUSH1 0xFF AND DUP2 SLOAD DUP2 LT PUSH2 0x2ACC JUMPI PUSH2 0x2ACC PUSH2 0x408A JUMP JUMPDEST PUSH1 0x0 SWAP2 DUP3 MSTORE PUSH1 0x20 SWAP1 SWAP2 KECCAK256 ADD SLOAD PUSH1 0x1 PUSH1 0x1 PUSH1 0xA0 SHL SUB AND SUB PUSH2 0x2AEB JUMPI PUSH1 0x1 SWAP5 POP JUMPDEST PUSH2 0x2AF4 DUP2 PUSH2 0x40A0 JUMP JUMPDEST SWAP1 POP PUSH2 0x2A9F JUMP JUMPDEST POP PUSH1 0x3 DUP4 ADD SLOAD PUSH1 0x0 SWAP1 DUP2 JUMPDEST DUP2 DUP2 PUSH1 0xFF AND LT ISZERO PUSH2 0x2B6C JUMPI PUSH1 0x3 DUP7 ADD SLOAD ISZERO PUSH2 0x2B6C JUMPI DUP10 PUSH1 0x1 PUSH1 0x1 PUSH1 0xA0 SHL SUB AND DUP7 PUSH1 0x3 ADD DUP3 PUSH1 0xFF AND DUP2 SLOAD DUP2 LT PUSH2 0x2B3D JUMPI PUSH2 0x2B3D PUSH2 0x408A JUMP JUMPDEST PUSH1 0x0 SWAP2 DUP3 MSTORE PUSH1 0x20 SWAP1 SWAP2 KECCAK256 ADD SLOAD PUSH1 0x1 PUSH1 0x1 PUSH1 0xA0 SHL SUB AND SUB PUSH2 0x2B5C JUMPI PUSH1 0x1 SWAP7 POP JUMPDEST PUSH2 0x2B65 DUP2 PUSH2 0x40A0 JUMP JUMPDEST SWAP1 POP PUSH2 0x2B06 JUMP JUMPDEST POP DUP6 PUSH2 0x2BBA JUMPI PUSH1 0x40 MLOAD PUSH3 0x461BCD PUSH1 0xE5 SHL DUP2 MSTORE PUSH1 0x20 PUSH1 0x4 DUP3 ADD MSTORE PUSH1 0x1C PUSH1 0x24 DUP3 ADD MSTORE PUSH32 0x53656E646572206973206E6F7420612076616C6964207369676E657200000000 PUSH1 0x44 DUP3 ADD MSTORE PUSH1 0x64 ADD PUSH2 0x763 JUMP JUMPDEST DUP2 ISZERO PUSH2 0x2C00 JUMPI PUSH1 0x40 MLOAD PUSH3 0x461BCD PUSH1 0xE5 SHL DUP2 MSTORE PUSH1 0x20 PUSH1 0x4 DUP3 ADD MSTORE PUSH1 0x15 PUSH1 0x24 DUP3 ADD MSTORE PUSH21 0x14D95B99195C881A185CC81CDA59DB9959081E595D PUSH1 0x5A SHL PUSH1 0x44 DUP3 ADD MSTORE PUSH1 0x64 ADD PUSH2 0x763 JUMP JUMPDEST PUSH1 0x3 DUP6 ADD DUP1 SLOAD PUSH1 0x1 DUP1 DUP3 ADD DUP4 SSTORE PUSH1 0x0 SWAP3 DUP4 MSTORE PUSH1 0x20 DUP4 KECCAK256 SWAP1 SWAP2 ADD DUP1 SLOAD PUSH1 0x1 PUSH1 0x1 PUSH1 0xA0 SHL SUB NOT AND PUSH1 0x1 PUSH1 0x1 PUSH1 0xA0 SHL SUB DUP14 AND OR SWAP1 SSTORE DUP1 DUP8 ADD DUP1 SLOAD SWAP2 SWAP3 SWAP1 SWAP2 PUSH2 0x2C49 SWAP1 DUP5 SWAP1 PUSH1 0xFF AND PUSH2 0x423B JUMP JUMPDEST DUP3 SLOAD PUSH2 0x100 SWAP3 SWAP1 SWAP3 EXP PUSH1 0xFF DUP2 DUP2 MUL NOT SWAP1 SWAP4 AND SWAP2 DUP4 AND MUL OR SWAP1 SWAP2 SSTORE PUSH1 0x1 DUP8 ADD SLOAD AND PUSH1 0x3 SUB SWAP1 POP PUSH2 0x2CF3 JUMPI PUSH1 0x1 PUSH1 0x1 PUSH1 0xA0 SHL SUB DUP12 AND PUSH1 0x0 SWAP1 DUP2 MSTORE PUSH1 0x5 PUSH1 0x20 MSTORE PUSH1 0x40 DUP2 KECCAK256 DUP1 SLOAD DUP7 SWAP3 SWAP1 PUSH2 0x2C9A SWAP1 DUP5 SWAP1 PUSH2 0x4142 JUMP JUMPDEST SWAP1 SWAP2 SSTORE POP POP PUSH1 0x1 PUSH1 0x1 PUSH1 0xA0 SHL SUB DUP12 DUP2 AND PUSH1 0x0 DUP2 DUP2 MSTORE PUSH1 0x5 PUSH1 0x20 SWAP1 DUP2 MSTORE PUSH1 0x40 SWAP2 DUP3 SWAP1 KECCAK256 SLOAD SWAP2 MLOAD SWAP2 DUP3 MSTORE SWAP2 SWAP3 DUP13 AND SWAP2 PUSH32 0x986757B5F72E5258DE572C036A9155B7F6FCE0DF14FFD1FA633617F668137A39 SWAP2 ADD PUSH1 0x40 MLOAD DUP1 SWAP2 SUB SWAP1 LOG3 JUMPDEST DUP11 PUSH1 0x1 PUSH1 0x1 PUSH1 0xA0 SHL SUB AND DUP11 PUSH2 0xFFFF AND DUP11 PUSH1 0x1 PUSH1 0x1 PUSH1 0xA0 SHL SUB AND PUSH32 0xEA585988944829641B25BE2DE9E0A1256C383FAC005BB8F3EBE5CD09B50D7C74 DUP9 PUSH1 0x0 ADD SLOAD PUSH1 0x40 MLOAD PUSH2 0x2D41 SWAP2 DUP2 MSTORE PUSH1 0x20 ADD SWAP1 JUMP JUMPDEST PUSH1 0x40 MLOAD DUP1 SWAP2 SUB SWAP1 LOG4 POP PUSH1 0x1 SWAP11 SWAP10 POP POP POP POP POP POP POP POP POP POP JUMP JUMPDEST PUSH2 0x2D62 PUSH2 0x353D JUMP JUMPDEST PUSH1 0x1 PUSH1 0x1 PUSH1 0xA0 SHL SUB DUP2 AND PUSH2 0x2D8C JUMPI PUSH1 0x40 MLOAD PUSH4 0x1E4FBDF7 PUSH1 0xE0 SHL DUP2 MSTORE PUSH1 0x0 PUSH1 0x4 DUP3 ADD MSTORE PUSH1 0x24 ADD PUSH2 0x763 JUMP JUMPDEST PUSH2 0x2D95 DUP2 PUSH2 0x3598 JUMP JUMPDEST POP JUMP JUMPDEST PUSH1 0x0 DUP3 DUP3 LT ISZERO PUSH2 0x2E08 JUMPI PUSH1 0x40 MLOAD PUSH3 0x461BCD PUSH1 0xE5 SHL DUP2 MSTORE PUSH1 0x20 PUSH1 0x4 DUP3 ADD MSTORE PUSH1 0x35 PUSH1 0x24 DUP3 ADD MSTORE PUSH32 0x46696E6973682074696D657374616D70206D7573742062652067726561746572 PUSH1 0x44 DUP3 ADD MSTORE PUSH21 0x207468616E2073746172742074696D657374616D7 PUSH1 0x5C SHL PUSH1 0x64 DUP3 ADD MSTORE PUSH1 0x84 ADD PUSH2 0x763 JUMP JUMPDEST PUSH1 0x0 PUSH2 0x2E14 DUP5 DUP5 PUSH2 0x3EB8 JUMP JUMPDEST SWAP1 POP PUSH1 0x0 PUSH2 0x2E25 PUSH3 0x15180 DUP4 PUSH2 0x3EE1 JUMP JUMPDEST SWAP6 SWAP5 POP POP POP POP POP JUMP JUMPDEST PUSH1 0x0 PUSH1 0x3 SLOAD DUP6 PUSH2 0x2E3E SWAP2 SWAP1 PUSH2 0x3E4B JUMP JUMPDEST CALLER PUSH1 0x0 SWAP1 DUP2 MSTORE PUSH1 0x5 PUSH1 0x20 MSTORE PUSH1 0x40 SWAP1 KECCAK256 SWAP1 SWAP2 POP PUSH2 0x2E5B DUP4 PUSH1 0xA PUSH2 0x407B JUMP JUMPDEST PUSH2 0x2E65 SWAP1 DUP8 PUSH2 0x3E4B JUMP JUMPDEST PUSH1 0x40 MLOAD PUSH4 0x70A08231 PUSH1 0xE0 SHL DUP2 MSTORE ADDRESS PUSH1 0x4 DUP3 ADD MSTORE PUSH1 0x1 PUSH1 0x1 PUSH1 0xA0 SHL SUB DUP7 AND SWAP1 PUSH4 0x70A08231 SWAP1 PUSH1 0x24 ADD PUSH1 0x20 PUSH1 0x40 MLOAD DUP1 DUP4 SUB DUP2 DUP7 GAS STATICCALL ISZERO DUP1 ISZERO PUSH2 0x2EA9 JUMPI RETURNDATASIZE PUSH1 0x0 DUP1 RETURNDATACOPY RETURNDATASIZE PUSH1 0x0 REVERT JUMPDEST POP POP POP POP PUSH1 0x40 MLOAD RETURNDATASIZE PUSH1 0x1F NOT PUSH1 0x1F DUP3 ADD AND DUP3 ADD DUP1 PUSH1 0x40 MSTORE POP DUP2 ADD SWAP1 PUSH2 0x2ECD SWAP2 SWAP1 PUSH2 0x3F25 JUMP JUMPDEST LT ISZERO PUSH2 0x2F12 JUMPI PUSH1 0x40 MLOAD PUSH3 0x461BCD PUSH1 0xE5 SHL DUP2 MSTORE PUSH1 0x20 PUSH1 0x4 DUP3 ADD MSTORE PUSH1 0x14 PUSH1 0x24 DUP3 ADD MSTORE PUSH20 0x496E7375666963656E74206C6971756964697479 PUSH1 0x60 SHL PUSH1 0x44 DUP3 ADD MSTORE PUSH1 0x64 ADD PUSH2 0x763 JUMP JUMPDEST PUSH1 0x0 DUP4 PUSH1 0xFF AND GT PUSH2 0x2F35 JUMPI PUSH1 0x40 MLOAD PUSH3 0x461BCD PUSH1 0xE5 SHL DUP2 MSTORE PUSH1 0x4 ADD PUSH2 0x763 SWAP1 PUSH2 0x3F60 JUMP JUMPDEST PUSH1 0x0 DUP7 GT PUSH2 0x2F90 JUMPI PUSH1 0x40 MLOAD PUSH3 0x461BCD PUSH1 0xE5 SHL DUP2 MSTORE PUSH1 0x20 PUSH1 0x4 DUP3 ADD MSTORE PUSH1 0x22 PUSH1 0x24 DUP3 ADD MSTORE PUSH32 0x54686520616D6F756E74206D757374206265206772656174686572207468616E PUSH1 0x44 DUP3 ADD MSTORE PUSH2 0x203 PUSH1 0xF4 SHL PUSH1 0x64 DUP3 ADD MSTORE PUSH1 0x84 ADD PUSH2 0x763 JUMP JUMPDEST PUSH1 0x1 PUSH1 0x1 PUSH1 0xA0 SHL SUB DUP5 AND PUSH1 0x0 SWAP1 DUP2 MSTORE PUSH1 0x7 PUSH1 0x20 MSTORE PUSH1 0x40 SWAP1 KECCAK256 SLOAD PUSH1 0xFF AND PUSH2 0x2FF8 JUMPI PUSH1 0x40 MLOAD PUSH3 0x461BCD PUSH1 0xE5 SHL DUP2 MSTORE PUSH1 0x20 PUSH1 0x4 DUP3 ADD DUP2 SWAP1 MSTORE PUSH1 0x24 DUP3 ADD MSTORE PUSH32 0x54686520746F6B656E206973206E6F742077686974656C697374656420796574 PUSH1 0x44 DUP3 ADD MSTORE PUSH1 0x64 ADD PUSH2 0x763 JUMP JUMPDEST DUP2 DUP2 PUSH1 0x3 ADD SLOAD LT ISZERO PUSH2 0x303D JUMPI PUSH1 0x40 MLOAD PUSH3 0x461BCD PUSH1 0xE5 SHL DUP2 MSTORE PUSH1 0x20 PUSH1 0x4 DUP3 ADD MSTORE PUSH1 0xE PUSH1 0x24 DUP3 ADD MSTORE PUSH14 0x125B9D985B1A5908185B5BDD5B9D PUSH1 0x92 SHL PUSH1 0x44 DUP3 ADD MSTORE PUSH1 0x64 ADD PUSH2 0x763 JUMP JUMPDEST DUP2 DUP2 PUSH1 0x3 ADD PUSH1 0x0 DUP3 DUP3 SLOAD PUSH2 0x3051 SWAP2 SWAP1 PUSH2 0x3EB8 JUMP JUMPDEST SWAP1 SWAP2 SSTORE POP POP PUSH1 0x8 DUP1 SLOAD DUP4 SWAP2 SWAP1 PUSH1 0x0 SWAP1 PUSH2 0x306B SWAP1 DUP5 SWAP1 PUSH2 0x3EB8 JUMP JUMPDEST SWAP1 SWAP2 SSTORE POP POP PUSH1 0x1 PUSH1 0x1 PUSH1 0xA0 SHL SUB DUP5 AND PUSH4 0xA9059CBB CALLER PUSH2 0x308B PUSH1 0x3 DUP8 PUSH2 0x4222 JUMP JUMPDEST PUSH2 0x3096 SWAP1 PUSH1 0xA PUSH2 0x407B JUMP JUMPDEST PUSH2 0x30A0 DUP10 DUP8 PUSH2 0x4142 JUMP JUMPDEST PUSH2 0x30AA SWAP2 SWAP1 PUSH2 0x3E4B JUMP JUMPDEST PUSH1 0x40 MLOAD PUSH1 0x1 PUSH1 0x1 PUSH1 0xE0 SHL SUB NOT PUSH1 0xE0 DUP6 SWAP1 SHL AND DUP2 MSTORE PUSH1 0x1 PUSH1 0x1 PUSH1 0xA0 SHL SUB SWAP1 SWAP3 AND PUSH1 0x4 DUP4 ADD MSTORE PUSH1 0x24 DUP3 ADD MSTORE PUSH1 0x44 ADD PUSH1 0x20 PUSH1 0x40 MLOAD DUP1 DUP4 SUB DUP2 PUSH1 0x0 DUP8 GAS CALL ISZERO DUP1 ISZERO PUSH2 0x30F5 JUMPI RETURNDATASIZE PUSH1 0x0 DUP1 RETURNDATACOPY RETURNDATASIZE PUSH1 0x0 REVERT JUMPDEST POP POP POP POP PUSH1 0x40 MLOAD RETURNDATASIZE PUSH1 0x1F NOT PUSH1 0x1F DUP3 ADD AND DUP3 ADD DUP1 PUSH1 0x40 MSTORE POP DUP2 ADD SWAP1 PUSH2 0x3119 SWAP2 SWAP1 PUSH2 0x3F3E JUMP JUMPDEST PUSH2 0x3165 JUMPI PUSH1 0x40 MLOAD PUSH3 0x461BCD PUSH1 0xE5 SHL DUP2 MSTORE PUSH1 0x20 PUSH1 0x4 DUP3 ADD MSTORE PUSH1 0x1D PUSH1 0x24 DUP3 ADD MSTORE PUSH32 0x4661696C6564207768656E207769746864726177696E672066756E6473000000 PUSH1 0x44 DUP3 ADD MSTORE PUSH1 0x64 ADD PUSH2 0x763 JUMP JUMPDEST PUSH1 0x40 DUP1 MLOAD DUP8 DUP2 MSTORE PUSH1 0x20 DUP2 ADD DUP8 SWAP1 MSTORE PUSH1 0xFF DUP6 AND DUP2 DUP4 ADD MSTORE SWAP1 MLOAD PUSH1 0x1 PUSH1 0x1 PUSH1 0xA0 SHL SUB DUP7 AND SWAP2 CALLER SWAP2 PUSH32 0x4CCD5830047404934FF21145531B3E4EDBC2A057F1E3B73E37E6810AAAD80C4 SWAP2 DUP2 SWAP1 SUB PUSH1 0x60 ADD SWAP1 LOG3 POP POP POP POP POP POP JUMP JUMPDEST PUSH2 0x2D95 DUP2 CALLER PUSH2 0x3622 JUMP JUMPDEST PUSH1 0x0 PUSH1 0x0 DUP1 MLOAD PUSH1 0x20 PUSH2 0x4291 DUP4 CODECOPY DUP2 MLOAD SWAP2 MSTORE PUSH2 0x31E1 DUP5 DUP5 PUSH2 0x17E4 JUMP JUMPDEST PUSH2 0x3261 JUMPI PUSH1 0x0 DUP5 DUP2 MSTORE PUSH1 0x20 DUP3 DUP2 MSTORE PUSH1 0x40 DUP1 DUP4 KECCAK256 PUSH1 0x1 PUSH1 0x1 PUSH1 0xA0 SHL SUB DUP8 AND DUP5 MSTORE SWAP1 SWAP2 MSTORE SWAP1 KECCAK256 DUP1 SLOAD PUSH1 0xFF NOT AND PUSH1 0x1 OR SWAP1 SSTORE PUSH2 0x3217 CALLER SWAP1 JUMP JUMPDEST PUSH1 0x1 PUSH1 0x1 PUSH1 0xA0 SHL SUB AND DUP4 PUSH1 0x1 PUSH1 0x1 PUSH1 0xA0 SHL SUB AND DUP6 PUSH32 0x2F8788117E7EFF1D82E926EC794901D17C78024A50270940304540A733656F0D PUSH1 0x40 MLOAD PUSH1 0x40 MLOAD DUP1 SWAP2 SUB SWAP1 LOG4 PUSH1 0x1 SWAP2 POP POP PUSH2 0x94E JUMP JUMPDEST PUSH1 0x0 SWAP2 POP POP PUSH2 0x94E JUMP JUMPDEST PUSH1 0x0 PUSH1 0x0 DUP1 MLOAD PUSH1 0x20 PUSH2 0x4291 DUP4 CODECOPY DUP2 MLOAD SWAP2 MSTORE PUSH2 0x3286 DUP5 DUP5 PUSH2 0x17E4 JUMP JUMPDEST ISZERO PUSH2 0x3261 JUMPI PUSH1 0x0 DUP5 DUP2 MSTORE PUSH1 0x20 DUP3 DUP2 MSTORE PUSH1 0x40 DUP1 DUP4 KECCAK256 PUSH1 0x1 PUSH1 0x1 PUSH1 0xA0 SHL SUB DUP8 AND DUP1 DUP6 MSTORE SWAP3 MSTORE DUP1 DUP4 KECCAK256 DUP1 SLOAD PUSH1 0xFF NOT AND SWAP1 SSTORE MLOAD CALLER SWAP3 DUP8 SWAP2 PUSH32 0xF6391F5C32D9C69D2A47EA670B442974B53935D1EDC7FD64EB21E047A839171B SWAP2 SWAP1 LOG4 PUSH1 0x1 SWAP2 POP POP PUSH2 0x94E JUMP JUMPDEST ADDRESS PUSH1 0x1 PUSH1 0x1 PUSH1 0xA0 SHL SUB PUSH32 0x0 AND EQ DUP1 PUSH2 0x336E JUMPI POP PUSH32 0x0 PUSH1 0x1 PUSH1 0x1 PUSH1 0xA0 SHL SUB AND PUSH2 0x3362 PUSH1 0x0 DUP1 MLOAD PUSH1 0x20 PUSH2 0x4271 DUP4 CODECOPY DUP2 MLOAD SWAP2 MSTORE SLOAD PUSH1 0x1 PUSH1 0x1 PUSH1 0xA0 SHL SUB AND SWAP1 JUMP JUMPDEST PUSH1 0x1 PUSH1 0x1 PUSH1 0xA0 SHL SUB AND EQ ISZERO JUMPDEST ISZERO PUSH2 0x1153 JUMPI PUSH1 0x40 MLOAD PUSH4 0x703E46DD PUSH1 0xE1 SHL DUP2 MSTORE PUSH1 0x4 ADD PUSH1 0x40 MLOAD DUP1 SWAP2 SUB SWAP1 REVERT JUMPDEST PUSH2 0x2D95 PUSH2 0x353D JUMP JUMPDEST DUP2 PUSH1 0x1 PUSH1 0x1 PUSH1 0xA0 SHL SUB AND PUSH4 0x52D1902D PUSH1 0x40 MLOAD DUP2 PUSH4 0xFFFFFFFF AND PUSH1 0xE0 SHL DUP2 MSTORE PUSH1 0x4 ADD PUSH1 0x20 PUSH1 0x40 MLOAD DUP1 DUP4 SUB DUP2 DUP7 GAS STATICCALL SWAP3 POP POP POP DUP1 ISZERO PUSH2 0x33EE JUMPI POP PUSH1 0x40 DUP1 MLOAD PUSH1 0x1F RETURNDATASIZE SWAP1 DUP2 ADD PUSH1 0x1F NOT AND DUP3 ADD SWAP1 SWAP3 MSTORE PUSH2 0x33EB SWAP2 DUP2 ADD SWAP1 PUSH2 0x3F25 JUMP JUMPDEST PUSH1 0x1 JUMPDEST PUSH2 0x3416 JUMPI PUSH1 0x40 MLOAD PUSH4 0x4C9C8CE3 PUSH1 0xE0 SHL DUP2 MSTORE PUSH1 0x1 PUSH1 0x1 PUSH1 0xA0 SHL SUB DUP4 AND PUSH1 0x4 DUP3 ADD MSTORE PUSH1 0x24 ADD PUSH2 0x763 JUMP JUMPDEST PUSH1 0x0 DUP1 MLOAD PUSH1 0x20 PUSH2 0x4271 DUP4 CODECOPY DUP2 MLOAD SWAP2 MSTORE DUP2 EQ PUSH2 0x3447 JUMPI PUSH1 0x40 MLOAD PUSH4 0x2A875269 PUSH1 0xE2 SHL DUP2 MSTORE PUSH1 0x4 DUP2 ADD DUP3 SWAP1 MSTORE PUSH1 0x24 ADD PUSH2 0x763 JUMP JUMPDEST PUSH2 0x9F8 DUP4 DUP4 PUSH2 0x365B JUMP JUMPDEST ADDRESS PUSH1 0x1 PUSH1 0x1 PUSH1 0xA0 SHL SUB PUSH32 0x0 AND EQ PUSH2 0x1153 JUMPI PUSH1 0x40 MLOAD PUSH4 0x703E46DD PUSH1 0xE1 SHL DUP2 MSTORE PUSH1 0x4 ADD PUSH1 0x40 MLOAD DUP1 SWAP2 SUB SWAP1 REVERT JUMPDEST PUSH32 0xCD5ED15C6E187E77E9AEE88184C21F4F2182AB5827CB3B7E07FBEDCD63F03300 SLOAD PUSH1 0xFF AND ISZERO PUSH2 0x1153 JUMPI PUSH1 0x40 MLOAD PUSH4 0xD93C0665 PUSH1 0xE0 SHL DUP2 MSTORE PUSH1 0x4 ADD PUSH1 0x40 MLOAD DUP1 SWAP2 SUB SWAP1 REVERT JUMPDEST PUSH1 0x0 DUP1 PREVRANDAO TIMESTAMP PUSH1 0x4 SLOAD PUSH1 0x40 MLOAD PUSH1 0x20 ADD PUSH2 0x3508 SWAP4 SWAP3 SWAP2 SWAP1 SWAP3 DUP4 MSTORE PUSH1 0x20 DUP4 ADD SWAP2 SWAP1 SWAP2 MSTORE PUSH1 0x40 DUP3 ADD MSTORE PUSH1 0x60 ADD SWAP1 JUMP JUMPDEST PUSH1 0x40 DUP1 MLOAD PUSH1 0x1F NOT DUP2 DUP5 SUB ADD DUP2 MSTORE SWAP2 SWAP1 MSTORE DUP1 MLOAD PUSH1 0x20 SWAP1 SWAP2 ADD KECCAK256 PUSH1 0x4 DUP1 SLOAD SWAP2 SWAP3 POP PUSH1 0x0 PUSH2 0x3532 DUP4 PUSH2 0x40BF JUMP JUMPDEST SWAP1 SWAP2 SSTORE POP SWAP1 SWAP3 SWAP2 POP POP JUMP JUMPDEST CALLER PUSH2 0x356F PUSH32 0x9016D09D72D40FDAE2FD8CEAC6B6234C7706214FD39C1CD1E609A0528C199300 SLOAD PUSH1 0x1 PUSH1 0x1 PUSH1 0xA0 SHL SUB AND SWAP1 JUMP JUMPDEST PUSH1 0x1 PUSH1 0x1 PUSH1 0xA0 SHL SUB AND EQ PUSH2 0x1153 JUMPI PUSH1 0x40 MLOAD PUSH4 0x118CDAA7 PUSH1 0xE0 SHL DUP2 MSTORE CALLER PUSH1 0x4 DUP3 ADD MSTORE PUSH1 0x24 ADD PUSH2 0x763 JUMP JUMPDEST PUSH32 0x9016D09D72D40FDAE2FD8CEAC6B6234C7706214FD39C1CD1E609A0528C199300 DUP1 SLOAD PUSH1 0x1 PUSH1 0x1 PUSH1 0xA0 SHL SUB NOT DUP2 AND PUSH1 0x1 PUSH1 0x1 PUSH1 0xA0 SHL SUB DUP5 DUP2 AND SWAP2 DUP3 OR DUP5 SSTORE PUSH1 0x40 MLOAD SWAP3 AND SWAP2 DUP3 SWAP1 PUSH32 0x8BE0079C531659141344CD1FD0A4F28419497F9722A3DAAFE3B4186F6B6457E0 SWAP1 PUSH1 0x0 SWAP1 LOG3 POP POP POP JUMP JUMPDEST PUSH2 0x3611 PUSH2 0x36B1 JUMP JUMPDEST PUSH2 0x2D95 DUP2 PUSH2 0x36FA JUMP JUMPDEST PUSH2 0x1153 PUSH2 0x36B1 JUMP JUMPDEST PUSH2 0x362C DUP3 DUP3 PUSH2 0x17E4 JUMP JUMPDEST PUSH2 0xBFC JUMPI PUSH1 0x40 MLOAD PUSH4 0xE2517D3F PUSH1 0xE0 SHL DUP2 MSTORE PUSH1 0x1 PUSH1 0x1 PUSH1 0xA0 SHL SUB DUP3 AND PUSH1 0x4 DUP3 ADD MSTORE PUSH1 0x24 DUP2 ADD DUP4 SWAP1 MSTORE PUSH1 0x44 ADD PUSH2 0x763 JUMP JUMPDEST PUSH2 0x3664 DUP3 PUSH2 0x3702 JUMP JUMPDEST PUSH1 0x40 MLOAD PUSH1 0x1 PUSH1 0x1 PUSH1 0xA0 SHL SUB DUP4 AND SWAP1 PUSH32 0xBC7CD75A20EE27FD9ADEBAB32041F755214DBC6BFFA90CC0225B39DA2E5C2D3B SWAP1 PUSH1 0x0 SWAP1 LOG2 DUP1 MLOAD ISZERO PUSH2 0x36A9 JUMPI PUSH2 0x9F8 DUP3 DUP3 PUSH2 0x3767 JUMP JUMPDEST PUSH2 0xBFC PUSH2 0x37D4 JUMP JUMPDEST PUSH32 0xF0C57E16840DF040F15088DC2F81FE391C3923BEC73E23A9662EFC9C229C6A00 SLOAD PUSH1 0x1 PUSH1 0x40 SHL SWAP1 DIV PUSH1 0xFF AND PUSH2 0x1153 JUMPI PUSH1 0x40 MLOAD PUSH4 0x1AFCD79F PUSH1 0xE3 SHL DUP2 MSTORE PUSH1 0x4 ADD PUSH1 0x40 MLOAD DUP1 SWAP2 SUB SWAP1 REVERT JUMPDEST PUSH2 0x2D62 PUSH2 0x36B1 JUMP JUMPDEST DUP1 PUSH1 0x1 PUSH1 0x1 PUSH1 0xA0 SHL SUB AND EXTCODESIZE PUSH1 0x0 SUB PUSH2 0x3738 JUMPI PUSH1 0x40 MLOAD PUSH4 0x4C9C8CE3 PUSH1 0xE0 SHL DUP2 MSTORE PUSH1 0x1 PUSH1 0x1 PUSH1 0xA0 SHL SUB DUP3 AND PUSH1 0x4 DUP3 ADD MSTORE PUSH1 0x24 ADD PUSH2 0x763 JUMP JUMPDEST PUSH1 0x0 DUP1 MLOAD PUSH1 0x20 PUSH2 0x4271 DUP4 CODECOPY DUP2 MLOAD SWAP2 MSTORE DUP1 SLOAD PUSH1 0x1 PUSH1 0x1 PUSH1 0xA0 SHL SUB NOT AND PUSH1 0x1 PUSH1 0x1 PUSH1 0xA0 SHL SUB SWAP3 SWAP1 SWAP3 AND SWAP2 SWAP1 SWAP2 OR SWAP1 SSTORE JUMP JUMPDEST PUSH1 0x60 PUSH1 0x0 DUP1 DUP5 PUSH1 0x1 PUSH1 0x1 PUSH1 0xA0 SHL SUB AND DUP5 PUSH1 0x40 MLOAD PUSH2 0x3784 SWAP2 SWAP1 PUSH2 0x4254 JUMP JUMPDEST PUSH1 0x0 PUSH1 0x40 MLOAD DUP1 DUP4 SUB DUP2 DUP6 GAS DELEGATECALL SWAP2 POP POP RETURNDATASIZE DUP1 PUSH1 0x0 DUP2 EQ PUSH2 0x37BF JUMPI PUSH1 0x40 MLOAD SWAP2 POP PUSH1 0x1F NOT PUSH1 0x3F RETURNDATASIZE ADD AND DUP3 ADD PUSH1 0x40 MSTORE RETURNDATASIZE DUP3 MSTORE RETURNDATASIZE PUSH1 0x0 PUSH1 0x20 DUP5 ADD RETURNDATACOPY PUSH2 0x37C4 JUMP JUMPDEST PUSH1 0x60 SWAP2 POP JUMPDEST POP SWAP2 POP SWAP2 POP PUSH2 0x2E25 DUP6 DUP4 DUP4 PUSH2 0x37F3 JUMP JUMPDEST CALLVALUE ISZERO PUSH2 0x1153 JUMPI PUSH1 0x40 MLOAD PUSH4 0xB398979F PUSH1 0xE0 SHL DUP2 MSTORE PUSH1 0x4 ADD PUSH1 0x40 MLOAD DUP1 SWAP2 SUB SWAP1 REVERT JUMPDEST PUSH1 0x60 DUP3 PUSH2 0x3808 JUMPI PUSH2 0x3803 DUP3 PUSH2 0x384F JUMP JUMPDEST PUSH2 0x17DD JUMP JUMPDEST DUP2 MLOAD ISZERO DUP1 ISZERO PUSH2 0x381F JUMPI POP PUSH1 0x1 PUSH1 0x1 PUSH1 0xA0 SHL SUB DUP5 AND EXTCODESIZE ISZERO JUMPDEST ISZERO PUSH2 0x3848 JUMPI PUSH1 0x40 MLOAD PUSH4 0x9996B315 PUSH1 0xE0 SHL DUP2 MSTORE PUSH1 0x1 PUSH1 0x1 PUSH1 0xA0 SHL SUB DUP6 AND PUSH1 0x4 DUP3 ADD MSTORE PUSH1 0x24 ADD PUSH2 0x763 JUMP JUMPDEST POP DUP1 PUSH2 0x17DD JUMP JUMPDEST DUP1 MLOAD ISZERO PUSH2 0x385F JUMPI DUP1 MLOAD DUP1 DUP3 PUSH1 0x20 ADD REVERT JUMPDEST PUSH1 0x40 MLOAD PUSH4 0xA12F521 PUSH1 0xE1 SHL DUP2 MSTORE PUSH1 0x4 ADD PUSH1 0x40 MLOAD DUP1 SWAP2 SUB SWAP1 REVERT JUMPDEST DUP3 DUP1 SLOAD DUP3 DUP3 SSTORE SWAP1 PUSH1 0x0 MSTORE PUSH1 0x20 PUSH1 0x0 KECCAK256 SWAP1 DUP2 ADD SWAP3 DUP3 ISZERO PUSH2 0x38CD JUMPI SWAP2 PUSH1 0x20 MUL DUP3 ADD JUMPDEST DUP3 DUP2 GT ISZERO PUSH2 0x38CD JUMPI DUP3 MLOAD DUP3 SLOAD PUSH1 0x1 PUSH1 0x1 PUSH1 0xA0 SHL SUB NOT AND PUSH1 0x1 PUSH1 0x1 PUSH1 0xA0 SHL SUB SWAP1 SWAP2 AND OR DUP3 SSTORE PUSH1 0x20 SWAP1 SWAP3 ADD SWAP2 PUSH1 0x1 SWAP1 SWAP2 ADD SWAP1 PUSH2 0x3898 JUMP JUMPDEST POP PUSH2 0x38D9 SWAP3 SWAP2 POP PUSH2 0x38DD JUMP JUMPDEST POP SWAP1 JUMP JUMPDEST JUMPDEST DUP1 DUP3 GT ISZERO PUSH2 0x38D9 JUMPI PUSH1 0x0 DUP2 SSTORE PUSH1 0x1 ADD PUSH2 0x38DE JUMP JUMPDEST DUP1 CALLDATALOAD PUSH1 0x1 PUSH1 0x1 PUSH1 0xA0 SHL SUB DUP2 AND DUP2 EQ PUSH2 0x3909 JUMPI PUSH1 0x0 DUP1 REVERT JUMPDEST SWAP2 SWAP1 POP JUMP JUMPDEST PUSH1 0x0 DUP1 PUSH1 0x40 DUP4 DUP6 SUB SLT ISZERO PUSH2 0x3921 JUMPI PUSH1 0x0 DUP1 REVERT JUMPDEST DUP3 CALLDATALOAD SWAP2 POP PUSH2 0x3931 PUSH1 0x20 DUP5 ADD PUSH2 0x38F2 JUMP JUMPDEST SWAP1 POP SWAP3 POP SWAP3 SWAP1 POP JUMP JUMPDEST PUSH1 0x0 PUSH1 0x20 DUP3 DUP5 SUB SLT ISZERO PUSH2 0x394C JUMPI PUSH1 0x0 DUP1 REVERT JUMPDEST DUP2 CALLDATALOAD PUSH1 0x1 PUSH1 0x1 PUSH1 0xE0 SHL SUB NOT DUP2 AND DUP2 EQ PUSH2 0x17DD JUMPI PUSH1 0x0 DUP1 REVERT JUMPDEST PUSH1 0x0 PUSH1 0x20 DUP3 DUP5 SUB SLT ISZERO PUSH2 0x3976 JUMPI PUSH1 0x0 DUP1 REVERT JUMPDEST POP CALLDATALOAD SWAP2 SWAP1 POP JUMP JUMPDEST PUSH1 0x0 PUSH1 0x20 DUP3 DUP5 SUB SLT ISZERO PUSH2 0x398F JUMPI PUSH1 0x0 DUP1 REVERT JUMPDEST PUSH2 0x17DD DUP3 PUSH2 0x38F2 JUMP JUMPDEST PUSH4 0x4E487B71 PUSH1 0xE0 SHL PUSH1 0x0 MSTORE PUSH1 0x41 PUSH1 0x4 MSTORE PUSH1 0x24 PUSH1 0x0 REVERT JUMPDEST PUSH1 0x40 MLOAD PUSH1 0x1F DUP3 ADD PUSH1 0x1F NOT AND DUP2 ADD PUSH8 0xFFFFFFFFFFFFFFFF DUP2 GT DUP3 DUP3 LT OR ISZERO PUSH2 0x39D7 JUMPI PUSH2 0x39D7 PUSH2 0x3998 JUMP JUMPDEST PUSH1 0x40 MSTORE SWAP2 SWAP1 POP JUMP JUMPDEST PUSH1 0x0 PUSH8 0xFFFFFFFFFFFFFFFF DUP3 GT ISZERO PUSH2 0x39F9 JUMPI PUSH2 0x39F9 PUSH2 0x3998 JUMP JUMPDEST POP PUSH1 0x1F ADD PUSH1 0x1F NOT AND PUSH1 0x20 ADD SWAP1 JUMP JUMPDEST PUSH1 0x0 DUP1 PUSH1 0x40 DUP4 DUP6 SUB SLT ISZERO PUSH2 0x3A1A JUMPI PUSH1 0x0 DUP1 REVERT JUMPDEST PUSH2 0x3A23 DUP4 PUSH2 0x38F2 JUMP JUMPDEST SWAP2 POP PUSH1 0x20 DUP4 ADD CALLDATALOAD PUSH8 0xFFFFFFFFFFFFFFFF DUP2 GT ISZERO PUSH2 0x3A3F JUMPI PUSH1 0x0 DUP1 REVERT JUMPDEST DUP4 ADD PUSH1 0x1F DUP2 ADD DUP6 SGT PUSH2 0x3A50 JUMPI PUSH1 0x0 DUP1 REVERT JUMPDEST DUP1 CALLDATALOAD PUSH2 0x3A63 PUSH2 0x3A5E DUP3 PUSH2 0x39DF JUMP JUMPDEST PUSH2 0x39AE JUMP JUMPDEST DUP2 DUP2 MSTORE DUP7 PUSH1 0x20 DUP4 DUP6 ADD ADD GT ISZERO PUSH2 0x3A78 JUMPI PUSH1 0x0 DUP1 REVERT JUMPDEST DUP2 PUSH1 0x20 DUP5 ADD PUSH1 0x20 DUP4 ADD CALLDATACOPY PUSH1 0x0 PUSH1 0x20 DUP4 DUP4 ADD ADD MSTORE DUP1 SWAP4 POP POP POP POP SWAP3 POP SWAP3 SWAP1 POP JUMP JUMPDEST PUSH1 0x0 DUP1 PUSH1 0x40 DUP4 DUP6 SUB SLT ISZERO PUSH2 0x3AAB JUMPI PUSH1 0x0 DUP1 REVERT JUMPDEST PUSH2 0x3AB4 DUP4 PUSH2 0x38F2 JUMP JUMPDEST SWAP5 PUSH1 0x20 SWAP4 SWAP1 SWAP4 ADD CALLDATALOAD SWAP4 POP POP POP JUMP JUMPDEST PUSH1 0x0 DUP1 PUSH1 0x0 PUSH1 0x60 DUP5 DUP7 SUB SLT ISZERO PUSH2 0x3AD7 JUMPI PUSH1 0x0 DUP1 REVERT JUMPDEST DUP4 CALLDATALOAD SWAP3 POP PUSH2 0x3AE7 PUSH1 0x20 DUP6 ADD PUSH2 0x38F2 JUMP JUMPDEST SWAP2 POP PUSH1 0x40 DUP5 ADD CALLDATALOAD SWAP1 POP SWAP3 POP SWAP3 POP SWAP3 JUMP JUMPDEST PUSH1 0x0 DUP1 PUSH1 0x0 DUP1 PUSH1 0x60 DUP6 DUP8 SUB SLT ISZERO PUSH2 0x3B0D JUMPI PUSH1 0x0 DUP1 REVERT JUMPDEST PUSH2 0x3B16 DUP6 PUSH2 0x38F2 JUMP JUMPDEST SWAP4 POP PUSH1 0x20 DUP6 ADD CALLDATALOAD SWAP3 POP PUSH1 0x40 DUP6 ADD CALLDATALOAD PUSH8 0xFFFFFFFFFFFFFFFF DUP1 DUP3 GT ISZERO PUSH2 0x3B3A JUMPI PUSH1 0x0 DUP1 REVERT JUMPDEST DUP2 DUP8 ADD SWAP2 POP DUP8 PUSH1 0x1F DUP4 ADD SLT PUSH2 0x3B4E JUMPI PUSH1 0x0 DUP1 REVERT JUMPDEST DUP2 CALLDATALOAD DUP2 DUP2 GT ISZERO PUSH2 0x3B5D JUMPI PUSH1 0x0 DUP1 REVERT JUMPDEST DUP9 PUSH1 0x20 DUP3 PUSH1 0x5 SHL DUP6 ADD ADD GT ISZERO PUSH2 0x3B72 JUMPI PUSH1 0x0 DUP1 REVERT JUMPDEST SWAP6 SWAP9 SWAP5 SWAP8 POP POP PUSH1 0x20 ADD SWAP5 POP POP POP JUMP JUMPDEST PUSH1 0x0 DUP1 PUSH1 0x0 PUSH1 0x60 DUP5 DUP7 SUB SLT ISZERO PUSH2 0x3B96 JUMPI PUSH1 0x0 DUP1 REVERT JUMPDEST PUSH2 0x3B9F DUP5 PUSH2 0x38F2 JUMP JUMPDEST SWAP6 PUSH1 0x20 DUP6 ADD CALLDATALOAD SWAP6 POP PUSH1 0x40 SWAP1 SWAP5 ADD CALLDATALOAD SWAP4 SWAP3 POP POP POP JUMP JUMPDEST PUSH1 0x20 DUP1 DUP3 MSTORE DUP3 MLOAD DUP3 DUP3 ADD DUP2 SWAP1 MSTORE PUSH1 0x0 SWAP2 SWAP1 PUSH1 0x40 SWAP1 DUP2 DUP6 ADD SWAP1 DUP7 DUP5 ADD DUP6 JUMPDEST DUP3 DUP2 LT ISZERO PUSH2 0x3C28 JUMPI DUP2 MLOAD DUP1 MLOAD DUP6 MSTORE DUP7 DUP2 ADD MLOAD DUP8 DUP7 ADD MSTORE DUP6 DUP2 ADD MLOAD PUSH1 0x1 PUSH1 0x1 PUSH1 0xA0 SHL SUB AND DUP7 DUP7 ADD MSTORE PUSH1 0x60 DUP1 DUP3 ADD MLOAD SWAP1 DUP7 ADD MSTORE PUSH1 0x80 DUP1 DUP3 ADD MLOAD SWAP1 DUP7 ADD MSTORE PUSH1 0xA0 SWAP1 DUP2 ADD MLOAD SWAP1 DUP6 ADD MSTORE PUSH1 0xC0 SWAP1 SWAP4 ADD SWAP3 SWAP1 DUP6 ADD SWAP1 PUSH1 0x1 ADD PUSH2 0x3BD1 JUMP JUMPDEST POP SWAP2 SWAP8 SWAP7 POP POP POP POP POP POP POP JUMP JUMPDEST PUSH1 0x0 JUMPDEST DUP4 DUP2 LT ISZERO PUSH2 0x3C50 JUMPI DUP2 DUP2 ADD MLOAD DUP4 DUP3 ADD MSTORE PUSH1 0x20 ADD PUSH2 0x3C38 JUMP JUMPDEST POP POP PUSH1 0x0 SWAP2 ADD MSTORE JUMP JUMPDEST PUSH1 0x0 DUP2 MLOAD DUP1 DUP5 MSTORE PUSH2 0x3C71 DUP2 PUSH1 0x20 DUP7 ADD PUSH1 0x20 DUP7 ADD PUSH2 0x3C35 JUMP JUMPDEST PUSH1 0x1F ADD PUSH1 0x1F NOT AND SWAP3 SWAP1 SWAP3 ADD PUSH1 0x20 ADD SWAP3 SWAP2 POP POP JUMP JUMPDEST PUSH1 0x20 DUP2 MSTORE PUSH1 0x0 PUSH2 0x17DD PUSH1 0x20 DUP4 ADD DUP5 PUSH2 0x3C59 JUMP JUMPDEST PUSH1 0x0 DUP1 PUSH1 0x0 PUSH1 0x60 DUP5 DUP7 SUB SLT ISZERO PUSH2 0x3CAD JUMPI PUSH1 0x0 DUP1 REVERT JUMPDEST PUSH2 0x3CB6 DUP5 PUSH2 0x38F2 JUMP JUMPDEST SWAP3 POP PUSH2 0x3CC4 PUSH1 0x20 DUP6 ADD PUSH2 0x38F2 JUMP JUMPDEST SWAP2 POP PUSH2 0x3CD2 PUSH1 0x40 DUP6 ADD PUSH2 0x38F2 JUMP JUMPDEST SWAP1 POP SWAP3 POP SWAP3 POP SWAP3 JUMP JUMPDEST PUSH1 0x0 DUP2 MLOAD DUP1 DUP5 MSTORE PUSH1 0x20 DUP1 DUP6 ADD SWAP5 POP DUP1 DUP5 ADD PUSH1 0x0 JUMPDEST DUP4 DUP2 LT ISZERO PUSH2 0x3D14 JUMPI DUP2 MLOAD PUSH1 0x1 PUSH1 0x1 PUSH1 0xA0 SHL SUB AND DUP8 MSTORE SWAP6 DUP3 ADD SWAP6 SWAP1 DUP3 ADD SWAP1 PUSH1 0x1 ADD PUSH2 0x3CEF JUMP JUMPDEST POP SWAP5 SWAP6 SWAP5 POP POP POP POP POP JUMP JUMPDEST PUSH1 0x0 PUSH1 0x20 DUP1 DUP4 ADD DUP2 DUP5 MSTORE DUP1 DUP6 MLOAD DUP1 DUP4 MSTORE PUSH1 0x40 SWAP3 POP DUP3 DUP7 ADD SWAP2 POP DUP3 DUP2 PUSH1 0x5 SHL DUP8 ADD ADD DUP5 DUP9 ADD PUSH1 0x0 JUMPDEST DUP4 DUP2 LT ISZERO PUSH2 0x3DB0 JUMPI PUSH1 0x3F NOT DUP10 DUP5 SUB ADD DUP6 MSTORE DUP2 MLOAD PUSH1 0x80 DUP2 MLOAD DUP6 MSTORE PUSH1 0xFF DUP10 DUP4 ADD MLOAD AND DUP10 DUP7 ADD MSTORE DUP8 DUP3 ADD MLOAD DUP2 DUP10 DUP8 ADD MSTORE PUSH2 0x3D7F DUP3 DUP8 ADD DUP3 PUSH2 0x3CDB JUMP JUMPDEST SWAP2 POP POP PUSH1 0x60 DUP1 DUP4 ADD MLOAD SWAP3 POP DUP6 DUP3 SUB DUP2 DUP8 ADD MSTORE POP PUSH2 0x3D9C DUP2 DUP4 PUSH2 0x3CDB JUMP JUMPDEST SWAP7 DUP10 ADD SWAP7 SWAP5 POP POP POP SWAP1 DUP7 ADD SWAP1 PUSH1 0x1 ADD PUSH2 0x3D46 JUMP JUMPDEST POP SWAP1 SWAP9 SWAP8 POP POP POP POP POP POP POP POP JUMP JUMPDEST PUSH1 0x0 DUP1 PUSH1 0x0 DUP1 PUSH1 0x80 DUP6 DUP8 SUB SLT ISZERO PUSH2 0x3DD4 JUMPI PUSH1 0x0 DUP1 REVERT JUMPDEST PUSH2 0x3DDD DUP6 PUSH2 0x38F2 JUMP JUMPDEST SWAP4 POP PUSH1 0x20 DUP6 ADD CALLDATALOAD PUSH2 0xFFFF DUP2 AND DUP2 EQ PUSH2 0x3DF4 JUMPI PUSH1 0x0 DUP1 REVERT JUMPDEST SWAP3 POP PUSH2 0x3E02 PUSH1 0x40 DUP7 ADD PUSH2 0x38F2 JUMP JUMPDEST SWAP4 SWAP7 SWAP3 SWAP6 POP SWAP3 SWAP4 PUSH1 0x60 ADD CALLDATALOAD SWAP3 POP POP JUMP JUMPDEST PUSH1 0x0 PUSH1 0x20 DUP3 DUP5 SUB SLT ISZERO PUSH2 0x3E24 JUMPI PUSH1 0x0 DUP1 REVERT JUMPDEST DUP2 MLOAD PUSH1 0xFF DUP2 AND DUP2 EQ PUSH2 0x17DD JUMPI PUSH1 0x0 DUP1 REVERT JUMPDEST PUSH4 0x4E487B71 PUSH1 0xE0 SHL PUSH1 0x0 MSTORE PUSH1 0x11 PUSH1 0x4 MSTORE PUSH1 0x24 PUSH1 0x0 REVERT JUMPDEST DUP1 DUP3 MUL DUP2 ISZERO DUP3 DUP3 DIV DUP5 EQ OR PUSH2 0x94E JUMPI PUSH2 0x94E PUSH2 0x3E35 JUMP JUMPDEST PUSH1 0x20 DUP1 DUP3 MSTORE PUSH1 0x36 SWAP1 DUP3 ADD MSTORE PUSH32 0x5468652075736572206D7573742077616974206174206C656173742031383020 PUSH1 0x40 DUP3 ADD MSTORE PUSH22 0x6461797320746F2077697468647261772066756E6473 PUSH1 0x50 SHL PUSH1 0x60 DUP3 ADD MSTORE PUSH1 0x80 ADD SWAP1 JUMP JUMPDEST DUP2 DUP2 SUB DUP2 DUP2 GT ISZERO PUSH2 0x94E JUMPI PUSH2 0x94E PUSH2 0x3E35 JUMP JUMPDEST PUSH4 0x4E487B71 PUSH1 0xE0 SHL PUSH1 0x0 MSTORE PUSH1 0x12 PUSH1 0x4 MSTORE PUSH1 0x24 PUSH1 0x0 REVERT JUMPDEST PUSH1 0x0 DUP3 PUSH2 0x3EF0 JUMPI PUSH2 0x3EF0 PUSH2 0x3ECB JUMP JUMPDEST POP DIV SWAP1 JUMP JUMPDEST PUSH1 0x20 DUP1 DUP3 MSTORE PUSH1 0x16 SWAP1 DUP3 ADD MSTORE PUSH22 0x21B0B63632B91034B9903737BA1030B71020B236B4B7 PUSH1 0x51 SHL PUSH1 0x40 DUP3 ADD MSTORE PUSH1 0x60 ADD SWAP1 JUMP JUMPDEST PUSH1 0x0 PUSH1 0x20 DUP3 DUP5 SUB SLT ISZERO PUSH2 0x3F37 JUMPI PUSH1 0x0 DUP1 REVERT JUMPDEST POP MLOAD SWAP2 SWAP1 POP JUMP JUMPDEST PUSH1 0x0 PUSH1 0x20 DUP3 DUP5 SUB SLT ISZERO PUSH2 0x3F50 JUMPI PUSH1 0x0 DUP1 REVERT JUMPDEST DUP2 MLOAD DUP1 ISZERO ISZERO DUP2 EQ PUSH2 0x17DD JUMPI PUSH1 0x0 DUP1 REVERT JUMPDEST PUSH1 0x20 DUP1 DUP3 MSTORE PUSH1 0x1E SWAP1 DUP3 ADD MSTORE PUSH32 0x4572726F72207768696C65206F627461696E696E6720646563696D616C730000 PUSH1 0x40 DUP3 ADD MSTORE PUSH1 0x60 ADD SWAP1 JUMP JUMPDEST PUSH1 0x1 DUP2 DUP2 JUMPDEST DUP1 DUP6 GT ISZERO PUSH2 0x3FD2 JUMPI DUP2 PUSH1 0x0 NOT DIV DUP3 GT ISZERO PUSH2 0x3FB8 JUMPI PUSH2 0x3FB8 PUSH2 0x3E35 JUMP JUMPDEST DUP1 DUP6 AND ISZERO PUSH2 0x3FC5 JUMPI SWAP2 DUP2 MUL SWAP2 JUMPDEST SWAP4 DUP5 SHR SWAP4 SWAP1 DUP1 MUL SWAP1 PUSH2 0x3F9C JUMP JUMPDEST POP SWAP3 POP SWAP3 SWAP1 POP JUMP JUMPDEST PUSH1 0x0 DUP3 PUSH2 0x3FE9 JUMPI POP PUSH1 0x1 PUSH2 0x94E JUMP JUMPDEST DUP2 PUSH2 0x3FF6 JUMPI POP PUSH1 0x0 PUSH2 0x94E JUMP JUMPDEST DUP2 PUSH1 0x1 DUP2 EQ PUSH2 0x400C JUMPI PUSH1 0x2 DUP2 EQ PUSH2 0x4016 JUMPI PUSH2 0x4032 JUMP JUMPDEST PUSH1 0x1 SWAP2 POP POP PUSH2 0x94E JUMP JUMPDEST PUSH1 0xFF DUP5 GT ISZERO PUSH2 0x4027 JUMPI PUSH2 0x4027 PUSH2 0x3E35 JUMP JUMPDEST POP POP PUSH1 0x1 DUP3 SHL PUSH2 0x94E JUMP JUMPDEST POP PUSH1 0x20 DUP4 LT PUSH2 0x133 DUP4 LT AND PUSH1 0x4E DUP5 LT PUSH1 0xB DUP5 LT AND OR ISZERO PUSH2 0x4055 JUMPI POP DUP2 DUP2 EXP PUSH2 0x94E JUMP JUMPDEST PUSH2 0x405F DUP4 DUP4 PUSH2 0x3F97 JUMP JUMPDEST DUP1 PUSH1 0x0 NOT DIV DUP3 GT ISZERO PUSH2 0x4073 JUMPI PUSH2 0x4073 PUSH2 0x3E35 JUMP JUMPDEST MUL SWAP4 SWAP3 POP POP POP JUMP JUMPDEST PUSH1 0x0 PUSH2 0x17DD PUSH1 0xFF DUP5 AND DUP4 PUSH2 0x3FDA JUMP JUMPDEST PUSH4 0x4E487B71 PUSH1 0xE0 SHL PUSH1 0x0 MSTORE PUSH1 0x32 PUSH1 0x4 MSTORE PUSH1 0x24 PUSH1 0x0 REVERT JUMPDEST PUSH1 0x0 PUSH1 0xFF DUP3 AND PUSH1 0xFF DUP2 SUB PUSH2 0x40B6 JUMPI PUSH2 0x40B6 PUSH2 0x3E35 JUMP JUMPDEST PUSH1 0x1 ADD SWAP3 SWAP2 POP POP JUMP JUMPDEST PUSH1 0x0 PUSH1 0x1 DUP3 ADD PUSH2 0x40D1 JUMPI PUSH2 0x40D1 PUSH2 0x3E35 JUMP JUMPDEST POP PUSH1 0x1 ADD SWAP1 JUMP JUMPDEST DUP4 DUP2 MSTORE PUSH1 0x40 PUSH1 0x20 DUP1 DUP4 ADD DUP3 SWAP1 MSTORE SWAP1 DUP3 ADD DUP4 SWAP1 MSTORE PUSH1 0x0 SWAP1 DUP5 SWAP1 PUSH1 0x60 DUP5 ADD DUP4 JUMPDEST DUP7 DUP2 LT ISZERO PUSH2 0x4122 JUMPI PUSH1 0x1 PUSH1 0x1 PUSH1 0xA0 SHL SUB PUSH2 0x410F DUP6 PUSH2 0x38F2 JUMP JUMPDEST AND DUP3 MSTORE SWAP3 DUP3 ADD SWAP3 SWAP1 DUP3 ADD SWAP1 PUSH1 0x1 ADD PUSH2 0x40F6 JUMP JUMPDEST POP SWAP8 SWAP7 POP POP POP POP POP POP POP JUMP JUMPDEST PUSH1 0x0 DUP3 PUSH2 0x413D JUMPI PUSH2 0x413D PUSH2 0x3ECB JUMP JUMPDEST POP MOD SWAP1 JUMP JUMPDEST DUP1 DUP3 ADD DUP1 DUP3 GT ISZERO PUSH2 0x94E JUMPI PUSH2 0x94E PUSH2 0x3E35 JUMP JUMPDEST PUSH1 0x0 DUP1 PUSH1 0x40 DUP4 DUP6 SUB SLT ISZERO PUSH2 0x4168 JUMPI PUSH1 0x0 DUP1 REVERT JUMPDEST POP POP DUP1 MLOAD PUSH1 0x20 SWAP1 SWAP2 ADD MLOAD SWAP1 SWAP3 SWAP1 SWAP2 POP JUMP JUMPDEST PUSH1 0x0 PUSH1 0x20 DUP3 DUP5 SUB SLT ISZERO PUSH2 0x418B JUMPI PUSH1 0x0 DUP1 REVERT JUMPDEST DUP2 MLOAD PUSH8 0xFFFFFFFFFFFFFFFF DUP2 GT ISZERO PUSH2 0x41A2 JUMPI PUSH1 0x0 DUP1 REVERT JUMPDEST DUP3 ADD PUSH1 0x1F DUP2 ADD DUP5 SGT PUSH2 0x41B3 JUMPI PUSH1 0x0 DUP1 REVERT JUMPDEST DUP1 MLOAD PUSH2 0x41C1 PUSH2 0x3A5E DUP3 PUSH2 0x39DF JUMP JUMPDEST DUP2 DUP2 MSTORE DUP6 PUSH1 0x20 DUP4 DUP6 ADD ADD GT ISZERO PUSH2 0x41D6 JUMPI PUSH1 0x0 DUP1 REVERT JUMPDEST PUSH2 0x2E25 DUP3 PUSH1 0x20 DUP4 ADD PUSH1 0x20 DUP7 ADD PUSH2 0x3C35 JUMP JUMPDEST PUSH1 0x40 DUP2 MSTORE PUSH1 0x0 PUSH2 0x41FA PUSH1 0x40 DUP4 ADD DUP6 PUSH2 0x3C59 JUMP JUMPDEST DUP3 DUP2 SUB PUSH1 0x20 DUP5 ADD MSTORE PUSH2 0x2E25 DUP2 DUP6 PUSH2 0x3C59 JUMP JUMPDEST PUSH4 0x4E487B71 PUSH1 0xE0 SHL PUSH1 0x0 MSTORE PUSH1 0x31 PUSH1 0x4 MSTORE PUSH1 0x24 PUSH1 0x0 REVERT JUMPDEST PUSH1 0xFF DUP3 DUP2 AND DUP3 DUP3 AND SUB SWAP1 DUP2 GT ISZERO PUSH2 0x94E JUMPI PUSH2 0x94E PUSH2 0x3E35 JUMP JUMPDEST PUSH1 0xFF DUP2 DUP2 AND DUP4 DUP3 AND ADD SWAP1 DUP2 GT ISZERO PUSH2 0x94E JUMPI PUSH2 0x94E PUSH2 0x3E35 JUMP JUMPDEST PUSH1 0x0 DUP3 MLOAD PUSH2 0x4266 DUP2 DUP5 PUSH1 0x20 DUP8 ADD PUSH2 0x3C35 JUMP JUMPDEST SWAP2 SWAP1 SWAP2 ADD SWAP3 SWAP2 POP POP JUMP INVALID CALLDATASIZE ADDMOD SWAP5 LOG1 EXTCODESIZE LOG1 LOG3 0x21 MOD PUSH8 0xC828492DB98DCA3E KECCAK256 PUSH23 0xCC3735A920A3CA505D382BBC02DD7BC7DEC4DCEEDDA775 0xE5 DUP14 0xD5 COINBASE 0xE0 DUP11 GT PUSH13 0x6C53815C0BD028192F7B626800 LOG2 PUSH5 0x6970667358 0x22 SLT KECCAK256 SWAP7 0xBD SWAP7 PUSH3 0x9B0289 CREATE 0xB7 0xDC 0xD1 CHAINID DUP15 MSTORE 0xDD SHR DUP9 DIV SWAP10 0xBD LOG2 MULMOD PUSH26 0x41AC0B04DDA8AA421E64736F6C63430008140033000000000000 "},"methodIdentifiers":{"DEFAULT_ADMIN_ROLE()":"a217fddf","INTEREST_RATE_PER_DAY()":"969f9efa","UPGRADE_INTERFACE_VERSION()":"ad3cb1cc","addToken(address)":"d48bfca7","calculateInterests(uint256,address,uint256)":"caba969f","decreaseQuota(address,uint256)":"61e576b8","fund(uint256,address)":"eee92395","funds()":"c89f2ce4","getRoleAdmin(bytes32)":"248a9ca3","getSpareFunds(address)":"3ead66c8","getUserLendsPaginated(address,uint256,uint256)":"87373fc1","getUserQuotaRequests(address,uint256,uint256)":"e0e713dd","grantRole(bytes32,address)":"2f2ff15d","hasRole(bytes32,address)":"91d14854","increaseQuota(address,uint16,address,uint256)":"f1400062","initialize(address,address,address)":"c0c53b8b","owner()":"8da5cb5b","paused()":"5c975abb","payDebt(uint256,address,uint256)":"d7d9f9ec","proxiableUUID()":"52d1902d","renounceOwnership()":"715018a6","renounceRole(bytes32,address)":"36568abe","requestIncreaseQuota(address,uint256,address[])":"81d945d2","requestLend(uint256,address,uint256)":"6e99700a","revokeRole(bytes32,address)":"d547741f","setInterestPerDay(uint256)":"1031f4f9","supportsInterface(bytes4)":"01ffc9a7","transferOwnership(address)":"f2fde38b","upgradeToAndCall(address,bytes)":"4f1ef286","user(address)":"81e7e20e","withdraw(uint256,address)":"00f714ce","withdrawWithoutInterests(uint256,address)":"9ebb4112"}},"storageLayout":{"storage":[{"astId":2900,"contract":"contracts/ReFiMedLendUpgradeable.sol:ReFiMedLendUpgradeable","label":"ATTESTATION_RESOLVER","offset":0,"slot":"0","type":"t_bytes32"},{"astId":2902,"contract":"contracts/ReFiMedLendUpgradeable.sol:ReFiMedLendUpgradeable","label":"ADMIN","offset":0,"slot":"1","type":"t_bytes32"},{"astId":2904,"contract":"contracts/ReFiMedLendUpgradeable.sol:ReFiMedLendUpgradeable","label":"INTEREST_RATE_PER_DAY","offset":0,"slot":"2","type":"t_uint256"},{"astId":2906,"contract":"contracts/ReFiMedLendUpgradeable.sol:ReFiMedLendUpgradeable","label":"_SCALAR","offset":0,"slot":"3","type":"t_uint256"},{"astId":2908,"contract":"contracts/ReFiMedLendUpgradeable.sol:ReFiMedLendUpgradeable","label":"_lendNonce","offset":0,"slot":"4","type":"t_uint256"},{"astId":2913,"contract":"contracts/ReFiMedLendUpgradeable.sol:ReFiMedLendUpgradeable","label":"user","offset":0,"slot":"5","type":"t_mapping(t_address,t_struct(User)2889_storage)"},{"astId":2919,"contract":"contracts/ReFiMedLendUpgradeable.sol:ReFiMedLendUpgradeable","label":"_userTokenBalances","offset":0,"slot":"6","type":"t_mapping(t_address,t_mapping(t_address,t_uint256))"},{"astId":2923,"contract":"contracts/ReFiMedLendUpgradeable.sol:ReFiMedLendUpgradeable","label":"_tokens","offset":0,"slot":"7","type":"t_mapping(t_address,t_bool)"},{"astId":2926,"contract":"contracts/ReFiMedLendUpgradeable.sol:ReFiMedLendUpgradeable","label":"funds","offset":0,"slot":"8","type":"t_struct(Funds)2898_storage"}],"types":{"t_address":{"encoding":"inplace","label":"address","numberOfBytes":"20"},"t_array(t_address)dyn_storage":{"base":"t_address","encoding":"dynamic_array","label":"address[]","numberOfBytes":"32"},"t_array(t_struct(Lend)2861_storage)dyn_storage":{"base":"t_struct(Lend)2861_storage","encoding":"dynamic_array","label":"struct ReFiMedLendUpgradeable.Lend[]","numberOfBytes":"32"},"t_array(t_struct(UserQuotaRequest)2872_storage)dyn_storage":{"base":"t_struct(UserQuotaRequest)2872_storage","encoding":"dynamic_array","label":"struct ReFiMedLendUpgradeable.UserQuotaRequest[]","numberOfBytes":"32"},"t_bool":{"encoding":"inplace","label":"bool","numberOfBytes":"1"},"t_bytes32":{"encoding":"inplace","label":"bytes32","numberOfBytes":"32"},"t_mapping(t_address,t_bool)":{"encoding":"mapping","key":"t_address","label":"mapping(address => bool)","numberOfBytes":"32","value":"t_bool"},"t_mapping(t_address,t_mapping(t_address,t_uint256))":{"encoding":"mapping","key":"t_address","label":"mapping(address => mapping(address => uint256))","numberOfBytes":"32","value":"t_mapping(t_address,t_uint256)"},"t_mapping(t_address,t_struct(User)2889_storage)":{"encoding":"mapping","key":"t_address","label":"mapping(address => struct ReFiMedLendUpgradeable.User)","numberOfBytes":"32","value":"t_struct(User)2889_storage"},"t_mapping(t_address,t_uint256)":{"encoding":"mapping","key":"t_address","label":"mapping(address => uint256)","numberOfBytes":"32","value":"t_uint256"},"t_struct(Funds)2898_storage":{"encoding":"inplace","label":"struct ReFiMedLendUpgradeable.Funds","members":[{"astId":2891,"contract":"contracts/ReFiMedLendUpgradeable.sol:ReFiMedLendUpgradeable","label":"totalFunds","offset":0,"slot":"0","type":"t_uint256"},{"astId":2893,"contract":"contracts/ReFiMedLendUpgradeable.sol:ReFiMedLendUpgradeable","label":"interests","offset":0,"slot":"1","type":"t_uint256"},{"astId":2895,"contract":"contracts/ReFiMedLendUpgradeable.sol:ReFiMedLendUpgradeable","label":"totalInterestShares","offset":0,"slot":"2","type":"t_uint256"},{"astId":2897,"contract":"contracts/ReFiMedLendUpgradeable.sol:ReFiMedLendUpgradeable","label":"interestPerShare","offset":0,"slot":"3","type":"t_uint256"}],"numberOfBytes":"128"},"t_struct(Lend)2861_storage":{"encoding":"inplace","label":"struct ReFiMedLendUpgradeable.Lend","members":[{"astId":2850,"contract":"contracts/ReFiMedLendUpgradeable.sol:ReFiMedLendUpgradeable","label":"initialAmount","offset":0,"slot":"0","type":"t_uint256"},{"astId":2852,"contract":"contracts/ReFiMedLendUpgradeable.sol:ReFiMedLendUpgradeable","label":"currentAmount","offset":0,"slot":"1","type":"t_uint256"},{"astId":2854,"contract":"contracts/ReFiMedLendUpgradeable.sol:ReFiMedLendUpgradeable","label":"token","offset":0,"slot":"2","type":"t_address"},{"astId":2856,"contract":"contracts/ReFiMedLendUpgradeable.sol:ReFiMedLendUpgradeable","label":"expectPaymentDue","offset":0,"slot":"3","type":"t_uint256"},{"astId":2858,"contract":"contracts/ReFiMedLendUpgradeable.sol:ReFiMedLendUpgradeable","label":"latestDebtTimestamp","offset":0,"slot":"4","type":"t_uint256"},{"astId":2860,"contract":"contracts/ReFiMedLendUpgradeable.sol:ReFiMedLendUpgradeable","label":"nonce","offset":0,"slot":"5","type":"t_uint256"}],"numberOfBytes":"192"},"t_struct(User)2889_storage":{"encoding":"inplace","label":"struct ReFiMedLendUpgradeable.User","members":[{"astId":2874,"contract":"contracts/ReFiMedLendUpgradeable.sol:ReFiMedLendUpgradeable","label":"quota","offset":0,"slot":"0","type":"t_uint256"},{"astId":2878,"contract":"contracts/ReFiMedLendUpgradeable.sol:ReFiMedLendUpgradeable","label":"currentLends","offset":0,"slot":"1","type":"t_array(t_struct(Lend)2861_storage)dyn_storage"},{"astId":2882,"contract":"contracts/ReFiMedLendUpgradeable.sol:ReFiMedLendUpgradeable","label":"userQuotaRequests","offset":0,"slot":"2","type":"t_array(t_struct(UserQuotaRequest)2872_storage)dyn_storage"},{"astId":2884,"contract":"contracts/ReFiMedLendUpgradeable.sol:ReFiMedLendUpgradeable","label":"currentFund","offset":0,"slot":"3","type":"t_uint256"},{"astId":2886,"contract":"contracts/ReFiMedLendUpgradeable.sol:ReFiMedLendUpgradeable","label":"interestShares","offset":0,"slot":"4","type":"t_uint256"},{"astId":2888,"contract":"contracts/ReFiMedLendUpgradeable.sol:ReFiMedLendUpgradeable","label":"lastFund","offset":0,"slot":"5","type":"t_uint256"}],"numberOfBytes":"192"},"t_struct(UserQuotaRequest)2872_storage":{"encoding":"inplace","label":"struct ReFiMedLendUpgradeable.UserQuotaRequest","members":[{"astId":2863,"contract":"contracts/ReFiMedLendUpgradeable.sol:ReFiMedLendUpgradeable","label":"amount","offset":0,"slot":"0","type":"t_uint256"},{"astId":2865,"contract":"contracts/ReFiMedLendUpgradeable.sol:ReFiMedLendUpgradeable","label":"successfulSigns","offset":0,"slot":"1","type":"t_uint8"},{"astId":2868,"contract":"contracts/ReFiMedLendUpgradeable.sol:ReFiMedLendUpgradeable","label":"signers","offset":0,"slot":"2","type":"t_array(t_address)dyn_storage"},{"astId":2871,"contract":"contracts/ReFiMedLendUpgradeable.sol:ReFiMedLendUpgradeable","label":"signedBy","offset":0,"slot":"3","type":"t_array(t_address)dyn_storage"}],"numberOfBytes":"128"},"t_uint256":{"encoding":"inplace","label":"uint256","numberOfBytes":"32"},"t_uint8":{"encoding":"inplace","label":"uint8","numberOfBytes":"1"}}}}}}