{"library/LendManagerUtils.sol":{"Utils":{"abi":[{"inputs":[{"internalType":"uint256","name":"time","type":"uint256"},{"internalType":"uint256","name":"interestAccrualRate","type":"uint256"},{"internalType":"uint256","name":"currentAmount","type":"uint256"}],"name":"calculateInterest","outputs":[{"internalType":"uint256","name":"","type":"uint256"},{"internalType":"uint256","name":"","type":"uint256"}],"stateMutability":"pure","type":"function"}],"evm":{"bytecode":{"linkReferences":{},"object":"6101f961003a600b82828239805160001a60731461002d57634e487b7160e01b600052600060045260246000fd5b30600052607381538281f3fe73000000000000000000000000000000000000000030146080604052600436106100355760003560e01c806305e1bd8c1461003a575b600080fd5b61004d610048366004610103565b610066565b6040805192835260208301919091520160405180910390f35b60008080610078846305f5e100610145565b905060005b868110156100bc576305f5e1006100948782610162565b61009e9084610145565b6100a89190610175565b9150806100b481610197565b91505061007d565b5060006100cd856305f5e100610145565b6100d790836101b0565b90506100e76305f5e10082610175565b6100f56305f5e10084610175565b935093505050935093915050565b60008060006060848603121561011857600080fd5b505081359360208301359350604090920135919050565b634e487b7160e01b600052601160045260246000fd5b808202811582820484141761015c5761015c61012f565b92915050565b8082018082111561015c5761015c61012f565b60008261019257634e487b7160e01b600052601260045260246000fd5b500490565b6000600182016101a9576101a961012f565b5060010190565b8181038181111561015c5761015c61012f56fea2646970667358221220d417f565133e56be82ad9beeb12e6e83a4bf94ae56b9b98279680546c45d345464736f6c63430008140033","opcodes":"PUSH2 0x1F9 PUSH2 0x3A PUSH1 0xB DUP3 DUP3 DUP3 CODECOPY DUP1 MLOAD PUSH1 0x0 BYTE PUSH1 0x73 EQ PUSH2 0x2D JUMPI PUSH4 0x4E487B71 PUSH1 0xE0 SHL PUSH1 0x0 MSTORE PUSH1 0x0 PUSH1 0x4 MSTORE PUSH1 0x24 PUSH1 0x0 REVERT JUMPDEST ADDRESS PUSH1 0x0 MSTORE PUSH1 0x73 DUP2 MSTORE8 DUP3 DUP2 RETURN INVALID PUSH20 0x0 ADDRESS EQ PUSH1 0x80 PUSH1 0x40 MSTORE PUSH1 0x4 CALLDATASIZE LT PUSH2 0x35 JUMPI PUSH1 0x0 CALLDATALOAD PUSH1 0xE0 SHR DUP1 PUSH4 0x5E1BD8C EQ PUSH2 0x3A JUMPI JUMPDEST PUSH1 0x0 DUP1 REVERT JUMPDEST PUSH2 0x4D PUSH2 0x48 CALLDATASIZE PUSH1 0x4 PUSH2 0x103 JUMP JUMPDEST PUSH2 0x66 JUMP JUMPDEST PUSH1 0x40 DUP1 MLOAD SWAP3 DUP4 MSTORE PUSH1 0x20 DUP4 ADD SWAP2 SWAP1 SWAP2 MSTORE ADD PUSH1 0x40 MLOAD DUP1 SWAP2 SUB SWAP1 RETURN JUMPDEST PUSH1 0x0 DUP1 DUP1 PUSH2 0x78 DUP5 PUSH4 0x5F5E100 PUSH2 0x145 JUMP JUMPDEST SWAP1 POP PUSH1 0x0 JUMPDEST DUP7 DUP2 LT ISZERO PUSH2 0xBC JUMPI PUSH4 0x5F5E100 PUSH2 0x94 DUP8 DUP3 PUSH2 0x162 JUMP JUMPDEST PUSH2 0x9E SWAP1 DUP5 PUSH2 0x145 JUMP JUMPDEST PUSH2 0xA8 SWAP2 SWAP1 PUSH2 0x175 JUMP JUMPDEST SWAP2 POP DUP1 PUSH2 0xB4 DUP2 PUSH2 0x197 JUMP JUMPDEST SWAP2 POP POP PUSH2 0x7D JUMP JUMPDEST POP PUSH1 0x0 PUSH2 0xCD DUP6 PUSH4 0x5F5E100 PUSH2 0x145 JUMP JUMPDEST PUSH2 0xD7 SWAP1 DUP4 PUSH2 0x1B0 JUMP JUMPDEST SWAP1 POP PUSH2 0xE7 PUSH4 0x5F5E100 DUP3 PUSH2 0x175 JUMP JUMPDEST PUSH2 0xF5 PUSH4 0x5F5E100 DUP5 PUSH2 0x175 JUMP JUMPDEST SWAP4 POP SWAP4 POP POP POP SWAP4 POP SWAP4 SWAP2 POP POP JUMP JUMPDEST PUSH1 0x0 DUP1 PUSH1 0x0 PUSH1 0x60 DUP5 DUP7 SUB SLT ISZERO PUSH2 0x118 JUMPI PUSH1 0x0 DUP1 REVERT JUMPDEST POP POP DUP2 CALLDATALOAD SWAP4 PUSH1 0x20 DUP4 ADD CALLDATALOAD SWAP4 POP PUSH1 0x40 SWAP1 SWAP3 ADD CALLDATALOAD SWAP2 SWAP1 POP JUMP JUMPDEST PUSH4 0x4E487B71 PUSH1 0xE0 SHL PUSH1 0x0 MSTORE PUSH1 0x11 PUSH1 0x4 MSTORE PUSH1 0x24 PUSH1 0x0 REVERT JUMPDEST DUP1 DUP3 MUL DUP2 ISZERO DUP3 DUP3 DIV DUP5 EQ OR PUSH2 0x15C JUMPI PUSH2 0x15C PUSH2 0x12F JUMP JUMPDEST SWAP3 SWAP2 POP POP JUMP JUMPDEST DUP1 DUP3 ADD DUP1 DUP3 GT ISZERO PUSH2 0x15C JUMPI PUSH2 0x15C PUSH2 0x12F JUMP JUMPDEST PUSH1 0x0 DUP3 PUSH2 0x192 JUMPI PUSH4 0x4E487B71 PUSH1 0xE0 SHL PUSH1 0x0 MSTORE PUSH1 0x12 PUSH1 0x4 MSTORE PUSH1 0x24 PUSH1 0x0 REVERT JUMPDEST POP DIV SWAP1 JUMP JUMPDEST PUSH1 0x0 PUSH1 0x1 DUP3 ADD PUSH2 0x1A9 JUMPI PUSH2 0x1A9 PUSH2 0x12F JUMP JUMPDEST POP PUSH1 0x1 ADD SWAP1 JUMP JUMPDEST DUP2 DUP2 SUB DUP2 DUP2 GT ISZERO PUSH2 0x15C JUMPI PUSH2 0x15C PUSH2 0x12F JUMP INVALID LOG2 PUSH5 0x6970667358 0x22 SLT KECCAK256 0xD4 OR CREATE2 PUSH6 0x133E56BE82AD SWAP12 0xEE 0xB1 0x2E PUSH15 0x83A4BF94AE56B9B98279680546C45D CALLVALUE SLOAD PUSH5 0x736F6C6343 STOP ADDMOD EQ STOP CALLER "},"methodIdentifiers":{"calculateInterest(uint256,uint256,uint256)":"05e1bd8c"}},"storageLayout":{"storage":[],"types":null}}}}