{
  "_format": "hh-sol-artifact-1",
  "contractName": "ReFiMedLendUpgradeable",
  "sourceName": "contracts/ReFiMedLendUpgradeable.sol",
  "abi": [
    {
      "inputs": [],
      "name": "AccessControlBadConfirmation",
      "type": "error"
    },
    {
      "inputs": [
        {
          "internalType": "address",
          "name": "account",
          "type": "address"
        },
        {
          "internalType": "bytes32",
          "name": "neededRole",
          "type": "bytes32"
        }
      ],
      "name": "AccessControlUnauthorizedAccount",
      "type": "error"
    },
    {
      "inputs": [
        {
          "internalType": "address",
          "name": "target",
          "type": "address"
        }
      ],
      "name": "AddressEmptyCode",
      "type": "error"
    },
    {
      "inputs": [
        {
          "internalType": "address",
          "name": "implementation",
          "type": "address"
        }
      ],
      "name": "ERC1967InvalidImplementation",
      "type": "error"
    },
    {
      "inputs": [],
      "name": "ERC1967NonPayable",
      "type": "error"
    },
    {
      "inputs": [],
      "name": "EnforcedPause",
      "type": "error"
    },
    {
      "inputs": [],
      "name": "ExpectedPause",
      "type": "error"
    },
    {
      "inputs": [],
      "name": "FailedInnerCall",
      "type": "error"
    },
    {
      "inputs": [],
      "name": "InvalidInitialization",
      "type": "error"
    },
    {
      "inputs": [],
      "name": "NotInitializing",
      "type": "error"
    },
    {
      "inputs": [
        {
          "internalType": "address",
          "name": "owner",
          "type": "address"
        }
      ],
      "name": "OwnableInvalidOwner",
      "type": "error"
    },
    {
      "inputs": [
        {
          "internalType": "address",
          "name": "account",
          "type": "address"
        }
      ],
      "name": "OwnableUnauthorizedAccount",
      "type": "error"
    },
    {
      "inputs": [],
      "name": "UUPSUnauthorizedCallContext",
      "type": "error"
    },
    {
      "inputs": [
        {
          "internalType": "bytes32",
          "name": "slot",
          "type": "bytes32"
        }
      ],
      "name": "UUPSUnsupportedProxiableUUID",
      "type": "error"
    },
    {
      "inputs": [],
      "name": "UnavailableAmount",
      "type": "error"
    },
    {
      "anonymous": false,
      "inputs": [
        {
          "indexed": true,
          "internalType": "address",
          "name": "debtor",
          "type": "address"
        },
        {
          "indexed": false,
          "internalType": "uint256",
          "name": "amount",
          "type": "uint256"
        },
        {
          "indexed": false,
          "internalType": "uint256",
          "name": "interests",
          "type": "uint256"
        },
        {
          "indexed": true,
          "internalType": "address",
          "name": "token",
          "type": "address"
        },
        {
          "indexed": false,
          "internalType": "uint8",
          "name": "decimals",
          "type": "uint8"
        },
        {
          "indexed": false,
          "internalType": "uint256",
          "name": "nonce",
          "type": "uint256"
        }
      ],
      "name": "Debt",
      "type": "event"
    },
    {
      "anonymous": false,
      "inputs": [
        {
          "indexed": true,
          "internalType": "address",
          "name": "funder",
          "type": "address"
        },
        {
          "indexed": false,
          "internalType": "uint256",
          "name": "amount",
          "type": "uint256"
        },
        {
          "indexed": true,
          "internalType": "address",
          "name": "token",
          "type": "address"
        },
        {
          "indexed": false,
          "internalType": "uint8",
          "name": "decimals",
          "type": "uint8"
        }
      ],
      "name": "Funded",
      "type": "event"
    },
    {
      "anonymous": false,
      "inputs": [
        {
          "indexed": false,
          "internalType": "uint64",
          "name": "version",
          "type": "uint64"
        }
      ],
      "name": "Initialized",
      "type": "event"
    },
    {
      "anonymous": false,
      "inputs": [
        {
          "indexed": true,
          "internalType": "address",
          "name": "lender",
          "type": "address"
        },
        {
          "indexed": false,
          "internalType": "uint256",
          "name": "amount",
          "type": "uint256"
        },
        {
          "indexed": true,
          "internalType": "address",
          "name": "token",
          "type": "address"
        },
        {
          "indexed": false,
          "internalType": "uint8",
          "name": "decimals",
          "type": "uint8"
        },
        {
          "indexed": false,
          "internalType": "uint256",
          "name": "nonce",
          "type": "uint256"
        }
      ],
      "name": "LendRepaid",
      "type": "event"
    },
    {
      "anonymous": false,
      "inputs": [
        {
          "indexed": true,
          "internalType": "address",
          "name": "lender",
          "type": "address"
        },
        {
          "indexed": false,
          "internalType": "uint256",
          "name": "amount",
          "type": "uint256"
        },
        {
          "indexed": true,
          "internalType": "address",
          "name": "token",
          "type": "address"
        },
        {
          "indexed": false,
          "internalType": "uint8",
          "name": "decimals",
          "type": "uint8"
        },
        {
          "indexed": false,
          "internalType": "uint256",
          "name": "paymentDue",
          "type": "uint256"
        },
        {
          "indexed": false,
          "internalType": "uint256",
          "name": "nonce",
          "type": "uint256"
        }
      ],
      "name": "Lending",
      "type": "event"
    },
    {
      "anonymous": false,
      "inputs": [
        {
          "indexed": true,
          "internalType": "address",
          "name": "previousOwner",
          "type": "address"
        },
        {
          "indexed": true,
          "internalType": "address",
          "name": "newOwner",
          "type": "address"
        }
      ],
      "name": "OwnershipTransferred",
      "type": "event"
    },
    {
      "anonymous": false,
      "inputs": [
        {
          "indexed": false,
          "internalType": "address",
          "name": "account",
          "type": "address"
        }
      ],
      "name": "Paused",
      "type": "event"
    },
    {
      "anonymous": false,
      "inputs": [
        {
          "indexed": true,
          "internalType": "bytes32",
          "name": "role",
          "type": "bytes32"
        },
        {
          "indexed": true,
          "internalType": "bytes32",
          "name": "previousAdminRole",
          "type": "bytes32"
        },
        {
          "indexed": true,
          "internalType": "bytes32",
          "name": "newAdminRole",
          "type": "bytes32"
        }
      ],
      "name": "RoleAdminChanged",
      "type": "event"
    },
    {
      "anonymous": false,
      "inputs": [
        {
          "indexed": true,
          "internalType": "bytes32",
          "name": "role",
          "type": "bytes32"
        },
        {
          "indexed": true,
          "internalType": "address",
          "name": "account",
          "type": "address"
        },
        {
          "indexed": true,
          "internalType": "address",
          "name": "sender",
          "type": "address"
        }
      ],
      "name": "RoleGranted",
      "type": "event"
    },
    {
      "anonymous": false,
      "inputs": [
        {
          "indexed": true,
          "internalType": "bytes32",
          "name": "role",
          "type": "bytes32"
        },
        {
          "indexed": true,
          "internalType": "address",
          "name": "account",
          "type": "address"
        },
        {
          "indexed": true,
          "internalType": "address",
          "name": "sender",
          "type": "address"
        }
      ],
      "name": "RoleRevoked",
      "type": "event"
    },
    {
      "anonymous": false,
      "inputs": [
        {
          "indexed": true,
          "internalType": "address",
          "name": "tokenAddress",
          "type": "address"
        },
        {
          "indexed": false,
          "internalType": "string",
          "name": "symbol",
          "type": "string"
        },
        {
          "indexed": false,
          "internalType": "string",
          "name": "name",
          "type": "string"
        }
      ],
      "name": "TokenAdded",
      "type": "event"
    },
    {
      "anonymous": false,
      "inputs": [
        {
          "indexed": false,
          "internalType": "address",
          "name": "account",
          "type": "address"
        }
      ],
      "name": "Unpaused",
      "type": "event"
    },
    {
      "anonymous": false,
      "inputs": [
        {
          "indexed": true,
          "internalType": "address",
          "name": "implementation",
          "type": "address"
        }
      ],
      "name": "Upgraded",
      "type": "event"
    },
    {
      "anonymous": false,
      "inputs": [
        {
          "indexed": true,
          "internalType": "address",
          "name": "caller",
          "type": "address"
        },
        {
          "indexed": true,
          "internalType": "address",
          "name": "recipent",
          "type": "address"
        },
        {
          "indexed": false,
          "internalType": "uint256",
          "name": "amount",
          "type": "uint256"
        }
      ],
      "name": "UserQuotaChanged",
      "type": "event"
    },
    {
      "anonymous": false,
      "inputs": [
        {
          "indexed": true,
          "internalType": "address",
          "name": "caller",
          "type": "address"
        },
        {
          "indexed": true,
          "internalType": "uint16",
          "name": "index",
          "type": "uint16"
        },
        {
          "indexed": true,
          "internalType": "address",
          "name": "recipent",
          "type": "address"
        },
        {
          "indexed": false,
          "internalType": "uint256",
          "name": "amount",
          "type": "uint256"
        },
        {
          "indexed": false,
          "internalType": "address[]",
          "name": "signers",
          "type": "address[]"
        }
      ],
      "name": "UserQuotaIncreaseRequest",
      "type": "event"
    },
    {
      "anonymous": false,
      "inputs": [
        {
          "indexed": true,
          "internalType": "address",
          "name": "signer",
          "type": "address"
        },
        {
          "indexed": true,
          "internalType": "uint16",
          "name": "index",
          "type": "uint16"
        },
        {
          "indexed": true,
          "internalType": "address",
          "name": "recipent",
          "type": "address"
        },
        {
          "indexed": false,
          "internalType": "uint256",
          "name": "amount",
          "type": "uint256"
        }
      ],
      "name": "UserQuotaSigned",
      "type": "event"
    },
    {
      "anonymous": false,
      "inputs": [
        {
          "indexed": true,
          "internalType": "address",
          "name": "withdrawer",
          "type": "address"
        },
        {
          "indexed": false,
          "internalType": "uint256",
          "name": "amount",
          "type": "uint256"
        },
        {
          "indexed": false,
          "internalType": "uint256",
          "name": "interests",
          "type": "uint256"
        },
        {
          "indexed": true,
          "internalType": "address",
          "name": "token",
          "type": "address"
        },
        {
          "indexed": false,
          "internalType": "uint8",
          "name": "decimals",
          "type": "uint8"
        }
      ],
      "name": "Withdraw",
      "type": "event"
    },
    {
      "inputs": [],
      "name": "DEFAULT_ADMIN_ROLE",
      "outputs": [
        {
          "internalType": "bytes32",
          "name": "",
          "type": "bytes32"
        }
      ],
      "stateMutability": "view",
      "type": "function"
    },
    {
      "inputs": [],
      "name": "INTEREST_RATE_PER_DAY",
      "outputs": [
        {
          "internalType": "uint256",
          "name": "",
          "type": "uint256"
        }
      ],
      "stateMutability": "view",
      "type": "function"
    },
    {
      "inputs": [],
      "name": "UPGRADE_INTERFACE_VERSION",
      "outputs": [
        {
          "internalType": "string",
          "name": "",
          "type": "string"
        }
      ],
      "stateMutability": "view",
      "type": "function"
    },
    {
      "inputs": [
        {
          "internalType": "address",
          "name": "tokenAddress",
          "type": "address"
        }
      ],
      "name": "addToken",
      "outputs": [],
      "stateMutability": "nonpayable",
      "type": "function"
    },
    {
      "inputs": [
        {
          "internalType": "uint256",
          "name": "amount",
          "type": "uint256"
        },
        {
          "internalType": "address",
          "name": "token",
          "type": "address"
        },
        {
          "internalType": "uint256",
          "name": "lendIndex",
          "type": "uint256"
        }
      ],
      "name": "calculateInterests",
      "outputs": [
        {
          "internalType": "uint256",
          "name": "interests",
          "type": "uint256"
        },
        {
          "internalType": "uint256",
          "name": "totalDebt",
          "type": "uint256"
        }
      ],
      "stateMutability": "view",
      "type": "function"
    },
    {
      "inputs": [
        {
          "internalType": "address",
          "name": "recipent",
          "type": "address"
        },
        {
          "internalType": "uint256",
          "name": "amount",
          "type": "uint256"
        }
      ],
      "name": "decreaseQuota",
      "outputs": [],
      "stateMutability": "nonpayable",
      "type": "function"
    },
    {
      "inputs": [
        {
          "internalType": "uint256",
          "name": "amount",
          "type": "uint256"
        },
        {
          "internalType": "address",
          "name": "token",
          "type": "address"
        }
      ],
      "name": "fund",
      "outputs": [],
      "stateMutability": "nonpayable",
      "type": "function"
    },
    {
      "inputs": [],
      "name": "funds",
      "outputs": [
        {
          "internalType": "uint256",
          "name": "totalFunds",
          "type": "uint256"
        },
        {
          "internalType": "uint256",
          "name": "interests",
          "type": "uint256"
        },
        {
          "internalType": "uint256",
          "name": "totalInterestShares",
          "type": "uint256"
        },
        {
          "internalType": "uint256",
          "name": "interestPerShare",
          "type": "uint256"
        }
      ],
      "stateMutability": "view",
      "type": "function"
    },
    {
      "inputs": [
        {
          "internalType": "bytes32",
          "name": "role",
          "type": "bytes32"
        }
      ],
      "name": "getRoleAdmin",
      "outputs": [
        {
          "internalType": "bytes32",
          "name": "",
          "type": "bytes32"
        }
      ],
      "stateMutability": "view",
      "type": "function"
    },
    {
      "inputs": [
        {
          "internalType": "address",
          "name": "token",
          "type": "address"
        }
      ],
      "name": "getSpareFunds",
      "outputs": [],
      "stateMutability": "nonpayable",
      "type": "function"
    },
    {
      "inputs": [
        {
          "internalType": "address",
          "name": "userAddress",
          "type": "address"
        },
        {
          "internalType": "uint256",
          "name": "page",
          "type": "uint256"
        },
        {
          "internalType": "uint256",
          "name": "pageSize",
          "type": "uint256"
        }
      ],
      "name": "getUserLendsPaginated",
      "outputs": [
        {
          "components": [
            {
              "internalType": "uint256",
              "name": "initialAmount",
              "type": "uint256"
            },
            {
              "internalType": "uint256",
              "name": "currentAmount",
              "type": "uint256"
            },
            {
              "internalType": "address",
              "name": "token",
              "type": "address"
            },
            {
              "internalType": "uint256",
              "name": "expectPaymentDue",
              "type": "uint256"
            },
            {
              "internalType": "uint256",
              "name": "latestDebtTimestamp",
              "type": "uint256"
            },
            {
              "internalType": "uint256",
              "name": "nonce",
              "type": "uint256"
            }
          ],
          "internalType": "struct ReFiMedLendUpgradeable.Lend[]",
          "name": "",
          "type": "tuple[]"
        }
      ],
      "stateMutability": "view",
      "type": "function"
    },
    {
      "inputs": [
        {
          "internalType": "address",
          "name": "userAddress",
          "type": "address"
        },
        {
          "internalType": "uint256",
          "name": "page",
          "type": "uint256"
        },
        {
          "internalType": "uint256",
          "name": "pageSize",
          "type": "uint256"
        }
      ],
      "name": "getUserQuotaRequests",
      "outputs": [
        {
          "components": [
            {
              "internalType": "uint256",
              "name": "amount",
              "type": "uint256"
            },
            {
              "internalType": "uint8",
              "name": "successfulSigns",
              "type": "uint8"
            },
            {
              "internalType": "address[]",
              "name": "signers",
              "type": "address[]"
            },
            {
              "internalType": "address[]",
              "name": "signedBy",
              "type": "address[]"
            }
          ],
          "internalType": "struct ReFiMedLendUpgradeable.UserQuotaRequest[]",
          "name": "",
          "type": "tuple[]"
        }
      ],
      "stateMutability": "view",
      "type": "function"
    },
    {
      "inputs": [
        {
          "internalType": "bytes32",
          "name": "role",
          "type": "bytes32"
        },
        {
          "internalType": "address",
          "name": "account",
          "type": "address"
        }
      ],
      "name": "grantRole",
      "outputs": [],
      "stateMutability": "nonpayable",
      "type": "function"
    },
    {
      "inputs": [
        {
          "internalType": "bytes32",
          "name": "role",
          "type": "bytes32"
        },
        {
          "internalType": "address",
          "name": "account",
          "type": "address"
        }
      ],
      "name": "hasRole",
      "outputs": [
        {
          "internalType": "bool",
          "name": "",
          "type": "bool"
        }
      ],
      "stateMutability": "view",
      "type": "function"
    },
    {
      "inputs": [
        {
          "internalType": "address",
          "name": "recipent",
          "type": "address"
        },
        {
          "internalType": "uint16",
          "name": "index",
          "type": "uint16"
        },
        {
          "internalType": "address",
          "name": "caller",
          "type": "address"
        },
        {
          "internalType": "uint256",
          "name": "amount",
          "type": "uint256"
        }
      ],
      "name": "increaseQuota",
      "outputs": [
        {
          "internalType": "bool",
          "name": "",
          "type": "bool"
        }
      ],
      "stateMutability": "nonpayable",
      "type": "function"
    },
    {
      "inputs": [
        {
          "internalType": "address",
          "name": "_attestationResolver",
          "type": "address"
        },
        {
          "internalType": "address",
          "name": "multisig",
          "type": "address"
        },
        {
          "internalType": "address",
          "name": "admin",
          "type": "address"
        }
      ],
      "name": "initialize",
      "outputs": [],
      "stateMutability": "nonpayable",
      "type": "function"
    },
    {
      "inputs": [],
      "name": "owner",
      "outputs": [
        {
          "internalType": "address",
          "name": "",
          "type": "address"
        }
      ],
      "stateMutability": "view",
      "type": "function"
    },
    {
      "inputs": [],
      "name": "paused",
      "outputs": [
        {
          "internalType": "bool",
          "name": "",
          "type": "bool"
        }
      ],
      "stateMutability": "view",
      "type": "function"
    },
    {
      "inputs": [
        {
          "internalType": "uint256",
          "name": "amount",
          "type": "uint256"
        },
        {
          "internalType": "address",
          "name": "token",
          "type": "address"
        },
        {
          "internalType": "uint256",
          "name": "lendIndex",
          "type": "uint256"
        }
      ],
      "name": "payDebt",
      "outputs": [],
      "stateMutability": "nonpayable",
      "type": "function"
    },
    {
      "inputs": [],
      "name": "proxiableUUID",
      "outputs": [
        {
          "internalType": "bytes32",
          "name": "",
          "type": "bytes32"
        }
      ],
      "stateMutability": "view",
      "type": "function"
    },
    {
      "inputs": [],
      "name": "renounceOwnership",
      "outputs": [],
      "stateMutability": "nonpayable",
      "type": "function"
    },
    {
      "inputs": [
        {
          "internalType": "bytes32",
          "name": "role",
          "type": "bytes32"
        },
        {
          "internalType": "address",
          "name": "callerConfirmation",
          "type": "address"
        }
      ],
      "name": "renounceRole",
      "outputs": [],
      "stateMutability": "nonpayable",
      "type": "function"
    },
    {
      "inputs": [
        {
          "internalType": "address",
          "name": "recipent",
          "type": "address"
        },
        {
          "internalType": "uint256",
          "name": "amount",
          "type": "uint256"
        },
        {
          "internalType": "address[]",
          "name": "signers",
          "type": "address[]"
        }
      ],
      "name": "requestIncreaseQuota",
      "outputs": [],
      "stateMutability": "nonpayable",
      "type": "function"
    },
    {
      "inputs": [
        {
          "internalType": "uint256",
          "name": "amount",
          "type": "uint256"
        },
        {
          "internalType": "address",
          "name": "token",
          "type": "address"
        },
        {
          "internalType": "uint256",
          "name": "paymentDue",
          "type": "uint256"
        }
      ],
      "name": "requestLend",
      "outputs": [],
      "stateMutability": "nonpayable",
      "type": "function"
    },
    {
      "inputs": [
        {
          "internalType": "bytes32",
          "name": "role",
          "type": "bytes32"
        },
        {
          "internalType": "address",
          "name": "account",
          "type": "address"
        }
      ],
      "name": "revokeRole",
      "outputs": [],
      "stateMutability": "nonpayable",
      "type": "function"
    },
    {
      "inputs": [
        {
          "internalType": "uint256",
          "name": "interestRate",
          "type": "uint256"
        }
      ],
      "name": "setInterestPerDay",
      "outputs": [],
      "stateMutability": "nonpayable",
      "type": "function"
    },
    {
      "inputs": [
        {
          "internalType": "bytes4",
          "name": "interfaceId",
          "type": "bytes4"
        }
      ],
      "name": "supportsInterface",
      "outputs": [
        {
          "internalType": "bool",
          "name": "",
          "type": "bool"
        }
      ],
      "stateMutability": "view",
      "type": "function"
    },
    {
      "inputs": [
        {
          "internalType": "address",
          "name": "newOwner",
          "type": "address"
        }
      ],
      "name": "transferOwnership",
      "outputs": [],
      "stateMutability": "nonpayable",
      "type": "function"
    },
    {
      "inputs": [
        {
          "internalType": "address",
          "name": "newImplementation",
          "type": "address"
        },
        {
          "internalType": "bytes",
          "name": "data",
          "type": "bytes"
        }
      ],
      "name": "upgradeToAndCall",
      "outputs": [],
      "stateMutability": "payable",
      "type": "function"
    },
    {
      "inputs": [
        {
          "internalType": "address",
          "name": "",
          "type": "address"
        }
      ],
      "name": "user",
      "outputs": [
        {
          "internalType": "uint256",
          "name": "quota",
          "type": "uint256"
        },
        {
          "internalType": "uint256",
          "name": "currentFund",
          "type": "uint256"
        },
        {
          "internalType": "uint256",
          "name": "interestShares",
          "type": "uint256"
        },
        {
          "internalType": "uint256",
          "name": "lastFund",
          "type": "uint256"
        }
      ],
      "stateMutability": "view",
      "type": "function"
    },
    {
      "inputs": [
        {
          "internalType": "uint256",
          "name": "amount",
          "type": "uint256"
        },
        {
          "internalType": "address",
          "name": "token",
          "type": "address"
        }
      ],
      "name": "withdraw",
      "outputs": [],
      "stateMutability": "nonpayable",
      "type": "function"
    },
    {
      "inputs": [
        {
          "internalType": "uint256",
          "name": "amount",
          "type": "uint256"
        },
        {
          "internalType": "address",
          "name": "token",
          "type": "address"
        }
      ],
      "name": "withdrawWithoutInterests",
      "outputs": [],
      "stateMutability": "nonpayable",
      "type": "function"
    }
  ],
  "bytecode": "0x60a06040523060805234801561001457600080fd5b506080516142e661003e600039600081816132f20152818161331b015261345c01526142e66000f3fe6080604052600436106101e25760003560e01c80638da5cb5b11610102578063caba969f11610095578063e0e713dd11610064578063e0e713dd14610619578063eee9239514610646578063f140006214610666578063f2fde38b1461068657600080fd5b8063caba969f14610584578063d48bfca7146105b9578063d547741f146105d9578063d7d9f9ec146105f957600080fd5b8063a217fddf116100d1578063a217fddf146104ee578063ad3cb1cc14610503578063c0c53b8b14610541578063c89f2ce41461056157600080fd5b80638da5cb5b1461045157806391d1485414610498578063969f9efa146104b85780639ebb4112146104ce57600080fd5b806352d1902d1161017a578063715018a611610149578063715018a61461038b57806381d945d2146103a057806381e7e20e146103c057806387373fc11461042457600080fd5b806352d1902d146102ff5780635c975abb1461031457806361e576b81461034b5780636e99700a1461036b57600080fd5b80632f2ff15d116101b65780632f2ff15d1461028c57806336568abe146102ac5780633ead66c8146102cc5780634f1ef286146102ec57600080fd5b8062f714ce146101e757806301ffc9a7146102095780631031f4f91461023e578063248a9ca31461025e575b600080fd5b3480156101f357600080fd5b5061020761020236600461390e565b6106a6565b005b34801561021557600080fd5b5061022961022436600461393a565b61091d565b60405190151581526020015b60405180910390f35b34801561024a57600080fd5b50610207610259366004613964565b610954565b34801561026a57600080fd5b5061027e610279366004613964565b610981565b604051908152602001610235565b34801561029857600080fd5b506102076102a736600461390e565b6109a3565b3480156102b857600080fd5b506102076102c736600461390e565b6109c5565b3480156102d857600080fd5b506102076102e736600461397d565b6109fd565b6102076102fa366004613a07565b610c00565b34801561030b57600080fd5b5061027e610c1b565b34801561032057600080fd5b507fcd5ed15c6e187e77e9aee88184c21f4f2182ab5827cb3b7e07fbedcd63f033005460ff16610229565b34801561035757600080fd5b50610207610366366004613a98565b610c38565b34801561037757600080fd5b50610207610386366004613ac2565b610d5d565b34801561039757600080fd5b50610207611141565b3480156103ac57600080fd5b506102076103bb366004613af7565b611155565b3480156103cc57600080fd5b506104046103db36600461397d565b600560208190526000918252604090912080546003820154600483015492909301549092919084565b604080519485526020850193909352918301526060820152608001610235565b34801561043057600080fd5b5061044461043f366004613b81565b611584565b6040516102359190613bb4565b34801561045d57600080fd5b507f9016d09d72d40fdae2fd8ceac6b6234c7706214fd39c1cd1e609a0528c199300546040516001600160a01b039091168152602001610235565b3480156104a457600080fd5b506102296104b336600461390e565b6117e4565b3480156104c457600080fd5b5061027e60025481565b3480156104da57600080fd5b506102076104e936600461390e565b61181c565b3480156104fa57600080fd5b5061027e600081565b34801561050f57600080fd5b50610534604051806040016040528060058152602001640352e302e360dc1b81525081565b6040516102359190613c85565b34801561054d57600080fd5b5061020761055c366004613c98565b6119e2565b34801561056d57600080fd5b50600854600954600a54600b546104049392919084565b34801561059057600080fd5b506105a461059f366004613ac2565b611b6c565b60408051928352602083019190915201610235565b3480156105c557600080fd5b506102076105d436600461397d565b611c5d565b3480156105e557600080fd5b506102076105f436600461390e565b611da8565b34801561060557600080fd5b50610207610614366004613ac2565b611dc4565b34801561062557600080fd5b50610639610634366004613b81565b61234e565b6040516102359190613d1f565b34801561065257600080fd5b5061020761066136600461390e565b612625565b34801561067257600080fd5b50610229610681366004613dbe565b612977565b34801561069257600080fd5b506102076106a136600461397d565b612d5a565b6000816001600160a01b031663313ce5676040518163ffffffff1660e01b8152600401602060405180830381865afa1580156106e6573d6000803e3d6000fd5b505050506040513d601f19601f8201168201806040525081019061070a9190613e12565b905060006003548461071c9190613e4b565b33600090815260056020819052604082209081015492935091906107408242612d98565b905060b481101561076c5760405162461bcd60e51b815260040161076390613e62565b60405180910390fd5b83836003015410156107b35760405162461bcd60e51b815260206004820152601060248201526f496e7375666963656e742066756e647360801b6044820152606401610763565b3360009081526006602090815260408083206001600160a01b038a1684529091529020548411156108265760405162461bcd60e51b815260206004820152601a60248201527f496e73756666696369656e7420746f6b656e2062616c616e63650000000000006044820152606401610763565b3360009081526006602090815260408083206001600160a01b038a16845290915281208054869290610859908490613eb8565b9091555050600b546004840154600091670de0b6b3a76400009161087d9190613e4b565b6108879190613ee1565b90508360040154600860020160008282546108a29190613eb8565b90915550506004840180549060006108ba8380613eb8565b9091555050600980548291906000906108d4908490613eb8565b9091555050600a541561090757600a546009546108f990670de0b6b3a7640000613e4b565b6109039190613ee1565b600b555b61091388828989612e2e565b5050505050505050565b60006001600160e01b03198216637965db0b60e01b148061094e57506301ffc9a760e01b6001600160e01b03198316145b92915050565b610960600154336117e4565b61097c5760405162461bcd60e51b815260040161076390613ef5565b600255565b6000908152600080516020614291833981519152602052604090206001015490565b6109ac82610981565b6109b5816131bc565b6109bf83836131c6565b50505050565b6001600160a01b03811633146109ee5760405163334bd91960e11b815260040160405180910390fd5b6109f8828261326b565b505050565b610a09600154336117e4565b610a255760405162461bcd60e51b815260040161076390613ef5565b6040516370a0823160e01b81523060048201526000906001600160a01b038316906370a0823190602401602060405180830381865afa158015610a6c573d6000803e3d6000fd5b505050506040513d601f19601f82011682018060405250810190610a909190613f25565b60085490915015610ae35760405162461bcd60e51b815260206004820152601960248201527f54686520746f74616c2066756e6473206d7573742062652030000000000000006044820152606401610763565b60008111610b3f5760405162461bcd60e51b815260206004820152602360248201527f5468652062616c616e6365206d7573742062652067726561746865722074686160448201526206e20360ec1b6064820152608401610763565b60405163a9059cbb60e01b8152336004820152602481018290526001600160a01b0383169063a9059cbb906044016020604051808303816000875af1158015610b8c573d6000803e3d6000fd5b505050506040513d601f19601f82011682018060405250810190610bb09190613f3e565b610bfc5760405162461bcd60e51b815260206004820152601d60248201527f4572726f72207768696c65207472616e73666572696e672066756e64730000006044820152606401610763565b5050565b610c086132e7565b610c118261338c565b610bfc8282613394565b6000610c25613451565b5060008051602061427183398151915290565b610c4061349a565b610c4c600154336117e4565b610c685760405162461bcd60e51b815260040161076390613ef5565b600060035482610c789190613e4b565b6001600160a01b038416600090815260056020526040902054909150811115610cd65760405162461bcd60e51b815260206004820152601060248201526f496e7375666963656e742071756f746160801b6044820152606401610763565b6001600160a01b03831660009081526005602052604081208054839290610cfe908490613eb8565b90915550506001600160a01b0383166000818152600560205260409081902054905133917f986757b5f72e5258de572c036a9155b7f6fce0df14ffd1fa633617f668137a3991610d5091815260200190565b60405180910390a3505050565b610d6561349a565b336000908152600560205260408120600354909190610d849086613e4b565b90508082600001541015610df35760405162461bcd60e51b815260206004820152603060248201527f546865207573657220686173206c6573732071756f7461207468616e2074686560448201526f081c995c5d5a5c995908185b5bdd5b9d60821b6064820152608401610763565b6000846001600160a01b031663313ce5676040518163ffffffff1660e01b8152600401602060405180830381865afa158015610e33573d6000803e3d6000fd5b505050506040513d601f19601f82011682018060405250810190610e579190613e12565b905060008160ff1611610e7c5760405162461bcd60e51b815260040161076390613f60565b6040516370a0823160e01b81523060048201526000906001600160a01b038716906370a0823190602401602060405180830381865afa158015610ec3573d6000803e3d6000fd5b505050506040513d601f19601f82011682018060405250810190610ee79190613f25565b9050610ef482600a61407b565b610efe9088613e4b565b811015610f445760405162461bcd60e51b8152602060048201526014602482015273496e7375666963656e74206c697175696469747960601b6044820152606401610763565b6000610f4e6134dd565b6040805160c08101825286815260208082018881526001600160a01b038c8116948401948552606084018c8152426080860190815260a0860188815260018e81018054808301825560009182529781209851600690980290980196875594519486019490945595516002850180546001600160a01b031916919093161790915551600383015592516004820155915160059092019190915586549192508591879190610ffb908490613eb8565b90915550506001600160a01b03871663a9059cbb3361101b86600a61407b565b611025908c613e4b565b6040516001600160e01b031960e085901b1681526001600160a01b03909216600483015260248201526044016020604051808303816000875af1158015611070573d6000803e3d6000fd5b505050506040513d601f19601f820116820180604052508101906110949190613f3e565b6110e05760405162461bcd60e51b815260206004820152601e60248201527f4572726f72207768696c65207472616e73666572696e672061737365747300006044820152606401610763565b6040805185815260ff85166020820152908101879052606081018290526001600160a01b0388169033907f473896b256eedaa907360e7bb0dfd12ebcad749e88d45aa79325bf4aad4afbfc9060800160405180910390a35050505050505050565b61114961353d565b6111536000613598565b565b61115d61349a565b61116561353d565b6000600354846111759190613e4b565b905060008267ffffffffffffffff81111561119257611192613998565b6040519080825280602002602001820160405280156111bb578160200160208202803683370190505b509050600383101561120f5760405162461bcd60e51b815260206004820152601960248201527f5369676e657273206d757374206265206174206c6561742033000000000000006044820152606401610763565b600a8311156112605760405162461bcd60e51b815260206004820152601d60248201527f5369676e657273206d757374206265206c65617374207468616e2031300000006044820152606401610763565b600085116112b05760405162461bcd60e51b815260206004820152601e60248201527f416d6f756e74206d757374206265206772656174686572207468616e203000006044820152606401610763565b6001600160a01b03861660009081526005602090815260408083208151608081018352868152808401858152835186815280860185528285019081528451878152808701909552606083019490945260029283018054600180820183559188529686902083516004909802019687559051908601805460ff191660ff9092169190911790559151805192949361134c9392850192910190613878565b5060608201518051611368916003840191602090910190613878565b5050506000805b60ff811685111561150957600086868360ff168181106113915761139161408a565b90506020020160208101906113a6919061397d565b905060005b838160ff16101561144357848160ff16815181106113cb576113cb61408a565b60200260200101516001600160a01b0316826001600160a01b0316036114335760405162461bcd60e51b815260206004820152601960248201527f4475706c6963617465207369676e6572206465746563746564000000000000006044820152606401610763565b61143c816140a0565b90506113ab565b50808484815181106114575761145761408a565b6001600160a01b039092166020928302919091019091015282611479816140bf565b6001600160a01b038b166000908152600560205260409020600201805491955091506114a790600190613eb8565b815481106114b7576114b761408a565b60009182526020808320600492909202909101600201805460018101825590835291200180546001600160a01b0319166001600160a01b0392909216919091179055611502816140a0565b905061136f565b506001600160a01b03871660008181526005602052604090206002015461153290600190613eb8565b61ffff16336001600160a01b03167f0b64377ec6609831eaa829c32823df50ad3db86e1636b0923ee03fa1a685eff6898989604051611573939291906140d8565b60405180910390a450505050505050565b6001600160a01b038316600090815260056020526040812060018101546060926115ae8583613ee1565b905060006115bc868461412e565b11156115d0576115cd600182614142565b90505b8086111561160f5760405162461bcd60e51b815260206004820152600c60248201526b496e76616c6964207061676560a01b6044820152606401610763565b600085116116535760405162461bcd60e51b8152602060048201526011602482015270496e76616c696420706167652073697a6560781b6044820152606401610763565b600085611661600189613eb8565b61166b9190613e4b565b905060006116798783614142565b9050838111156116865750825b60006116928383613eb8565b67ffffffffffffffff8111156116aa576116aa613998565b60405190808252806020026020018201604052801561171d57816020015b61170a6040518060c00160405280600081526020016000815260200160006001600160a01b031681526020016000815260200160008152602001600081525090565b8152602001906001900390816116c85790505b509050825b828110156117d45786600101818154811061173f5761173f61408a565b60009182526020918290206040805160c08101825260069093029091018054835260018101549383019390935260028301546001600160a01b031690820152600382015460608201526004820154608082015260059091015460a0820152826117a88684613eb8565b815181106117b8576117b861408a565b6020026020010181905250806117cd906140bf565b9050611722565b50955050505050505b9392505050565b6000918252600080516020614291833981519152602090815260408084206001600160a01b0393909316845291905290205460ff1690565b6000816001600160a01b031663313ce5676040518163ffffffff1660e01b8152600401602060405180830381865afa15801561185c573d6000803e3d6000fd5b505050506040513d601f19601f820116820180604052508101906118809190613e12565b90506000600354846118929190613e4b565b33600090815260056020819052604082209081015492935091906118b68242612d98565b905060b48110156118d95760405162461bcd60e51b815260040161076390613e62565b83836003015410156119205760405162461bcd60e51b815260206004820152601060248201526f496e7375666963656e742066756e647360801b6044820152606401610763565b3360009081526006602090815260408083206001600160a01b038a1684529091529020548411156119935760405162461bcd60e51b815260206004820152601a60248201527f496e73756666696369656e7420746f6b656e2062616c616e63650000000000006044820152606401610763565b3360009081526006602090815260408083206001600160a01b038a168452909152812080548692906119c6908490613eb8565b909155506119d990508760008888612e2e565b50505050505050565b7ff0c57e16840df040f15088dc2f81fe391c3923bec73e23a9662efc9c229c6a008054600160401b810460ff16159067ffffffffffffffff16600081158015611a285750825b905060008267ffffffffffffffff166001148015611a455750303b155b905081158015611a53575080155b15611a715760405163f92ee8a960e01b815260040160405180910390fd5b845467ffffffffffffffff191660011785558315611a9b57845460ff60401b1916600160401b1785555b611aa487613609565b611aac61361a565b7f0875992236f2b756c480a83b0053e711e5a04d6ec8bf4b52208ef8f002f175c760008181557fdf8b4c520ffe197c5343c6f5aec59570151ef9a492f2c624fd45ddde6135ec42600155613fb46002556103e8600355600455611b0f90896131c6565b50611b1c600154876131c6565b50831561091357845460ff60401b19168555604051600181527fc7f505b2f371ae2175ee4913f4499e1f2633a7b5936321eed1cdaeb6115181d29060200160405180910390a15050505050505050565b336000908152600560205260408120600181018054839291839186908110611b9657611b9661408a565b9060005260206000209060060201905060008790506000611bbb836004015442612d98565b60025460018501546040516301786f6360e21b81526004810184905260248101929092526044820152909150600090819073__$4626204449fc70c87ce483fdc6e5c1e6b6$__906305e1bd8c906064016040805180830381865af4158015611c27573d6000803e3d6000fd5b505050506040513d601f19601f82011682018060405250810190611c4b9190614155565b909c909b509950505050505050505050565b611c6561353d565b611c6d61349a565b6001600160a01b038116600081815260076020526040808220805460ff1916600117905580516395d89b4160e01b815290519192916395d89b419160048082019286929091908290030181865afa158015611ccc573d6000803e3d6000fd5b505050506040513d6000823e601f3d908101601f19168201604052611cf49190810190614179565b90506000826001600160a01b03166306fdde036040518163ffffffff1660e01b8152600401600060405180830381865afa158015611d36573d6000803e3d6000fd5b505050506040513d6000823e601f3d908101601f19168201604052611d5e9190810190614179565b9050826001600160a01b03167f2fb34ce114a136590b874d8cf80e7652adda576578bacfa4f8023f720f5693948383604051611d9b9291906141e7565b60405180910390a2505050565b611db182610981565b611dba816131bc565b6109bf838361326b565b33600090815260056020526040812060018101805491929184908110611dec57611dec61408a565b9060005260206000209060060201905060008590506000611e11836004015442612d98565b60025460018501546040516301786f6360e21b81526004810184905260248101929092526044820152909150600090819073__$4626204449fc70c87ce483fdc6e5c1e6b6$__906305e1bd8c906064016040805180830381865af4158015611e7d573d6000803e3d6000fd5b505050506040513d601f19601f82011682018060405250810190611ea19190614155565b915091506000886001600160a01b031663313ce5676040518163ffffffff1660e01b8152600401602060405180830381865afa158015611ee5573d6000803e3d6000fd5b505050506040513d601f19601f82011682018060405250810190611f099190613e12565b905082866001016000828254611f1f9190614142565b90915550506001860154851115611f705760405162461bcd60e51b8152602060048201526015602482015274496e76616c696420616d6f756e7420746f2070617960581b6044820152606401610763565b60008160ff1611611f935760405162461bcd60e51b815260040161076390613f60565b6001600160a01b03891660009081526007602052604090205460ff16611ffb5760405162461bcd60e51b815260206004820181905260248201527f54686520746f6b656e206973206e6f742077686974656c6973746564207965746044820152606401610763565b8486600101600082825461200f9190613eb8565b909155505060098054849190600090612029908490614142565b90915550506005860154600a541561207257600a5461205085670de0b6b3a7640000613e4b565b61205a9190613ee1565b600b805460009061206c908490614142565b90915550505b86600101546000036121f65786546001898101541115612134576001808a018054909161209e91613eb8565b815481106120ae576120ae61408a565b9060005260206000209060060201896001018b815481106120d1576120d161408a565b6000918252602090912082546006909202019081556001808301549082015560028083015490820180546001600160a01b0319166001600160a01b0390921691909117905560038083015490820155600480830154908201556005918201549101555b886001018054806121475761214761420c565b600082815260208120600660001990930192830201818155600181018290556002810180546001600160a01b031916905560038101829055600481018290556005018190559155895482918b9161219f908490614142565b9091555050604080518d815260ff851660208201529081018390526001600160a01b038c169033907f2f683797ae14900863bd7f5b624167cf9533f58ff4e068fcdc51ea4b45ab8a3e9060600160405180910390a3505b6001600160a01b038a166323b872dd3330612212600387614222565b61221d90600a61407b565b612227908b613e4b565b6040516001600160e01b031960e086901b1681526001600160a01b03938416600482015292909116602483015260448201526064016020604051808303816000875af115801561227b573d6000803e3d6000fd5b505050506040513d601f19601f8201168201806040525081019061229f9190613f3e565b6122eb5760405162461bcd60e51b815260206004820152601e60248201527f4572726f72207768696c65207472616e73666572696e672061737365747300006044820152606401610763565b604080518c81526020810186905260ff8416818301526060810183905290516001600160a01b038c169133917f9ce47bcc134ecd272196e2d07a748c33630146263e848d49e2679807b2886aab9181900360800190a35050505050505050505050565b6001600160a01b038316600090815260056020526040812060020180546060926123788583613ee1565b90506000612386868461412e565b111561239a57612397600182614142565b90505b808611156123d95760405162461bcd60e51b815260206004820152600c60248201526b496e76616c6964207061676560a01b6044820152606401610763565b6000851180156123e95750808511155b6124295760405162461bcd60e51b8152602060048201526011602482015270496e76616c696420706167652073697a6560781b6044820152606401610763565b600085612437600189613eb8565b6124419190613e4b565b9050600061244f8783614142565b90508381111561245c5750825b60006124688383613eb8565b67ffffffffffffffff81111561248057612480613998565b6040519080825280602002602001820160405280156124df57816020015b6124cc604051806080016040528060008152602001600060ff16815260200160608152602001606081525090565b81526020019060019003908161249e5790505b509050825b828110156117d4578681815481106124fe576124fe61408a565b600091825260209182902060408051608081018252600490930290910180548352600181015460ff1683850152600281018054835181870281018701855281815294959294938601939283018282801561258157602002820191906000526020600020905b81546001600160a01b03168152600190910190602001808311612563575b50505050508152602001600382018054806020026020016040519081016040528092919081815260200182805480156125e357602002820191906000526020600020905b81546001600160a01b031681526001909101906020018083116125c5575b5050505050815250508285836125f99190613eb8565b815181106126095761260961408a565b60200260200101819052508061261e906140bf565b90506124e4565b61262d61349a565b6001600160a01b03811660009081526007602052604090205460ff166126955760405162461bcd60e51b815260206004820152601960248201527f546f6b656e206973206e6f7420696e2077686974656c697374000000000000006044820152606401610763565b6000816001600160a01b031663313ce5676040518163ffffffff1660e01b8152600401602060405180830381865afa1580156126d5573d6000803e3d6000fd5b505050506040513d601f19601f820116820180604052508101906126f99190613e12565b905060008160ff161161271e5760405162461bcd60e51b815260040161076390613f60565b60006003548461272e9190613e4b565b60085490915060000361275f57336000908152600560205260409020600401819055600a81905560088190556127d3565b600854600a5460009161277191613ee1565b33600090815260056020526040812060040180549293508392909190612798908490614142565b9091555050600a80548291906000906127b2908490614142565b9091555050600880548391906000906127cc908490614142565b9091555050505b33600090815260056020526040812060030180548392906127f5908490614142565b909155505033600090815260056020818152604080842042930192909255600681528183206001600160a01b038716845290528120805483929061283a908490614142565b90915550506001600160a01b0383166323b872dd333061285b86600a61407b565b6128659089613e4b565b6040516001600160e01b031960e086901b1681526001600160a01b03938416600482015292909116602483015260448201526064016020604051808303816000875af11580156128b9573d6000803e3d6000fd5b505050506040513d601f19601f820116820180604052508101906128dd9190613f3e565b6129295760405162461bcd60e51b815260206004820152601b60248201527f4572726f72207768696c65207472616e7366657220746f6b656e7300000000006044820152606401610763565b6040805185815260ff841660208201526001600160a01b0385169133917f9f9c6451db74dc24ec4ef600603de4a3a11fbe4234eee83200b5469400652c51910160405180910390a350505050565b6000612985600054336117e4565b6129e45760405162461bcd60e51b815260206004820152602a60248201527f43616c6c6572206973206e6f7420612076616c6964206174746573746174696f60448201526937103932b9b7b63b32b960b11b6064820152608401610763565b6001600160a01b0385166000908152600560205260408120600201805482919061ffff8816908110612a1857612a1861408a565b9060005260206000209060040201905080600001548414612a955760405162461bcd60e51b815260206004820152603160248201527f546865206174746573746174696f6e20616d6f756e7420646f6573206e6f74206044820152701b585d18da081d1a19481c995c5d595cdd607a1b6064820152608401610763565b8054600282015460005b818160ff161015612afb57876001600160a01b0316846002018260ff1681548110612acc57612acc61408a565b6000918252602090912001546001600160a01b031603612aeb57600194505b612af4816140a0565b9050612a9f565b506003830154600090815b818160ff161015612b6c57600386015415612b6c57896001600160a01b0316866003018260ff1681548110612b3d57612b3d61408a565b6000918252602090912001546001600160a01b031603612b5c57600196505b612b65816140a0565b9050612b06565b5085612bba5760405162461bcd60e51b815260206004820152601c60248201527f53656e646572206973206e6f7420612076616c6964207369676e6572000000006044820152606401610763565b8115612c005760405162461bcd60e51b815260206004820152601560248201527414d95b99195c881a185cc81cda59db9959081e595d605a1b6044820152606401610763565b6003850180546001808201835560009283526020832090910180546001600160a01b0319166001600160a01b038d16179055808701805491929091612c4990849060ff1661423b565b82546101009290920a60ff8181021990931691831602179091556001870154166003039050612cf3576001600160a01b038b1660009081526005602052604081208054869290612c9a908490614142565b90915550506001600160a01b038b811660008181526005602090815260409182902054915191825291928c16917f986757b5f72e5258de572c036a9155b7f6fce0df14ffd1fa633617f668137a39910160405180910390a35b8a6001600160a01b03168a61ffff168a6001600160a01b03167fea585988944829641b25be2de9e0a1256c383fac005bb8f3ebe5cd09b50d7c748860000154604051612d4191815260200190565b60405180910390a45060019a9950505050505050505050565b612d6261353d565b6001600160a01b038116612d8c57604051631e4fbdf760e01b815260006004820152602401610763565b612d9581613598565b50565b600082821015612e085760405162461bcd60e51b815260206004820152603560248201527f46696e6973682074696d657374616d70206d75737420626520677265617465726044820152740207468616e2073746172742074696d657374616d7605c1b6064820152608401610763565b6000612e148484613eb8565b90506000612e256201518083613ee1565b95945050505050565b600060035485612e3e9190613e4b565b336000908152600560205260409020909150612e5b83600a61407b565b612e659087613e4b565b6040516370a0823160e01b81523060048201526001600160a01b038616906370a0823190602401602060405180830381865afa158015612ea9573d6000803e3d6000fd5b505050506040513d601f19601f82011682018060405250810190612ecd9190613f25565b1015612f125760405162461bcd60e51b8152602060048201526014602482015273496e7375666963656e74206c697175696469747960601b6044820152606401610763565b60008360ff1611612f355760405162461bcd60e51b815260040161076390613f60565b60008611612f905760405162461bcd60e51b815260206004820152602260248201527f54686520616d6f756e74206d757374206265206772656174686572207468616e604482015261020360f41b6064820152608401610763565b6001600160a01b03841660009081526007602052604090205460ff16612ff85760405162461bcd60e51b815260206004820181905260248201527f54686520746f6b656e206973206e6f742077686974656c6973746564207965746044820152606401610763565b818160030154101561303d5760405162461bcd60e51b815260206004820152600e60248201526d125b9d985b1a5908185b5bdd5b9d60921b6044820152606401610763565b818160030160008282546130519190613eb8565b90915550506008805483919060009061306b908490613eb8565b90915550506001600160a01b03841663a9059cbb3361308b600387614222565b61309690600a61407b565b6130a08987614142565b6130aa9190613e4b565b6040516001600160e01b031960e085901b1681526001600160a01b03909216600483015260248201526044016020604051808303816000875af11580156130f5573d6000803e3d6000fd5b505050506040513d601f19601f820116820180604052508101906131199190613f3e565b6131655760405162461bcd60e51b815260206004820152601d60248201527f4661696c6564207768656e207769746864726177696e672066756e64730000006044820152606401610763565b604080518781526020810187905260ff85168183015290516001600160a01b0386169133917f04ccd5830047404934ff21145531b3e4edbc2a057f1e3b73e37e6810aaad80c49181900360600190a3505050505050565b612d958133613622565b60006000805160206142918339815191526131e184846117e4565b613261576000848152602082815260408083206001600160a01b03871684529091529020805460ff191660011790556132173390565b6001600160a01b0316836001600160a01b0316857f2f8788117e7eff1d82e926ec794901d17c78024a50270940304540a733656f0d60405160405180910390a4600191505061094e565b600091505061094e565b600060008051602061429183398151915261328684846117e4565b15613261576000848152602082815260408083206001600160a01b0387168085529252808320805460ff1916905551339287917ff6391f5c32d9c69d2a47ea670b442974b53935d1edc7fd64eb21e047a839171b9190a4600191505061094e565b306001600160a01b037f000000000000000000000000000000000000000000000000000000000000000016148061336e57507f00000000000000000000000000000000000000000000000000000000000000006001600160a01b0316613362600080516020614271833981519152546001600160a01b031690565b6001600160a01b031614155b156111535760405163703e46dd60e11b815260040160405180910390fd5b612d9561353d565b816001600160a01b03166352d1902d6040518163ffffffff1660e01b8152600401602060405180830381865afa9250505080156133ee575060408051601f3d908101601f191682019092526133eb91810190613f25565b60015b61341657604051634c9c8ce360e01b81526001600160a01b0383166004820152602401610763565b600080516020614271833981519152811461344757604051632a87526960e21b815260048101829052602401610763565b6109f8838361365b565b306001600160a01b037f000000000000000000000000000000000000000000000000000000000000000016146111535760405163703e46dd60e11b815260040160405180910390fd5b7fcd5ed15c6e187e77e9aee88184c21f4f2182ab5827cb3b7e07fbedcd63f033005460ff16156111535760405163d93c066560e01b815260040160405180910390fd5b6000804442600454604051602001613508939291909283526020830191909152604082015260600190565b60408051601f198184030181529190528051602090910120600480549192506000613532836140bf565b909155509092915050565b3361356f7f9016d09d72d40fdae2fd8ceac6b6234c7706214fd39c1cd1e609a0528c199300546001600160a01b031690565b6001600160a01b0316146111535760405163118cdaa760e01b8152336004820152602401610763565b7f9016d09d72d40fdae2fd8ceac6b6234c7706214fd39c1cd1e609a0528c19930080546001600160a01b031981166001600160a01b03848116918217845560405192169182907f8be0079c531659141344cd1fd0a4f28419497f9722a3daafe3b4186f6b6457e090600090a3505050565b6136116136b1565b612d95816136fa565b6111536136b1565b61362c82826117e4565b610bfc5760405163e2517d3f60e01b81526001600160a01b038216600482015260248101839052604401610763565b61366482613702565b6040516001600160a01b038316907fbc7cd75a20ee27fd9adebab32041f755214dbc6bffa90cc0225b39da2e5c2d3b90600090a28051156136a9576109f88282613767565b610bfc6137d4565b7ff0c57e16840df040f15088dc2f81fe391c3923bec73e23a9662efc9c229c6a0054600160401b900460ff1661115357604051631afcd79f60e31b815260040160405180910390fd5b612d626136b1565b806001600160a01b03163b60000361373857604051634c9c8ce360e01b81526001600160a01b0382166004820152602401610763565b60008051602061427183398151915280546001600160a01b0319166001600160a01b0392909216919091179055565b6060600080846001600160a01b0316846040516137849190614254565b600060405180830381855af49150503d80600081146137bf576040519150601f19603f3d011682016040523d82523d6000602084013e6137c4565b606091505b5091509150612e258583836137f3565b34156111535760405163b398979f60e01b815260040160405180910390fd5b606082613808576138038261384f565b6117dd565b815115801561381f57506001600160a01b0384163b155b1561384857604051639996b31560e01b81526001600160a01b0385166004820152602401610763565b50806117dd565b80511561385f5780518082602001fd5b604051630a12f52160e11b815260040160405180910390fd5b8280548282559060005260206000209081019282156138cd579160200282015b828111156138cd57825182546001600160a01b0319166001600160a01b03909116178255602090920191600190910190613898565b506138d99291506138dd565b5090565b5b808211156138d957600081556001016138de565b80356001600160a01b038116811461390957600080fd5b919050565b6000806040838503121561392157600080fd5b82359150613931602084016138f2565b90509250929050565b60006020828403121561394c57600080fd5b81356001600160e01b0319811681146117dd57600080fd5b60006020828403121561397657600080fd5b5035919050565b60006020828403121561398f57600080fd5b6117dd826138f2565b634e487b7160e01b600052604160045260246000fd5b604051601f8201601f1916810167ffffffffffffffff811182821017156139d7576139d7613998565b604052919050565b600067ffffffffffffffff8211156139f9576139f9613998565b50601f01601f191660200190565b60008060408385031215613a1a57600080fd5b613a23836138f2565b9150602083013567ffffffffffffffff811115613a3f57600080fd5b8301601f81018513613a5057600080fd5b8035613a63613a5e826139df565b6139ae565b818152866020838501011115613a7857600080fd5b816020840160208301376000602083830101528093505050509250929050565b60008060408385031215613aab57600080fd5b613ab4836138f2565b946020939093013593505050565b600080600060608486031215613ad757600080fd5b83359250613ae7602085016138f2565b9150604084013590509250925092565b60008060008060608587031215613b0d57600080fd5b613b16856138f2565b935060208501359250604085013567ffffffffffffffff80821115613b3a57600080fd5b818701915087601f830112613b4e57600080fd5b813581811115613b5d57600080fd5b8860208260051b8501011115613b7257600080fd5b95989497505060200194505050565b600080600060608486031215613b9657600080fd5b613b9f846138f2565b95602085013595506040909401359392505050565b602080825282518282018190526000919060409081850190868401855b82811015613c28578151805185528681015187860152858101516001600160a01b031686860152606080820151908601526080808201519086015260a0908101519085015260c09093019290850190600101613bd1565b5091979650505050505050565b60005b83811015613c50578181015183820152602001613c38565b50506000910152565b60008151808452613c71816020860160208601613c35565b601f01601f19169290920160200192915050565b6020815260006117dd6020830184613c59565b600080600060608486031215613cad57600080fd5b613cb6846138f2565b9250613cc4602085016138f2565b9150613cd2604085016138f2565b90509250925092565b600081518084526020808501945080840160005b83811015613d145781516001600160a01b031687529582019590820190600101613cef565b509495945050505050565b60006020808301818452808551808352604092508286019150828160051b87010184880160005b83811015613db057603f19898403018552815160808151855260ff898301511689860152878201518189870152613d7f82870182613cdb565b91505060608083015192508582038187015250613d9c8183613cdb565b968901969450505090860190600101613d46565b509098975050505050505050565b60008060008060808587031215613dd457600080fd5b613ddd856138f2565b9350602085013561ffff81168114613df457600080fd5b9250613e02604086016138f2565b9396929550929360600135925050565b600060208284031215613e2457600080fd5b815160ff811681146117dd57600080fd5b634e487b7160e01b600052601160045260246000fd5b808202811582820484141761094e5761094e613e35565b60208082526036908201527f5468652075736572206d7573742077616974206174206c6561737420313830206040820152756461797320746f2077697468647261772066756e647360501b606082015260800190565b8181038181111561094e5761094e613e35565b634e487b7160e01b600052601260045260246000fd5b600082613ef057613ef0613ecb565b500490565b60208082526016908201527521b0b63632b91034b9903737ba1030b71020b236b4b760511b604082015260600190565b600060208284031215613f3757600080fd5b5051919050565b600060208284031215613f5057600080fd5b815180151581146117dd57600080fd5b6020808252601e908201527f4572726f72207768696c65206f627461696e696e6720646563696d616c730000604082015260600190565b600181815b80851115613fd2578160001904821115613fb857613fb8613e35565b80851615613fc557918102915b93841c9390800290613f9c565b509250929050565b600082613fe95750600161094e565b81613ff65750600061094e565b816001811461400c576002811461401657614032565b600191505061094e565b60ff84111561402757614027613e35565b50506001821b61094e565b5060208310610133831016604e8410600b8410161715614055575081810a61094e565b61405f8383613f97565b806000190482111561407357614073613e35565b029392505050565b60006117dd60ff841683613fda565b634e487b7160e01b600052603260045260246000fd5b600060ff821660ff81036140b6576140b6613e35565b60010192915050565b6000600182016140d1576140d1613e35565b5060010190565b83815260406020808301829052908201839052600090849060608401835b86811015614122576001600160a01b0361410f856138f2565b16825292820192908201906001016140f6565b50979650505050505050565b60008261413d5761413d613ecb565b500690565b8082018082111561094e5761094e613e35565b6000806040838503121561416857600080fd5b505080516020909101519092909150565b60006020828403121561418b57600080fd5b815167ffffffffffffffff8111156141a257600080fd5b8201601f810184136141b357600080fd5b80516141c1613a5e826139df565b8181528560208385010111156141d657600080fd5b612e25826020830160208601613c35565b6040815260006141fa6040830185613c59565b8281036020840152612e258185613c59565b634e487b7160e01b600052603160045260246000fd5b60ff828116828216039081111561094e5761094e613e35565b60ff818116838216019081111561094e5761094e613e35565b60008251614266818460208701613c35565b919091019291505056fe360894a13ba1a3210667c828492db98dca3e2076cc3735a920a3ca505d382bbc02dd7bc7dec4dceedda775e58dd541e08a116c6c53815c0bd028192f7b626800a264697066735822122096bd96629b0289f0b7dcd1468e52dd1c880499bda2097941ac0b04dda8aa421e64736f6c63430008140033",
  "linkReferences": {
    "library/LendManagerUtils.sol": {
      "Utils": [
        {
          "length": 20,
          "start": 7212
        },
        {
          "length": 20,
          "start": 7810
        }
      ]
    }
  },
  "deployedLinkReferences": {
    "library/LendManagerUtils.sol": {
      "Utils": [
        {
          "length": 20,
          "start": 7150
        },
        {
          "length": 20,
          "start": 7748
        }
      ]
    }
  }
}