{
  "_format": "hh-sol-artifact-1",
  "contractName": "ReFiMedLendUpgradeable",
  "sourceName": "contracts/ReFiMedLendUpgradeable.sol",
  "abi": [
    {
      "inputs": [],
      "name": "AccessControlBadConfirmation",
      "type": "error"
    },
    {
      "inputs": [
        {
          "internalType": "address",
          "name": "account",
          "type": "address"
        },
        {
          "internalType": "bytes32",
          "name": "neededRole",
          "type": "bytes32"
        }
      ],
      "name": "AccessControlUnauthorizedAccount",
      "type": "error"
    },
    {
      "inputs": [
        {
          "internalType": "address",
          "name": "target",
          "type": "address"
        }
      ],
      "name": "AddressEmptyCode",
      "type": "error"
    },
    {
      "inputs": [
        {
          "internalType": "address",
          "name": "implementation",
          "type": "address"
        }
      ],
      "name": "ERC1967InvalidImplementation",
      "type": "error"
    },
    {
      "inputs": [],
      "name": "ERC1967NonPayable",
      "type": "error"
    },
    {
      "inputs": [],
      "name": "EnforcedPause",
      "type": "error"
    },
    {
      "inputs": [],
      "name": "ExpectedPause",
      "type": "error"
    },
    {
      "inputs": [],
      "name": "FailedInnerCall",
      "type": "error"
    },
    {
      "inputs": [],
      "name": "InvalidInitialization",
      "type": "error"
    },
    {
      "inputs": [],
      "name": "NotInitializing",
      "type": "error"
    },
    {
      "inputs": [
        {
          "internalType": "address",
          "name": "owner",
          "type": "address"
        }
      ],
      "name": "OwnableInvalidOwner",
      "type": "error"
    },
    {
      "inputs": [
        {
          "internalType": "address",
          "name": "account",
          "type": "address"
        }
      ],
      "name": "OwnableUnauthorizedAccount",
      "type": "error"
    },
    {
      "inputs": [],
      "name": "UUPSUnauthorizedCallContext",
      "type": "error"
    },
    {
      "inputs": [
        {
          "internalType": "bytes32",
          "name": "slot",
          "type": "bytes32"
        }
      ],
      "name": "UUPSUnsupportedProxiableUUID",
      "type": "error"
    },
    {
      "inputs": [],
      "name": "UnavailableAmount",
      "type": "error"
    },
    {
      "anonymous": false,
      "inputs": [
        {
          "indexed": true,
          "internalType": "address",
          "name": "debtor",
          "type": "address"
        },
        {
          "indexed": false,
          "internalType": "uint256",
          "name": "amount",
          "type": "uint256"
        },
        {
          "indexed": false,
          "internalType": "uint256",
          "name": "interests",
          "type": "uint256"
        },
        {
          "indexed": true,
          "internalType": "address",
          "name": "token",
          "type": "address"
        },
        {
          "indexed": false,
          "internalType": "uint8",
          "name": "decimals",
          "type": "uint8"
        },
        {
          "indexed": false,
          "internalType": "uint256",
          "name": "nonce",
          "type": "uint256"
        }
      ],
      "name": "Debt",
      "type": "event"
    },
    {
      "anonymous": false,
      "inputs": [
        {
          "indexed": true,
          "internalType": "address",
          "name": "funder",
          "type": "address"
        },
        {
          "indexed": false,
          "internalType": "uint256",
          "name": "amount",
          "type": "uint256"
        },
        {
          "indexed": true,
          "internalType": "address",
          "name": "token",
          "type": "address"
        },
        {
          "indexed": false,
          "internalType": "uint8",
          "name": "decimals",
          "type": "uint8"
        }
      ],
      "name": "Funded",
      "type": "event"
    },
    {
      "anonymous": false,
      "inputs": [
        {
          "indexed": false,
          "internalType": "uint64",
          "name": "version",
          "type": "uint64"
        }
      ],
      "name": "Initialized",
      "type": "event"
    },
    {
      "anonymous": false,
      "inputs": [
        {
          "indexed": true,
          "internalType": "address",
          "name": "lender",
          "type": "address"
        },
        {
          "indexed": false,
          "internalType": "uint256",
          "name": "amount",
          "type": "uint256"
        },
        {
          "indexed": true,
          "internalType": "address",
          "name": "token",
          "type": "address"
        },
        {
          "indexed": false,
          "internalType": "uint8",
          "name": "decimals",
          "type": "uint8"
        },
        {
          "indexed": false,
          "internalType": "uint256",
          "name": "nonce",
          "type": "uint256"
        }
      ],
      "name": "LendRepaid",
      "type": "event"
    },
    {
      "anonymous": false,
      "inputs": [
        {
          "indexed": true,
          "internalType": "address",
          "name": "lender",
          "type": "address"
        },
        {
          "indexed": false,
          "internalType": "uint256",
          "name": "amount",
          "type": "uint256"
        },
        {
          "indexed": true,
          "internalType": "address",
          "name": "token",
          "type": "address"
        },
        {
          "indexed": false,
          "internalType": "uint8",
          "name": "decimals",
          "type": "uint8"
        },
        {
          "indexed": false,
          "internalType": "uint256",
          "name": "paymentDue",
          "type": "uint256"
        },
        {
          "indexed": false,
          "internalType": "uint256",
          "name": "nonce",
          "type": "uint256"
        }
      ],
      "name": "Lending",
      "type": "event"
    },
    {
      "anonymous": false,
      "inputs": [
        {
          "indexed": true,
          "internalType": "address",
          "name": "previousOwner",
          "type": "address"
        },
        {
          "indexed": true,
          "internalType": "address",
          "name": "newOwner",
          "type": "address"
        }
      ],
      "name": "OwnershipTransferred",
      "type": "event"
    },
    {
      "anonymous": false,
      "inputs": [
        {
          "indexed": false,
          "internalType": "address",
          "name": "account",
          "type": "address"
        }
      ],
      "name": "Paused",
      "type": "event"
    },
    {
      "anonymous": false,
      "inputs": [
        {
          "indexed": true,
          "internalType": "bytes32",
          "name": "role",
          "type": "bytes32"
        },
        {
          "indexed": true,
          "internalType": "bytes32",
          "name": "previousAdminRole",
          "type": "bytes32"
        },
        {
          "indexed": true,
          "internalType": "bytes32",
          "name": "newAdminRole",
          "type": "bytes32"
        }
      ],
      "name": "RoleAdminChanged",
      "type": "event"
    },
    {
      "anonymous": false,
      "inputs": [
        {
          "indexed": true,
          "internalType": "bytes32",
          "name": "role",
          "type": "bytes32"
        },
        {
          "indexed": true,
          "internalType": "address",
          "name": "account",
          "type": "address"
        },
        {
          "indexed": true,
          "internalType": "address",
          "name": "sender",
          "type": "address"
        }
      ],
      "name": "RoleGranted",
      "type": "event"
    },
    {
      "anonymous": false,
      "inputs": [
        {
          "indexed": true,
          "internalType": "bytes32",
          "name": "role",
          "type": "bytes32"
        },
        {
          "indexed": true,
          "internalType": "address",
          "name": "account",
          "type": "address"
        },
        {
          "indexed": true,
          "internalType": "address",
          "name": "sender",
          "type": "address"
        }
      ],
      "name": "RoleRevoked",
      "type": "event"
    },
    {
      "anonymous": false,
      "inputs": [
        {
          "indexed": true,
          "internalType": "address",
          "name": "tokenAddress",
          "type": "address"
        },
        {
          "indexed": false,
          "internalType": "string",
          "name": "symbol",
          "type": "string"
        },
        {
          "indexed": false,
          "internalType": "string",
          "name": "name",
          "type": "string"
        }
      ],
      "name": "TokenAdded",
      "type": "event"
    },
    {
      "anonymous": false,
      "inputs": [
        {
          "indexed": false,
          "internalType": "address",
          "name": "account",
          "type": "address"
        }
      ],
      "name": "Unpaused",
      "type": "event"
    },
    {
      "anonymous": false,
      "inputs": [
        {
          "indexed": true,
          "internalType": "address",
          "name": "implementation",
          "type": "address"
        }
      ],
      "name": "Upgraded",
      "type": "event"
    },
    {
      "anonymous": false,
      "inputs": [
        {
          "indexed": true,
          "internalType": "address",
          "name": "caller",
          "type": "address"
        },
        {
          "indexed": true,
          "internalType": "address",
          "name": "recipent",
          "type": "address"
        },
        {
          "indexed": false,
          "internalType": "uint256",
          "name": "amount",
          "type": "uint256"
        }
      ],
      "name": "UserQuotaChanged",
      "type": "event"
    },
    {
      "anonymous": false,
      "inputs": [
        {
          "indexed": true,
          "internalType": "address",
          "name": "caller",
          "type": "address"
        },
        {
          "indexed": true,
          "internalType": "uint16",
          "name": "index",
          "type": "uint16"
        },
        {
          "indexed": true,
          "internalType": "address",
          "name": "recipent",
          "type": "address"
        },
        {
          "indexed": false,
          "internalType": "uint256",
          "name": "amount",
          "type": "uint256"
        },
        {
          "indexed": false,
          "internalType": "address[]",
          "name": "signers",
          "type": "address[]"
        }
      ],
      "name": "UserQuotaIncreaseRequest",
      "type": "event"
    },
    {
      "anonymous": false,
      "inputs": [
        {
          "indexed": true,
          "internalType": "address",
          "name": "signer",
          "type": "address"
        },
        {
          "indexed": true,
          "internalType": "uint16",
          "name": "index",
          "type": "uint16"
        },
        {
          "indexed": true,
          "internalType": "address",
          "name": "recipent",
          "type": "address"
        },
        {
          "indexed": false,
          "internalType": "uint256",
          "name": "amount",
          "type": "uint256"
        }
      ],
      "name": "UserQuotaSigned",
      "type": "event"
    },
    {
      "anonymous": false,
      "inputs": [
        {
          "indexed": true,
          "internalType": "address",
          "name": "withdrawer",
          "type": "address"
        },
        {
          "indexed": false,
          "internalType": "uint256",
          "name": "amount",
          "type": "uint256"
        },
        {
          "indexed": false,
          "internalType": "uint256",
          "name": "interests",
          "type": "uint256"
        },
        {
          "indexed": true,
          "internalType": "address",
          "name": "token",
          "type": "address"
        },
        {
          "indexed": false,
          "internalType": "uint8",
          "name": "decimals",
          "type": "uint8"
        }
      ],
      "name": "Withdraw",
      "type": "event"
    },
    {
      "inputs": [],
      "name": "DEFAULT_ADMIN_ROLE",
      "outputs": [
        {
          "internalType": "bytes32",
          "name": "",
          "type": "bytes32"
        }
      ],
      "stateMutability": "view",
      "type": "function"
    },
    {
      "inputs": [],
      "name": "INTEREST_RATE_PER_DAY",
      "outputs": [
        {
          "internalType": "uint256",
          "name": "",
          "type": "uint256"
        }
      ],
      "stateMutability": "view",
      "type": "function"
    },
    {
      "inputs": [],
      "name": "UPGRADE_INTERFACE_VERSION",
      "outputs": [
        {
          "internalType": "string",
          "name": "",
          "type": "string"
        }
      ],
      "stateMutability": "view",
      "type": "function"
    },
    {
      "inputs": [
        {
          "internalType": "address",
          "name": "tokenAddress",
          "type": "address"
        }
      ],
      "name": "addToken",
      "outputs": [],
      "stateMutability": "nonpayable",
      "type": "function"
    },
    {
      "inputs": [
        {
          "internalType": "uint256",
          "name": "lendIndex",
          "type": "uint256"
        }
      ],
      "name": "calculateInterests",
      "outputs": [
        {
          "internalType": "uint256",
          "name": "interests",
          "type": "uint256"
        },
        {
          "internalType": "uint256",
          "name": "totalDebt",
          "type": "uint256"
        }
      ],
      "stateMutability": "view",
      "type": "function"
    },
    {
      "inputs": [
        {
          "internalType": "address",
          "name": "recipent",
          "type": "address"
        },
        {
          "internalType": "uint256",
          "name": "amount",
          "type": "uint256"
        }
      ],
      "name": "decreaseQuota",
      "outputs": [],
      "stateMutability": "nonpayable",
      "type": "function"
    },
    {
      "inputs": [
        {
          "internalType": "uint256",
          "name": "amount",
          "type": "uint256"
        },
        {
          "internalType": "address",
          "name": "token",
          "type": "address"
        }
      ],
      "name": "fund",
      "outputs": [],
      "stateMutability": "nonpayable",
      "type": "function"
    },
    {
      "inputs": [],
      "name": "funds",
      "outputs": [
        {
          "internalType": "uint256",
          "name": "totalFunds",
          "type": "uint256"
        },
        {
          "internalType": "uint256",
          "name": "interests",
          "type": "uint256"
        },
        {
          "internalType": "uint256",
          "name": "totalInterestShares",
          "type": "uint256"
        },
        {
          "internalType": "uint256",
          "name": "interestPerShare",
          "type": "uint256"
        }
      ],
      "stateMutability": "view",
      "type": "function"
    },
    {
      "inputs": [
        {
          "internalType": "bytes32",
          "name": "role",
          "type": "bytes32"
        }
      ],
      "name": "getRoleAdmin",
      "outputs": [
        {
          "internalType": "bytes32",
          "name": "",
          "type": "bytes32"
        }
      ],
      "stateMutability": "view",
      "type": "function"
    },
    {
      "inputs": [
        {
          "internalType": "address",
          "name": "token",
          "type": "address"
        }
      ],
      "name": "getSpareFunds",
      "outputs": [],
      "stateMutability": "nonpayable",
      "type": "function"
    },
    {
      "inputs": [
        {
          "internalType": "address",
          "name": "userAddress",
          "type": "address"
        },
        {
          "internalType": "uint256",
          "name": "page",
          "type": "uint256"
        },
        {
          "internalType": "uint256",
          "name": "pageSize",
          "type": "uint256"
        }
      ],
      "name": "getUserLendsPaginated",
      "outputs": [
        {
          "components": [
            {
              "internalType": "uint256",
              "name": "initialAmount",
              "type": "uint256"
            },
            {
              "internalType": "uint256",
              "name": "currentAmount",
              "type": "uint256"
            },
            {
              "internalType": "address",
              "name": "token",
              "type": "address"
            },
            {
              "internalType": "uint256",
              "name": "expectPaymentDue",
              "type": "uint256"
            },
            {
              "internalType": "uint256",
              "name": "latestDebtTimestamp",
              "type": "uint256"
            },
            {
              "internalType": "uint256",
              "name": "nonce",
              "type": "uint256"
            }
          ],
          "internalType": "struct ReFiMedLendUpgradeable.Lend[]",
          "name": "",
          "type": "tuple[]"
        }
      ],
      "stateMutability": "view",
      "type": "function"
    },
    {
      "inputs": [
        {
          "internalType": "address",
          "name": "userAddress",
          "type": "address"
        },
        {
          "internalType": "uint256",
          "name": "page",
          "type": "uint256"
        },
        {
          "internalType": "uint256",
          "name": "pageSize",
          "type": "uint256"
        }
      ],
      "name": "getUserQuotaRequests",
      "outputs": [
        {
          "components": [
            {
              "internalType": "uint256",
              "name": "amount",
              "type": "uint256"
            },
            {
              "internalType": "uint8",
              "name": "successfulSigns",
              "type": "uint8"
            },
            {
              "internalType": "address[]",
              "name": "signers",
              "type": "address[]"
            },
            {
              "internalType": "address[]",
              "name": "signedBy",
              "type": "address[]"
            }
          ],
          "internalType": "struct ReFiMedLendUpgradeable.UserQuotaRequest[]",
          "name": "",
          "type": "tuple[]"
        }
      ],
      "stateMutability": "view",
      "type": "function"
    },
    {
      "inputs": [
        {
          "internalType": "bytes32",
          "name": "role",
          "type": "bytes32"
        },
        {
          "internalType": "address",
          "name": "account",
          "type": "address"
        }
      ],
      "name": "grantRole",
      "outputs": [],
      "stateMutability": "nonpayable",
      "type": "function"
    },
    {
      "inputs": [
        {
          "internalType": "bytes32",
          "name": "role",
          "type": "bytes32"
        },
        {
          "internalType": "address",
          "name": "account",
          "type": "address"
        }
      ],
      "name": "hasRole",
      "outputs": [
        {
          "internalType": "bool",
          "name": "",
          "type": "bool"
        }
      ],
      "stateMutability": "view",
      "type": "function"
    },
    {
      "inputs": [
        {
          "internalType": "address",
          "name": "recipent",
          "type": "address"
        },
        {
          "internalType": "uint16",
          "name": "index",
          "type": "uint16"
        },
        {
          "internalType": "address",
          "name": "caller",
          "type": "address"
        },
        {
          "internalType": "uint256",
          "name": "amount",
          "type": "uint256"
        }
      ],
      "name": "increaseQuota",
      "outputs": [
        {
          "internalType": "bool",
          "name": "",
          "type": "bool"
        }
      ],
      "stateMutability": "nonpayable",
      "type": "function"
    },
    {
      "inputs": [
        {
          "internalType": "address",
          "name": "_attestationResolver",
          "type": "address"
        },
        {
          "internalType": "address",
          "name": "multisig",
          "type": "address"
        },
        {
          "internalType": "address",
          "name": "admin",
          "type": "address"
        }
      ],
      "name": "initialize",
      "outputs": [],
      "stateMutability": "nonpayable",
      "type": "function"
    },
    {
      "inputs": [],
      "name": "owner",
      "outputs": [
        {
          "internalType": "address",
          "name": "",
          "type": "address"
        }
      ],
      "stateMutability": "view",
      "type": "function"
    },
    {
      "inputs": [],
      "name": "paused",
      "outputs": [
        {
          "internalType": "bool",
          "name": "",
          "type": "bool"
        }
      ],
      "stateMutability": "view",
      "type": "function"
    },
    {
      "inputs": [
        {
          "internalType": "uint256",
          "name": "amount",
          "type": "uint256"
        },
        {
          "internalType": "address",
          "name": "token",
          "type": "address"
        },
        {
          "internalType": "uint256",
          "name": "lendIndex",
          "type": "uint256"
        }
      ],
      "name": "payDebt",
      "outputs": [],
      "stateMutability": "nonpayable",
      "type": "function"
    },
    {
      "inputs": [],
      "name": "proxiableUUID",
      "outputs": [
        {
          "internalType": "bytes32",
          "name": "",
          "type": "bytes32"
        }
      ],
      "stateMutability": "view",
      "type": "function"
    },
    {
      "inputs": [],
      "name": "renounceOwnership",
      "outputs": [],
      "stateMutability": "nonpayable",
      "type": "function"
    },
    {
      "inputs": [
        {
          "internalType": "bytes32",
          "name": "role",
          "type": "bytes32"
        },
        {
          "internalType": "address",
          "name": "callerConfirmation",
          "type": "address"
        }
      ],
      "name": "renounceRole",
      "outputs": [],
      "stateMutability": "nonpayable",
      "type": "function"
    },
    {
      "inputs": [
        {
          "internalType": "address",
          "name": "recipent",
          "type": "address"
        },
        {
          "internalType": "uint256",
          "name": "amount",
          "type": "uint256"
        },
        {
          "internalType": "address[]",
          "name": "signers",
          "type": "address[]"
        }
      ],
      "name": "requestIncreaseQuota",
      "outputs": [],
      "stateMutability": "nonpayable",
      "type": "function"
    },
    {
      "inputs": [
        {
          "internalType": "uint256",
          "name": "amount",
          "type": "uint256"
        },
        {
          "internalType": "address",
          "name": "token",
          "type": "address"
        },
        {
          "internalType": "uint256",
          "name": "paymentDue",
          "type": "uint256"
        }
      ],
      "name": "requestLend",
      "outputs": [],
      "stateMutability": "nonpayable",
      "type": "function"
    },
    {
      "inputs": [
        {
          "internalType": "bytes32",
          "name": "role",
          "type": "bytes32"
        },
        {
          "internalType": "address",
          "name": "account",
          "type": "address"
        }
      ],
      "name": "revokeRole",
      "outputs": [],
      "stateMutability": "nonpayable",
      "type": "function"
    },
    {
      "inputs": [
        {
          "internalType": "uint256",
          "name": "interestRate",
          "type": "uint256"
        }
      ],
      "name": "setInterestPerDay",
      "outputs": [],
      "stateMutability": "nonpayable",
      "type": "function"
    },
    {
      "inputs": [
        {
          "internalType": "bytes4",
          "name": "interfaceId",
          "type": "bytes4"
        }
      ],
      "name": "supportsInterface",
      "outputs": [
        {
          "internalType": "bool",
          "name": "",
          "type": "bool"
        }
      ],
      "stateMutability": "view",
      "type": "function"
    },
    {
      "inputs": [
        {
          "internalType": "address",
          "name": "newAdmin",
          "type": "address"
        }
      ],
      "name": "transferAdmin",
      "outputs": [],
      "stateMutability": "nonpayable",
      "type": "function"
    },
    {
      "inputs": [
        {
          "internalType": "address",
          "name": "newOwner",
          "type": "address"
        }
      ],
      "name": "transferOwnership",
      "outputs": [],
      "stateMutability": "nonpayable",
      "type": "function"
    },
    {
      "inputs": [
        {
          "internalType": "address",
          "name": "newImplementation",
          "type": "address"
        },
        {
          "internalType": "bytes",
          "name": "data",
          "type": "bytes"
        }
      ],
      "name": "upgradeToAndCall",
      "outputs": [],
      "stateMutability": "payable",
      "type": "function"
    },
    {
      "inputs": [
        {
          "internalType": "address",
          "name": "",
          "type": "address"
        }
      ],
      "name": "user",
      "outputs": [
        {
          "internalType": "uint256",
          "name": "quota",
          "type": "uint256"
        },
        {
          "internalType": "uint256",
          "name": "currentFund",
          "type": "uint256"
        },
        {
          "internalType": "uint256",
          "name": "interestShares",
          "type": "uint256"
        },
        {
          "internalType": "uint256",
          "name": "lastFund",
          "type": "uint256"
        }
      ],
      "stateMutability": "view",
      "type": "function"
    },
    {
      "inputs": [
        {
          "internalType": "uint256",
          "name": "amount",
          "type": "uint256"
        },
        {
          "internalType": "address",
          "name": "token",
          "type": "address"
        }
      ],
      "name": "withdraw",
      "outputs": [],
      "stateMutability": "nonpayable",
      "type": "function"
    },
    {
      "inputs": [
        {
          "internalType": "uint256",
          "name": "amount",
          "type": "uint256"
        },
        {
          "internalType": "address",
          "name": "token",
          "type": "address"
        }
      ],
      "name": "withdrawWithoutInterests",
      "outputs": [],
      "stateMutability": "nonpayable",
      "type": "function"
    }
  ],
  "bytecode": "0x60a06040523060805234801561001457600080fd5b5060805161438a61003e60003960008181613396015281816133bf0152613500015261438a6000f3fe6080604052600436106101ed5760003560e01c806381e7e20e1161010d578063c0c53b8b116100a0578063d7d9f9ec1161006f578063d7d9f9ec14610624578063e0e713dd14610644578063eee9239514610671578063f140006214610691578063f2fde38b146106b157600080fd5b8063c0c53b8b146105a1578063c89f2ce4146105c1578063d48bfca7146105e4578063d547741f1461060457600080fd5b8063969f9efa116100dc578063969f9efa146105185780639ebb41121461052e578063a217fddf1461054e578063ad3cb1cc1461056357600080fd5b806381e7e20e1461042057806387373fc1146104845780638da5cb5b146104b157806391d14854146104f857600080fd5b80634f1ef286116101855780636e99700a116101545780636e99700a146103ab578063715018a6146103cb57806375829def146103e057806381d945d21461040057600080fd5b80634f1ef2861461032c57806352d1902d1461033f5780635c975abb1461035457806361e576b81461038b57600080fd5b80632f2ff15d116101c15780632f2ff15d1461029757806336568abe146102b75780633ead66c8146102d7578063435e0283146102f757600080fd5b8062f714ce146101f257806301ffc9a7146102145780631031f4f914610249578063248a9ca314610269575b600080fd5b3480156101fe57600080fd5b5061021261020d3660046139b2565b6106d1565b005b34801561022057600080fd5b5061023461022f3660046139de565b610948565b60405190151581526020015b60405180910390f35b34801561025557600080fd5b50610212610264366004613a08565b61097f565b34801561027557600080fd5b50610289610284366004613a08565b6109ac565b604051908152602001610240565b3480156102a357600080fd5b506102126102b23660046139b2565b6109ce565b3480156102c357600080fd5b506102126102d23660046139b2565b6109f0565b3480156102e357600080fd5b506102126102f2366004613a21565b610a28565b34801561030357600080fd5b50610317610312366004613a08565b610c2b565b60408051928352602083019190915201610240565b61021261033a366004613aab565b610d14565b34801561034b57600080fd5b50610289610d2f565b34801561036057600080fd5b507fcd5ed15c6e187e77e9aee88184c21f4f2182ab5827cb3b7e07fbedcd63f033005460ff16610234565b34801561039757600080fd5b506102126103a6366004613b3c565b610d4c565b3480156103b757600080fd5b506102126103c6366004613b66565b610e71565b3480156103d757600080fd5b50610212611255565b3480156103ec57600080fd5b506102126103fb366004613a21565b611269565b34801561040c57600080fd5b5061021261041b366004613b9b565b6112aa565b34801561042c57600080fd5b5061046461043b366004613a21565b600560208190526000918252604090912080546003820154600483015492909301549092919084565b604080519485526020850193909352918301526060820152608001610240565b34801561049057600080fd5b506104a461049f366004613c25565b6116f9565b6040516102409190613c58565b3480156104bd57600080fd5b507f9016d09d72d40fdae2fd8ceac6b6234c7706214fd39c1cd1e609a0528c199300546040516001600160a01b039091168152602001610240565b34801561050457600080fd5b506102346105133660046139b2565b611959565b34801561052457600080fd5b5061028960025481565b34801561053a57600080fd5b506102126105493660046139b2565b611991565b34801561055a57600080fd5b50610289600081565b34801561056f57600080fd5b50610594604051806040016040528060058152602001640352e302e360dc1b81525081565b6040516102409190613d29565b3480156105ad57600080fd5b506102126105bc366004613d3c565b611b57565b3480156105cd57600080fd5b50600854600954600a54600b546104649392919084565b3480156105f057600080fd5b506102126105ff366004613a21565b611ce1565b34801561061057600080fd5b5061021261061f3660046139b2565b611e4c565b34801561063057600080fd5b5061021261063f366004613b66565b611e68565b34801561065057600080fd5b5061066461065f366004613c25565b6123f2565b6040516102409190613dc3565b34801561067d57600080fd5b5061021261068c3660046139b2565b6126c9565b34801561069d57600080fd5b506102346106ac366004613e62565b612a1b565b3480156106bd57600080fd5b506102126106cc366004613a21565b612dfe565b6000816001600160a01b031663313ce5676040518163ffffffff1660e01b8152600401602060405180830381865afa158015610711573d6000803e3d6000fd5b505050506040513d601f19601f820116820180604052508101906107359190613eb6565b90506000600354846107479190613eef565b336000908152600560208190526040822090810154929350919061076b8242612e3c565b905060b48110156107975760405162461bcd60e51b815260040161078e90613f06565b60405180910390fd5b83836003015410156107de5760405162461bcd60e51b815260206004820152601060248201526f496e7375666963656e742066756e647360801b604482015260640161078e565b3360009081526006602090815260408083206001600160a01b038a1684529091529020548411156108515760405162461bcd60e51b815260206004820152601a60248201527f496e73756666696369656e7420746f6b656e2062616c616e6365000000000000604482015260640161078e565b3360009081526006602090815260408083206001600160a01b038a16845290915281208054869290610884908490613f5c565b9091555050600b546004840154600091670de0b6b3a7640000916108a89190613eef565b6108b29190613f85565b90508360040154600860020160008282546108cd9190613f5c565b90915550506004840180549060006108e58380613f5c565b9091555050600980548291906000906108ff908490613f5c565b9091555050600a541561093257600a5460095461092490670de0b6b3a7640000613eef565b61092e9190613f85565b600b555b61093e88828989612ed2565b5050505050505050565b60006001600160e01b03198216637965db0b60e01b148061097957506301ffc9a760e01b6001600160e01b03198316145b92915050565b61098b60015433611959565b6109a75760405162461bcd60e51b815260040161078e90613f99565b600255565b6000908152600080516020614335833981519152602052604090206001015490565b6109d7826109ac565b6109e081613260565b6109ea838361326a565b50505050565b6001600160a01b0381163314610a195760405163334bd91960e11b815260040160405180910390fd5b610a23828261330f565b505050565b610a3460015433611959565b610a505760405162461bcd60e51b815260040161078e90613f99565b6040516370a0823160e01b81523060048201526000906001600160a01b038316906370a0823190602401602060405180830381865afa158015610a97573d6000803e3d6000fd5b505050506040513d601f19601f82011682018060405250810190610abb9190613fc9565b60085490915015610b0e5760405162461bcd60e51b815260206004820152601960248201527f54686520746f74616c2066756e6473206d757374206265203000000000000000604482015260640161078e565b60008111610b6a5760405162461bcd60e51b815260206004820152602360248201527f5468652062616c616e6365206d7573742062652067726561746865722074686160448201526206e20360ec1b606482015260840161078e565b60405163a9059cbb60e01b8152336004820152602481018290526001600160a01b0383169063a9059cbb906044016020604051808303816000875af1158015610bb7573d6000803e3d6000fd5b505050506040513d601f19601f82011682018060405250810190610bdb9190613fe2565b610c275760405162461bcd60e51b815260206004820152601d60248201527f4572726f72207768696c65207472616e73666572696e672066756e6473000000604482015260640161078e565b5050565b336000908152600560205260408120600181018054839291839186908110610c5557610c55614004565b906000526020600020906006020190506000610c75826004015442612e3c565b60025460018401546040516301786f6360e21b81526004810184905260248101929092526044820152909150600090819073__$d91b156d91b8441e2a498d94550346ea7a$__906305e1bd8c906064016040805180830381865af4158015610ce1573d6000803e3d6000fd5b505050506040513d601f19601f82011682018060405250810190610d05919061401a565b90999098509650505050505050565b610d1c61338b565b610d2582613430565b610c278282613438565b6000610d396134f5565b5060008051602061431583398151915290565b610d5461353e565b610d6060015433611959565b610d7c5760405162461bcd60e51b815260040161078e90613f99565b600060035482610d8c9190613eef565b6001600160a01b038416600090815260056020526040902054909150811115610dea5760405162461bcd60e51b815260206004820152601060248201526f496e7375666963656e742071756f746160801b604482015260640161078e565b6001600160a01b03831660009081526005602052604081208054839290610e12908490613f5c565b90915550506001600160a01b0383166000818152600560205260409081902054905133917f986757b5f72e5258de572c036a9155b7f6fce0df14ffd1fa633617f668137a3991610e6491815260200190565b60405180910390a3505050565b610e7961353e565b336000908152600560205260408120600354909190610e989086613eef565b90508082600001541015610f075760405162461bcd60e51b815260206004820152603060248201527f546865207573657220686173206c6573732071756f7461207468616e2074686560448201526f081c995c5d5a5c995908185b5bdd5b9d60821b606482015260840161078e565b6000846001600160a01b031663313ce5676040518163ffffffff1660e01b8152600401602060405180830381865afa158015610f47573d6000803e3d6000fd5b505050506040513d601f19601f82011682018060405250810190610f6b9190613eb6565b905060008160ff1611610f905760405162461bcd60e51b815260040161078e9061403e565b6040516370a0823160e01b81523060048201526000906001600160a01b038716906370a0823190602401602060405180830381865afa158015610fd7573d6000803e3d6000fd5b505050506040513d601f19601f82011682018060405250810190610ffb9190613fc9565b905061100882600a614159565b6110129088613eef565b8110156110585760405162461bcd60e51b8152602060048201526014602482015273496e7375666963656e74206c697175696469747960601b604482015260640161078e565b6000611062613581565b6040805160c08101825286815260208082018881526001600160a01b038c8116948401948552606084018c8152426080860190815260a0860188815260018e81018054808301825560009182529781209851600690980290980196875594519486019490945595516002850180546001600160a01b03191691909316179091555160038301559251600482015591516005909201919091558654919250859187919061110f908490613f5c565b90915550506001600160a01b03871663a9059cbb3361112f86600a614159565b611139908c613eef565b6040516001600160e01b031960e085901b1681526001600160a01b03909216600483015260248201526044016020604051808303816000875af1158015611184573d6000803e3d6000fd5b505050506040513d601f19601f820116820180604052508101906111a89190613fe2565b6111f45760405162461bcd60e51b815260206004820152601e60248201527f4572726f72207768696c65207472616e73666572696e67206173736574730000604482015260640161078e565b6040805185815260ff85166020820152908101879052606081018290526001600160a01b0388169033907f473896b256eedaa907360e7bb0dfd12ebcad749e88d45aa79325bf4aad4afbfc9060800160405180910390a35050505050505050565b61125d6135e1565b611267600061363c565b565b61127560015433611959565b6112915760405162461bcd60e51b815260040161078e90613f99565b61129d6001548261326a565b50610c276001543361330f565b6112b261353e565b6112be60015433611959565b6112da5760405162461bcd60e51b815260040161078e90613f99565b6000600354846112ea9190613eef565b905060008267ffffffffffffffff81111561130757611307613a3c565b604051908082528060200260200182016040528015611330578160200160208202803683370190505b50905060038310156113845760405162461bcd60e51b815260206004820152601960248201527f5369676e657273206d757374206265206174206c656174203300000000000000604482015260640161078e565b600a8311156113d55760405162461bcd60e51b815260206004820152601d60248201527f5369676e657273206d757374206265206c65617374207468616e203130000000604482015260640161078e565b600085116114255760405162461bcd60e51b815260206004820152601e60248201527f416d6f756e74206d757374206265206772656174686572207468616e20300000604482015260640161078e565b6001600160a01b03861660009081526005602090815260408083208151608081018352868152808401858152835186815280860185528285019081528451878152808701909552606083019490945260029283018054600180820183559188529686902083516004909802019687559051908601805460ff191660ff909216919091179055915180519294936114c1939285019291019061391c565b50606082015180516114dd91600384019160209091019061391c565b5050506000805b60ff811685111561167e57600086868360ff1681811061150657611506614004565b905060200201602081019061151b9190613a21565b905060005b838160ff1610156115b857848160ff168151811061154057611540614004565b60200260200101516001600160a01b0316826001600160a01b0316036115a85760405162461bcd60e51b815260206004820152601960248201527f4475706c6963617465207369676e657220646574656374656400000000000000604482015260640161078e565b6115b181614168565b9050611520565b50808484815181106115cc576115cc614004565b6001600160a01b0390921660209283029190910190910152826115ee81614187565b6001600160a01b038b1660009081526005602052604090206002018054919550915061161c90600190613f5c565b8154811061162c5761162c614004565b60009182526020808320600492909202909101600201805460018101825590835291200180546001600160a01b0319166001600160a01b039290921691909117905561167781614168565b90506114e4565b506001600160a01b0387166000818152600560205260409020600201546116a790600190613f5c565b61ffff16336001600160a01b03167f0b64377ec6609831eaa829c32823df50ad3db86e1636b0923ee03fa1a685eff68989896040516116e8939291906141a0565b60405180910390a450505050505050565b6001600160a01b038316600090815260056020526040812060018101546060926117238583613f85565b9050600061173186846141f6565b11156117455761174260018261420a565b90505b808611156117845760405162461bcd60e51b815260206004820152600c60248201526b496e76616c6964207061676560a01b604482015260640161078e565b600085116117c85760405162461bcd60e51b8152602060048201526011602482015270496e76616c696420706167652073697a6560781b604482015260640161078e565b6000856117d6600189613f5c565b6117e09190613eef565b905060006117ee878361420a565b9050838111156117fb5750825b60006118078383613f5c565b67ffffffffffffffff81111561181f5761181f613a3c565b60405190808252806020026020018201604052801561189257816020015b61187f6040518060c00160405280600081526020016000815260200160006001600160a01b031681526020016000815260200160008152602001600081525090565b81526020019060019003908161183d5790505b509050825b82811015611949578660010181815481106118b4576118b4614004565b60009182526020918290206040805160c08101825260069093029091018054835260018101549383019390935260028301546001600160a01b031690820152600382015460608201526004820154608082015260059091015460a08201528261191d8684613f5c565b8151811061192d5761192d614004565b60200260200101819052508061194290614187565b9050611897565b50955050505050505b9392505050565b6000918252600080516020614335833981519152602090815260408084206001600160a01b0393909316845291905290205460ff1690565b6000816001600160a01b031663313ce5676040518163ffffffff1660e01b8152600401602060405180830381865afa1580156119d1573d6000803e3d6000fd5b505050506040513d601f19601f820116820180604052508101906119f59190613eb6565b9050600060035484611a079190613eef565b3360009081526005602081905260408220908101549293509190611a2b8242612e3c565b905060b4811015611a4e5760405162461bcd60e51b815260040161078e90613f06565b8383600301541015611a955760405162461bcd60e51b815260206004820152601060248201526f496e7375666963656e742066756e647360801b604482015260640161078e565b3360009081526006602090815260408083206001600160a01b038a168452909152902054841115611b085760405162461bcd60e51b815260206004820152601a60248201527f496e73756666696369656e7420746f6b656e2062616c616e6365000000000000604482015260640161078e565b3360009081526006602090815260408083206001600160a01b038a16845290915281208054869290611b3b908490613f5c565b90915550611b4e90508760008888612ed2565b50505050505050565b7ff0c57e16840df040f15088dc2f81fe391c3923bec73e23a9662efc9c229c6a008054600160401b810460ff16159067ffffffffffffffff16600081158015611b9d5750825b905060008267ffffffffffffffff166001148015611bba5750303b155b905081158015611bc8575080155b15611be65760405163f92ee8a960e01b815260040160405180910390fd5b845467ffffffffffffffff191660011785558315611c1057845460ff60401b1916600160401b1785555b611c19876136ad565b611c216136be565b7f0875992236f2b756c480a83b0053e711e5a04d6ec8bf4b52208ef8f002f175c760008181557fdf8b4c520ffe197c5343c6f5aec59570151ef9a492f2c624fd45ddde6135ec42600155613fb46002556103e8600355600455611c84908961326a565b50611c916001548761326a565b50831561093e57845460ff60401b19168555604051600181527fc7f505b2f371ae2175ee4913f4499e1f2633a7b5936321eed1cdaeb6115181d29060200160405180910390a15050505050505050565b611ced60015433611959565b611d095760405162461bcd60e51b815260040161078e90613f99565b611d1161353e565b6001600160a01b038116600081815260076020526040808220805460ff1916600117905580516395d89b4160e01b815290519192916395d89b419160048082019286929091908290030181865afa158015611d70573d6000803e3d6000fd5b505050506040513d6000823e601f3d908101601f19168201604052611d98919081019061421d565b90506000826001600160a01b03166306fdde036040518163ffffffff1660e01b8152600401600060405180830381865afa158015611dda573d6000803e3d6000fd5b505050506040513d6000823e601f3d908101601f19168201604052611e02919081019061421d565b9050826001600160a01b03167f2fb34ce114a136590b874d8cf80e7652adda576578bacfa4f8023f720f5693948383604051611e3f92919061428b565b60405180910390a2505050565b611e55826109ac565b611e5e81613260565b6109ea838361330f565b33600090815260056020526040812060018101805491929184908110611e9057611e90614004565b9060005260206000209060060201905060008590506000611eb5836004015442612e3c565b60025460018501546040516301786f6360e21b81526004810184905260248101929092526044820152909150600090819073__$d91b156d91b8441e2a498d94550346ea7a$__906305e1bd8c906064016040805180830381865af4158015611f21573d6000803e3d6000fd5b505050506040513d601f19601f82011682018060405250810190611f45919061401a565b915091506000886001600160a01b031663313ce5676040518163ffffffff1660e01b8152600401602060405180830381865afa158015611f89573d6000803e3d6000fd5b505050506040513d601f19601f82011682018060405250810190611fad9190613eb6565b905082866001016000828254611fc3919061420a565b909155505060018601548511156120145760405162461bcd60e51b8152602060048201526015602482015274496e76616c696420616d6f756e7420746f2070617960581b604482015260640161078e565b60008160ff16116120375760405162461bcd60e51b815260040161078e9061403e565b6001600160a01b03891660009081526007602052604090205460ff1661209f5760405162461bcd60e51b815260206004820181905260248201527f54686520746f6b656e206973206e6f742077686974656c697374656420796574604482015260640161078e565b848660010160008282546120b39190613f5c565b9091555050600980548491906000906120cd90849061420a565b90915550506005860154600a541561211657600a546120f485670de0b6b3a7640000613eef565b6120fe9190613f85565b600b805460009061211090849061420a565b90915550505b866001015460000361229a57865460018981015411156121d8576001808a018054909161214291613f5c565b8154811061215257612152614004565b9060005260206000209060060201896001018b8154811061217557612175614004565b6000918252602090912082546006909202019081556001808301549082015560028083015490820180546001600160a01b0319166001600160a01b0390921691909117905560038083015490820155600480830154908201556005918201549101555b886001018054806121eb576121eb6142b0565b600082815260208120600660001990930192830201818155600181018290556002810180546001600160a01b031916905560038101829055600481018290556005018190559155895482918b9161224390849061420a565b9091555050604080518d815260ff851660208201529081018390526001600160a01b038c169033907f2f683797ae14900863bd7f5b624167cf9533f58ff4e068fcdc51ea4b45ab8a3e9060600160405180910390a3505b6001600160a01b038a166323b872dd33306122b66003876142c6565b6122c190600a614159565b6122cb908b613eef565b6040516001600160e01b031960e086901b1681526001600160a01b03938416600482015292909116602483015260448201526064016020604051808303816000875af115801561231f573d6000803e3d6000fd5b505050506040513d601f19601f820116820180604052508101906123439190613fe2565b61238f5760405162461bcd60e51b815260206004820152601e60248201527f4572726f72207768696c65207472616e73666572696e67206173736574730000604482015260640161078e565b604080518c81526020810186905260ff8416818301526060810183905290516001600160a01b038c169133917f9ce47bcc134ecd272196e2d07a748c33630146263e848d49e2679807b2886aab9181900360800190a35050505050505050505050565b6001600160a01b0383166000908152600560205260408120600201805460609261241c8583613f85565b9050600061242a86846141f6565b111561243e5761243b60018261420a565b90505b8086111561247d5760405162461bcd60e51b815260206004820152600c60248201526b496e76616c6964207061676560a01b604482015260640161078e565b60008511801561248d5750808511155b6124cd5760405162461bcd60e51b8152602060048201526011602482015270496e76616c696420706167652073697a6560781b604482015260640161078e565b6000856124db600189613f5c565b6124e59190613eef565b905060006124f3878361420a565b9050838111156125005750825b600061250c8383613f5c565b67ffffffffffffffff81111561252457612524613a3c565b60405190808252806020026020018201604052801561258357816020015b612570604051806080016040528060008152602001600060ff16815260200160608152602001606081525090565b8152602001906001900390816125425790505b509050825b82811015611949578681815481106125a2576125a2614004565b600091825260209182902060408051608081018252600490930290910180548352600181015460ff1683850152600281018054835181870281018701855281815294959294938601939283018282801561262557602002820191906000526020600020905b81546001600160a01b03168152600190910190602001808311612607575b505050505081526020016003820180548060200260200160405190810160405280929190818152602001828054801561268757602002820191906000526020600020905b81546001600160a01b03168152600190910190602001808311612669575b50505050508152505082858361269d9190613f5c565b815181106126ad576126ad614004565b6020026020010181905250806126c290614187565b9050612588565b6126d161353e565b6001600160a01b03811660009081526007602052604090205460ff166127395760405162461bcd60e51b815260206004820152601960248201527f546f6b656e206973206e6f7420696e2077686974656c69737400000000000000604482015260640161078e565b6000816001600160a01b031663313ce5676040518163ffffffff1660e01b8152600401602060405180830381865afa158015612779573d6000803e3d6000fd5b505050506040513d601f19601f8201168201806040525081019061279d9190613eb6565b905060008160ff16116127c25760405162461bcd60e51b815260040161078e9061403e565b6000600354846127d29190613eef565b60085490915060000361280357336000908152600560205260409020600401819055600a8190556008819055612877565b600854600a5460009161281591613f85565b3360009081526005602052604081206004018054929350839290919061283c90849061420a565b9091555050600a805482919060009061285690849061420a565b90915550506008805483919060009061287090849061420a565b9091555050505b336000908152600560205260408120600301805483929061289990849061420a565b909155505033600090815260056020818152604080842042930192909255600681528183206001600160a01b03871684529052812080548392906128de90849061420a565b90915550506001600160a01b0383166323b872dd33306128ff86600a614159565b6129099089613eef565b6040516001600160e01b031960e086901b1681526001600160a01b03938416600482015292909116602483015260448201526064016020604051808303816000875af115801561295d573d6000803e3d6000fd5b505050506040513d601f19601f820116820180604052508101906129819190613fe2565b6129cd5760405162461bcd60e51b815260206004820152601b60248201527f4572726f72207768696c65207472616e7366657220746f6b656e730000000000604482015260640161078e565b6040805185815260ff841660208201526001600160a01b0385169133917f9f9c6451db74dc24ec4ef600603de4a3a11fbe4234eee83200b5469400652c51910160405180910390a350505050565b6000612a2960005433611959565b612a885760405162461bcd60e51b815260206004820152602a60248201527f43616c6c6572206973206e6f7420612076616c6964206174746573746174696f60448201526937103932b9b7b63b32b960b11b606482015260840161078e565b6001600160a01b0385166000908152600560205260408120600201805482919061ffff8816908110612abc57612abc614004565b9060005260206000209060040201905080600001548414612b395760405162461bcd60e51b815260206004820152603160248201527f546865206174746573746174696f6e20616d6f756e7420646f6573206e6f74206044820152701b585d18da081d1a19481c995c5d595cdd607a1b606482015260840161078e565b8054600282015460005b818160ff161015612b9f57876001600160a01b0316846002018260ff1681548110612b7057612b70614004565b6000918252602090912001546001600160a01b031603612b8f57600194505b612b9881614168565b9050612b43565b506003830154600090815b818160ff161015612c1057600386015415612c1057896001600160a01b0316866003018260ff1681548110612be157612be1614004565b6000918252602090912001546001600160a01b031603612c0057600196505b612c0981614168565b9050612baa565b5085612c5e5760405162461bcd60e51b815260206004820152601c60248201527f53656e646572206973206e6f7420612076616c6964207369676e657200000000604482015260640161078e565b8115612ca45760405162461bcd60e51b815260206004820152601560248201527414d95b99195c881a185cc81cda59db9959081e595d605a1b604482015260640161078e565b6003850180546001808201835560009283526020832090910180546001600160a01b0319166001600160a01b038d16179055808701805491929091612ced90849060ff166142df565b82546101009290920a60ff8181021990931691831602179091556001870154166003039050612d97576001600160a01b038b1660009081526005602052604081208054869290612d3e90849061420a565b90915550506001600160a01b038b811660008181526005602090815260409182902054915191825291928c16917f986757b5f72e5258de572c036a9155b7f6fce0df14ffd1fa633617f668137a39910160405180910390a35b8a6001600160a01b03168a61ffff168a6001600160a01b03167fea585988944829641b25be2de9e0a1256c383fac005bb8f3ebe5cd09b50d7c748860000154604051612de591815260200190565b60405180910390a45060019a9950505050505050505050565b612e066135e1565b6001600160a01b038116612e3057604051631e4fbdf760e01b81526000600482015260240161078e565b612e398161363c565b50565b600082821015612eac5760405162461bcd60e51b815260206004820152603560248201527f46696e6973682074696d657374616d70206d75737420626520677265617465726044820152740207468616e2073746172742074696d657374616d7605c1b606482015260840161078e565b6000612eb88484613f5c565b90506000612ec96201518083613f85565b95945050505050565b600060035485612ee29190613eef565b336000908152600560205260409020909150612eff83600a614159565b612f099087613eef565b6040516370a0823160e01b81523060048201526001600160a01b038616906370a0823190602401602060405180830381865afa158015612f4d573d6000803e3d6000fd5b505050506040513d601f19601f82011682018060405250810190612f719190613fc9565b1015612fb65760405162461bcd60e51b8152602060048201526014602482015273496e7375666963656e74206c697175696469747960601b604482015260640161078e565b60008360ff1611612fd95760405162461bcd60e51b815260040161078e9061403e565b600086116130345760405162461bcd60e51b815260206004820152602260248201527f54686520616d6f756e74206d757374206265206772656174686572207468616e604482015261020360f41b606482015260840161078e565b6001600160a01b03841660009081526007602052604090205460ff1661309c5760405162461bcd60e51b815260206004820181905260248201527f54686520746f6b656e206973206e6f742077686974656c697374656420796574604482015260640161078e565b81816003015410156130e15760405162461bcd60e51b815260206004820152600e60248201526d125b9d985b1a5908185b5bdd5b9d60921b604482015260640161078e565b818160030160008282546130f59190613f5c565b90915550506008805483919060009061310f908490613f5c565b90915550506001600160a01b03841663a9059cbb3361312f6003876142c6565b61313a90600a614159565b613144898761420a565b61314e9190613eef565b6040516001600160e01b031960e085901b1681526001600160a01b03909216600483015260248201526044016020604051808303816000875af1158015613199573d6000803e3d6000fd5b505050506040513d601f19601f820116820180604052508101906131bd9190613fe2565b6132095760405162461bcd60e51b815260206004820152601d60248201527f4661696c6564207768656e207769746864726177696e672066756e6473000000604482015260640161078e565b604080518781526020810187905260ff85168183015290516001600160a01b0386169133917f04ccd5830047404934ff21145531b3e4edbc2a057f1e3b73e37e6810aaad80c49181900360600190a3505050505050565b612e3981336136c6565b60006000805160206143358339815191526132858484611959565b613305576000848152602082815260408083206001600160a01b03871684529091529020805460ff191660011790556132bb3390565b6001600160a01b0316836001600160a01b0316857f2f8788117e7eff1d82e926ec794901d17c78024a50270940304540a733656f0d60405160405180910390a46001915050610979565b6000915050610979565b600060008051602061433583398151915261332a8484611959565b15613305576000848152602082815260408083206001600160a01b0387168085529252808320805460ff1916905551339287917ff6391f5c32d9c69d2a47ea670b442974b53935d1edc7fd64eb21e047a839171b9190a46001915050610979565b306001600160a01b037f000000000000000000000000000000000000000000000000000000000000000016148061341257507f00000000000000000000000000000000000000000000000000000000000000006001600160a01b0316613406600080516020614315833981519152546001600160a01b031690565b6001600160a01b031614155b156112675760405163703e46dd60e11b815260040160405180910390fd5b612e396135e1565b816001600160a01b03166352d1902d6040518163ffffffff1660e01b8152600401602060405180830381865afa925050508015613492575060408051601f3d908101601f1916820190925261348f91810190613fc9565b60015b6134ba57604051634c9c8ce360e01b81526001600160a01b038316600482015260240161078e565b60008051602061431583398151915281146134eb57604051632a87526960e21b81526004810182905260240161078e565b610a2383836136ff565b306001600160a01b037f000000000000000000000000000000000000000000000000000000000000000016146112675760405163703e46dd60e11b815260040160405180910390fd5b7fcd5ed15c6e187e77e9aee88184c21f4f2182ab5827cb3b7e07fbedcd63f033005460ff16156112675760405163d93c066560e01b815260040160405180910390fd5b60008044426004546040516020016135ac939291909283526020830191909152604082015260600190565b60408051601f1981840301815291905280516020909101206004805491925060006135d683614187565b909155509092915050565b336136137f9016d09d72d40fdae2fd8ceac6b6234c7706214fd39c1cd1e609a0528c199300546001600160a01b031690565b6001600160a01b0316146112675760405163118cdaa760e01b815233600482015260240161078e565b7f9016d09d72d40fdae2fd8ceac6b6234c7706214fd39c1cd1e609a0528c19930080546001600160a01b031981166001600160a01b03848116918217845560405192169182907f8be0079c531659141344cd1fd0a4f28419497f9722a3daafe3b4186f6b6457e090600090a3505050565b6136b5613755565b612e398161379e565b611267613755565b6136d08282611959565b610c275760405163e2517d3f60e01b81526001600160a01b03821660048201526024810183905260440161078e565b613708826137a6565b6040516001600160a01b038316907fbc7cd75a20ee27fd9adebab32041f755214dbc6bffa90cc0225b39da2e5c2d3b90600090a280511561374d57610a23828261380b565b610c27613878565b7ff0c57e16840df040f15088dc2f81fe391c3923bec73e23a9662efc9c229c6a0054600160401b900460ff1661126757604051631afcd79f60e31b815260040160405180910390fd5b612e06613755565b806001600160a01b03163b6000036137dc57604051634c9c8ce360e01b81526001600160a01b038216600482015260240161078e565b60008051602061431583398151915280546001600160a01b0319166001600160a01b0392909216919091179055565b6060600080846001600160a01b03168460405161382891906142f8565b600060405180830381855af49150503d8060008114613863576040519150601f19603f3d011682016040523d82523d6000602084013e613868565b606091505b5091509150612ec9858383613897565b34156112675760405163b398979f60e01b815260040160405180910390fd5b6060826138ac576138a7826138f3565b611952565b81511580156138c357506001600160a01b0384163b155b156138ec57604051639996b31560e01b81526001600160a01b038516600482015260240161078e565b5080611952565b8051156139035780518082602001fd5b604051630a12f52160e11b815260040160405180910390fd5b828054828255906000526020600020908101928215613971579160200282015b8281111561397157825182546001600160a01b0319166001600160a01b0390911617825560209092019160019091019061393c565b5061397d929150613981565b5090565b5b8082111561397d5760008155600101613982565b80356001600160a01b03811681146139ad57600080fd5b919050565b600080604083850312156139c557600080fd5b823591506139d560208401613996565b90509250929050565b6000602082840312156139f057600080fd5b81356001600160e01b03198116811461195257600080fd5b600060208284031215613a1a57600080fd5b5035919050565b600060208284031215613a3357600080fd5b61195282613996565b634e487b7160e01b600052604160045260246000fd5b604051601f8201601f1916810167ffffffffffffffff81118282101715613a7b57613a7b613a3c565b604052919050565b600067ffffffffffffffff821115613a9d57613a9d613a3c565b50601f01601f191660200190565b60008060408385031215613abe57600080fd5b613ac783613996565b9150602083013567ffffffffffffffff811115613ae357600080fd5b8301601f81018513613af457600080fd5b8035613b07613b0282613a83565b613a52565b818152866020838501011115613b1c57600080fd5b816020840160208301376000602083830101528093505050509250929050565b60008060408385031215613b4f57600080fd5b613b5883613996565b946020939093013593505050565b600080600060608486031215613b7b57600080fd5b83359250613b8b60208501613996565b9150604084013590509250925092565b60008060008060608587031215613bb157600080fd5b613bba85613996565b935060208501359250604085013567ffffffffffffffff80821115613bde57600080fd5b818701915087601f830112613bf257600080fd5b813581811115613c0157600080fd5b8860208260051b8501011115613c1657600080fd5b95989497505060200194505050565b600080600060608486031215613c3a57600080fd5b613c4384613996565b95602085013595506040909401359392505050565b602080825282518282018190526000919060409081850190868401855b82811015613ccc578151805185528681015187860152858101516001600160a01b031686860152606080820151908601526080808201519086015260a0908101519085015260c09093019290850190600101613c75565b5091979650505050505050565b60005b83811015613cf4578181015183820152602001613cdc565b50506000910152565b60008151808452613d15816020860160208601613cd9565b601f01601f19169290920160200192915050565b6020815260006119526020830184613cfd565b600080600060608486031215613d5157600080fd5b613d5a84613996565b9250613d6860208501613996565b9150613d7660408501613996565b90509250925092565b600081518084526020808501945080840160005b83811015613db85781516001600160a01b031687529582019590820190600101613d93565b509495945050505050565b60006020808301818452808551808352604092508286019150828160051b87010184880160005b83811015613e5457603f19898403018552815160808151855260ff898301511689860152878201518189870152613e2382870182613d7f565b91505060608083015192508582038187015250613e408183613d7f565b968901969450505090860190600101613dea565b509098975050505050505050565b60008060008060808587031215613e7857600080fd5b613e8185613996565b9350602085013561ffff81168114613e9857600080fd5b9250613ea660408601613996565b9396929550929360600135925050565b600060208284031215613ec857600080fd5b815160ff8116811461195257600080fd5b634e487b7160e01b600052601160045260246000fd5b808202811582820484141761097957610979613ed9565b60208082526036908201527f5468652075736572206d7573742077616974206174206c6561737420313830206040820152756461797320746f2077697468647261772066756e647360501b606082015260800190565b8181038181111561097957610979613ed9565b634e487b7160e01b600052601260045260246000fd5b600082613f9457613f94613f6f565b500490565b60208082526016908201527521b0b63632b91034b9903737ba1030b71020b236b4b760511b604082015260600190565b600060208284031215613fdb57600080fd5b5051919050565b600060208284031215613ff457600080fd5b8151801515811461195257600080fd5b634e487b7160e01b600052603260045260246000fd5b6000806040838503121561402d57600080fd5b505080516020909101519092909150565b6020808252601e908201527f4572726f72207768696c65206f627461696e696e6720646563696d616c730000604082015260600190565b600181815b808511156140b057816000190482111561409657614096613ed9565b808516156140a357918102915b93841c939080029061407a565b509250929050565b6000826140c757506001610979565b816140d457506000610979565b81600181146140ea57600281146140f457614110565b6001915050610979565b60ff84111561410557614105613ed9565b50506001821b610979565b5060208310610133831016604e8410600b8410161715614133575081810a610979565b61413d8383614075565b806000190482111561415157614151613ed9565b029392505050565b600061195260ff8416836140b8565b600060ff821660ff810361417e5761417e613ed9565b60010192915050565b60006001820161419957614199613ed9565b5060010190565b83815260406020808301829052908201839052600090849060608401835b868110156141ea576001600160a01b036141d785613996565b16825292820192908201906001016141be565b50979650505050505050565b60008261420557614205613f6f565b500690565b8082018082111561097957610979613ed9565b60006020828403121561422f57600080fd5b815167ffffffffffffffff81111561424657600080fd5b8201601f8101841361425757600080fd5b8051614265613b0282613a83565b81815285602083850101111561427a57600080fd5b612ec9826020830160208601613cd9565b60408152600061429e6040830185613cfd565b8281036020840152612ec98185613cfd565b634e487b7160e01b600052603160045260246000fd5b60ff828116828216039081111561097957610979613ed9565b60ff818116838216019081111561097957610979613ed9565b6000825161430a818460208701613cd9565b919091019291505056fe360894a13ba1a3210667c828492db98dca3e2076cc3735a920a3ca505d382bbc02dd7bc7dec4dceedda775e58dd541e08a116c6c53815c0bd028192f7b626800a2646970667358221220e38ef41b9716fd0c345d0894ad6c362300d9919148e436b386fa4760c8fd0f4364736f6c63430008140033",
  "linkReferences": {
    "library/LendManagerUtils.sol": {
      "LendManagerUtils": [
        {
          "length": 20,
          "start": 3302
        },
        {
          "length": 20,
          "start": 7974
        }
      ]
    }
  },
  "deployedLinkReferences": {
    "library/LendManagerUtils.sol": {
      "LendManagerUtils": [
        {
          "length": 20,
          "start": 3240
        },
        {
          "length": 20,
          "start": 7912
        }
      ]
    }
  }
}