{
  "_format": "hh-sol-artifact-1",
  "contractName": "ReFiMedLendUpgradeable",
  "sourceName": "contracts/ReFiMedLendUpgradeable.sol",
  "abi": [
    {
      "inputs": [],
      "name": "AccessControlBadConfirmation",
      "type": "error"
    },
    {
      "inputs": [
        {
          "internalType": "address",
          "name": "account",
          "type": "address"
        },
        {
          "internalType": "bytes32",
          "name": "neededRole",
          "type": "bytes32"
        }
      ],
      "name": "AccessControlUnauthorizedAccount",
      "type": "error"
    },
    {
      "inputs": [
        {
          "internalType": "address",
          "name": "target",
          "type": "address"
        }
      ],
      "name": "AddressEmptyCode",
      "type": "error"
    },
    {
      "inputs": [
        {
          "internalType": "address",
          "name": "implementation",
          "type": "address"
        }
      ],
      "name": "ERC1967InvalidImplementation",
      "type": "error"
    },
    {
      "inputs": [],
      "name": "ERC1967NonPayable",
      "type": "error"
    },
    {
      "inputs": [],
      "name": "EnforcedPause",
      "type": "error"
    },
    {
      "inputs": [],
      "name": "ExpectedPause",
      "type": "error"
    },
    {
      "inputs": [],
      "name": "FailedInnerCall",
      "type": "error"
    },
    {
      "inputs": [],
      "name": "InvalidInitialization",
      "type": "error"
    },
    {
      "inputs": [],
      "name": "NotInitializing",
      "type": "error"
    },
    {
      "inputs": [
        {
          "internalType": "address",
          "name": "owner",
          "type": "address"
        }
      ],
      "name": "OwnableInvalidOwner",
      "type": "error"
    },
    {
      "inputs": [
        {
          "internalType": "address",
          "name": "account",
          "type": "address"
        }
      ],
      "name": "OwnableUnauthorizedAccount",
      "type": "error"
    },
    {
      "inputs": [],
      "name": "UUPSUnauthorizedCallContext",
      "type": "error"
    },
    {
      "inputs": [
        {
          "internalType": "bytes32",
          "name": "slot",
          "type": "bytes32"
        }
      ],
      "name": "UUPSUnsupportedProxiableUUID",
      "type": "error"
    },
    {
      "inputs": [],
      "name": "UnavailableAmount",
      "type": "error"
    },
    {
      "anonymous": false,
      "inputs": [
        {
          "indexed": true,
          "internalType": "address",
          "name": "debtor",
          "type": "address"
        },
        {
          "indexed": false,
          "internalType": "uint256",
          "name": "amount",
          "type": "uint256"
        },
        {
          "indexed": false,
          "internalType": "uint256",
          "name": "interests",
          "type": "uint256"
        },
        {
          "indexed": true,
          "internalType": "address",
          "name": "token",
          "type": "address"
        },
        {
          "indexed": false,
          "internalType": "uint8",
          "name": "decimals",
          "type": "uint8"
        },
        {
          "indexed": false,
          "internalType": "uint256",
          "name": "nonce",
          "type": "uint256"
        }
      ],
      "name": "Debt",
      "type": "event"
    },
    {
      "anonymous": false,
      "inputs": [
        {
          "indexed": true,
          "internalType": "address",
          "name": "funder",
          "type": "address"
        },
        {
          "indexed": false,
          "internalType": "uint256",
          "name": "amount",
          "type": "uint256"
        },
        {
          "indexed": true,
          "internalType": "address",
          "name": "token",
          "type": "address"
        },
        {
          "indexed": false,
          "internalType": "uint8",
          "name": "decimals",
          "type": "uint8"
        }
      ],
      "name": "Funded",
      "type": "event"
    },
    {
      "anonymous": false,
      "inputs": [
        {
          "indexed": false,
          "internalType": "uint64",
          "name": "version",
          "type": "uint64"
        }
      ],
      "name": "Initialized",
      "type": "event"
    },
    {
      "anonymous": false,
      "inputs": [
        {
          "indexed": true,
          "internalType": "address",
          "name": "lender",
          "type": "address"
        },
        {
          "indexed": false,
          "internalType": "uint256",
          "name": "amount",
          "type": "uint256"
        },
        {
          "indexed": true,
          "internalType": "address",
          "name": "token",
          "type": "address"
        },
        {
          "indexed": false,
          "internalType": "uint8",
          "name": "decimals",
          "type": "uint8"
        },
        {
          "indexed": false,
          "internalType": "uint256",
          "name": "nonce",
          "type": "uint256"
        }
      ],
      "name": "LendRepaid",
      "type": "event"
    },
    {
      "anonymous": false,
      "inputs": [
        {
          "indexed": true,
          "internalType": "address",
          "name": "lender",
          "type": "address"
        },
        {
          "indexed": false,
          "internalType": "uint256",
          "name": "amount",
          "type": "uint256"
        },
        {
          "indexed": true,
          "internalType": "address",
          "name": "token",
          "type": "address"
        },
        {
          "indexed": false,
          "internalType": "uint8",
          "name": "decimals",
          "type": "uint8"
        },
        {
          "indexed": false,
          "internalType": "uint256",
          "name": "paymentDue",
          "type": "uint256"
        },
        {
          "indexed": false,
          "internalType": "uint256",
          "name": "nonce",
          "type": "uint256"
        }
      ],
      "name": "Lending",
      "type": "event"
    },
    {
      "anonymous": false,
      "inputs": [
        {
          "indexed": true,
          "internalType": "address",
          "name": "previousOwner",
          "type": "address"
        },
        {
          "indexed": true,
          "internalType": "address",
          "name": "newOwner",
          "type": "address"
        }
      ],
      "name": "OwnershipTransferred",
      "type": "event"
    },
    {
      "anonymous": false,
      "inputs": [
        {
          "indexed": false,
          "internalType": "address",
          "name": "account",
          "type": "address"
        }
      ],
      "name": "Paused",
      "type": "event"
    },
    {
      "anonymous": false,
      "inputs": [
        {
          "indexed": true,
          "internalType": "bytes32",
          "name": "role",
          "type": "bytes32"
        },
        {
          "indexed": true,
          "internalType": "bytes32",
          "name": "previousAdminRole",
          "type": "bytes32"
        },
        {
          "indexed": true,
          "internalType": "bytes32",
          "name": "newAdminRole",
          "type": "bytes32"
        }
      ],
      "name": "RoleAdminChanged",
      "type": "event"
    },
    {
      "anonymous": false,
      "inputs": [
        {
          "indexed": true,
          "internalType": "bytes32",
          "name": "role",
          "type": "bytes32"
        },
        {
          "indexed": true,
          "internalType": "address",
          "name": "account",
          "type": "address"
        },
        {
          "indexed": true,
          "internalType": "address",
          "name": "sender",
          "type": "address"
        }
      ],
      "name": "RoleGranted",
      "type": "event"
    },
    {
      "anonymous": false,
      "inputs": [
        {
          "indexed": true,
          "internalType": "bytes32",
          "name": "role",
          "type": "bytes32"
        },
        {
          "indexed": true,
          "internalType": "address",
          "name": "account",
          "type": "address"
        },
        {
          "indexed": true,
          "internalType": "address",
          "name": "sender",
          "type": "address"
        }
      ],
      "name": "RoleRevoked",
      "type": "event"
    },
    {
      "anonymous": false,
      "inputs": [
        {
          "indexed": true,
          "internalType": "address",
          "name": "tokenAddress",
          "type": "address"
        },
        {
          "indexed": false,
          "internalType": "string",
          "name": "symbol",
          "type": "string"
        },
        {
          "indexed": false,
          "internalType": "string",
          "name": "name",
          "type": "string"
        }
      ],
      "name": "TokenAdded",
      "type": "event"
    },
    {
      "anonymous": false,
      "inputs": [
        {
          "indexed": false,
          "internalType": "address",
          "name": "account",
          "type": "address"
        }
      ],
      "name": "Unpaused",
      "type": "event"
    },
    {
      "anonymous": false,
      "inputs": [
        {
          "indexed": true,
          "internalType": "address",
          "name": "implementation",
          "type": "address"
        }
      ],
      "name": "Upgraded",
      "type": "event"
    },
    {
      "anonymous": false,
      "inputs": [
        {
          "indexed": true,
          "internalType": "address",
          "name": "caller",
          "type": "address"
        },
        {
          "indexed": true,
          "internalType": "address",
          "name": "recipent",
          "type": "address"
        },
        {
          "indexed": false,
          "internalType": "uint256",
          "name": "amount",
          "type": "uint256"
        }
      ],
      "name": "UserQuotaChanged",
      "type": "event"
    },
    {
      "anonymous": false,
      "inputs": [
        {
          "indexed": true,
          "internalType": "address",
          "name": "caller",
          "type": "address"
        },
        {
          "indexed": true,
          "internalType": "uint16",
          "name": "index",
          "type": "uint16"
        },
        {
          "indexed": true,
          "internalType": "address",
          "name": "recipent",
          "type": "address"
        },
        {
          "indexed": false,
          "internalType": "uint256",
          "name": "amount",
          "type": "uint256"
        },
        {
          "indexed": false,
          "internalType": "address[]",
          "name": "signers",
          "type": "address[]"
        }
      ],
      "name": "UserQuotaIncreaseRequest",
      "type": "event"
    },
    {
      "anonymous": false,
      "inputs": [
        {
          "indexed": true,
          "internalType": "address",
          "name": "signer",
          "type": "address"
        },
        {
          "indexed": true,
          "internalType": "uint16",
          "name": "index",
          "type": "uint16"
        },
        {
          "indexed": true,
          "internalType": "address",
          "name": "recipent",
          "type": "address"
        },
        {
          "indexed": false,
          "internalType": "uint256",
          "name": "amount",
          "type": "uint256"
        }
      ],
      "name": "UserQuotaSigned",
      "type": "event"
    },
    {
      "anonymous": false,
      "inputs": [
        {
          "indexed": true,
          "internalType": "address",
          "name": "withdrawer",
          "type": "address"
        },
        {
          "indexed": false,
          "internalType": "uint256",
          "name": "amount",
          "type": "uint256"
        },
        {
          "indexed": false,
          "internalType": "uint256",
          "name": "interests",
          "type": "uint256"
        },
        {
          "indexed": true,
          "internalType": "address",
          "name": "token",
          "type": "address"
        },
        {
          "indexed": false,
          "internalType": "uint8",
          "name": "decimals",
          "type": "uint8"
        }
      ],
      "name": "Withdraw",
      "type": "event"
    },
    {
      "inputs": [],
      "name": "DEFAULT_ADMIN_ROLE",
      "outputs": [
        {
          "internalType": "bytes32",
          "name": "",
          "type": "bytes32"
        }
      ],
      "stateMutability": "view",
      "type": "function"
    },
    {
      "inputs": [],
      "name": "INTEREST_RATE_PER_DAY",
      "outputs": [
        {
          "internalType": "uint256",
          "name": "",
          "type": "uint256"
        }
      ],
      "stateMutability": "view",
      "type": "function"
    },
    {
      "inputs": [],
      "name": "UPGRADE_INTERFACE_VERSION",
      "outputs": [
        {
          "internalType": "string",
          "name": "",
          "type": "string"
        }
      ],
      "stateMutability": "view",
      "type": "function"
    },
    {
      "inputs": [
        {
          "internalType": "address",
          "name": "tokenAddress",
          "type": "address"
        }
      ],
      "name": "addToken",
      "outputs": [],
      "stateMutability": "nonpayable",
      "type": "function"
    },
    {
      "inputs": [
        {
          "internalType": "uint256",
          "name": "lendIndex",
          "type": "uint256"
        }
      ],
      "name": "calculateInterests",
      "outputs": [
        {
          "internalType": "uint256",
          "name": "interests",
          "type": "uint256"
        },
        {
          "internalType": "uint256",
          "name": "totalDebt",
          "type": "uint256"
        }
      ],
      "stateMutability": "view",
      "type": "function"
    },
    {
      "inputs": [
        {
          "internalType": "address",
          "name": "recipent",
          "type": "address"
        },
        {
          "internalType": "uint256",
          "name": "amount",
          "type": "uint256"
        }
      ],
      "name": "decreaseQuota",
      "outputs": [],
      "stateMutability": "nonpayable",
      "type": "function"
    },
    {
      "inputs": [
        {
          "internalType": "uint256",
          "name": "amount",
          "type": "uint256"
        },
        {
          "internalType": "address",
          "name": "token",
          "type": "address"
        }
      ],
      "name": "fund",
      "outputs": [],
      "stateMutability": "nonpayable",
      "type": "function"
    },
    {
      "inputs": [],
      "name": "funds",
      "outputs": [
        {
          "internalType": "uint256",
          "name": "totalFunds",
          "type": "uint256"
        },
        {
          "internalType": "uint256",
          "name": "interests",
          "type": "uint256"
        },
        {
          "internalType": "uint256",
          "name": "totalInterestShares",
          "type": "uint256"
        },
        {
          "internalType": "uint256",
          "name": "interestPerShare",
          "type": "uint256"
        }
      ],
      "stateMutability": "view",
      "type": "function"
    },
    {
      "inputs": [
        {
          "internalType": "bytes32",
          "name": "role",
          "type": "bytes32"
        }
      ],
      "name": "getRoleAdmin",
      "outputs": [
        {
          "internalType": "bytes32",
          "name": "",
          "type": "bytes32"
        }
      ],
      "stateMutability": "view",
      "type": "function"
    },
    {
      "inputs": [
        {
          "internalType": "address",
          "name": "token",
          "type": "address"
        }
      ],
      "name": "getSpareFunds",
      "outputs": [],
      "stateMutability": "nonpayable",
      "type": "function"
    },
    {
      "inputs": [
        {
          "internalType": "address",
          "name": "userAddress",
          "type": "address"
        },
        {
          "internalType": "uint256",
          "name": "page",
          "type": "uint256"
        },
        {
          "internalType": "uint256",
          "name": "pageSize",
          "type": "uint256"
        }
      ],
      "name": "getUserLendsPaginated",
      "outputs": [
        {
          "components": [
            {
              "internalType": "uint256",
              "name": "initialAmount",
              "type": "uint256"
            },
            {
              "internalType": "uint256",
              "name": "currentAmount",
              "type": "uint256"
            },
            {
              "internalType": "address",
              "name": "token",
              "type": "address"
            },
            {
              "internalType": "uint256",
              "name": "expectPaymentDue",
              "type": "uint256"
            },
            {
              "internalType": "uint256",
              "name": "latestDebtTimestamp",
              "type": "uint256"
            },
            {
              "internalType": "uint256",
              "name": "nonce",
              "type": "uint256"
            }
          ],
          "internalType": "struct ReFiMedLendUpgradeable.Lend[]",
          "name": "",
          "type": "tuple[]"
        }
      ],
      "stateMutability": "view",
      "type": "function"
    },
    {
      "inputs": [
        {
          "internalType": "address",
          "name": "userAddress",
          "type": "address"
        },
        {
          "internalType": "uint256",
          "name": "page",
          "type": "uint256"
        },
        {
          "internalType": "uint256",
          "name": "pageSize",
          "type": "uint256"
        }
      ],
      "name": "getUserQuotaRequests",
      "outputs": [
        {
          "components": [
            {
              "internalType": "uint256",
              "name": "amount",
              "type": "uint256"
            },
            {
              "internalType": "uint8",
              "name": "successfulSigns",
              "type": "uint8"
            },
            {
              "internalType": "address[]",
              "name": "signers",
              "type": "address[]"
            },
            {
              "internalType": "address[]",
              "name": "signedBy",
              "type": "address[]"
            }
          ],
          "internalType": "struct ReFiMedLendUpgradeable.UserQuotaRequest[]",
          "name": "",
          "type": "tuple[]"
        }
      ],
      "stateMutability": "view",
      "type": "function"
    },
    {
      "inputs": [
        {
          "internalType": "bytes32",
          "name": "role",
          "type": "bytes32"
        },
        {
          "internalType": "address",
          "name": "account",
          "type": "address"
        }
      ],
      "name": "grantRole",
      "outputs": [],
      "stateMutability": "nonpayable",
      "type": "function"
    },
    {
      "inputs": [
        {
          "internalType": "bytes32",
          "name": "role",
          "type": "bytes32"
        },
        {
          "internalType": "address",
          "name": "account",
          "type": "address"
        }
      ],
      "name": "hasRole",
      "outputs": [
        {
          "internalType": "bool",
          "name": "",
          "type": "bool"
        }
      ],
      "stateMutability": "view",
      "type": "function"
    },
    {
      "inputs": [
        {
          "internalType": "address",
          "name": "recipent",
          "type": "address"
        },
        {
          "internalType": "uint16",
          "name": "index",
          "type": "uint16"
        },
        {
          "internalType": "address",
          "name": "caller",
          "type": "address"
        },
        {
          "internalType": "uint256",
          "name": "amount",
          "type": "uint256"
        }
      ],
      "name": "increaseQuota",
      "outputs": [
        {
          "internalType": "bool",
          "name": "",
          "type": "bool"
        }
      ],
      "stateMutability": "nonpayable",
      "type": "function"
    },
    {
      "inputs": [
        {
          "internalType": "address",
          "name": "_attestationResolver",
          "type": "address"
        },
        {
          "internalType": "address",
          "name": "multisig",
          "type": "address"
        },
        {
          "internalType": "address",
          "name": "admin",
          "type": "address"
        }
      ],
      "name": "initialize",
      "outputs": [],
      "stateMutability": "nonpayable",
      "type": "function"
    },
    {
      "inputs": [],
      "name": "owner",
      "outputs": [
        {
          "internalType": "address",
          "name": "",
          "type": "address"
        }
      ],
      "stateMutability": "view",
      "type": "function"
    },
    {
      "inputs": [],
      "name": "paused",
      "outputs": [
        {
          "internalType": "bool",
          "name": "",
          "type": "bool"
        }
      ],
      "stateMutability": "view",
      "type": "function"
    },
    {
      "inputs": [
        {
          "internalType": "uint256",
          "name": "amount",
          "type": "uint256"
        },
        {
          "internalType": "address",
          "name": "token",
          "type": "address"
        },
        {
          "internalType": "uint256",
          "name": "lendIndex",
          "type": "uint256"
        }
      ],
      "name": "payDebt",
      "outputs": [],
      "stateMutability": "nonpayable",
      "type": "function"
    },
    {
      "inputs": [],
      "name": "proxiableUUID",
      "outputs": [
        {
          "internalType": "bytes32",
          "name": "",
          "type": "bytes32"
        }
      ],
      "stateMutability": "view",
      "type": "function"
    },
    {
      "inputs": [
        {
          "internalType": "address",
          "name": "tokenAddress",
          "type": "address"
        }
      ],
      "name": "removeToken",
      "outputs": [],
      "stateMutability": "nonpayable",
      "type": "function"
    },
    {
      "inputs": [],
      "name": "renounceOwnership",
      "outputs": [],
      "stateMutability": "nonpayable",
      "type": "function"
    },
    {
      "inputs": [
        {
          "internalType": "bytes32",
          "name": "role",
          "type": "bytes32"
        },
        {
          "internalType": "address",
          "name": "callerConfirmation",
          "type": "address"
        }
      ],
      "name": "renounceRole",
      "outputs": [],
      "stateMutability": "nonpayable",
      "type": "function"
    },
    {
      "inputs": [
        {
          "internalType": "address",
          "name": "recipent",
          "type": "address"
        },
        {
          "internalType": "uint256",
          "name": "amount",
          "type": "uint256"
        },
        {
          "internalType": "address[]",
          "name": "signers",
          "type": "address[]"
        }
      ],
      "name": "requestIncreaseQuota",
      "outputs": [],
      "stateMutability": "nonpayable",
      "type": "function"
    },
    {
      "inputs": [
        {
          "internalType": "uint256",
          "name": "amount",
          "type": "uint256"
        },
        {
          "internalType": "address",
          "name": "token",
          "type": "address"
        },
        {
          "internalType": "uint256",
          "name": "paymentDue",
          "type": "uint256"
        }
      ],
      "name": "requestLend",
      "outputs": [],
      "stateMutability": "nonpayable",
      "type": "function"
    },
    {
      "inputs": [
        {
          "internalType": "bytes32",
          "name": "role",
          "type": "bytes32"
        },
        {
          "internalType": "address",
          "name": "account",
          "type": "address"
        }
      ],
      "name": "revokeRole",
      "outputs": [],
      "stateMutability": "nonpayable",
      "type": "function"
    },
    {
      "inputs": [
        {
          "internalType": "uint256",
          "name": "interestRate",
          "type": "uint256"
        }
      ],
      "name": "setInterestPerDay",
      "outputs": [],
      "stateMutability": "nonpayable",
      "type": "function"
    },
    {
      "inputs": [
        {
          "internalType": "bytes4",
          "name": "interfaceId",
          "type": "bytes4"
        }
      ],
      "name": "supportsInterface",
      "outputs": [
        {
          "internalType": "bool",
          "name": "",
          "type": "bool"
        }
      ],
      "stateMutability": "view",
      "type": "function"
    },
    {
      "inputs": [
        {
          "internalType": "address",
          "name": "newAdmin",
          "type": "address"
        }
      ],
      "name": "transferAdmin",
      "outputs": [],
      "stateMutability": "nonpayable",
      "type": "function"
    },
    {
      "inputs": [
        {
          "internalType": "address",
          "name": "newOwner",
          "type": "address"
        }
      ],
      "name": "transferOwnership",
      "outputs": [],
      "stateMutability": "nonpayable",
      "type": "function"
    },
    {
      "inputs": [
        {
          "internalType": "address",
          "name": "newImplementation",
          "type": "address"
        },
        {
          "internalType": "bytes",
          "name": "data",
          "type": "bytes"
        }
      ],
      "name": "upgradeToAndCall",
      "outputs": [],
      "stateMutability": "payable",
      "type": "function"
    },
    {
      "inputs": [
        {
          "internalType": "address",
          "name": "",
          "type": "address"
        }
      ],
      "name": "user",
      "outputs": [
        {
          "internalType": "uint256",
          "name": "quota",
          "type": "uint256"
        },
        {
          "internalType": "uint256",
          "name": "currentFund",
          "type": "uint256"
        },
        {
          "internalType": "uint256",
          "name": "interestShares",
          "type": "uint256"
        },
        {
          "internalType": "uint256",
          "name": "lastFund",
          "type": "uint256"
        }
      ],
      "stateMutability": "view",
      "type": "function"
    },
    {
      "inputs": [
        {
          "internalType": "uint256",
          "name": "amount",
          "type": "uint256"
        },
        {
          "internalType": "address",
          "name": "token",
          "type": "address"
        }
      ],
      "name": "withdraw",
      "outputs": [],
      "stateMutability": "nonpayable",
      "type": "function"
    },
    {
      "inputs": [
        {
          "internalType": "uint256",
          "name": "amount",
          "type": "uint256"
        },
        {
          "internalType": "address",
          "name": "token",
          "type": "address"
        }
      ],
      "name": "withdrawWithoutInterests",
      "outputs": [],
      "stateMutability": "nonpayable",
      "type": "function"
    }
  ],
  "bytecode": "0x60a06040523060805234801561001457600080fd5b5060805161445a61003e600039600081816134bc015281816134e50152613626015261445a6000f3fe6080604052600436106101f85760003560e01c806381e7e20e1161010d578063c0c53b8b116100a0578063d7d9f9ec1161006f578063d7d9f9ec1461064f578063e0e713dd1461066f578063eee923951461069c578063f1400062146106bc578063f2fde38b146106dc57600080fd5b8063c0c53b8b146105cc578063c89f2ce4146105ec578063d48bfca71461060f578063d547741f1461062f57600080fd5b8063969f9efa116100dc578063969f9efa146105435780639ebb411214610559578063a217fddf14610579578063ad3cb1cc1461058e57600080fd5b806381e7e20e1461044b57806387373fc1146104af5780638da5cb5b146104dc57806391d148541461052357600080fd5b80634f1ef2861161019057806361e576b81161015f57806361e576b8146103b65780636e99700a146103d6578063715018a6146103f657806375829def1461040b57806381d945d21461042b57600080fd5b80634f1ef2861461033757806352d1902d1461034a5780635c975abb1461035f5780635fa7b5841461039657600080fd5b80632f2ff15d116101cc5780632f2ff15d146102a257806336568abe146102c25780633ead66c8146102e2578063435e02831461030257600080fd5b8062f714ce146101fd57806301ffc9a71461021f5780631031f4f914610254578063248a9ca314610274575b600080fd5b34801561020957600080fd5b5061021d610218366004613ad8565b6106fc565b005b34801561022b57600080fd5b5061023f61023a366004613b04565b610a21565b60405190151581526020015b60405180910390f35b34801561026057600080fd5b5061021d61026f366004613b2e565b610a58565b34801561028057600080fd5b5061029461028f366004613b2e565b610a85565b60405190815260200161024b565b3480156102ae57600080fd5b5061021d6102bd366004613ad8565b610aa7565b3480156102ce57600080fd5b5061021d6102dd366004613ad8565b610ac9565b3480156102ee57600080fd5b5061021d6102fd366004613b47565b610b01565b34801561030e57600080fd5b5061032261031d366004613b2e565b610d04565b6040805192835260208301919091520161024b565b61021d610345366004613bd1565b610ded565b34801561035657600080fd5b50610294610e08565b34801561036b57600080fd5b507fcd5ed15c6e187e77e9aee88184c21f4f2182ab5827cb3b7e07fbedcd63f033005460ff1661023f565b3480156103a257600080fd5b5061021d6103b1366004613b47565b610e25565b3480156103c257600080fd5b5061021d6103d1366004613c62565b610e6e565b3480156103e257600080fd5b5061021d6103f1366004613c8c565b610f93565b34801561040257600080fd5b5061021d611377565b34801561041757600080fd5b5061021d610426366004613b47565b61138b565b34801561043757600080fd5b5061021d610446366004613cc1565b6113cc565b34801561045757600080fd5b5061048f610466366004613b47565b600560208190526000918252604090912080546003820154600483015492909301549092919084565b60408051948552602085019390935291830152606082015260800161024b565b3480156104bb57600080fd5b506104cf6104ca366004613d4b565b61181b565b60405161024b9190613d7e565b3480156104e857600080fd5b507f9016d09d72d40fdae2fd8ceac6b6234c7706214fd39c1cd1e609a0528c199300546040516001600160a01b03909116815260200161024b565b34801561052f57600080fd5b5061023f61053e366004613ad8565b611a7b565b34801561054f57600080fd5b5061029460025481565b34801561056557600080fd5b5061021d610574366004613ad8565b611ab3565b34801561058557600080fd5b50610294600081565b34801561059a57600080fd5b506105bf604051806040016040528060058152602001640352e302e360dc1b81525081565b60405161024b9190613e4f565b3480156105d857600080fd5b5061021d6105e7366004613e62565b611c70565b3480156105f857600080fd5b50600854600954600a54600b5461048f9392919084565b34801561061b57600080fd5b5061021d61062a366004613b47565b611dfb565b34801561063b57600080fd5b5061021d61064a366004613ad8565b611f66565b34801561065b57600080fd5b5061021d61066a366004613c8c565b611f82565b34801561067b57600080fd5b5061068f61068a366004613d4b565b61250c565b60405161024b9190613ee9565b3480156106a857600080fd5b5061021d6106b7366004613ad8565b6127e3565b3480156106c857600080fd5b5061023f6106d7366004613f88565b612b41565b3480156106e857600080fd5b5061021d6106f7366004613b47565b612f24565b6000816001600160a01b031663313ce5676040518163ffffffff1660e01b8152600401602060405180830381865afa15801561073c573d6000803e3d6000fd5b505050506040513d601f19601f820116820180604052508101906107609190613fdc565b90506000600354846107729190614015565b336000908152600560205260409020600a5491925090156107b357600a546009546107a590670de0b6b3a7640000614015565b6107af9190614042565b600b555b600581015460006107c48242612f62565b905060b481101561083b5760405162461bcd60e51b815260206004820152603660248201527f5468652075736572206d7573742077616974206174206c6561737420313830206044820152756461797320746f2077697468647261772066756e647360501b60648201526084015b60405180910390fd5b83836003015410156108825760405162461bcd60e51b815260206004820152601060248201526f496e7375666963656e742066756e647360801b6044820152606401610832565b3360009081526006602090815260408083206001600160a01b038a1684529091529020548411156108f55760405162461bcd60e51b815260206004820152601a60248201527f496e73756666696369656e7420746f6b656e2062616c616e63650000000000006044820152606401610832565b3360009081526006602090815260408083206001600160a01b038a16845290915281208054869290610928908490614056565b90915550506003830154600090670de0b6b3a7640000906109499082614015565b61095b87670de0b6b3a7640000614015565b600487015461097290670de0b6b3a7640000614015565b61097c9190614015565b6109869190614042565b6109909190614042565b90506000670de0b6b3a7640000600860030154836109ae9190614015565b6109b89190614042565b905081600860020160008282546109cf9190614056565b92505081905550818560040160008282546109ea9190614056565b909155505060098054829190600090610a04908490614056565b90915550610a16905089828a8a612ff8565b505050505050505050565b60006001600160e01b03198216637965db0b60e01b1480610a5257506301ffc9a760e01b6001600160e01b03198316145b92915050565b610a6460015433611a7b565b610a805760405162461bcd60e51b815260040161083290614069565b600255565b6000908152600080516020614405833981519152602052604090206001015490565b610ab082610a85565b610ab981613386565b610ac38383613390565b50505050565b6001600160a01b0381163314610af25760405163334bd91960e11b815260040160405180910390fd5b610afc8282613435565b505050565b610b0d60015433611a7b565b610b295760405162461bcd60e51b815260040161083290614069565b6040516370a0823160e01b81523060048201526000906001600160a01b038316906370a0823190602401602060405180830381865afa158015610b70573d6000803e3d6000fd5b505050506040513d601f19601f82011682018060405250810190610b949190614099565b60085490915015610be75760405162461bcd60e51b815260206004820152601960248201527f54686520746f74616c2066756e6473206d7573742062652030000000000000006044820152606401610832565b60008111610c435760405162461bcd60e51b815260206004820152602360248201527f5468652062616c616e6365206d7573742062652067726561746865722074686160448201526206e20360ec1b6064820152608401610832565b60405163a9059cbb60e01b8152336004820152602481018290526001600160a01b0383169063a9059cbb906044016020604051808303816000875af1158015610c90573d6000803e3d6000fd5b505050506040513d601f19601f82011682018060405250810190610cb491906140b2565b610d005760405162461bcd60e51b815260206004820152601d60248201527f4572726f72207768696c65207472616e73666572696e672066756e64730000006044820152606401610832565b5050565b336000908152600560205260408120600181018054839291839186908110610d2e57610d2e6140d4565b906000526020600020906006020190506000610d4e826004015442612f62565b60025460018401546040516301786f6360e21b81526004810184905260248101929092526044820152909150600090819073__$d91b156d91b8441e2a498d94550346ea7a$__906305e1bd8c906064016040805180830381865af4158015610dba573d6000803e3d6000fd5b505050506040513d601f19601f82011682018060405250810190610dde91906140ea565b90999098509650505050505050565b610df56134b1565b610dfe82613556565b610d00828261355e565b6000610e1261361b565b506000805160206143e583398151915290565b610e3160015433611a7b565b610e4d5760405162461bcd60e51b815260040161083290614069565b6001600160a01b03166000908152600760205260409020805460ff19169055565b610e76613664565b610e8260015433611a7b565b610e9e5760405162461bcd60e51b815260040161083290614069565b600060035482610eae9190614015565b6001600160a01b038416600090815260056020526040902054909150811115610f0c5760405162461bcd60e51b815260206004820152601060248201526f496e7375666963656e742071756f746160801b6044820152606401610832565b6001600160a01b03831660009081526005602052604081208054839290610f34908490614056565b90915550506001600160a01b0383166000818152600560205260409081902054905133917f986757b5f72e5258de572c036a9155b7f6fce0df14ffd1fa633617f668137a3991610f8691815260200190565b60405180910390a3505050565b610f9b613664565b336000908152600560205260408120600354909190610fba9086614015565b905080826000015410156110295760405162461bcd60e51b815260206004820152603060248201527f546865207573657220686173206c6573732071756f7461207468616e2074686560448201526f081c995c5d5a5c995908185b5bdd5b9d60821b6064820152608401610832565b6000846001600160a01b031663313ce5676040518163ffffffff1660e01b8152600401602060405180830381865afa158015611069573d6000803e3d6000fd5b505050506040513d601f19601f8201168201806040525081019061108d9190613fdc565b905060008160ff16116110b25760405162461bcd60e51b81526004016108329061410e565b6040516370a0823160e01b81523060048201526000906001600160a01b038716906370a0823190602401602060405180830381865afa1580156110f9573d6000803e3d6000fd5b505050506040513d601f19601f8201168201806040525081019061111d9190614099565b905061112a82600a614229565b6111349088614015565b81101561117a5760405162461bcd60e51b8152602060048201526014602482015273496e7375666963656e74206c697175696469747960601b6044820152606401610832565b60006111846136a7565b6040805160c08101825286815260208082018881526001600160a01b038c8116948401948552606084018c8152426080860190815260a0860188815260018e81018054808301825560009182529781209851600690980290980196875594519486019490945595516002850180546001600160a01b031916919093161790915551600383015592516004820155915160059092019190915586549192508591879190611231908490614056565b90915550506001600160a01b03871663a9059cbb3361125186600a614229565b61125b908c614015565b6040516001600160e01b031960e085901b1681526001600160a01b03909216600483015260248201526044016020604051808303816000875af11580156112a6573d6000803e3d6000fd5b505050506040513d601f19601f820116820180604052508101906112ca91906140b2565b6113165760405162461bcd60e51b815260206004820152601e60248201527f4572726f72207768696c65207472616e73666572696e672061737365747300006044820152606401610832565b6040805185815260ff85166020820152908101879052606081018290526001600160a01b0388169033907f473896b256eedaa907360e7bb0dfd12ebcad749e88d45aa79325bf4aad4afbfc9060800160405180910390a35050505050505050565b61137f613707565b6113896000613762565b565b61139760015433611a7b565b6113b35760405162461bcd60e51b815260040161083290614069565b6113bf60015482613390565b50610d0060015433613435565b6113d4613664565b6113e060015433611a7b565b6113fc5760405162461bcd60e51b815260040161083290614069565b60006003548461140c9190614015565b905060008267ffffffffffffffff81111561142957611429613b62565b604051908082528060200260200182016040528015611452578160200160208202803683370190505b50905060038310156114a65760405162461bcd60e51b815260206004820152601960248201527f5369676e657273206d757374206265206174206c6561742033000000000000006044820152606401610832565b600a8311156114f75760405162461bcd60e51b815260206004820152601d60248201527f5369676e657273206d757374206265206c65617374207468616e2031300000006044820152606401610832565b600085116115475760405162461bcd60e51b815260206004820152601e60248201527f416d6f756e74206d757374206265206772656174686572207468616e203000006044820152606401610832565b6001600160a01b03861660009081526005602090815260408083208151608081018352868152808401858152835186815280860185528285019081528451878152808701909552606083019490945260029283018054600180820183559188529686902083516004909802019687559051908601805460ff191660ff909216919091179055915180519294936115e39392850192910190613a42565b50606082015180516115ff916003840191602090910190613a42565b5050506000805b60ff81168511156117a057600086868360ff16818110611628576116286140d4565b905060200201602081019061163d9190613b47565b905060005b838160ff1610156116da57848160ff1681518110611662576116626140d4565b60200260200101516001600160a01b0316826001600160a01b0316036116ca5760405162461bcd60e51b815260206004820152601960248201527f4475706c6963617465207369676e6572206465746563746564000000000000006044820152606401610832565b6116d381614238565b9050611642565b50808484815181106116ee576116ee6140d4565b6001600160a01b03909216602092830291909101909101528261171081614257565b6001600160a01b038b1660009081526005602052604090206002018054919550915061173e90600190614056565b8154811061174e5761174e6140d4565b60009182526020808320600492909202909101600201805460018101825590835291200180546001600160a01b0319166001600160a01b039290921691909117905561179981614238565b9050611606565b506001600160a01b0387166000818152600560205260409020600201546117c990600190614056565b61ffff16336001600160a01b03167f0b64377ec6609831eaa829c32823df50ad3db86e1636b0923ee03fa1a685eff689898960405161180a93929190614270565b60405180910390a450505050505050565b6001600160a01b038316600090815260056020526040812060018101546060926118458583614042565b9050600061185386846142c6565b1115611867576118646001826142da565b90505b808611156118a65760405162461bcd60e51b815260206004820152600c60248201526b496e76616c6964207061676560a01b6044820152606401610832565b600085116118ea5760405162461bcd60e51b8152602060048201526011602482015270496e76616c696420706167652073697a6560781b6044820152606401610832565b6000856118f8600189614056565b6119029190614015565b9050600061191087836142da565b90508381111561191d5750825b60006119298383614056565b67ffffffffffffffff81111561194157611941613b62565b6040519080825280602002602001820160405280156119b457816020015b6119a16040518060c00160405280600081526020016000815260200160006001600160a01b031681526020016000815260200160008152602001600081525090565b81526020019060019003908161195f5790505b509050825b82811015611a6b578660010181815481106119d6576119d66140d4565b60009182526020918290206040805160c08101825260069093029091018054835260018101549383019390935260028301546001600160a01b031690820152600382015460608201526004820154608082015260059091015460a082015282611a3f8684614056565b81518110611a4f57611a4f6140d4565b602002602001018190525080611a6490614257565b90506119b9565b50955050505050505b9392505050565b6000918252600080516020614405833981519152602090815260408084206001600160a01b0393909316845291905290205460ff1690565b6000816001600160a01b031663313ce5676040518163ffffffff1660e01b8152600401602060405180830381865afa158015611af3573d6000803e3d6000fd5b505050506040513d601f19601f82011682018060405250810190611b179190613fdc565b9050600060035484611b299190614015565b3360009081526005602081905260409091209081015460038201549293509091831115611b8b5760405162461bcd60e51b815260206004820152601060248201526f496e7375666963656e742066756e647360801b6044820152606401610832565b3360009081526006602090815260408083206001600160a01b0389168452909152902054831115611bfe5760405162461bcd60e51b815260206004820152601a60248201527f496e73756666696369656e7420746f6b656e2062616c616e63650000000000006044820152606401610832565b3360009081526006602090815260408083206001600160a01b038916845290915281208054859290611c31908490614056565b90915550506004820154600a8054600090611c4d908490614056565b9091555050600060048301819055611c689087908787612ff8565b505050505050565b7ff0c57e16840df040f15088dc2f81fe391c3923bec73e23a9662efc9c229c6a008054600160401b810460ff16159067ffffffffffffffff16600081158015611cb65750825b905060008267ffffffffffffffff166001148015611cd35750303b155b905081158015611ce1575080155b15611cff5760405163f92ee8a960e01b815260040160405180910390fd5b845467ffffffffffffffff191660011785558315611d2957845460ff60401b1916600160401b1785555b611d32876137d3565b611d3a6137e4565b7f0875992236f2b756c480a83b0053e711e5a04d6ec8bf4b52208ef8f002f175c760008181557fdf8b4c520ffe197c5343c6f5aec59570151ef9a492f2c624fd45ddde6135ec42600155613fb46002556103e8600355600455611d9d9089613390565b50611daa60015487613390565b508315611df157845460ff60401b19168555604051600181527fc7f505b2f371ae2175ee4913f4499e1f2633a7b5936321eed1cdaeb6115181d29060200160405180910390a15b5050505050505050565b611e0760015433611a7b565b611e235760405162461bcd60e51b815260040161083290614069565b611e2b613664565b6001600160a01b038116600081815260076020526040808220805460ff1916600117905580516395d89b4160e01b815290519192916395d89b419160048082019286929091908290030181865afa158015611e8a573d6000803e3d6000fd5b505050506040513d6000823e601f3d908101601f19168201604052611eb291908101906142ed565b90506000826001600160a01b03166306fdde036040518163ffffffff1660e01b8152600401600060405180830381865afa158015611ef4573d6000803e3d6000fd5b505050506040513d6000823e601f3d908101601f19168201604052611f1c91908101906142ed565b9050826001600160a01b03167f2fb34ce114a136590b874d8cf80e7652adda576578bacfa4f8023f720f5693948383604051611f5992919061435b565b60405180910390a2505050565b611f6f82610a85565b611f7881613386565b610ac38383613435565b33600090815260056020526040812060018101805491929184908110611faa57611faa6140d4565b9060005260206000209060060201905060008590506000611fcf836004015442612f62565b60025460018501546040516301786f6360e21b81526004810184905260248101929092526044820152909150600090819073__$d91b156d91b8441e2a498d94550346ea7a$__906305e1bd8c906064016040805180830381865af415801561203b573d6000803e3d6000fd5b505050506040513d601f19601f8201168201806040525081019061205f91906140ea565b915091506000886001600160a01b031663313ce5676040518163ffffffff1660e01b8152600401602060405180830381865afa1580156120a3573d6000803e3d6000fd5b505050506040513d601f19601f820116820180604052508101906120c79190613fdc565b9050828660010160008282546120dd91906142da565b9091555050600186015485111561212e5760405162461bcd60e51b8152602060048201526015602482015274496e76616c696420616d6f756e7420746f2070617960581b6044820152606401610832565b60008160ff16116121515760405162461bcd60e51b81526004016108329061410e565b6001600160a01b03891660009081526007602052604090205460ff166121b95760405162461bcd60e51b815260206004820181905260248201527f54686520746f6b656e206973206e6f742077686974656c6973746564207965746044820152606401610832565b848660010160008282546121cd9190614056565b9091555050600980548491906000906121e79084906142da565b90915550506005860154600a541561223057600a5461220e85670de0b6b3a7640000614015565b6122189190614042565b600b805460009061222a9084906142da565b90915550505b86600101546000036123b457865460018981015411156122f2576001808a018054909161225c91614056565b8154811061226c5761226c6140d4565b9060005260206000209060060201896001018b8154811061228f5761228f6140d4565b6000918252602090912082546006909202019081556001808301549082015560028083015490820180546001600160a01b0319166001600160a01b0390921691909117905560038083015490820155600480830154908201556005918201549101555b8860010180548061230557612305614380565b600082815260208120600660001990930192830201818155600181018290556002810180546001600160a01b031916905560038101829055600481018290556005018190559155895482918b9161235d9084906142da565b9091555050604080518d815260ff851660208201529081018390526001600160a01b038c169033907f2f683797ae14900863bd7f5b624167cf9533f58ff4e068fcdc51ea4b45ab8a3e9060600160405180910390a3505b6001600160a01b038a166323b872dd33306123d0600387614396565b6123db90600a614229565b6123e5908b614015565b6040516001600160e01b031960e086901b1681526001600160a01b03938416600482015292909116602483015260448201526064016020604051808303816000875af1158015612439573d6000803e3d6000fd5b505050506040513d601f19601f8201168201806040525081019061245d91906140b2565b6124a95760405162461bcd60e51b815260206004820152601e60248201527f4572726f72207768696c65207472616e73666572696e672061737365747300006044820152606401610832565b604080518c81526020810186905260ff8416818301526060810183905290516001600160a01b038c169133917f9ce47bcc134ecd272196e2d07a748c33630146263e848d49e2679807b2886aab9181900360800190a35050505050505050505050565b6001600160a01b038316600090815260056020526040812060020180546060926125368583614042565b9050600061254486846142c6565b1115612558576125556001826142da565b90505b808611156125975760405162461bcd60e51b815260206004820152600c60248201526b496e76616c6964207061676560a01b6044820152606401610832565b6000851180156125a75750808511155b6125e75760405162461bcd60e51b8152602060048201526011602482015270496e76616c696420706167652073697a6560781b6044820152606401610832565b6000856125f5600189614056565b6125ff9190614015565b9050600061260d87836142da565b90508381111561261a5750825b60006126268383614056565b67ffffffffffffffff81111561263e5761263e613b62565b60405190808252806020026020018201604052801561269d57816020015b61268a604051806080016040528060008152602001600060ff16815260200160608152602001606081525090565b81526020019060019003908161265c5790505b509050825b82811015611a6b578681815481106126bc576126bc6140d4565b600091825260209182902060408051608081018252600490930290910180548352600181015460ff1683850152600281018054835181870281018701855281815294959294938601939283018282801561273f57602002820191906000526020600020905b81546001600160a01b03168152600190910190602001808311612721575b50505050508152602001600382018054806020026020016040519081016040528092919081815260200182805480156127a157602002820191906000526020600020905b81546001600160a01b03168152600190910190602001808311612783575b5050505050815250508285836127b79190614056565b815181106127c7576127c76140d4565b6020026020010181905250806127dc90614257565b90506126a2565b6127eb613664565b6001600160a01b03811660009081526007602052604090205460ff166128535760405162461bcd60e51b815260206004820152601960248201527f546f6b656e206973206e6f7420696e2077686974656c697374000000000000006044820152606401610832565b6000816001600160a01b031663313ce5676040518163ffffffff1660e01b8152600401602060405180830381865afa158015612893573d6000803e3d6000fd5b505050506040513d601f19601f820116820180604052508101906128b79190613fdc565b905060008160ff16116128dc5760405162461bcd60e51b81526004016108329061410e565b6000600354846128ec9190614015565b60085490915060000361291d57336000908152600560205260409020600401819055600a819055600881905561299d565b600854600a54600091906129319084614015565b61293b9190614042565b336000908152600560205260408120600401805492935083929091906129629084906142da565b9091555050600a805482919060009061297c9084906142da565b9091555050600880548391906000906129969084906142da565b9091555050505b33600090815260056020526040812060030180548392906129bf9084906142da565b909155505033600090815260056020818152604080842042930192909255600681528183206001600160a01b0387168452905281208054839290612a049084906142da565b90915550506001600160a01b0383166323b872dd3330612a2586600a614229565b612a2f9089614015565b6040516001600160e01b031960e086901b1681526001600160a01b03938416600482015292909116602483015260448201526064016020604051808303816000875af1158015612a83573d6000803e3d6000fd5b505050506040513d601f19601f82011682018060405250810190612aa791906140b2565b612af35760405162461bcd60e51b815260206004820152601b60248201527f4572726f72207768696c65207472616e7366657220746f6b656e7300000000006044820152606401610832565b6040805185815260ff841660208201526001600160a01b0385169133917f9f9c6451db74dc24ec4ef600603de4a3a11fbe4234eee83200b5469400652c51910160405180910390a350505050565b6000612b4f60005433611a7b565b612bae5760405162461bcd60e51b815260206004820152602a60248201527f43616c6c6572206973206e6f7420612076616c6964206174746573746174696f60448201526937103932b9b7b63b32b960b11b6064820152608401610832565b6001600160a01b0385166000908152600560205260408120600201805482919061ffff8816908110612be257612be26140d4565b9060005260206000209060040201905080600001548414612c5f5760405162461bcd60e51b815260206004820152603160248201527f546865206174746573746174696f6e20616d6f756e7420646f6573206e6f74206044820152701b585d18da081d1a19481c995c5d595cdd607a1b6064820152608401610832565b8054600282015460005b818160ff161015612cc557876001600160a01b0316846002018260ff1681548110612c9657612c966140d4565b6000918252602090912001546001600160a01b031603612cb557600194505b612cbe81614238565b9050612c69565b506003830154600090815b818160ff161015612d3657600386015415612d3657896001600160a01b0316866003018260ff1681548110612d0757612d076140d4565b6000918252602090912001546001600160a01b031603612d2657600196505b612d2f81614238565b9050612cd0565b5085612d845760405162461bcd60e51b815260206004820152601c60248201527f53656e646572206973206e6f7420612076616c6964207369676e6572000000006044820152606401610832565b8115612dca5760405162461bcd60e51b815260206004820152601560248201527414d95b99195c881a185cc81cda59db9959081e595d605a1b6044820152606401610832565b6003850180546001808201835560009283526020832090910180546001600160a01b0319166001600160a01b038d16179055808701805491929091612e1390849060ff166143af565b82546101009290920a60ff8181021990931691831602179091556001870154166003039050612ebd576001600160a01b038b1660009081526005602052604081208054869290612e649084906142da565b90915550506001600160a01b038b811660008181526005602090815260409182902054915191825291928c16917f986757b5f72e5258de572c036a9155b7f6fce0df14ffd1fa633617f668137a39910160405180910390a35b8a6001600160a01b03168a61ffff168a6001600160a01b03167fea585988944829641b25be2de9e0a1256c383fac005bb8f3ebe5cd09b50d7c748860000154604051612f0b91815260200190565b60405180910390a45060019a9950505050505050505050565b612f2c613707565b6001600160a01b038116612f5657604051631e4fbdf760e01b815260006004820152602401610832565b612f5f81613762565b50565b600082821015612fd25760405162461bcd60e51b815260206004820152603560248201527f46696e6973682074696d657374616d70206d75737420626520677265617465726044820152740207468616e2073746172742074696d657374616d7605c1b6064820152608401610832565b6000612fde8484614056565b90506000612fef6201518083614042565b95945050505050565b6000600354856130089190614015565b33600090815260056020526040902090915061302583600a614229565b61302f9087614015565b6040516370a0823160e01b81523060048201526001600160a01b038616906370a0823190602401602060405180830381865afa158015613073573d6000803e3d6000fd5b505050506040513d601f19601f820116820180604052508101906130979190614099565b10156130dc5760405162461bcd60e51b8152602060048201526014602482015273496e7375666963656e74206c697175696469747960601b6044820152606401610832565b60008360ff16116130ff5760405162461bcd60e51b81526004016108329061410e565b6000861161315a5760405162461bcd60e51b815260206004820152602260248201527f54686520616d6f756e74206d757374206265206772656174686572207468616e604482015261020360f41b6064820152608401610832565b6001600160a01b03841660009081526007602052604090205460ff166131c25760405162461bcd60e51b815260206004820181905260248201527f54686520746f6b656e206973206e6f742077686974656c6973746564207965746044820152606401610832565b81816003015410156132075760405162461bcd60e51b815260206004820152600e60248201526d125b9d985b1a5908185b5bdd5b9d60921b6044820152606401610832565b8181600301600082825461321b9190614056565b909155505060088054839190600090613235908490614056565b90915550506001600160a01b03841663a9059cbb33613255600387614396565b61326090600a614229565b61326a89876142da565b6132749190614015565b6040516001600160e01b031960e085901b1681526001600160a01b03909216600483015260248201526044016020604051808303816000875af11580156132bf573d6000803e3d6000fd5b505050506040513d601f19601f820116820180604052508101906132e391906140b2565b61332f5760405162461bcd60e51b815260206004820152601d60248201527f4661696c6564207768656e207769746864726177696e672066756e64730000006044820152606401610832565b604080518781526020810187905260ff85168183015290516001600160a01b0386169133917f04ccd5830047404934ff21145531b3e4edbc2a057f1e3b73e37e6810aaad80c49181900360600190a3505050505050565b612f5f81336137ec565b60006000805160206144058339815191526133ab8484611a7b565b61342b576000848152602082815260408083206001600160a01b03871684529091529020805460ff191660011790556133e13390565b6001600160a01b0316836001600160a01b0316857f2f8788117e7eff1d82e926ec794901d17c78024a50270940304540a733656f0d60405160405180910390a46001915050610a52565b6000915050610a52565b60006000805160206144058339815191526134508484611a7b565b1561342b576000848152602082815260408083206001600160a01b0387168085529252808320805460ff1916905551339287917ff6391f5c32d9c69d2a47ea670b442974b53935d1edc7fd64eb21e047a839171b9190a46001915050610a52565b306001600160a01b037f000000000000000000000000000000000000000000000000000000000000000016148061353857507f00000000000000000000000000000000000000000000000000000000000000006001600160a01b031661352c6000805160206143e5833981519152546001600160a01b031690565b6001600160a01b031614155b156113895760405163703e46dd60e11b815260040160405180910390fd5b612f5f613707565b816001600160a01b03166352d1902d6040518163ffffffff1660e01b8152600401602060405180830381865afa9250505080156135b8575060408051601f3d908101601f191682019092526135b591810190614099565b60015b6135e057604051634c9c8ce360e01b81526001600160a01b0383166004820152602401610832565b6000805160206143e5833981519152811461361157604051632a87526960e21b815260048101829052602401610832565b610afc8383613825565b306001600160a01b037f000000000000000000000000000000000000000000000000000000000000000016146113895760405163703e46dd60e11b815260040160405180910390fd5b7fcd5ed15c6e187e77e9aee88184c21f4f2182ab5827cb3b7e07fbedcd63f033005460ff16156113895760405163d93c066560e01b815260040160405180910390fd5b60008044426004546040516020016136d2939291909283526020830191909152604082015260600190565b60408051601f1981840301815291905280516020909101206004805491925060006136fc83614257565b909155509092915050565b336137397f9016d09d72d40fdae2fd8ceac6b6234c7706214fd39c1cd1e609a0528c199300546001600160a01b031690565b6001600160a01b0316146113895760405163118cdaa760e01b8152336004820152602401610832565b7f9016d09d72d40fdae2fd8ceac6b6234c7706214fd39c1cd1e609a0528c19930080546001600160a01b031981166001600160a01b03848116918217845560405192169182907f8be0079c531659141344cd1fd0a4f28419497f9722a3daafe3b4186f6b6457e090600090a3505050565b6137db61387b565b612f5f816138c4565b61138961387b565b6137f68282611a7b565b610d005760405163e2517d3f60e01b81526001600160a01b038216600482015260248101839052604401610832565b61382e826138cc565b6040516001600160a01b038316907fbc7cd75a20ee27fd9adebab32041f755214dbc6bffa90cc0225b39da2e5c2d3b90600090a280511561387357610afc8282613931565b610d0061399e565b7ff0c57e16840df040f15088dc2f81fe391c3923bec73e23a9662efc9c229c6a0054600160401b900460ff1661138957604051631afcd79f60e31b815260040160405180910390fd5b612f2c61387b565b806001600160a01b03163b60000361390257604051634c9c8ce360e01b81526001600160a01b0382166004820152602401610832565b6000805160206143e583398151915280546001600160a01b0319166001600160a01b0392909216919091179055565b6060600080846001600160a01b03168460405161394e91906143c8565b600060405180830381855af49150503d8060008114613989576040519150601f19603f3d011682016040523d82523d6000602084013e61398e565b606091505b5091509150612fef8583836139bd565b34156113895760405163b398979f60e01b815260040160405180910390fd5b6060826139d2576139cd82613a19565b611a74565b81511580156139e957506001600160a01b0384163b155b15613a1257604051639996b31560e01b81526001600160a01b0385166004820152602401610832565b5080611a74565b805115613a295780518082602001fd5b604051630a12f52160e11b815260040160405180910390fd5b828054828255906000526020600020908101928215613a97579160200282015b82811115613a9757825182546001600160a01b0319166001600160a01b03909116178255602090920191600190910190613a62565b50613aa3929150613aa7565b5090565b5b80821115613aa35760008155600101613aa8565b80356001600160a01b0381168114613ad357600080fd5b919050565b60008060408385031215613aeb57600080fd5b82359150613afb60208401613abc565b90509250929050565b600060208284031215613b1657600080fd5b81356001600160e01b031981168114611a7457600080fd5b600060208284031215613b4057600080fd5b5035919050565b600060208284031215613b5957600080fd5b611a7482613abc565b634e487b7160e01b600052604160045260246000fd5b604051601f8201601f1916810167ffffffffffffffff81118282101715613ba157613ba1613b62565b604052919050565b600067ffffffffffffffff821115613bc357613bc3613b62565b50601f01601f191660200190565b60008060408385031215613be457600080fd5b613bed83613abc565b9150602083013567ffffffffffffffff811115613c0957600080fd5b8301601f81018513613c1a57600080fd5b8035613c2d613c2882613ba9565b613b78565b818152866020838501011115613c4257600080fd5b816020840160208301376000602083830101528093505050509250929050565b60008060408385031215613c7557600080fd5b613c7e83613abc565b946020939093013593505050565b600080600060608486031215613ca157600080fd5b83359250613cb160208501613abc565b9150604084013590509250925092565b60008060008060608587031215613cd757600080fd5b613ce085613abc565b935060208501359250604085013567ffffffffffffffff80821115613d0457600080fd5b818701915087601f830112613d1857600080fd5b813581811115613d2757600080fd5b8860208260051b8501011115613d3c57600080fd5b95989497505060200194505050565b600080600060608486031215613d6057600080fd5b613d6984613abc565b95602085013595506040909401359392505050565b602080825282518282018190526000919060409081850190868401855b82811015613df2578151805185528681015187860152858101516001600160a01b031686860152606080820151908601526080808201519086015260a0908101519085015260c09093019290850190600101613d9b565b5091979650505050505050565b60005b83811015613e1a578181015183820152602001613e02565b50506000910152565b60008151808452613e3b816020860160208601613dff565b601f01601f19169290920160200192915050565b602081526000611a746020830184613e23565b600080600060608486031215613e7757600080fd5b613e8084613abc565b9250613e8e60208501613abc565b9150613e9c60408501613abc565b90509250925092565b600081518084526020808501945080840160005b83811015613ede5781516001600160a01b031687529582019590820190600101613eb9565b509495945050505050565b60006020808301818452808551808352604092508286019150828160051b87010184880160005b83811015613f7a57603f19898403018552815160808151855260ff898301511689860152878201518189870152613f4982870182613ea5565b91505060608083015192508582038187015250613f668183613ea5565b968901969450505090860190600101613f10565b509098975050505050505050565b60008060008060808587031215613f9e57600080fd5b613fa785613abc565b9350602085013561ffff81168114613fbe57600080fd5b9250613fcc60408601613abc565b9396929550929360600135925050565b600060208284031215613fee57600080fd5b815160ff81168114611a7457600080fd5b634e487b7160e01b600052601160045260246000fd5b8082028115828204841417610a5257610a52613fff565b634e487b7160e01b600052601260045260246000fd5b6000826140515761405161402c565b500490565b81810381811115610a5257610a52613fff565b60208082526016908201527521b0b63632b91034b9903737ba1030b71020b236b4b760511b604082015260600190565b6000602082840312156140ab57600080fd5b5051919050565b6000602082840312156140c457600080fd5b81518015158114611a7457600080fd5b634e487b7160e01b600052603260045260246000fd5b600080604083850312156140fd57600080fd5b505080516020909101519092909150565b6020808252601e908201527f4572726f72207768696c65206f627461696e696e6720646563696d616c730000604082015260600190565b600181815b8085111561418057816000190482111561416657614166613fff565b8085161561417357918102915b93841c939080029061414a565b509250929050565b60008261419757506001610a52565b816141a457506000610a52565b81600181146141ba57600281146141c4576141e0565b6001915050610a52565b60ff8411156141d5576141d5613fff565b50506001821b610a52565b5060208310610133831016604e8410600b8410161715614203575081810a610a52565b61420d8383614145565b806000190482111561422157614221613fff565b029392505050565b6000611a7460ff841683614188565b600060ff821660ff810361424e5761424e613fff565b60010192915050565b60006001820161426957614269613fff565b5060010190565b83815260406020808301829052908201839052600090849060608401835b868110156142ba576001600160a01b036142a785613abc565b168252928201929082019060010161428e565b50979650505050505050565b6000826142d5576142d561402c565b500690565b80820180821115610a5257610a52613fff565b6000602082840312156142ff57600080fd5b815167ffffffffffffffff81111561431657600080fd5b8201601f8101841361432757600080fd5b8051614335613c2882613ba9565b81815285602083850101111561434a57600080fd5b612fef826020830160208601613dff565b60408152600061436e6040830185613e23565b8281036020840152612fef8185613e23565b634e487b7160e01b600052603160045260246000fd5b60ff8281168282160390811115610a5257610a52613fff565b60ff8181168382160190811115610a5257610a52613fff565b600082516143da818460208701613dff565b919091019291505056fe360894a13ba1a3210667c828492db98dca3e2076cc3735a920a3ca505d382bbc02dd7bc7dec4dceedda775e58dd541e08a116c6c53815c0bd028192f7b626800a264697066735822122085cc208936ab7f3a4062b0d0967e31c0a46177bef41287d4f5c30464e119fc4864736f6c63430008140033",
  "linkReferences": {
    "library/LendManagerUtils.sol": {
      "LendManagerUtils": [
        {
          "length": 20,
          "start": 3519
        },
        {
          "length": 20,
          "start": 8256
        }
      ]
    }
  },
  "deployedLinkReferences": {
    "library/LendManagerUtils.sol": {
      "LendManagerUtils": [
        {
          "length": 20,
          "start": 3457
        },
        {
          "length": 20,
          "start": 8194
        }
      ]
    }
  }
}