{
  "_format": "hh-sol-artifact-1",
  "contractName": "ReFiMedLendUpgradeable",
  "sourceName": "contracts/ReFiMedLendUpgradeable.sol",
  "abi": [
    {
      "inputs": [],
      "name": "AccessControlBadConfirmation",
      "type": "error"
    },
    {
      "inputs": [
        {
          "internalType": "address",
          "name": "account",
          "type": "address"
        },
        {
          "internalType": "bytes32",
          "name": "neededRole",
          "type": "bytes32"
        }
      ],
      "name": "AccessControlUnauthorizedAccount",
      "type": "error"
    },
    {
      "inputs": [
        {
          "internalType": "address",
          "name": "target",
          "type": "address"
        }
      ],
      "name": "AddressEmptyCode",
      "type": "error"
    },
    {
      "inputs": [
        {
          "internalType": "address",
          "name": "implementation",
          "type": "address"
        }
      ],
      "name": "ERC1967InvalidImplementation",
      "type": "error"
    },
    {
      "inputs": [],
      "name": "ERC1967NonPayable",
      "type": "error"
    },
    {
      "inputs": [],
      "name": "EnforcedPause",
      "type": "error"
    },
    {
      "inputs": [],
      "name": "ExpectedPause",
      "type": "error"
    },
    {
      "inputs": [],
      "name": "FailedInnerCall",
      "type": "error"
    },
    {
      "inputs": [],
      "name": "InvalidInitialization",
      "type": "error"
    },
    {
      "inputs": [],
      "name": "NotInitializing",
      "type": "error"
    },
    {
      "inputs": [
        {
          "internalType": "address",
          "name": "owner",
          "type": "address"
        }
      ],
      "name": "OwnableInvalidOwner",
      "type": "error"
    },
    {
      "inputs": [
        {
          "internalType": "address",
          "name": "account",
          "type": "address"
        }
      ],
      "name": "OwnableUnauthorizedAccount",
      "type": "error"
    },
    {
      "inputs": [],
      "name": "UUPSUnauthorizedCallContext",
      "type": "error"
    },
    {
      "inputs": [
        {
          "internalType": "bytes32",
          "name": "slot",
          "type": "bytes32"
        }
      ],
      "name": "UUPSUnsupportedProxiableUUID",
      "type": "error"
    },
    {
      "inputs": [],
      "name": "UnavailableAmount",
      "type": "error"
    },
    {
      "anonymous": false,
      "inputs": [
        {
          "indexed": true,
          "internalType": "address",
          "name": "debtor",
          "type": "address"
        },
        {
          "indexed": false,
          "internalType": "uint256",
          "name": "amount",
          "type": "uint256"
        },
        {
          "indexed": false,
          "internalType": "uint256",
          "name": "interests",
          "type": "uint256"
        },
        {
          "indexed": true,
          "internalType": "address",
          "name": "token",
          "type": "address"
        },
        {
          "indexed": false,
          "internalType": "uint8",
          "name": "decimals",
          "type": "uint8"
        },
        {
          "indexed": false,
          "internalType": "uint256",
          "name": "nonce",
          "type": "uint256"
        }
      ],
      "name": "Debt",
      "type": "event"
    },
    {
      "anonymous": false,
      "inputs": [
        {
          "indexed": true,
          "internalType": "address",
          "name": "funder",
          "type": "address"
        },
        {
          "indexed": false,
          "internalType": "uint256",
          "name": "amount",
          "type": "uint256"
        },
        {
          "indexed": true,
          "internalType": "address",
          "name": "token",
          "type": "address"
        },
        {
          "indexed": false,
          "internalType": "uint8",
          "name": "decimals",
          "type": "uint8"
        }
      ],
      "name": "Funded",
      "type": "event"
    },
    {
      "anonymous": false,
      "inputs": [
        {
          "indexed": false,
          "internalType": "uint64",
          "name": "version",
          "type": "uint64"
        }
      ],
      "name": "Initialized",
      "type": "event"
    },
    {
      "anonymous": false,
      "inputs": [
        {
          "indexed": true,
          "internalType": "address",
          "name": "lender",
          "type": "address"
        },
        {
          "indexed": false,
          "internalType": "uint256",
          "name": "amount",
          "type": "uint256"
        },
        {
          "indexed": true,
          "internalType": "address",
          "name": "token",
          "type": "address"
        },
        {
          "indexed": false,
          "internalType": "uint8",
          "name": "decimals",
          "type": "uint8"
        },
        {
          "indexed": false,
          "internalType": "uint256",
          "name": "nonce",
          "type": "uint256"
        }
      ],
      "name": "LendRepaid",
      "type": "event"
    },
    {
      "anonymous": false,
      "inputs": [
        {
          "indexed": true,
          "internalType": "address",
          "name": "lender",
          "type": "address"
        },
        {
          "indexed": false,
          "internalType": "uint256",
          "name": "amount",
          "type": "uint256"
        },
        {
          "indexed": true,
          "internalType": "address",
          "name": "token",
          "type": "address"
        },
        {
          "indexed": false,
          "internalType": "uint8",
          "name": "decimals",
          "type": "uint8"
        },
        {
          "indexed": false,
          "internalType": "uint256",
          "name": "paymentDue",
          "type": "uint256"
        },
        {
          "indexed": false,
          "internalType": "uint256",
          "name": "nonce",
          "type": "uint256"
        }
      ],
      "name": "Lending",
      "type": "event"
    },
    {
      "anonymous": false,
      "inputs": [
        {
          "indexed": true,
          "internalType": "address",
          "name": "previousOwner",
          "type": "address"
        },
        {
          "indexed": true,
          "internalType": "address",
          "name": "newOwner",
          "type": "address"
        }
      ],
      "name": "OwnershipTransferred",
      "type": "event"
    },
    {
      "anonymous": false,
      "inputs": [
        {
          "indexed": false,
          "internalType": "address",
          "name": "account",
          "type": "address"
        }
      ],
      "name": "Paused",
      "type": "event"
    },
    {
      "anonymous": false,
      "inputs": [
        {
          "indexed": true,
          "internalType": "bytes32",
          "name": "role",
          "type": "bytes32"
        },
        {
          "indexed": true,
          "internalType": "bytes32",
          "name": "previousAdminRole",
          "type": "bytes32"
        },
        {
          "indexed": true,
          "internalType": "bytes32",
          "name": "newAdminRole",
          "type": "bytes32"
        }
      ],
      "name": "RoleAdminChanged",
      "type": "event"
    },
    {
      "anonymous": false,
      "inputs": [
        {
          "indexed": true,
          "internalType": "bytes32",
          "name": "role",
          "type": "bytes32"
        },
        {
          "indexed": true,
          "internalType": "address",
          "name": "account",
          "type": "address"
        },
        {
          "indexed": true,
          "internalType": "address",
          "name": "sender",
          "type": "address"
        }
      ],
      "name": "RoleGranted",
      "type": "event"
    },
    {
      "anonymous": false,
      "inputs": [
        {
          "indexed": true,
          "internalType": "bytes32",
          "name": "role",
          "type": "bytes32"
        },
        {
          "indexed": true,
          "internalType": "address",
          "name": "account",
          "type": "address"
        },
        {
          "indexed": true,
          "internalType": "address",
          "name": "sender",
          "type": "address"
        }
      ],
      "name": "RoleRevoked",
      "type": "event"
    },
    {
      "anonymous": false,
      "inputs": [
        {
          "indexed": true,
          "internalType": "address",
          "name": "tokenAddress",
          "type": "address"
        },
        {
          "indexed": false,
          "internalType": "string",
          "name": "symbol",
          "type": "string"
        },
        {
          "indexed": false,
          "internalType": "string",
          "name": "name",
          "type": "string"
        }
      ],
      "name": "TokenAdded",
      "type": "event"
    },
    {
      "anonymous": false,
      "inputs": [
        {
          "indexed": false,
          "internalType": "address",
          "name": "account",
          "type": "address"
        }
      ],
      "name": "Unpaused",
      "type": "event"
    },
    {
      "anonymous": false,
      "inputs": [
        {
          "indexed": true,
          "internalType": "address",
          "name": "implementation",
          "type": "address"
        }
      ],
      "name": "Upgraded",
      "type": "event"
    },
    {
      "anonymous": false,
      "inputs": [
        {
          "indexed": true,
          "internalType": "address",
          "name": "caller",
          "type": "address"
        },
        {
          "indexed": true,
          "internalType": "address",
          "name": "recipent",
          "type": "address"
        },
        {
          "indexed": false,
          "internalType": "uint256",
          "name": "amount",
          "type": "uint256"
        }
      ],
      "name": "UserQuotaChanged",
      "type": "event"
    },
    {
      "anonymous": false,
      "inputs": [
        {
          "indexed": true,
          "internalType": "address",
          "name": "caller",
          "type": "address"
        },
        {
          "indexed": true,
          "internalType": "uint16",
          "name": "index",
          "type": "uint16"
        },
        {
          "indexed": true,
          "internalType": "address",
          "name": "recipent",
          "type": "address"
        },
        {
          "indexed": false,
          "internalType": "uint256",
          "name": "amount",
          "type": "uint256"
        },
        {
          "indexed": false,
          "internalType": "address[]",
          "name": "signers",
          "type": "address[]"
        }
      ],
      "name": "UserQuotaIncreaseRequest",
      "type": "event"
    },
    {
      "anonymous": false,
      "inputs": [
        {
          "indexed": true,
          "internalType": "address",
          "name": "signer",
          "type": "address"
        },
        {
          "indexed": true,
          "internalType": "uint16",
          "name": "index",
          "type": "uint16"
        },
        {
          "indexed": true,
          "internalType": "address",
          "name": "recipent",
          "type": "address"
        },
        {
          "indexed": false,
          "internalType": "uint256",
          "name": "amount",
          "type": "uint256"
        }
      ],
      "name": "UserQuotaSigned",
      "type": "event"
    },
    {
      "anonymous": false,
      "inputs": [
        {
          "indexed": true,
          "internalType": "address",
          "name": "withdrawer",
          "type": "address"
        },
        {
          "indexed": false,
          "internalType": "uint256",
          "name": "amount",
          "type": "uint256"
        },
        {
          "indexed": false,
          "internalType": "uint256",
          "name": "interests",
          "type": "uint256"
        },
        {
          "indexed": true,
          "internalType": "address",
          "name": "token",
          "type": "address"
        },
        {
          "indexed": false,
          "internalType": "uint8",
          "name": "decimals",
          "type": "uint8"
        }
      ],
      "name": "Withdraw",
      "type": "event"
    },
    {
      "inputs": [],
      "name": "DEFAULT_ADMIN_ROLE",
      "outputs": [
        {
          "internalType": "bytes32",
          "name": "",
          "type": "bytes32"
        }
      ],
      "stateMutability": "view",
      "type": "function"
    },
    {
      "inputs": [],
      "name": "INTEREST_RATE_PER_DAY",
      "outputs": [
        {
          "internalType": "uint256",
          "name": "",
          "type": "uint256"
        }
      ],
      "stateMutability": "view",
      "type": "function"
    },
    {
      "inputs": [],
      "name": "UPGRADE_INTERFACE_VERSION",
      "outputs": [
        {
          "internalType": "string",
          "name": "",
          "type": "string"
        }
      ],
      "stateMutability": "view",
      "type": "function"
    },
    {
      "inputs": [
        {
          "internalType": "address",
          "name": "tokenAddress",
          "type": "address"
        }
      ],
      "name": "addToken",
      "outputs": [],
      "stateMutability": "nonpayable",
      "type": "function"
    },
    {
      "inputs": [
        {
          "internalType": "address",
          "name": "recipent",
          "type": "address"
        },
        {
          "internalType": "uint256",
          "name": "amount",
          "type": "uint256"
        }
      ],
      "name": "decreaseQuota",
      "outputs": [],
      "stateMutability": "nonpayable",
      "type": "function"
    },
    {
      "inputs": [
        {
          "internalType": "uint256",
          "name": "amount",
          "type": "uint256"
        },
        {
          "internalType": "address",
          "name": "token",
          "type": "address"
        }
      ],
      "name": "fund",
      "outputs": [],
      "stateMutability": "nonpayable",
      "type": "function"
    },
    {
      "inputs": [],
      "name": "funds",
      "outputs": [
        {
          "internalType": "uint256",
          "name": "totalFunds",
          "type": "uint256"
        },
        {
          "internalType": "uint256",
          "name": "interests",
          "type": "uint256"
        },
        {
          "internalType": "uint256",
          "name": "totalInterestShares",
          "type": "uint256"
        },
        {
          "internalType": "uint256",
          "name": "interestPerShare",
          "type": "uint256"
        }
      ],
      "stateMutability": "view",
      "type": "function"
    },
    {
      "inputs": [
        {
          "internalType": "bytes32",
          "name": "role",
          "type": "bytes32"
        }
      ],
      "name": "getRoleAdmin",
      "outputs": [
        {
          "internalType": "bytes32",
          "name": "",
          "type": "bytes32"
        }
      ],
      "stateMutability": "view",
      "type": "function"
    },
    {
      "inputs": [
        {
          "internalType": "address",
          "name": "token",
          "type": "address"
        }
      ],
      "name": "getSpareFunds",
      "outputs": [],
      "stateMutability": "nonpayable",
      "type": "function"
    },
    {
      "inputs": [
        {
          "internalType": "address",
          "name": "userAddress",
          "type": "address"
        },
        {
          "internalType": "uint256",
          "name": "page",
          "type": "uint256"
        },
        {
          "internalType": "uint256",
          "name": "pageSize",
          "type": "uint256"
        }
      ],
      "name": "getUserLendsPaginated",
      "outputs": [
        {
          "components": [
            {
              "internalType": "uint256",
              "name": "initialAmount",
              "type": "uint256"
            },
            {
              "internalType": "uint256",
              "name": "currentAmount",
              "type": "uint256"
            },
            {
              "internalType": "address",
              "name": "token",
              "type": "address"
            },
            {
              "internalType": "uint256",
              "name": "expectPaymentDue",
              "type": "uint256"
            },
            {
              "internalType": "uint256",
              "name": "latestDebtTimestamp",
              "type": "uint256"
            },
            {
              "internalType": "uint256",
              "name": "nonce",
              "type": "uint256"
            }
          ],
          "internalType": "struct ReFiMedLendUpgradeable.Lend[]",
          "name": "",
          "type": "tuple[]"
        }
      ],
      "stateMutability": "view",
      "type": "function"
    },
    {
      "inputs": [
        {
          "internalType": "address",
          "name": "userAddress",
          "type": "address"
        },
        {
          "internalType": "uint256",
          "name": "page",
          "type": "uint256"
        },
        {
          "internalType": "uint256",
          "name": "pageSize",
          "type": "uint256"
        }
      ],
      "name": "getUserQuotaRequests",
      "outputs": [
        {
          "components": [
            {
              "internalType": "uint256",
              "name": "amount",
              "type": "uint256"
            },
            {
              "internalType": "uint8",
              "name": "successfulSigns",
              "type": "uint8"
            },
            {
              "internalType": "address[]",
              "name": "signers",
              "type": "address[]"
            },
            {
              "internalType": "address[]",
              "name": "signedBy",
              "type": "address[]"
            }
          ],
          "internalType": "struct ReFiMedLendUpgradeable.UserQuotaRequest[]",
          "name": "",
          "type": "tuple[]"
        }
      ],
      "stateMutability": "view",
      "type": "function"
    },
    {
      "inputs": [
        {
          "internalType": "bytes32",
          "name": "role",
          "type": "bytes32"
        },
        {
          "internalType": "address",
          "name": "account",
          "type": "address"
        }
      ],
      "name": "grantRole",
      "outputs": [],
      "stateMutability": "nonpayable",
      "type": "function"
    },
    {
      "inputs": [
        {
          "internalType": "bytes32",
          "name": "role",
          "type": "bytes32"
        },
        {
          "internalType": "address",
          "name": "account",
          "type": "address"
        }
      ],
      "name": "hasRole",
      "outputs": [
        {
          "internalType": "bool",
          "name": "",
          "type": "bool"
        }
      ],
      "stateMutability": "view",
      "type": "function"
    },
    {
      "inputs": [
        {
          "internalType": "address",
          "name": "recipent",
          "type": "address"
        },
        {
          "internalType": "uint16",
          "name": "index",
          "type": "uint16"
        },
        {
          "internalType": "address",
          "name": "caller",
          "type": "address"
        },
        {
          "internalType": "uint256",
          "name": "amount",
          "type": "uint256"
        }
      ],
      "name": "increaseQuota",
      "outputs": [
        {
          "internalType": "bool",
          "name": "",
          "type": "bool"
        }
      ],
      "stateMutability": "nonpayable",
      "type": "function"
    },
    {
      "inputs": [
        {
          "internalType": "address",
          "name": "_attestationResolver",
          "type": "address"
        },
        {
          "internalType": "address",
          "name": "multisig",
          "type": "address"
        }
      ],
      "name": "initialize",
      "outputs": [],
      "stateMutability": "nonpayable",
      "type": "function"
    },
    {
      "inputs": [],
      "name": "owner",
      "outputs": [
        {
          "internalType": "address",
          "name": "",
          "type": "address"
        }
      ],
      "stateMutability": "view",
      "type": "function"
    },
    {
      "inputs": [],
      "name": "paused",
      "outputs": [
        {
          "internalType": "bool",
          "name": "",
          "type": "bool"
        }
      ],
      "stateMutability": "view",
      "type": "function"
    },
    {
      "inputs": [
        {
          "internalType": "uint256",
          "name": "amount",
          "type": "uint256"
        },
        {
          "internalType": "address",
          "name": "token",
          "type": "address"
        },
        {
          "internalType": "uint256",
          "name": "lendIndex",
          "type": "uint256"
        }
      ],
      "name": "payDebt",
      "outputs": [],
      "stateMutability": "nonpayable",
      "type": "function"
    },
    {
      "inputs": [],
      "name": "proxiableUUID",
      "outputs": [
        {
          "internalType": "bytes32",
          "name": "",
          "type": "bytes32"
        }
      ],
      "stateMutability": "view",
      "type": "function"
    },
    {
      "inputs": [],
      "name": "renounceOwnership",
      "outputs": [],
      "stateMutability": "nonpayable",
      "type": "function"
    },
    {
      "inputs": [
        {
          "internalType": "bytes32",
          "name": "role",
          "type": "bytes32"
        },
        {
          "internalType": "address",
          "name": "callerConfirmation",
          "type": "address"
        }
      ],
      "name": "renounceRole",
      "outputs": [],
      "stateMutability": "nonpayable",
      "type": "function"
    },
    {
      "inputs": [
        {
          "internalType": "address",
          "name": "recipent",
          "type": "address"
        },
        {
          "internalType": "uint256",
          "name": "amount",
          "type": "uint256"
        },
        {
          "internalType": "address[]",
          "name": "signers",
          "type": "address[]"
        }
      ],
      "name": "requestIncreaseQuota",
      "outputs": [],
      "stateMutability": "nonpayable",
      "type": "function"
    },
    {
      "inputs": [
        {
          "internalType": "uint256",
          "name": "amount",
          "type": "uint256"
        },
        {
          "internalType": "address",
          "name": "token",
          "type": "address"
        },
        {
          "internalType": "uint256",
          "name": "paymentDue",
          "type": "uint256"
        }
      ],
      "name": "requestLend",
      "outputs": [],
      "stateMutability": "nonpayable",
      "type": "function"
    },
    {
      "inputs": [
        {
          "internalType": "bytes32",
          "name": "role",
          "type": "bytes32"
        },
        {
          "internalType": "address",
          "name": "account",
          "type": "address"
        }
      ],
      "name": "revokeRole",
      "outputs": [],
      "stateMutability": "nonpayable",
      "type": "function"
    },
    {
      "inputs": [
        {
          "internalType": "uint256",
          "name": "interestRate",
          "type": "uint256"
        }
      ],
      "name": "setInterestPerDay",
      "outputs": [],
      "stateMutability": "nonpayable",
      "type": "function"
    },
    {
      "inputs": [
        {
          "internalType": "bytes4",
          "name": "interfaceId",
          "type": "bytes4"
        }
      ],
      "name": "supportsInterface",
      "outputs": [
        {
          "internalType": "bool",
          "name": "",
          "type": "bool"
        }
      ],
      "stateMutability": "view",
      "type": "function"
    },
    {
      "inputs": [
        {
          "internalType": "address",
          "name": "newOwner",
          "type": "address"
        }
      ],
      "name": "transferOwnership",
      "outputs": [],
      "stateMutability": "nonpayable",
      "type": "function"
    },
    {
      "inputs": [
        {
          "internalType": "address",
          "name": "newImplementation",
          "type": "address"
        },
        {
          "internalType": "bytes",
          "name": "data",
          "type": "bytes"
        }
      ],
      "name": "upgradeToAndCall",
      "outputs": [],
      "stateMutability": "payable",
      "type": "function"
    },
    {
      "inputs": [
        {
          "internalType": "address",
          "name": "",
          "type": "address"
        }
      ],
      "name": "user",
      "outputs": [
        {
          "internalType": "uint256",
          "name": "quota",
          "type": "uint256"
        },
        {
          "internalType": "uint256",
          "name": "currentFund",
          "type": "uint256"
        },
        {
          "internalType": "uint256",
          "name": "interestShares",
          "type": "uint256"
        },
        {
          "internalType": "uint256",
          "name": "lastFund",
          "type": "uint256"
        }
      ],
      "stateMutability": "view",
      "type": "function"
    },
    {
      "inputs": [
        {
          "internalType": "uint256",
          "name": "amount",
          "type": "uint256"
        },
        {
          "internalType": "address",
          "name": "token",
          "type": "address"
        }
      ],
      "name": "withdraw",
      "outputs": [],
      "stateMutability": "nonpayable",
      "type": "function"
    },
    {
      "inputs": [
        {
          "internalType": "uint256",
          "name": "amount",
          "type": "uint256"
        },
        {
          "internalType": "address",
          "name": "token",
          "type": "address"
        }
      ],
      "name": "withdrawWithoutInterests",
      "outputs": [],
      "stateMutability": "nonpayable",
      "type": "function"
    }
  ],
  "bytecode": "0x60a06040523060805234801561001457600080fd5b506080516140e561003e600039600081816131ae015281816131d7015261331801526140e56000f3fe6080604052600436106101d75760003560e01c806381e7e20e11610102578063c89f2ce411610095578063e0e713dd11610064578063e0e713dd146105d9578063eee9239514610606578063f140006214610626578063f2fde38b1461064657600080fd5b8063c89f2ce414610556578063d48bfca714610579578063d547741f14610599578063d7d9f9ec146105b957600080fd5b8063969f9efa116100d1578063969f9efa146104cd5780639ebb4112146104e3578063a217fddf14610503578063ad3cb1cc1461051857600080fd5b806381e7e20e146103d557806387373fc1146104395780638da5cb5b1461046657806391d14854146104ad57600080fd5b8063485cc9551161017a57806361e576b81161014957806361e576b8146103605780636e99700a14610380578063715018a6146103a057806381d945d2146103b557600080fd5b8063485cc955146102e15780634f1ef2861461030157806352d1902d146103145780635c975abb1461032957600080fd5b8063248a9ca3116101b6578063248a9ca3146102535780632f2ff15d1461028157806336568abe146102a15780633ead66c8146102c157600080fd5b8062f714ce146101dc57806301ffc9a7146101fe5780631031f4f914610233575b600080fd5b3480156101e857600080fd5b506101fc6101f7366004613756565b610666565b005b34801561020a57600080fd5b5061021e610219366004613782565b6108dc565b60405190151581526020015b60405180910390f35b34801561023f57600080fd5b506101fc61024e3660046137ac565b610913565b34801561025f57600080fd5b5061027361026e3660046137ac565b610920565b60405190815260200161022a565b34801561028d57600080fd5b506101fc61029c366004613756565b610942565b3480156102ad57600080fd5b506101fc6102bc366004613756565b610964565b3480156102cd57600080fd5b506101fc6102dc3660046137c5565b61099c565b3480156102ed57600080fd5b506101fc6102fc3660046137e0565b610b7f565b6101fc61030f366004613879565b610cd8565b34801561032057600080fd5b50610273610cf3565b34801561033557600080fd5b507fcd5ed15c6e187e77e9aee88184c21f4f2182ab5827cb3b7e07fbedcd63f033005460ff1661021e565b34801561036c57600080fd5b506101fc61037b36600461390a565b610d10565b34801561038c57600080fd5b506101fc61039b366004613934565b610e15565b3480156103ac57600080fd5b506101fc6111f9565b3480156103c157600080fd5b506101fc6103d0366004613969565b61120d565b3480156103e157600080fd5b506104196103f03660046137c5565b600460208190526000918252604090912080546003820154928201546005909201549092919084565b60408051948552602085019390935291830152606082015260800161022a565b34801561044557600080fd5b506104596104543660046139f3565b611645565b60405161022a9190613a26565b34801561047257600080fd5b507f9016d09d72d40fdae2fd8ceac6b6234c7706214fd39c1cd1e609a0528c199300546040516001600160a01b03909116815260200161022a565b3480156104b957600080fd5b5061021e6104c8366004613756565b6118b1565b3480156104d957600080fd5b5061027360015481565b3480156104ef57600080fd5b506101fc6104fe366004613756565b6118e9565b34801561050f57600080fd5b50610273600081565b34801561052457600080fd5b50610549604051806040016040528060058152602001640352e302e360dc1b81525081565b60405161022a9190613af7565b34801561056257600080fd5b50600754600854600954600a546104199392919084565b34801561058557600080fd5b506101fc6105943660046137c5565b611aa5565b3480156105a557600080fd5b506101fc6105b4366004613756565b611bf0565b3480156105c557600080fd5b506101fc6105d4366004613934565b611c0c565b3480156105e557600080fd5b506105f96105f43660046139f3565b612196565b60405161022a9190613b4e565b34801561061257600080fd5b506101fc610621366004613756565b61246d565b34801561063257600080fd5b5061021e610641366004613bed565b6127bf565b34801561065257600080fd5b506101fc6106613660046137c5565b612ba2565b6000816001600160a01b031663313ce5676040518163ffffffff1660e01b8152600401602060405180830381865afa1580156106a6573d6000803e3d6000fd5b505050506040513d601f19601f820116820180604052508101906106ca9190613c41565b90506000600254846106dc9190613c7a565b336000908152600460205260408120600581015492935091906106ff8242612be0565b905060b481101561072b5760405162461bcd60e51b815260040161072290613c91565b60405180910390fd5b83836003015410156107725760405162461bcd60e51b815260206004820152601060248201526f496e7375666963656e742066756e647360801b6044820152606401610722565b3360009081526005602090815260408083206001600160a01b038a1684529091529020548411156107e55760405162461bcd60e51b815260206004820152601a60248201527f496e73756666696369656e7420746f6b656e2062616c616e63650000000000006044820152606401610722565b3360009081526005602090815260408083206001600160a01b038a16845290915281208054869290610818908490613ce7565b9091555050600a546004840154600091670de0b6b3a76400009161083c9190613c7a565b6108469190613d10565b90508360040154600760020160008282546108619190613ce7565b90915550506004840180549060006108798380613ce7565b909155505060088054829190600090610893908490613ce7565b9091555050600954156108c6576009546008546108b890670de0b6b3a7640000613c7a565b6108c29190613d10565b600a555b6108d288828989612c76565b5050505050505050565b60006001600160e01b03198216637965db0b60e01b148061090d57506301ffc9a760e01b6001600160e01b03198316145b92915050565b61091b613004565b600155565b6000908152600080516020614090833981519152602052604090206001015490565b61094b82610920565b6109548161305f565b61095e8383613069565b50505050565b6001600160a01b038116331461098d5760405163334bd91960e11b815260040160405180910390fd5b610997828261310e565b505050565b6109a4613004565b6040516370a0823160e01b81523060048201526000906001600160a01b038316906370a0823190602401602060405180830381865afa1580156109eb573d6000803e3d6000fd5b505050506040513d601f19601f82011682018060405250810190610a0f9190613d24565b60075490915015610a625760405162461bcd60e51b815260206004820152601960248201527f54686520746f74616c2066756e6473206d7573742062652030000000000000006044820152606401610722565b60008111610abe5760405162461bcd60e51b815260206004820152602360248201527f5468652062616c616e6365206d7573742062652067726561746865722074686160448201526206e20360ec1b6064820152608401610722565b60405163a9059cbb60e01b8152336004820152602481018290526001600160a01b0383169063a9059cbb906044016020604051808303816000875af1158015610b0b573d6000803e3d6000fd5b505050506040513d601f19601f82011682018060405250810190610b2f9190613d3d565b610b7b5760405162461bcd60e51b815260206004820152601d60248201527f4572726f72207768696c65207472616e73666572696e672066756e64730000006044820152606401610722565b5050565b7ff0c57e16840df040f15088dc2f81fe391c3923bec73e23a9662efc9c229c6a008054600160401b810460ff16159067ffffffffffffffff16600081158015610bc55750825b905060008267ffffffffffffffff166001148015610be25750303b155b905081158015610bf0575080155b15610c0e5760405163f92ee8a960e01b815260040160405180910390fd5b845467ffffffffffffffff191660011785558315610c3857845460ff60401b1916600160401b1785555b610c418661318a565b610c4961319b565b7f0875992236f2b756c480a83b0053e711e5a04d6ec8bf4b52208ef8f002f175c76000818155613fb46001556103e8600255600355610c889088613069565b508315610ccf57845460ff60401b19168555604051600181527fc7f505b2f371ae2175ee4913f4499e1f2633a7b5936321eed1cdaeb6115181d29060200160405180910390a15b50505050505050565b610ce06131a3565b610ce982613248565b610b7b8282613250565b6000610cfd61330d565b5060008051602061407083398151915290565b610d18613356565b610d20613004565b600060025482610d309190613c7a565b6001600160a01b038416600090815260046020526040902054909150811115610d8e5760405162461bcd60e51b815260206004820152601060248201526f496e7375666963656e742071756f746160801b6044820152606401610722565b6001600160a01b03831660009081526004602052604081208054839290610db6908490613ce7565b90915550506001600160a01b0383166000818152600460205260409081902054905133917f986757b5f72e5258de572c036a9155b7f6fce0df14ffd1fa633617f668137a3991610e0891815260200190565b60405180910390a3505050565b610e1d613356565b336000908152600460205260408120600254909190610e3c9086613c7a565b90508082600001541015610eab5760405162461bcd60e51b815260206004820152603060248201527f546865207573657220686173206c6573732071756f7461207468616e2074686560448201526f081c995c5d5a5c995908185b5bdd5b9d60821b6064820152608401610722565b6000846001600160a01b031663313ce5676040518163ffffffff1660e01b8152600401602060405180830381865afa158015610eeb573d6000803e3d6000fd5b505050506040513d601f19601f82011682018060405250810190610f0f9190613c41565b905060008160ff1611610f345760405162461bcd60e51b815260040161072290613d5f565b6040516370a0823160e01b81523060048201526000906001600160a01b038716906370a0823190602401602060405180830381865afa158015610f7b573d6000803e3d6000fd5b505050506040513d601f19601f82011682018060405250810190610f9f9190613d24565b9050610fac82600a613e7a565b610fb69088613c7a565b811015610ffc5760405162461bcd60e51b8152602060048201526014602482015273496e7375666963656e74206c697175696469747960601b6044820152606401610722565b6000611006613399565b6040805160c08101825286815260208082018881526001600160a01b038c8116948401948552606084018c8152426080860190815260a0860188815260018e81018054808301825560009182529781209851600690980290980196875594519486019490945595516002850180546001600160a01b0319169190931617909155516003830155925160048201559151600590920191909155865491925085918791906110b3908490613ce7565b90915550506001600160a01b03871663a9059cbb336110d386600a613e7a565b6110dd908c613c7a565b6040516001600160e01b031960e085901b1681526001600160a01b03909216600483015260248201526044016020604051808303816000875af1158015611128573d6000803e3d6000fd5b505050506040513d601f19601f8201168201806040525081019061114c9190613d3d565b6111985760405162461bcd60e51b815260206004820152601e60248201527f4572726f72207768696c65207472616e73666572696e672061737365747300006044820152606401610722565b6040805185815260ff85166020820152908101879052606081018290526001600160a01b0388169033907f473896b256eedaa907360e7bb0dfd12ebcad749e88d45aa79325bf4aad4afbfc9060800160405180910390a35050505050505050565b611201613004565b61120b60006133f9565b565b611215613356565b61121d613004565b60006002548461122d9190613c7a565b905060008267ffffffffffffffff81111561124a5761124a61380a565b604051908082528060200260200182016040528015611273578160200160208202803683370190505b50905060038310156112c75760405162461bcd60e51b815260206004820152601960248201527f5369676e657273206d757374206265206174206c6561742033000000000000006044820152606401610722565b600a8311156113185760405162461bcd60e51b815260206004820152601d60248201527f5369676e657273206d757374206265206c65617374207468616e2031300000006044820152606401610722565b600085116113685760405162461bcd60e51b815260206004820152601e60248201527f416d6f756e74206d757374206265206772656174686572207468616e203000006044820152606401610722565b6001600160a01b038616600090815260046020908152604080832081516080810183528681528084018590528251858152808501845281840152825185815293840190925260020192909160608301915090528154600180820184556000938452602093849020835160049093020191825582840151908201805460ff191660ff909216919091179055604082015180519293919261140d92600285019201906136c0565b50606082015180516114299160038401916020909101906136c0565b5050506000805b60ff81168511156115ca57600086868360ff1681811061145257611452613e89565b905060200201602081019061146791906137c5565b905060005b838160ff16101561150457848160ff168151811061148c5761148c613e89565b60200260200101516001600160a01b0316826001600160a01b0316036114f45760405162461bcd60e51b815260206004820152601960248201527f4475706c6963617465207369676e6572206465746563746564000000000000006044820152606401610722565b6114fd81613e9f565b905061146c565b508084848151811061151857611518613e89565b6001600160a01b03909216602092830291909101909101528261153a81613ebe565b6001600160a01b038b1660009081526004602052604090206002018054919550915061156890600190613ce7565b8154811061157857611578613e89565b60009182526020808320600492909202909101600201805460018101825590835291200180546001600160a01b0319166001600160a01b03929092169190911790556115c381613e9f565b9050611430565b506001600160a01b0387166000818152600460205260409020600201546115f390600190613ce7565b61ffff16336001600160a01b03167f0b64377ec6609831eaa829c32823df50ad3db86e1636b0923ee03fa1a685eff689898960405161163493929190613ed7565b60405180910390a450505050505050565b6001600160a01b0383166000908152600460205260408120600181015460609261166f8583613d10565b9050600061167d8684613f2d565b11156116915761168e600182613f41565b90505b808611156116d05760405162461bcd60e51b815260206004820152600c60248201526b496e76616c6964207061676560a01b6044820152606401610722565b600085116117145760405162461bcd60e51b8152602060048201526011602482015270496e76616c696420706167652073697a6560781b6044820152606401610722565b80851115611720578094505b60008561172e600189613ce7565b6117389190613c7a565b905060006117468783613f41565b9050838111156117535750825b600061175f8383613ce7565b67ffffffffffffffff8111156117775761177761380a565b6040519080825280602002602001820160405280156117ea57816020015b6117d76040518060c00160405280600081526020016000815260200160006001600160a01b031681526020016000815260200160008152602001600081525090565b8152602001906001900390816117955790505b509050825b828110156118a15786600101818154811061180c5761180c613e89565b60009182526020918290206040805160c08101825260069093029091018054835260018101549383019390935260028301546001600160a01b031690820152600382015460608201526004820154608082015260059091015460a0820152826118758684613ce7565b8151811061188557611885613e89565b60200260200101819052508061189a90613ebe565b90506117ef565b50955050505050505b9392505050565b6000918252600080516020614090833981519152602090815260408084206001600160a01b0393909316845291905290205460ff1690565b6000816001600160a01b031663313ce5676040518163ffffffff1660e01b8152600401602060405180830381865afa158015611929573d6000803e3d6000fd5b505050506040513d601f19601f8201168201806040525081019061194d9190613c41565b905060006002548461195f9190613c7a565b336000908152600460205260408120600581015492935091906119828242612be0565b905060b48110156119a55760405162461bcd60e51b815260040161072290613c91565b83836003015410156119ec5760405162461bcd60e51b815260206004820152601060248201526f496e7375666963656e742066756e647360801b6044820152606401610722565b3360009081526005602090815260408083206001600160a01b038a168452909152902054841115611a5f5760405162461bcd60e51b815260206004820152601a60248201527f496e73756666696369656e7420746f6b656e2062616c616e63650000000000006044820152606401610722565b3360009081526005602090815260408083206001600160a01b038a16845290915281208054869290611a92908490613ce7565b90915550610ccf90508760008888612c76565b611aad613004565b611ab5613356565b6001600160a01b038116600081815260066020526040808220805460ff1916600117905580516395d89b4160e01b815290519192916395d89b419160048082019286929091908290030181865afa158015611b14573d6000803e3d6000fd5b505050506040513d6000823e601f3d908101601f19168201604052611b3c9190810190613f54565b90506000826001600160a01b03166306fdde036040518163ffffffff1660e01b8152600401600060405180830381865afa158015611b7e573d6000803e3d6000fd5b505050506040513d6000823e601f3d908101601f19168201604052611ba69190810190613f54565b9050826001600160a01b03167f2fb34ce114a136590b874d8cf80e7652adda576578bacfa4f8023f720f5693948383604051611be3929190613fc2565b60405180910390a2505050565b611bf982610920565b611c028161305f565b61095e838361310e565b33600090815260046020526040812060018101805491929184908110611c3457611c34613e89565b9060005260206000209060060201905060008590506000611c59836004015442612be0565b60018054908501546040516301786f6360e21b81526004810184905260248101929092526044820152909150600090819073__$4626204449fc70c87ce483fdc6e5c1e6b6$__906305e1bd8c906064016040805180830381865af4158015611cc5573d6000803e3d6000fd5b505050506040513d601f19601f82011682018060405250810190611ce99190613fe7565b915091506000886001600160a01b031663313ce5676040518163ffffffff1660e01b8152600401602060405180830381865afa158015611d2d573d6000803e3d6000fd5b505050506040513d601f19601f82011682018060405250810190611d519190613c41565b905082866001016000828254611d679190613f41565b90915550506001860154851115611db85760405162461bcd60e51b8152602060048201526015602482015274496e76616c696420616d6f756e7420746f2070617960581b6044820152606401610722565b60008160ff1611611ddb5760405162461bcd60e51b815260040161072290613d5f565b6001600160a01b03891660009081526006602052604090205460ff16611e435760405162461bcd60e51b815260206004820181905260248201527f54686520746f6b656e206973206e6f742077686974656c6973746564207965746044820152606401610722565b84866001016000828254611e579190613ce7565b909155505060088054849190600090611e71908490613f41565b9091555050600586015460095415611eba57600954611e9885670de0b6b3a7640000613c7a565b611ea29190613d10565b600a8054600090611eb4908490613f41565b90915550505b866001015460000361203e5786546001898101541115611f7c576001808a0180549091611ee691613ce7565b81548110611ef657611ef6613e89565b9060005260206000209060060201896001018b81548110611f1957611f19613e89565b6000918252602090912082546006909202019081556001808301549082015560028083015490820180546001600160a01b0319166001600160a01b0390921691909117905560038083015490820155600480830154908201556005918201549101555b88600101805480611f8f57611f8f61400b565b600082815260208120600660001990930192830201818155600181018290556002810180546001600160a01b031916905560038101829055600481018290556005018190559155895482918b91611fe7908490613f41565b9091555050604080518d815260ff851660208201529081018390526001600160a01b038c169033907f2f683797ae14900863bd7f5b624167cf9533f58ff4e068fcdc51ea4b45ab8a3e9060600160405180910390a3505b6001600160a01b038a166323b872dd333061205a600387614021565b61206590600a613e7a565b61206f908b613c7a565b6040516001600160e01b031960e086901b1681526001600160a01b03938416600482015292909116602483015260448201526064016020604051808303816000875af11580156120c3573d6000803e3d6000fd5b505050506040513d601f19601f820116820180604052508101906120e79190613d3d565b6121335760405162461bcd60e51b815260206004820152601e60248201527f4572726f72207768696c65207472616e73666572696e672061737365747300006044820152606401610722565b604080518c81526020810186905260ff8416818301526060810183905290516001600160a01b038c169133917f9ce47bcc134ecd272196e2d07a748c33630146263e848d49e2679807b2886aab9181900360800190a35050505050505050505050565b6001600160a01b038316600090815260046020526040812060020180546060926121c08583613d10565b905060006121ce8684613f2d565b11156121e2576121df600182613f41565b90505b808611156122215760405162461bcd60e51b815260206004820152600c60248201526b496e76616c6964207061676560a01b6044820152606401610722565b6000851180156122315750808511155b6122715760405162461bcd60e51b8152602060048201526011602482015270496e76616c696420706167652073697a6560781b6044820152606401610722565b60008561227f600189613ce7565b6122899190613c7a565b905060006122978783613f41565b9050838111156122a45750825b60006122b08383613ce7565b67ffffffffffffffff8111156122c8576122c861380a565b60405190808252806020026020018201604052801561232757816020015b612314604051806080016040528060008152602001600060ff16815260200160608152602001606081525090565b8152602001906001900390816122e65790505b509050825b828110156118a15786818154811061234657612346613e89565b600091825260209182902060408051608081018252600490930290910180548352600181015460ff168385015260028101805483518187028101870185528181529495929493860193928301828280156123c957602002820191906000526020600020905b81546001600160a01b031681526001909101906020018083116123ab575b505050505081526020016003820180548060200260200160405190810160405280929190818152602001828054801561242b57602002820191906000526020600020905b81546001600160a01b0316815260019091019060200180831161240d575b5050505050815250508285836124419190613ce7565b8151811061245157612451613e89565b60200260200101819052508061246690613ebe565b905061232c565b612475613356565b6001600160a01b03811660009081526006602052604090205460ff166124dd5760405162461bcd60e51b815260206004820152601960248201527f546f6b656e206973206e6f7420696e2077686974656c697374000000000000006044820152606401610722565b6000816001600160a01b031663313ce5676040518163ffffffff1660e01b8152600401602060405180830381865afa15801561251d573d6000803e3d6000fd5b505050506040513d601f19601f820116820180604052508101906125419190613c41565b905060008160ff16116125665760405162461bcd60e51b815260040161072290613d5f565b6000600254846125769190613c7a565b6007549091506000036125a857336000908152600460208190526040909120018190556009819055600781905561261c565b6007546009546000916125ba91613d10565b336000908152600460208190526040822001805492935083929091906125e1908490613f41565b9091555050600980548291906000906125fb908490613f41565b909155505060078054839190600090612615908490613f41565b9091555050505b336000908152600460205260408120600301805483929061263e908490613f41565b90915550503360009081526004602090815260408083204260059182015582528083206001600160a01b038716845290915281208054839290612682908490613f41565b90915550506001600160a01b0383166323b872dd33306126a386600a613e7a565b6126ad9089613c7a565b6040516001600160e01b031960e086901b1681526001600160a01b03938416600482015292909116602483015260448201526064016020604051808303816000875af1158015612701573d6000803e3d6000fd5b505050506040513d601f19601f820116820180604052508101906127259190613d3d565b6127715760405162461bcd60e51b815260206004820152601b60248201527f4572726f72207768696c65207472616e7366657220746f6b656e7300000000006044820152606401610722565b6040805185815260ff841660208201526001600160a01b0385169133917f9f9c6451db74dc24ec4ef600603de4a3a11fbe4234eee83200b5469400652c51910160405180910390a350505050565b60006127cd600054336118b1565b61282c5760405162461bcd60e51b815260206004820152602a60248201527f43616c6c6572206973206e6f7420612076616c6964206174746573746174696f60448201526937103932b9b7b63b32b960b11b6064820152608401610722565b6001600160a01b0385166000908152600460205260408120600201805482919061ffff881690811061286057612860613e89565b90600052602060002090600402019050806000015484146128dd5760405162461bcd60e51b815260206004820152603160248201527f546865206174746573746174696f6e20616d6f756e7420646f6573206e6f74206044820152701b585d18da081d1a19481c995c5d595cdd607a1b6064820152608401610722565b8054600282015460005b818160ff16101561294357876001600160a01b0316846002018260ff168154811061291457612914613e89565b6000918252602090912001546001600160a01b03160361293357600194505b61293c81613e9f565b90506128e7565b506003830154600090815b818160ff1610156129b4576003860154156129b457896001600160a01b0316866003018260ff168154811061298557612985613e89565b6000918252602090912001546001600160a01b0316036129a457600196505b6129ad81613e9f565b905061294e565b5085612a025760405162461bcd60e51b815260206004820152601c60248201527f53656e646572206973206e6f7420612076616c6964207369676e6572000000006044820152606401610722565b8115612a485760405162461bcd60e51b815260206004820152601560248201527414d95b99195c881a185cc81cda59db9959081e595d605a1b6044820152606401610722565b6003850180546001808201835560009283526020832090910180546001600160a01b0319166001600160a01b038d16179055808701805491929091612a9190849060ff1661403a565b82546101009290920a60ff8181021990931691831602179091556001870154166003039050612b3b576001600160a01b038b1660009081526004602052604081208054869290612ae2908490613f41565b90915550506001600160a01b038b811660008181526004602090815260409182902054915191825291928c16917f986757b5f72e5258de572c036a9155b7f6fce0df14ffd1fa633617f668137a39910160405180910390a35b8a6001600160a01b03168a61ffff168a6001600160a01b03167fea585988944829641b25be2de9e0a1256c383fac005bb8f3ebe5cd09b50d7c748860000154604051612b8991815260200190565b60405180910390a45060019a9950505050505050505050565b612baa613004565b6001600160a01b038116612bd457604051631e4fbdf760e01b815260006004820152602401610722565b612bdd816133f9565b50565b600082821015612c505760405162461bcd60e51b815260206004820152603560248201527f46696e6973682074696d657374616d70206d75737420626520677265617465726044820152740207468616e2073746172742074696d657374616d7605c1b6064820152608401610722565b6000612c5c8484613ce7565b90506000612c6d6201518083613d10565b95945050505050565b600060025485612c869190613c7a565b336000908152600460205260409020909150612ca383600a613e7a565b612cad9087613c7a565b6040516370a0823160e01b81523060048201526001600160a01b038616906370a0823190602401602060405180830381865afa158015612cf1573d6000803e3d6000fd5b505050506040513d601f19601f82011682018060405250810190612d159190613d24565b1015612d5a5760405162461bcd60e51b8152602060048201526014602482015273496e7375666963656e74206c697175696469747960601b6044820152606401610722565b60008360ff1611612d7d5760405162461bcd60e51b815260040161072290613d5f565b60008611612dd85760405162461bcd60e51b815260206004820152602260248201527f54686520616d6f756e74206d757374206265206772656174686572207468616e604482015261020360f41b6064820152608401610722565b6001600160a01b03841660009081526006602052604090205460ff16612e405760405162461bcd60e51b815260206004820181905260248201527f54686520746f6b656e206973206e6f742077686974656c6973746564207965746044820152606401610722565b8181600301541015612e855760405162461bcd60e51b815260206004820152600e60248201526d125b9d985b1a5908185b5bdd5b9d60921b6044820152606401610722565b81816003016000828254612e999190613ce7565b909155505060078054839190600090612eb3908490613ce7565b90915550506001600160a01b03841663a9059cbb33612ed3600387614021565b612ede90600a613e7a565b612ee88987613f41565b612ef29190613c7a565b6040516001600160e01b031960e085901b1681526001600160a01b03909216600483015260248201526044016020604051808303816000875af1158015612f3d573d6000803e3d6000fd5b505050506040513d601f19601f82011682018060405250810190612f619190613d3d565b612fad5760405162461bcd60e51b815260206004820152601d60248201527f4661696c6564207768656e207769746864726177696e672066756e64730000006044820152606401610722565b604080518781526020810187905260ff85168183015290516001600160a01b0386169133917f04ccd5830047404934ff21145531b3e4edbc2a057f1e3b73e37e6810aaad80c49181900360600190a3505050505050565b336130367f9016d09d72d40fdae2fd8ceac6b6234c7706214fd39c1cd1e609a0528c199300546001600160a01b031690565b6001600160a01b03161461120b5760405163118cdaa760e01b8152336004820152602401610722565b612bdd813361346a565b600060008051602061409083398151915261308484846118b1565b613104576000848152602082815260408083206001600160a01b03871684529091529020805460ff191660011790556130ba3390565b6001600160a01b0316836001600160a01b0316857f2f8788117e7eff1d82e926ec794901d17c78024a50270940304540a733656f0d60405160405180910390a4600191505061090d565b600091505061090d565b600060008051602061409083398151915261312984846118b1565b15613104576000848152602082815260408083206001600160a01b0387168085529252808320805460ff1916905551339287917ff6391f5c32d9c69d2a47ea670b442974b53935d1edc7fd64eb21e047a839171b9190a4600191505061090d565b6131926134a3565b612bdd816134ec565b61120b6134a3565b306001600160a01b037f000000000000000000000000000000000000000000000000000000000000000016148061322a57507f00000000000000000000000000000000000000000000000000000000000000006001600160a01b031661321e600080516020614070833981519152546001600160a01b031690565b6001600160a01b031614155b1561120b5760405163703e46dd60e11b815260040160405180910390fd5b612bdd613004565b816001600160a01b03166352d1902d6040518163ffffffff1660e01b8152600401602060405180830381865afa9250505080156132aa575060408051601f3d908101601f191682019092526132a791810190613d24565b60015b6132d257604051634c9c8ce360e01b81526001600160a01b0383166004820152602401610722565b600080516020614070833981519152811461330357604051632a87526960e21b815260048101829052602401610722565b61099783836134f4565b306001600160a01b037f0000000000000000000000000000000000000000000000000000000000000000161461120b5760405163703e46dd60e11b815260040160405180910390fd5b7fcd5ed15c6e187e77e9aee88184c21f4f2182ab5827cb3b7e07fbedcd63f033005460ff161561120b5760405163d93c066560e01b815260040160405180910390fd5b60008044426003546040516020016133c4939291909283526020830191909152604082015260600190565b60408051601f1981840301815291905280516020909101206003805491925060006133ee83613ebe565b909155509092915050565b7f9016d09d72d40fdae2fd8ceac6b6234c7706214fd39c1cd1e609a0528c19930080546001600160a01b031981166001600160a01b03848116918217845560405192169182907f8be0079c531659141344cd1fd0a4f28419497f9722a3daafe3b4186f6b6457e090600090a3505050565b61347482826118b1565b610b7b5760405163e2517d3f60e01b81526001600160a01b038216600482015260248101839052604401610722565b7ff0c57e16840df040f15088dc2f81fe391c3923bec73e23a9662efc9c229c6a0054600160401b900460ff1661120b57604051631afcd79f60e31b815260040160405180910390fd5b612baa6134a3565b6134fd8261354a565b6040516001600160a01b038316907fbc7cd75a20ee27fd9adebab32041f755214dbc6bffa90cc0225b39da2e5c2d3b90600090a28051156135425761099782826135af565b610b7b61361c565b806001600160a01b03163b60000361358057604051634c9c8ce360e01b81526001600160a01b0382166004820152602401610722565b60008051602061407083398151915280546001600160a01b0319166001600160a01b0392909216919091179055565b6060600080846001600160a01b0316846040516135cc9190614053565b600060405180830381855af49150503d8060008114613607576040519150601f19603f3d011682016040523d82523d6000602084013e61360c565b606091505b5091509150612c6d85838361363b565b341561120b5760405163b398979f60e01b815260040160405180910390fd5b6060826136505761364b82613697565b6118aa565b815115801561366757506001600160a01b0384163b155b1561369057604051639996b31560e01b81526001600160a01b0385166004820152602401610722565b50806118aa565b8051156136a75780518082602001fd5b604051630a12f52160e11b815260040160405180910390fd5b828054828255906000526020600020908101928215613715579160200282015b8281111561371557825182546001600160a01b0319166001600160a01b039091161782556020909201916001909101906136e0565b50613721929150613725565b5090565b5b808211156137215760008155600101613726565b80356001600160a01b038116811461375157600080fd5b919050565b6000806040838503121561376957600080fd5b823591506137796020840161373a565b90509250929050565b60006020828403121561379457600080fd5b81356001600160e01b0319811681146118aa57600080fd5b6000602082840312156137be57600080fd5b5035919050565b6000602082840312156137d757600080fd5b6118aa8261373a565b600080604083850312156137f357600080fd5b6137fc8361373a565b91506137796020840161373a565b634e487b7160e01b600052604160045260246000fd5b604051601f8201601f1916810167ffffffffffffffff811182821017156138495761384961380a565b604052919050565b600067ffffffffffffffff82111561386b5761386b61380a565b50601f01601f191660200190565b6000806040838503121561388c57600080fd5b6138958361373a565b9150602083013567ffffffffffffffff8111156138b157600080fd5b8301601f810185136138c257600080fd5b80356138d56138d082613851565b613820565b8181528660208385010111156138ea57600080fd5b816020840160208301376000602083830101528093505050509250929050565b6000806040838503121561391d57600080fd5b6139268361373a565b946020939093013593505050565b60008060006060848603121561394957600080fd5b833592506139596020850161373a565b9150604084013590509250925092565b6000806000806060858703121561397f57600080fd5b6139888561373a565b935060208501359250604085013567ffffffffffffffff808211156139ac57600080fd5b818701915087601f8301126139c057600080fd5b8135818111156139cf57600080fd5b8860208260051b85010111156139e457600080fd5b95989497505060200194505050565b600080600060608486031215613a0857600080fd5b613a118461373a565b95602085013595506040909401359392505050565b602080825282518282018190526000919060409081850190868401855b82811015613a9a578151805185528681015187860152858101516001600160a01b031686860152606080820151908601526080808201519086015260a0908101519085015260c09093019290850190600101613a43565b5091979650505050505050565b60005b83811015613ac2578181015183820152602001613aaa565b50506000910152565b60008151808452613ae3816020860160208601613aa7565b601f01601f19169290920160200192915050565b6020815260006118aa6020830184613acb565b600081518084526020808501945080840160005b83811015613b435781516001600160a01b031687529582019590820190600101613b1e565b509495945050505050565b60006020808301818452808551808352604092508286019150828160051b87010184880160005b83811015613bdf57603f19898403018552815160808151855260ff898301511689860152878201518189870152613bae82870182613b0a565b91505060608083015192508582038187015250613bcb8183613b0a565b968901969450505090860190600101613b75565b509098975050505050505050565b60008060008060808587031215613c0357600080fd5b613c0c8561373a565b9350602085013561ffff81168114613c2357600080fd5b9250613c316040860161373a565b9396929550929360600135925050565b600060208284031215613c5357600080fd5b815160ff811681146118aa57600080fd5b634e487b7160e01b600052601160045260246000fd5b808202811582820484141761090d5761090d613c64565b60208082526036908201527f5468652075736572206d7573742077616974206174206c6561737420313830206040820152756461797320746f2077697468647261772066756e647360501b606082015260800190565b8181038181111561090d5761090d613c64565b634e487b7160e01b600052601260045260246000fd5b600082613d1f57613d1f613cfa565b500490565b600060208284031215613d3657600080fd5b5051919050565b600060208284031215613d4f57600080fd5b815180151581146118aa57600080fd5b6020808252601e908201527f4572726f72207768696c65206f627461696e696e6720646563696d616c730000604082015260600190565b600181815b80851115613dd1578160001904821115613db757613db7613c64565b80851615613dc457918102915b93841c9390800290613d9b565b509250929050565b600082613de85750600161090d565b81613df55750600061090d565b8160018114613e0b5760028114613e1557613e31565b600191505061090d565b60ff841115613e2657613e26613c64565b50506001821b61090d565b5060208310610133831016604e8410600b8410161715613e54575081810a61090d565b613e5e8383613d96565b8060001904821115613e7257613e72613c64565b029392505050565b60006118aa60ff841683613dd9565b634e487b7160e01b600052603260045260246000fd5b600060ff821660ff8103613eb557613eb5613c64565b60010192915050565b600060018201613ed057613ed0613c64565b5060010190565b83815260406020808301829052908201839052600090849060608401835b86811015613f21576001600160a01b03613f0e8561373a565b1682529282019290820190600101613ef5565b50979650505050505050565b600082613f3c57613f3c613cfa565b500690565b8082018082111561090d5761090d613c64565b600060208284031215613f6657600080fd5b815167ffffffffffffffff811115613f7d57600080fd5b8201601f81018413613f8e57600080fd5b8051613f9c6138d082613851565b818152856020838501011115613fb157600080fd5b612c6d826020830160208601613aa7565b604081526000613fd56040830185613acb565b8281036020840152612c6d8185613acb565b60008060408385031215613ffa57600080fd5b505080516020909101519092909150565b634e487b7160e01b600052603160045260246000fd5b60ff828116828216039081111561090d5761090d613c64565b60ff818116838216019081111561090d5761090d613c64565b60008251614065818460208701613aa7565b919091019291505056fe360894a13ba1a3210667c828492db98dca3e2076cc3735a920a3ca505d382bbc02dd7bc7dec4dceedda775e58dd541e08a116c6c53815c0bd028192f7b626800a26469706673582212208d8132e708ba73651a620ab812ba6c72c5c511f71dd8225d10ededc3da928fc064736f6c63430008140033",
  "linkReferences": {
    "library/LendManagerUtils.sol": {
      "Utils": [
        {
          "length": 20,
          "start": 7370
        }
      ]
    }
  },
  "deployedLinkReferences": {
    "library/LendManagerUtils.sol": {
      "Utils": [
        {
          "length": 20,
          "start": 7308
        }
      ]
    }
  }
}