{
  "_format": "hh-sol-artifact-1",
  "contractName": "Utils",
  "sourceName": "library/LendManagerUtils.sol",
  "abi": [
    {
      "inputs": [
        {
          "internalType": "uint256",
          "name": "time",
          "type": "uint256"
        },
        {
          "internalType": "uint256",
          "name": "interestAccrualRate",
          "type": "uint256"
        },
        {
          "internalType": "uint256",
          "name": "currentAmount",
          "type": "uint256"
        }
      ],
      "name": "calculateInterest",
      "outputs": [
        {
          "internalType": "uint256",
          "name": "",
          "type": "uint256"
        },
        {
          "internalType": "uint256",
          "name": "",
          "type": "uint256"
        }
      ],
      "stateMutability": "pure",
      "type": "function"
    }
  ],
  "bytecode": "0x6101f961003a600b82828239805160001a60731461002d57634e487b7160e01b600052600060045260246000fd5b30600052607381538281f3fe73000000000000000000000000000000000000000030146080604052600436106100355760003560e01c806305e1bd8c1461003a575b600080fd5b61004d610048366004610103565b610066565b6040805192835260208301919091520160405180910390f35b60008080610078846305f5e100610145565b905060005b868110156100bc576305f5e1006100948782610162565b61009e9084610145565b6100a89190610175565b9150806100b481610197565b91505061007d565b5060006100cd856305f5e100610145565b6100d790836101b0565b90506100e76305f5e10082610175565b6100f56305f5e10084610175565b935093505050935093915050565b60008060006060848603121561011857600080fd5b505081359360208301359350604090920135919050565b634e487b7160e01b600052601160045260246000fd5b808202811582820484141761015c5761015c61012f565b92915050565b8082018082111561015c5761015c61012f565b60008261019257634e487b7160e01b600052601260045260246000fd5b500490565b6000600182016101a9576101a961012f565b5060010190565b8181038181111561015c5761015c61012f56fea2646970667358221220d417f565133e56be82ad9beeb12e6e83a4bf94ae56b9b98279680546c45d345464736f6c63430008140033",
  "linkReferences": {},
  "deployedLinkReferences": {}
}